{
	"contracts/ccip/Vault.sol": {
		"Vault": {
			"abi": [
				{
					"inputs": [
						{
							"internalType": "address",
							"name": "to",
							"type": "address"
						},
						{
							"internalType": "uint256",
							"name": "amount",
							"type": "uint256"
						}
					],
					"name": "Vault__FailedToDeposit",
					"type": "error"
				},
				{
					"inputs": [
						{
							"internalType": "address",
							"name": "to",
							"type": "address"
						},
						{
							"internalType": "uint256",
							"name": "amount",
							"type": "uint256"
						}
					],
					"name": "Vault__FailedToTransfer",
					"type": "error"
				},
				{
					"inputs": [
						{
							"internalType": "uint256",
							"name": "currentBalance",
							"type": "uint256"
						},
						{
							"internalType": "uint256",
							"name": "requiredAmount",
							"type": "uint256"
						}
					],
					"name": "Vault__InsufficientBalance",
					"type": "error"
				},
				{
					"anonymous": false,
					"inputs": [
						{
							"indexed": true,
							"internalType": "address",
							"name": "account",
							"type": "address"
						},
						{
							"indexed": false,
							"internalType": "uint256",
							"name": "amount",
							"type": "uint256"
						}
					],
					"name": "Deposit",
					"type": "event"
				},
				{
					"anonymous": false,
					"inputs": [
						{
							"indexed": true,
							"internalType": "address",
							"name": "account",
							"type": "address"
						},
						{
							"indexed": false,
							"internalType": "uint256",
							"name": "amount",
							"type": "uint256"
						}
					],
					"name": "Withdraw",
					"type": "event"
				},
				{
					"inputs": [],
					"name": "USDC",
					"outputs": [
						{
							"internalType": "contract IERC20",
							"name": "",
							"type": "address"
						}
					],
					"stateMutability": "view",
					"type": "function"
				},
				{
					"inputs": [
						{
							"internalType": "address",
							"name": "",
							"type": "address"
						}
					],
					"name": "balances",
					"outputs": [
						{
							"internalType": "uint256",
							"name": "",
							"type": "uint256"
						}
					],
					"stateMutability": "view",
					"type": "function"
				},
				{
					"inputs": [
						{
							"internalType": "address",
							"name": "account",
							"type": "address"
						},
						{
							"internalType": "uint256",
							"name": "amount",
							"type": "uint256"
						}
					],
					"name": "deposit",
					"outputs": [],
					"stateMutability": "nonpayable",
					"type": "function"
				},
				{
					"inputs": [
						{
							"internalType": "uint256",
							"name": "amount",
							"type": "uint256"
						}
					],
					"name": "withdraw",
					"outputs": [],
					"stateMutability": "nonpayable",
					"type": "function"
				}
			],
			"devdoc": {
				"kind": "dev",
				"methods": {},
				"version": 1
			},
			"evm": {
				"assembly": "    /* \"contracts/ccip/Vault.sol\":188:1325  contract Vault {... */\n  mstore(0x40, 0x80)\n  callvalue\n  dup1\n  iszero\n  tag_1\n  jumpi\n  revert(0x00, 0x00)\ntag_1:\n  pop\n  dataSize(sub_0)\n  dup1\n  dataOffset(sub_0)\n  0x00\n  codecopy\n  0x00\n  return\nstop\n\nsub_0: assembly {\n        /* \"contracts/ccip/Vault.sol\":188:1325  contract Vault {... */\n      mstore(0x40, 0x80)\n      callvalue\n      dup1\n      iszero\n      tag_1\n      jumpi\n      revert(0x00, 0x00)\n    tag_1:\n      pop\n      jumpi(tag_2, lt(calldatasize, 0x04))\n      shr(0xe0, calldataload(0x00))\n      dup1\n      0x27e235e3\n      eq\n      tag_3\n      jumpi\n      dup1\n      0x2e1a7d4d\n      eq\n      tag_4\n      jumpi\n      dup1\n      0x47e7ef24\n      eq\n      tag_5\n      jumpi\n      dup1\n      0x89a30271\n      eq\n      tag_6\n      jumpi\n    tag_2:\n      revert(0x00, 0x00)\n        /* \"contracts/ccip/Vault.sol\":330:373  mapping(address => uint256) public balances */\n    tag_3:\n      tag_7\n      0x04\n      dup1\n      calldatasize\n      sub\n      dup2\n      add\n      swap1\n      tag_8\n      swap2\n      swap1\n      tag_9\n      jump\t// in\n    tag_8:\n      tag_10\n      jump\t// in\n    tag_7:\n      mload(0x40)\n      tag_11\n      swap2\n      swap1\n      tag_12\n      jump\t// in\n    tag_11:\n      mload(0x40)\n      dup1\n      swap2\n      sub\n      swap1\n      return\n        /* \"contracts/ccip/Vault.sol\":1016:1323  function withdraw(uint256 amount) external {... */\n    tag_4:\n      tag_13\n      0x04\n      dup1\n      calldatasize\n      sub\n      dup2\n      add\n      swap1\n      tag_14\n      swap2\n      swap1\n      tag_15\n      jump\t// in\n    tag_14:\n      tag_16\n      jump\t// in\n    tag_13:\n      stop\n        /* \"contracts/ccip/Vault.sol\":809:1010  function deposit(address account, uint256 amount) external {... */\n    tag_5:\n      tag_17\n      0x04\n      dup1\n      calldatasize\n      sub\n      dup2\n      add\n      swap1\n      tag_18\n      swap2\n      swap1\n      tag_19\n      jump\t// in\n    tag_18:\n      tag_20\n      jump\t// in\n    tag_17:\n      stop\n        /* \"contracts/ccip/Vault.sol\":243:323  IERC20 public constant USDC = IERC20(0x036CbD53842c5426634e7929541eC2318f3dCF7e) */\n    tag_6:\n      tag_21\n      tag_22\n      jump\t// in\n    tag_21:\n      mload(0x40)\n      tag_23\n      swap2\n      swap1\n      tag_24\n      jump\t// in\n    tag_23:\n      mload(0x40)\n      dup1\n      swap2\n      sub\n      swap1\n      return\n        /* \"contracts/ccip/Vault.sol\":330:373  mapping(address => uint256) public balances */\n    tag_10:\n      mstore(0x20, 0x00)\n      dup1\n      0x00\n      mstore\n      keccak256(0x00, 0x40)\n      0x00\n      swap2\n      pop\n      swap1\n      pop\n      sload\n      dup2\n      jump\t// out\n        /* \"contracts/ccip/Vault.sol\":1016:1323  function withdraw(uint256 amount) external {... */\n    tag_16:\n        /* \"contracts/ccip/Vault.sol\":1095:1101  amount */\n      dup1\n        /* \"contracts/ccip/Vault.sol\":1072:1080  balances */\n      0x00\n        /* \"contracts/ccip/Vault.sol\":1072:1092  balances[msg.sender] */\n      0x00\n        /* \"contracts/ccip/Vault.sol\":1081:1091  msg.sender */\n      caller\n        /* \"contracts/ccip/Vault.sol\":1072:1092  balances[msg.sender] */\n      0xffffffffffffffffffffffffffffffffffffffff\n      and\n      0xffffffffffffffffffffffffffffffffffffffff\n      and\n      dup2\n      mstore\n      0x20\n      add\n      swap1\n      dup2\n      mstore\n      0x20\n      add\n      0x00\n      keccak256\n      sload\n        /* \"contracts/ccip/Vault.sol\":1072:1101  balances[msg.sender] < amount */\n      lt\n        /* \"contracts/ccip/Vault.sol\":1069:1191  if(balances[msg.sender] < amount) {... */\n      iszero\n      tag_26\n      jumpi\n        /* \"contracts/ccip/Vault.sol\":1151:1159  balances */\n      0x00\n        /* \"contracts/ccip/Vault.sol\":1151:1171  balances[msg.sender] */\n      0x00\n        /* \"contracts/ccip/Vault.sol\":1160:1170  msg.sender */\n      caller\n        /* \"contracts/ccip/Vault.sol\":1151:1171  balances[msg.sender] */\n      0xffffffffffffffffffffffffffffffffffffffff\n      and\n      0xffffffffffffffffffffffffffffffffffffffff\n      and\n      dup2\n      mstore\n      0x20\n      add\n      swap1\n      dup2\n      mstore\n      0x20\n      add\n      0x00\n      keccak256\n      sload\n        /* \"contracts/ccip/Vault.sol\":1173:1179  amount */\n      dup2\n        /* \"contracts/ccip/Vault.sol\":1124:1180  Vault__InsufficientBalance(balances[msg.sender], amount) */\n      mload(0x40)\n      0xa78037b600000000000000000000000000000000000000000000000000000000\n      dup2\n      mstore\n      0x04\n      add\n      tag_27\n      swap3\n      swap2\n      swap1\n      tag_28\n      jump\t// in\n    tag_27:\n      mload(0x40)\n      dup1\n      swap2\n      sub\n      swap1\n      revert\n        /* \"contracts/ccip/Vault.sol\":1069:1191  if(balances[msg.sender] < amount) {... */\n    tag_26:\n        /* \"contracts/ccip/Vault.sol\":1224:1230  amount */\n      dup1\n        /* \"contracts/ccip/Vault.sol\":1200:1208  balances */\n      0x00\n        /* \"contracts/ccip/Vault.sol\":1200:1220  balances[msg.sender] */\n      0x00\n        /* \"contracts/ccip/Vault.sol\":1209:1219  msg.sender */\n      caller\n        /* \"contracts/ccip/Vault.sol\":1200:1220  balances[msg.sender] */\n      0xffffffffffffffffffffffffffffffffffffffff\n      and\n      0xffffffffffffffffffffffffffffffffffffffff\n      and\n      dup2\n      mstore\n      0x20\n      add\n      swap1\n      dup2\n      mstore\n      0x20\n      add\n      0x00\n      keccak256\n      0x00\n        /* \"contracts/ccip/Vault.sol\":1200:1230  balances[msg.sender] -= amount */\n      dup3\n      dup3\n      sload\n      tag_29\n      swap2\n      swap1\n      tag_30\n      jump\t// in\n    tag_29:\n      swap3\n      pop\n      pop\n      dup2\n      swap1\n      sstore\n      pop\n        /* \"contracts/ccip/Vault.sol\":280:322  0x036CbD53842c5426634e7929541eC2318f3dCF7e */\n      0x036cbd53842c5426634e7929541ec2318f3dcf7e\n        /* \"contracts/ccip/Vault.sol\":1240:1253  USDC.transfer */\n      0xffffffffffffffffffffffffffffffffffffffff\n      and\n      0xa9059cbb\n        /* \"contracts/ccip/Vault.sol\":1254:1264  msg.sender */\n      caller\n        /* \"contracts/ccip/Vault.sol\":1266:1272  amount */\n      dup4\n        /* \"contracts/ccip/Vault.sol\":1240:1273  USDC.transfer(msg.sender, amount) */\n      mload(0x40)\n      dup4\n      0xffffffff\n      and\n      0xe0\n      shl\n      dup2\n      mstore\n      0x04\n      add\n      tag_31\n      swap3\n      swap2\n      swap1\n      tag_32\n      jump\t// in\n    tag_31:\n      0x20\n      mload(0x40)\n      dup1\n      dup4\n      sub\n      dup2\n      0x00\n      dup8\n      gas\n      call\n      iszero\n      dup1\n      iszero\n      tag_34\n      jumpi\n      returndatacopy(0x00, 0x00, returndatasize)\n      revert(0x00, returndatasize)\n    tag_34:\n      pop\n      pop\n      pop\n      pop\n      mload(0x40)\n      returndatasize\n      not(0x1f)\n      0x1f\n      dup3\n      add\n      and\n      dup3\n      add\n      dup1\n      0x40\n      mstore\n      pop\n      dup2\n      add\n      swap1\n      tag_35\n      swap2\n      swap1\n      tag_36\n      jump\t// in\n    tag_35:\n      pop\n        /* \"contracts/ccip/Vault.sol\":1297:1307  msg.sender */\n      caller\n        /* \"contracts/ccip/Vault.sol\":1288:1316  Withdraw(msg.sender, amount) */\n      0xffffffffffffffffffffffffffffffffffffffff\n      and\n      0x884edad9ce6fa2440d8a54cc123490eb96d2768479d49ff9c7366125a9424364\n        /* \"contracts/ccip/Vault.sol\":1309:1315  amount */\n      dup3\n        /* \"contracts/ccip/Vault.sol\":1288:1316  Withdraw(msg.sender, amount) */\n      mload(0x40)\n      tag_37\n      swap2\n      swap1\n      tag_12\n      jump\t// in\n    tag_37:\n      mload(0x40)\n      dup1\n      swap2\n      sub\n      swap1\n      log2\n        /* \"contracts/ccip/Vault.sol\":1016:1323  function withdraw(uint256 amount) external {... */\n      pop\n      jump\t// out\n        /* \"contracts/ccip/Vault.sol\":809:1010  function deposit(address account, uint256 amount) external {... */\n    tag_20:\n        /* \"contracts/ccip/Vault.sol\":899:905  amount */\n      dup1\n        /* \"contracts/ccip/Vault.sol\":878:886  balances */\n      0x00\n        /* \"contracts/ccip/Vault.sol\":878:895  balances[account] */\n      0x00\n        /* \"contracts/ccip/Vault.sol\":887:894  account */\n      dup5\n        /* \"contracts/ccip/Vault.sol\":878:895  balances[account] */\n      0xffffffffffffffffffffffffffffffffffffffff\n      and\n      0xffffffffffffffffffffffffffffffffffffffff\n      and\n      dup2\n      mstore\n      0x20\n      add\n      swap1\n      dup2\n      mstore\n      0x20\n      add\n      0x00\n      keccak256\n      0x00\n        /* \"contracts/ccip/Vault.sol\":878:905  balances[account] += amount */\n      dup3\n      dup3\n      sload\n      tag_39\n      swap2\n      swap1\n      tag_40\n      jump\t// in\n    tag_39:\n      swap3\n      pop\n      pop\n      dup2\n      swap1\n      sstore\n      pop\n        /* \"contracts/ccip/Vault.sol\":280:322  0x036CbD53842c5426634e7929541eC2318f3dCF7e */\n      0x036cbd53842c5426634e7929541ec2318f3dcf7e\n        /* \"contracts/ccip/Vault.sol\":915:932  USDC.transferFrom */\n      0xffffffffffffffffffffffffffffffffffffffff\n      and\n      0x23b872dd\n        /* \"contracts/ccip/Vault.sol\":933:940  account */\n      dup4\n        /* \"contracts/ccip/Vault.sol\":950:954  this */\n      address\n        /* \"contracts/ccip/Vault.sol\":957:963  amount */\n      dup5\n        /* \"contracts/ccip/Vault.sol\":915:964  USDC.transferFrom(account, address(this), amount) */\n      mload(0x40)\n      dup5\n      0xffffffff\n      and\n      0xe0\n      shl\n      dup2\n      mstore\n      0x04\n      add\n      tag_41\n      swap4\n      swap3\n      swap2\n      swap1\n      tag_42\n      jump\t// in\n    tag_41:\n      0x20\n      mload(0x40)\n      dup1\n      dup4\n      sub\n      dup2\n      0x00\n      dup8\n      gas\n      call\n      iszero\n      dup1\n      iszero\n      tag_44\n      jumpi\n      returndatacopy(0x00, 0x00, returndatasize)\n      revert(0x00, returndatasize)\n    tag_44:\n      pop\n      pop\n      pop\n      pop\n      mload(0x40)\n      returndatasize\n      not(0x1f)\n      0x1f\n      dup3\n      add\n      and\n      dup3\n      add\n      dup1\n      0x40\n      mstore\n      pop\n      dup2\n      add\n      swap1\n      tag_45\n      swap2\n      swap1\n      tag_36\n      jump\t// in\n    tag_45:\n      pop\n        /* \"contracts/ccip/Vault.sol\":987:994  account */\n      dup2\n        /* \"contracts/ccip/Vault.sol\":979:1003  Deposit(account, amount) */\n      0xffffffffffffffffffffffffffffffffffffffff\n      and\n      0xe1fffcc4923d04b559f4d29a8bfc6cda04eb5b0d3c460751c2402c5c5cc9109c\n        /* \"contracts/ccip/Vault.sol\":996:1002  amount */\n      dup3\n        /* \"contracts/ccip/Vault.sol\":979:1003  Deposit(account, amount) */\n      mload(0x40)\n      tag_46\n      swap2\n      swap1\n      tag_12\n      jump\t// in\n    tag_46:\n      mload(0x40)\n      dup1\n      swap2\n      sub\n      swap1\n      log2\n        /* \"contracts/ccip/Vault.sol\":809:1010  function deposit(address account, uint256 amount) external {... */\n      pop\n      pop\n      jump\t// out\n        /* \"contracts/ccip/Vault.sol\":243:323  IERC20 public constant USDC = IERC20(0x036CbD53842c5426634e7929541eC2318f3dCF7e) */\n    tag_22:\n        /* \"contracts/ccip/Vault.sol\":280:322  0x036CbD53842c5426634e7929541eC2318f3dCF7e */\n      0x036cbd53842c5426634e7929541ec2318f3dcf7e\n        /* \"contracts/ccip/Vault.sol\":243:323  IERC20 public constant USDC = IERC20(0x036CbD53842c5426634e7929541eC2318f3dCF7e) */\n      dup2\n      jump\t// out\n        /* \"#utility.yul\":88:205   */\n    tag_48:\n        /* \"#utility.yul\":197:198   */\n      0x00\n        /* \"#utility.yul\":194:195   */\n      0x00\n        /* \"#utility.yul\":187:199   */\n      revert\n        /* \"#utility.yul\":334:460   */\n    tag_50:\n        /* \"#utility.yul\":371:378   */\n      0x00\n        /* \"#utility.yul\":411:453   */\n      0xffffffffffffffffffffffffffffffffffffffff\n        /* \"#utility.yul\":404:409   */\n      dup3\n        /* \"#utility.yul\":400:454   */\n      and\n        /* \"#utility.yul\":389:454   */\n      swap1\n      pop\n        /* \"#utility.yul\":334:460   */\n      swap2\n      swap1\n      pop\n      jump\t// out\n        /* \"#utility.yul\":466:562   */\n    tag_51:\n        /* \"#utility.yul\":503:510   */\n      0x00\n        /* \"#utility.yul\":532:556   */\n      tag_74\n        /* \"#utility.yul\":550:555   */\n      dup3\n        /* \"#utility.yul\":532:556   */\n      tag_50\n      jump\t// in\n    tag_74:\n        /* \"#utility.yul\":521:556   */\n      swap1\n      pop\n        /* \"#utility.yul\":466:562   */\n      swap2\n      swap1\n      pop\n      jump\t// out\n        /* \"#utility.yul\":568:690   */\n    tag_52:\n        /* \"#utility.yul\":641:665   */\n      tag_76\n        /* \"#utility.yul\":659:664   */\n      dup2\n        /* \"#utility.yul\":641:665   */\n      tag_51\n      jump\t// in\n    tag_76:\n        /* \"#utility.yul\":634:639   */\n      dup2\n        /* \"#utility.yul\":631:666   */\n      eq\n        /* \"#utility.yul\":621:684   */\n      tag_77\n      jumpi\n        /* \"#utility.yul\":680:681   */\n      0x00\n        /* \"#utility.yul\":677:678   */\n      0x00\n        /* \"#utility.yul\":670:682   */\n      revert\n        /* \"#utility.yul\":621:684   */\n    tag_77:\n        /* \"#utility.yul\":568:690   */\n      pop\n      jump\t// out\n        /* \"#utility.yul\":696:835   */\n    tag_53:\n        /* \"#utility.yul\":742:747   */\n      0x00\n        /* \"#utility.yul\":780:786   */\n      dup2\n        /* \"#utility.yul\":767:787   */\n      calldataload\n        /* \"#utility.yul\":758:787   */\n      swap1\n      pop\n        /* \"#utility.yul\":796:829   */\n      tag_79\n        /* \"#utility.yul\":823:828   */\n      dup2\n        /* \"#utility.yul\":796:829   */\n      tag_52\n      jump\t// in\n    tag_79:\n        /* \"#utility.yul\":696:835   */\n      swap3\n      swap2\n      pop\n      pop\n      jump\t// out\n        /* \"#utility.yul\":841:1170   */\n    tag_9:\n        /* \"#utility.yul\":900:906   */\n      0x00\n        /* \"#utility.yul\":949:951   */\n      0x20\n        /* \"#utility.yul\":937:946   */\n      dup3\n        /* \"#utility.yul\":928:935   */\n      dup5\n        /* \"#utility.yul\":924:947   */\n      sub\n        /* \"#utility.yul\":920:952   */\n      slt\n        /* \"#utility.yul\":917:1036   */\n      iszero\n      tag_81\n      jumpi\n        /* \"#utility.yul\":955:1034   */\n      tag_82\n      tag_48\n      jump\t// in\n    tag_82:\n        /* \"#utility.yul\":917:1036   */\n    tag_81:\n        /* \"#utility.yul\":1075:1076   */\n      0x00\n        /* \"#utility.yul\":1100:1153   */\n      tag_83\n        /* \"#utility.yul\":1145:1152   */\n      dup5\n        /* \"#utility.yul\":1136:1142   */\n      dup3\n        /* \"#utility.yul\":1125:1134   */\n      dup6\n        /* \"#utility.yul\":1121:1143   */\n      add\n        /* \"#utility.yul\":1100:1153   */\n      tag_53\n      jump\t// in\n    tag_83:\n        /* \"#utility.yul\":1090:1153   */\n      swap2\n      pop\n        /* \"#utility.yul\":1046:1163   */\n      pop\n        /* \"#utility.yul\":841:1170   */\n      swap3\n      swap2\n      pop\n      pop\n      jump\t// out\n        /* \"#utility.yul\":1176:1253   */\n    tag_54:\n        /* \"#utility.yul\":1213:1220   */\n      0x00\n        /* \"#utility.yul\":1242:1247   */\n      dup2\n        /* \"#utility.yul\":1231:1247   */\n      swap1\n      pop\n        /* \"#utility.yul\":1176:1253   */\n      swap2\n      swap1\n      pop\n      jump\t// out\n        /* \"#utility.yul\":1259:1377   */\n    tag_55:\n        /* \"#utility.yul\":1346:1370   */\n      tag_86\n        /* \"#utility.yul\":1364:1369   */\n      dup2\n        /* \"#utility.yul\":1346:1370   */\n      tag_54\n      jump\t// in\n    tag_86:\n        /* \"#utility.yul\":1341:1344   */\n      dup3\n        /* \"#utility.yul\":1334:1371   */\n      mstore\n        /* \"#utility.yul\":1259:1377   */\n      pop\n      pop\n      jump\t// out\n        /* \"#utility.yul\":1383:1605   */\n    tag_12:\n        /* \"#utility.yul\":1476:1480   */\n      0x00\n        /* \"#utility.yul\":1514:1516   */\n      0x20\n        /* \"#utility.yul\":1503:1512   */\n      dup3\n        /* \"#utility.yul\":1499:1517   */\n      add\n        /* \"#utility.yul\":1491:1517   */\n      swap1\n      pop\n        /* \"#utility.yul\":1527:1598   */\n      tag_88\n        /* \"#utility.yul\":1595:1596   */\n      0x00\n        /* \"#utility.yul\":1584:1593   */\n      dup4\n        /* \"#utility.yul\":1580:1597   */\n      add\n        /* \"#utility.yul\":1571:1577   */\n      dup5\n        /* \"#utility.yul\":1527:1598   */\n      tag_55\n      jump\t// in\n    tag_88:\n        /* \"#utility.yul\":1383:1605   */\n      swap3\n      swap2\n      pop\n      pop\n      jump\t// out\n        /* \"#utility.yul\":1611:1733   */\n    tag_56:\n        /* \"#utility.yul\":1684:1708   */\n      tag_90\n        /* \"#utility.yul\":1702:1707   */\n      dup2\n        /* \"#utility.yul\":1684:1708   */\n      tag_54\n      jump\t// in\n    tag_90:\n        /* \"#utility.yul\":1677:1682   */\n      dup2\n        /* \"#utility.yul\":1674:1709   */\n      eq\n        /* \"#utility.yul\":1664:1727   */\n      tag_91\n      jumpi\n        /* \"#utility.yul\":1723:1724   */\n      0x00\n        /* \"#utility.yul\":1720:1721   */\n      0x00\n        /* \"#utility.yul\":1713:1725   */\n      revert\n        /* \"#utility.yul\":1664:1727   */\n    tag_91:\n        /* \"#utility.yul\":1611:1733   */\n      pop\n      jump\t// out\n        /* \"#utility.yul\":1739:1878   */\n    tag_57:\n        /* \"#utility.yul\":1785:1790   */\n      0x00\n        /* \"#utility.yul\":1823:1829   */\n      dup2\n        /* \"#utility.yul\":1810:1830   */\n      calldataload\n        /* \"#utility.yul\":1801:1830   */\n      swap1\n      pop\n        /* \"#utility.yul\":1839:1872   */\n      tag_93\n        /* \"#utility.yul\":1866:1871   */\n      dup2\n        /* \"#utility.yul\":1839:1872   */\n      tag_56\n      jump\t// in\n    tag_93:\n        /* \"#utility.yul\":1739:1878   */\n      swap3\n      swap2\n      pop\n      pop\n      jump\t// out\n        /* \"#utility.yul\":1884:2213   */\n    tag_15:\n        /* \"#utility.yul\":1943:1949   */\n      0x00\n        /* \"#utility.yul\":1992:1994   */\n      0x20\n        /* \"#utility.yul\":1980:1989   */\n      dup3\n        /* \"#utility.yul\":1971:1978   */\n      dup5\n        /* \"#utility.yul\":1967:1990   */\n      sub\n        /* \"#utility.yul\":1963:1995   */\n      slt\n        /* \"#utility.yul\":1960:2079   */\n      iszero\n      tag_95\n      jumpi\n        /* \"#utility.yul\":1998:2077   */\n      tag_96\n      tag_48\n      jump\t// in\n    tag_96:\n        /* \"#utility.yul\":1960:2079   */\n    tag_95:\n        /* \"#utility.yul\":2118:2119   */\n      0x00\n        /* \"#utility.yul\":2143:2196   */\n      tag_97\n        /* \"#utility.yul\":2188:2195   */\n      dup5\n        /* \"#utility.yul\":2179:2185   */\n      dup3\n        /* \"#utility.yul\":2168:2177   */\n      dup6\n        /* \"#utility.yul\":2164:2186   */\n      add\n        /* \"#utility.yul\":2143:2196   */\n      tag_57\n      jump\t// in\n    tag_97:\n        /* \"#utility.yul\":2133:2196   */\n      swap2\n      pop\n        /* \"#utility.yul\":2089:2206   */\n      pop\n        /* \"#utility.yul\":1884:2213   */\n      swap3\n      swap2\n      pop\n      pop\n      jump\t// out\n        /* \"#utility.yul\":2219:2693   */\n    tag_19:\n        /* \"#utility.yul\":2287:2293   */\n      0x00\n        /* \"#utility.yul\":2295:2301   */\n      0x00\n        /* \"#utility.yul\":2344:2346   */\n      0x40\n        /* \"#utility.yul\":2332:2341   */\n      dup4\n        /* \"#utility.yul\":2323:2330   */\n      dup6\n        /* \"#utility.yul\":2319:2342   */\n      sub\n        /* \"#utility.yul\":2315:2347   */\n      slt\n        /* \"#utility.yul\":2312:2431   */\n      iszero\n      tag_99\n      jumpi\n        /* \"#utility.yul\":2350:2429   */\n      tag_100\n      tag_48\n      jump\t// in\n    tag_100:\n        /* \"#utility.yul\":2312:2431   */\n    tag_99:\n        /* \"#utility.yul\":2470:2471   */\n      0x00\n        /* \"#utility.yul\":2495:2548   */\n      tag_101\n        /* \"#utility.yul\":2540:2547   */\n      dup6\n        /* \"#utility.yul\":2531:2537   */\n      dup3\n        /* \"#utility.yul\":2520:2529   */\n      dup7\n        /* \"#utility.yul\":2516:2538   */\n      add\n        /* \"#utility.yul\":2495:2548   */\n      tag_53\n      jump\t// in\n    tag_101:\n        /* \"#utility.yul\":2485:2548   */\n      swap3\n      pop\n        /* \"#utility.yul\":2441:2558   */\n      pop\n        /* \"#utility.yul\":2597:2599   */\n      0x20\n        /* \"#utility.yul\":2623:2676   */\n      tag_102\n        /* \"#utility.yul\":2668:2675   */\n      dup6\n        /* \"#utility.yul\":2659:2665   */\n      dup3\n        /* \"#utility.yul\":2648:2657   */\n      dup7\n        /* \"#utility.yul\":2644:2666   */\n      add\n        /* \"#utility.yul\":2623:2676   */\n      tag_57\n      jump\t// in\n    tag_102:\n        /* \"#utility.yul\":2613:2676   */\n      swap2\n      pop\n        /* \"#utility.yul\":2568:2686   */\n      pop\n        /* \"#utility.yul\":2219:2693   */\n      swap3\n      pop\n      swap3\n      swap1\n      pop\n      jump\t// out\n        /* \"#utility.yul\":2699:2759   */\n    tag_58:\n        /* \"#utility.yul\":2727:2730   */\n      0x00\n        /* \"#utility.yul\":2748:2753   */\n      dup2\n        /* \"#utility.yul\":2741:2753   */\n      swap1\n      pop\n        /* \"#utility.yul\":2699:2759   */\n      swap2\n      swap1\n      pop\n      jump\t// out\n        /* \"#utility.yul\":2765:2907   */\n    tag_59:\n        /* \"#utility.yul\":2815:2824   */\n      0x00\n        /* \"#utility.yul\":2848:2901   */\n      tag_105\n        /* \"#utility.yul\":2866:2900   */\n      tag_106\n        /* \"#utility.yul\":2875:2899   */\n      tag_107\n        /* \"#utility.yul\":2893:2898   */\n      dup5\n        /* \"#utility.yul\":2875:2899   */\n      tag_50\n      jump\t// in\n    tag_107:\n        /* \"#utility.yul\":2866:2900   */\n      tag_58\n      jump\t// in\n    tag_106:\n        /* \"#utility.yul\":2848:2901   */\n      tag_50\n      jump\t// in\n    tag_105:\n        /* \"#utility.yul\":2835:2901   */\n      swap1\n      pop\n        /* \"#utility.yul\":2765:2907   */\n      swap2\n      swap1\n      pop\n      jump\t// out\n        /* \"#utility.yul\":2913:3039   */\n    tag_60:\n        /* \"#utility.yul\":2963:2972   */\n      0x00\n        /* \"#utility.yul\":2996:3033   */\n      tag_109\n        /* \"#utility.yul\":3027:3032   */\n      dup3\n        /* \"#utility.yul\":2996:3033   */\n      tag_59\n      jump\t// in\n    tag_109:\n        /* \"#utility.yul\":2983:3033   */\n      swap1\n      pop\n        /* \"#utility.yul\":2913:3039   */\n      swap2\n      swap1\n      pop\n      jump\t// out\n        /* \"#utility.yul\":3045:3184   */\n    tag_61:\n        /* \"#utility.yul\":3108:3117   */\n      0x00\n        /* \"#utility.yul\":3141:3178   */\n      tag_111\n        /* \"#utility.yul\":3172:3177   */\n      dup3\n        /* \"#utility.yul\":3141:3178   */\n      tag_60\n      jump\t// in\n    tag_111:\n        /* \"#utility.yul\":3128:3178   */\n      swap1\n      pop\n        /* \"#utility.yul\":3045:3184   */\n      swap2\n      swap1\n      pop\n      jump\t// out\n        /* \"#utility.yul\":3190:3347   */\n    tag_62:\n        /* \"#utility.yul\":3290:3340   */\n      tag_113\n        /* \"#utility.yul\":3334:3339   */\n      dup2\n        /* \"#utility.yul\":3290:3340   */\n      tag_61\n      jump\t// in\n    tag_113:\n        /* \"#utility.yul\":3285:3288   */\n      dup3\n        /* \"#utility.yul\":3278:3341   */\n      mstore\n        /* \"#utility.yul\":3190:3347   */\n      pop\n      pop\n      jump\t// out\n        /* \"#utility.yul\":3353:3601   */\n    tag_24:\n        /* \"#utility.yul\":3459:3463   */\n      0x00\n        /* \"#utility.yul\":3497:3499   */\n      0x20\n        /* \"#utility.yul\":3486:3495   */\n      dup3\n        /* \"#utility.yul\":3482:3500   */\n      add\n        /* \"#utility.yul\":3474:3500   */\n      swap1\n      pop\n        /* \"#utility.yul\":3510:3594   */\n      tag_115\n        /* \"#utility.yul\":3591:3592   */\n      0x00\n        /* \"#utility.yul\":3580:3589   */\n      dup4\n        /* \"#utility.yul\":3576:3593   */\n      add\n        /* \"#utility.yul\":3567:3573   */\n      dup5\n        /* \"#utility.yul\":3510:3594   */\n      tag_62\n      jump\t// in\n    tag_115:\n        /* \"#utility.yul\":3353:3601   */\n      swap3\n      swap2\n      pop\n      pop\n      jump\t// out\n        /* \"#utility.yul\":3607:3939   */\n    tag_28:\n        /* \"#utility.yul\":3728:3732   */\n      0x00\n        /* \"#utility.yul\":3766:3768   */\n      0x40\n        /* \"#utility.yul\":3755:3764   */\n      dup3\n        /* \"#utility.yul\":3751:3769   */\n      add\n        /* \"#utility.yul\":3743:3769   */\n      swap1\n      pop\n        /* \"#utility.yul\":3779:3850   */\n      tag_117\n        /* \"#utility.yul\":3847:3848   */\n      0x00\n        /* \"#utility.yul\":3836:3845   */\n      dup4\n        /* \"#utility.yul\":3832:3849   */\n      add\n        /* \"#utility.yul\":3823:3829   */\n      dup6\n        /* \"#utility.yul\":3779:3850   */\n      tag_55\n      jump\t// in\n    tag_117:\n        /* \"#utility.yul\":3860:3932   */\n      tag_118\n        /* \"#utility.yul\":3928:3930   */\n      0x20\n        /* \"#utility.yul\":3917:3926   */\n      dup4\n        /* \"#utility.yul\":3913:3931   */\n      add\n        /* \"#utility.yul\":3904:3910   */\n      dup5\n        /* \"#utility.yul\":3860:3932   */\n      tag_55\n      jump\t// in\n    tag_118:\n        /* \"#utility.yul\":3607:3939   */\n      swap4\n      swap3\n      pop\n      pop\n      pop\n      jump\t// out\n        /* \"#utility.yul\":3945:4125   */\n    tag_63:\n        /* \"#utility.yul\":3993:4070   */\n      0x4e487b7100000000000000000000000000000000000000000000000000000000\n        /* \"#utility.yul\":3990:3991   */\n      0x00\n        /* \"#utility.yul\":3983:4071   */\n      mstore\n        /* \"#utility.yul\":4090:4094   */\n      0x11\n        /* \"#utility.yul\":4087:4088   */\n      0x04\n        /* \"#utility.yul\":4080:4095   */\n      mstore\n        /* \"#utility.yul\":4114:4118   */\n      0x24\n        /* \"#utility.yul\":4111:4112   */\n      0x00\n        /* \"#utility.yul\":4104:4119   */\n      revert\n        /* \"#utility.yul\":4131:4325   */\n    tag_30:\n        /* \"#utility.yul\":4171:4175   */\n      0x00\n        /* \"#utility.yul\":4191:4211   */\n      tag_121\n        /* \"#utility.yul\":4209:4210   */\n      dup3\n        /* \"#utility.yul\":4191:4211   */\n      tag_54\n      jump\t// in\n    tag_121:\n        /* \"#utility.yul\":4186:4211   */\n      swap2\n      pop\n        /* \"#utility.yul\":4225:4245   */\n      tag_122\n        /* \"#utility.yul\":4243:4244   */\n      dup4\n        /* \"#utility.yul\":4225:4245   */\n      tag_54\n      jump\t// in\n    tag_122:\n        /* \"#utility.yul\":4220:4245   */\n      swap3\n      pop\n        /* \"#utility.yul\":4269:4270   */\n      dup3\n        /* \"#utility.yul\":4266:4267   */\n      dup3\n        /* \"#utility.yul\":4262:4271   */\n      sub\n        /* \"#utility.yul\":4254:4271   */\n      swap1\n      pop\n        /* \"#utility.yul\":4293:4294   */\n      dup2\n        /* \"#utility.yul\":4287:4291   */\n      dup2\n        /* \"#utility.yul\":4284:4295   */\n      gt\n        /* \"#utility.yul\":4281:4318   */\n      iszero\n      tag_123\n      jumpi\n        /* \"#utility.yul\":4298:4316   */\n      tag_124\n      tag_63\n      jump\t// in\n    tag_124:\n        /* \"#utility.yul\":4281:4318   */\n    tag_123:\n        /* \"#utility.yul\":4131:4325   */\n      swap3\n      swap2\n      pop\n      pop\n      jump\t// out\n        /* \"#utility.yul\":4331:4449   */\n    tag_64:\n        /* \"#utility.yul\":4418:4442   */\n      tag_126\n        /* \"#utility.yul\":4436:4441   */\n      dup2\n        /* \"#utility.yul\":4418:4442   */\n      tag_51\n      jump\t// in\n    tag_126:\n        /* \"#utility.yul\":4413:4416   */\n      dup3\n        /* \"#utility.yul\":4406:4443   */\n      mstore\n        /* \"#utility.yul\":4331:4449   */\n      pop\n      pop\n      jump\t// out\n        /* \"#utility.yul\":4455:4787   */\n    tag_32:\n        /* \"#utility.yul\":4576:4580   */\n      0x00\n        /* \"#utility.yul\":4614:4616   */\n      0x40\n        /* \"#utility.yul\":4603:4612   */\n      dup3\n        /* \"#utility.yul\":4599:4617   */\n      add\n        /* \"#utility.yul\":4591:4617   */\n      swap1\n      pop\n        /* \"#utility.yul\":4627:4698   */\n      tag_128\n        /* \"#utility.yul\":4695:4696   */\n      0x00\n        /* \"#utility.yul\":4684:4693   */\n      dup4\n        /* \"#utility.yul\":4680:4697   */\n      add\n        /* \"#utility.yul\":4671:4677   */\n      dup6\n        /* \"#utility.yul\":4627:4698   */\n      tag_64\n      jump\t// in\n    tag_128:\n        /* \"#utility.yul\":4708:4780   */\n      tag_129\n        /* \"#utility.yul\":4776:4778   */\n      0x20\n        /* \"#utility.yul\":4765:4774   */\n      dup4\n        /* \"#utility.yul\":4761:4779   */\n      add\n        /* \"#utility.yul\":4752:4758   */\n      dup5\n        /* \"#utility.yul\":4708:4780   */\n      tag_55\n      jump\t// in\n    tag_129:\n        /* \"#utility.yul\":4455:4787   */\n      swap4\n      swap3\n      pop\n      pop\n      pop\n      jump\t// out\n        /* \"#utility.yul\":4793:4883   */\n    tag_65:\n        /* \"#utility.yul\":4827:4834   */\n      0x00\n        /* \"#utility.yul\":4870:4875   */\n      dup2\n        /* \"#utility.yul\":4863:4876   */\n      iszero\n        /* \"#utility.yul\":4856:4877   */\n      iszero\n        /* \"#utility.yul\":4845:4877   */\n      swap1\n      pop\n        /* \"#utility.yul\":4793:4883   */\n      swap2\n      swap1\n      pop\n      jump\t// out\n        /* \"#utility.yul\":4889:5005   */\n    tag_66:\n        /* \"#utility.yul\":4959:4980   */\n      tag_132\n        /* \"#utility.yul\":4974:4979   */\n      dup2\n        /* \"#utility.yul\":4959:4980   */\n      tag_65\n      jump\t// in\n    tag_132:\n        /* \"#utility.yul\":4952:4957   */\n      dup2\n        /* \"#utility.yul\":4949:4981   */\n      eq\n        /* \"#utility.yul\":4939:4999   */\n      tag_133\n      jumpi\n        /* \"#utility.yul\":4995:4996   */\n      0x00\n        /* \"#utility.yul\":4992:4993   */\n      0x00\n        /* \"#utility.yul\":4985:4997   */\n      revert\n        /* \"#utility.yul\":4939:4999   */\n    tag_133:\n        /* \"#utility.yul\":4889:5005   */\n      pop\n      jump\t// out\n        /* \"#utility.yul\":5011:5148   */\n    tag_67:\n        /* \"#utility.yul\":5065:5070   */\n      0x00\n        /* \"#utility.yul\":5096:5102   */\n      dup2\n        /* \"#utility.yul\":5090:5103   */\n      mload\n        /* \"#utility.yul\":5081:5103   */\n      swap1\n      pop\n        /* \"#utility.yul\":5112:5142   */\n      tag_135\n        /* \"#utility.yul\":5136:5141   */\n      dup2\n        /* \"#utility.yul\":5112:5142   */\n      tag_66\n      jump\t// in\n    tag_135:\n        /* \"#utility.yul\":5011:5148   */\n      swap3\n      swap2\n      pop\n      pop\n      jump\t// out\n        /* \"#utility.yul\":5154:5499   */\n    tag_36:\n        /* \"#utility.yul\":5221:5227   */\n      0x00\n        /* \"#utility.yul\":5270:5272   */\n      0x20\n        /* \"#utility.yul\":5258:5267   */\n      dup3\n        /* \"#utility.yul\":5249:5256   */\n      dup5\n        /* \"#utility.yul\":5245:5268   */\n      sub\n        /* \"#utility.yul\":5241:5273   */\n      slt\n        /* \"#utility.yul\":5238:5357   */\n      iszero\n      tag_137\n      jumpi\n        /* \"#utility.yul\":5276:5355   */\n      tag_138\n      tag_48\n      jump\t// in\n    tag_138:\n        /* \"#utility.yul\":5238:5357   */\n    tag_137:\n        /* \"#utility.yul\":5396:5397   */\n      0x00\n        /* \"#utility.yul\":5421:5482   */\n      tag_139\n        /* \"#utility.yul\":5474:5481   */\n      dup5\n        /* \"#utility.yul\":5465:5471   */\n      dup3\n        /* \"#utility.yul\":5454:5463   */\n      dup6\n        /* \"#utility.yul\":5450:5472   */\n      add\n        /* \"#utility.yul\":5421:5482   */\n      tag_67\n      jump\t// in\n    tag_139:\n        /* \"#utility.yul\":5411:5482   */\n      swap2\n      pop\n        /* \"#utility.yul\":5367:5492   */\n      pop\n        /* \"#utility.yul\":5154:5499   */\n      swap3\n      swap2\n      pop\n      pop\n      jump\t// out\n        /* \"#utility.yul\":5505:5696   */\n    tag_40:\n        /* \"#utility.yul\":5545:5548   */\n      0x00\n        /* \"#utility.yul\":5564:5584   */\n      tag_141\n        /* \"#utility.yul\":5582:5583   */\n      dup3\n        /* \"#utility.yul\":5564:5584   */\n      tag_54\n      jump\t// in\n    tag_141:\n        /* \"#utility.yul\":5559:5584   */\n      swap2\n      pop\n        /* \"#utility.yul\":5598:5618   */\n      tag_142\n        /* \"#utility.yul\":5616:5617   */\n      dup4\n        /* \"#utility.yul\":5598:5618   */\n      tag_54\n      jump\t// in\n    tag_142:\n        /* \"#utility.yul\":5593:5618   */\n      swap3\n      pop\n        /* \"#utility.yul\":5641:5642   */\n      dup3\n        /* \"#utility.yul\":5638:5639   */\n      dup3\n        /* \"#utility.yul\":5634:5643   */\n      add\n        /* \"#utility.yul\":5627:5643   */\n      swap1\n      pop\n        /* \"#utility.yul\":5662:5665   */\n      dup1\n        /* \"#utility.yul\":5659:5660   */\n      dup3\n        /* \"#utility.yul\":5656:5666   */\n      gt\n        /* \"#utility.yul\":5653:5689   */\n      iszero\n      tag_143\n      jumpi\n        /* \"#utility.yul\":5669:5687   */\n      tag_144\n      tag_63\n      jump\t// in\n    tag_144:\n        /* \"#utility.yul\":5653:5689   */\n    tag_143:\n        /* \"#utility.yul\":5505:5696   */\n      swap3\n      swap2\n      pop\n      pop\n      jump\t// out\n        /* \"#utility.yul\":5702:6144   */\n    tag_42:\n        /* \"#utility.yul\":5851:5855   */\n      0x00\n        /* \"#utility.yul\":5889:5891   */\n      0x60\n        /* \"#utility.yul\":5878:5887   */\n      dup3\n        /* \"#utility.yul\":5874:5892   */\n      add\n        /* \"#utility.yul\":5866:5892   */\n      swap1\n      pop\n        /* \"#utility.yul\":5902:5973   */\n      tag_146\n        /* \"#utility.yul\":5970:5971   */\n      0x00\n        /* \"#utility.yul\":5959:5968   */\n      dup4\n        /* \"#utility.yul\":5955:5972   */\n      add\n        /* \"#utility.yul\":5946:5952   */\n      dup7\n        /* \"#utility.yul\":5902:5973   */\n      tag_64\n      jump\t// in\n    tag_146:\n        /* \"#utility.yul\":5983:6055   */\n      tag_147\n        /* \"#utility.yul\":6051:6053   */\n      0x20\n        /* \"#utility.yul\":6040:6049   */\n      dup4\n        /* \"#utility.yul\":6036:6054   */\n      add\n        /* \"#utility.yul\":6027:6033   */\n      dup6\n        /* \"#utility.yul\":5983:6055   */\n      tag_64\n      jump\t// in\n    tag_147:\n        /* \"#utility.yul\":6065:6137   */\n      tag_148\n        /* \"#utility.yul\":6133:6135   */\n      0x40\n        /* \"#utility.yul\":6122:6131   */\n      dup4\n        /* \"#utility.yul\":6118:6136   */\n      add\n        /* \"#utility.yul\":6109:6115   */\n      dup5\n        /* \"#utility.yul\":6065:6137   */\n      tag_55\n      jump\t// in\n    tag_148:\n        /* \"#utility.yul\":5702:6144   */\n      swap5\n      swap4\n      pop\n      pop\n      pop\n      pop\n      jump\t// out\n\n    auxdata: 0xa2646970667358221220dd8d71203487f95ec49c8ff4bbc76a0d00e68f0c2bd310f577988cf8145975c864736f6c63430008210033\n}\n",
				"bytecode": {
					"linkReferences": {},
					"object": "6080604052348015600e575f5ffd5b506107a48061001c5f395ff3fe608060405234801561000f575f5ffd5b506004361061004a575f3560e01c806327e235e31461004e5780632e1a7d4d1461007e57806347e7ef241461009a57806389a30271146100b6575b5f5ffd5b61006860048036038101906100639190610486565b6100d4565b60405161007591906104c9565b60405180910390f35b6100986004803603810190610093919061050c565b6100e8565b005b6100b460048036038101906100af9190610537565b6102da565b005b6100be610410565b6040516100cb91906105d0565b60405180910390f35b5f602052805f5260405f205f915090505481565b805f5f3373ffffffffffffffffffffffffffffffffffffffff1673ffffffffffffffffffffffffffffffffffffffff1681526020019081526020015f205410156101a7575f5f3373ffffffffffffffffffffffffffffffffffffffff1673ffffffffffffffffffffffffffffffffffffffff1681526020019081526020015f2054816040517fa78037b600000000000000000000000000000000000000000000000000000000815260040161019e9291906105e9565b60405180910390fd5b805f5f3373ffffffffffffffffffffffffffffffffffffffff1673ffffffffffffffffffffffffffffffffffffffff1681526020019081526020015f205f8282546101f2919061063d565b9250508190555073036cbd53842c5426634e7929541ec2318f3dcf7e73ffffffffffffffffffffffffffffffffffffffff1663a9059cbb33836040518363ffffffff1660e01b815260040161024892919061067f565b6020604051808303815f875af1158015610264573d5f5f3e3d5ffd5b505050506040513d601f19601f8201168201806040525081019061028891906106db565b503373ffffffffffffffffffffffffffffffffffffffff167f884edad9ce6fa2440d8a54cc123490eb96d2768479d49ff9c7366125a9424364826040516102cf91906104c9565b60405180910390a250565b805f5f8473ffffffffffffffffffffffffffffffffffffffff1673ffffffffffffffffffffffffffffffffffffffff1681526020019081526020015f205f8282546103259190610706565b9250508190555073036cbd53842c5426634e7929541ec2318f3dcf7e73ffffffffffffffffffffffffffffffffffffffff166323b872dd8330846040518463ffffffff1660e01b815260040161037d93929190610739565b6020604051808303815f875af1158015610399573d5f5f3e3d5ffd5b505050506040513d601f19601f820116820180604052508101906103bd91906106db565b508173ffffffffffffffffffffffffffffffffffffffff167fe1fffcc4923d04b559f4d29a8bfc6cda04eb5b0d3c460751c2402c5c5cc9109c8260405161040491906104c9565b60405180910390a25050565b73036cbd53842c5426634e7929541ec2318f3dcf7e81565b5f5ffd5b5f73ffffffffffffffffffffffffffffffffffffffff82169050919050565b5f6104558261042c565b9050919050565b6104658161044b565b811461046f575f5ffd5b50565b5f813590506104808161045c565b92915050565b5f6020828403121561049b5761049a610428565b5b5f6104a884828501610472565b91505092915050565b5f819050919050565b6104c3816104b1565b82525050565b5f6020820190506104dc5f8301846104ba565b92915050565b6104eb816104b1565b81146104f5575f5ffd5b50565b5f81359050610506816104e2565b92915050565b5f6020828403121561052157610520610428565b5b5f61052e848285016104f8565b91505092915050565b5f5f6040838503121561054d5761054c610428565b5b5f61055a85828601610472565b925050602061056b858286016104f8565b9150509250929050565b5f819050919050565b5f61059861059361058e8461042c565b610575565b61042c565b9050919050565b5f6105a98261057e565b9050919050565b5f6105ba8261059f565b9050919050565b6105ca816105b0565b82525050565b5f6020820190506105e35f8301846105c1565b92915050565b5f6040820190506105fc5f8301856104ba565b61060960208301846104ba565b9392505050565b7f4e487b71000000000000000000000000000000000000000000000000000000005f52601160045260245ffd5b5f610647826104b1565b9150610652836104b1565b925082820390508181111561066a57610669610610565b5b92915050565b6106798161044b565b82525050565b5f6040820190506106925f830185610670565b61069f60208301846104ba565b9392505050565b5f8115159050919050565b6106ba816106a6565b81146106c4575f5ffd5b50565b5f815190506106d5816106b1565b92915050565b5f602082840312156106f0576106ef610428565b5b5f6106fd848285016106c7565b91505092915050565b5f610710826104b1565b915061071b836104b1565b925082820190508082111561073357610732610610565b5b92915050565b5f60608201905061074c5f830186610670565b6107596020830185610670565b61076660408301846104ba565b94935050505056fea2646970667358221220dd8d71203487f95ec49c8ff4bbc76a0d00e68f0c2bd310f577988cf8145975c864736f6c63430008210033",
					"opcodes": "PUSH1 0x80 PUSH1 0x40 MSTORE CALLVALUE DUP1 ISZERO PUSH1 0xE JUMPI PUSH0 PUSH0 REVERT JUMPDEST POP PUSH2 0x7A4 DUP1 PUSH2 0x1C PUSH0 CODECOPY PUSH0 RETURN INVALID PUSH1 0x80 PUSH1 0x40 MSTORE CALLVALUE DUP1 ISZERO PUSH2 0xF JUMPI PUSH0 PUSH0 REVERT JUMPDEST POP PUSH1 0x4 CALLDATASIZE LT PUSH2 0x4A JUMPI PUSH0 CALLDATALOAD PUSH1 0xE0 SHR DUP1 PUSH4 0x27E235E3 EQ PUSH2 0x4E JUMPI DUP1 PUSH4 0x2E1A7D4D EQ PUSH2 0x7E JUMPI DUP1 PUSH4 0x47E7EF24 EQ PUSH2 0x9A JUMPI DUP1 PUSH4 0x89A30271 EQ PUSH2 0xB6 JUMPI JUMPDEST PUSH0 PUSH0 REVERT JUMPDEST PUSH2 0x68 PUSH1 0x4 DUP1 CALLDATASIZE SUB DUP2 ADD SWAP1 PUSH2 0x63 SWAP2 SWAP1 PUSH2 0x486 JUMP JUMPDEST PUSH2 0xD4 JUMP JUMPDEST PUSH1 0x40 MLOAD PUSH2 0x75 SWAP2 SWAP1 PUSH2 0x4C9 JUMP JUMPDEST PUSH1 0x40 MLOAD DUP1 SWAP2 SUB SWAP1 RETURN JUMPDEST PUSH2 0x98 PUSH1 0x4 DUP1 CALLDATASIZE SUB DUP2 ADD SWAP1 PUSH2 0x93 SWAP2 SWAP1 PUSH2 0x50C JUMP JUMPDEST PUSH2 0xE8 JUMP JUMPDEST STOP JUMPDEST PUSH2 0xB4 PUSH1 0x4 DUP1 CALLDATASIZE SUB DUP2 ADD SWAP1 PUSH2 0xAF SWAP2 SWAP1 PUSH2 0x537 JUMP JUMPDEST PUSH2 0x2DA JUMP JUMPDEST STOP JUMPDEST PUSH2 0xBE PUSH2 0x410 JUMP JUMPDEST PUSH1 0x40 MLOAD PUSH2 0xCB SWAP2 SWAP1 PUSH2 0x5D0 JUMP JUMPDEST PUSH1 0x40 MLOAD DUP1 SWAP2 SUB SWAP1 RETURN JUMPDEST PUSH0 PUSH1 0x20 MSTORE DUP1 PUSH0 MSTORE PUSH1 0x40 PUSH0 KECCAK256 PUSH0 SWAP2 POP SWAP1 POP SLOAD DUP2 JUMP JUMPDEST DUP1 PUSH0 PUSH0 CALLER PUSH20 0xFFFFFFFFFFFFFFFFFFFFFFFFFFFFFFFFFFFFFFFF AND PUSH20 0xFFFFFFFFFFFFFFFFFFFFFFFFFFFFFFFFFFFFFFFF AND DUP2 MSTORE PUSH1 0x20 ADD SWAP1 DUP2 MSTORE PUSH1 0x20 ADD PUSH0 KECCAK256 SLOAD LT ISZERO PUSH2 0x1A7 JUMPI PUSH0 PUSH0 CALLER PUSH20 0xFFFFFFFFFFFFFFFFFFFFFFFFFFFFFFFFFFFFFFFF AND PUSH20 0xFFFFFFFFFFFFFFFFFFFFFFFFFFFFFFFFFFFFFFFF AND DUP2 MSTORE PUSH1 0x20 ADD SWAP1 DUP2 MSTORE PUSH1 0x20 ADD PUSH0 KECCAK256 SLOAD DUP2 PUSH1 0x40 MLOAD PUSH32 0xA78037B600000000000000000000000000000000000000000000000000000000 DUP2 MSTORE PUSH1 0x4 ADD PUSH2 0x19E SWAP3 SWAP2 SWAP1 PUSH2 0x5E9 JUMP JUMPDEST PUSH1 0x40 MLOAD DUP1 SWAP2 SUB SWAP1 REVERT JUMPDEST DUP1 PUSH0 PUSH0 CALLER PUSH20 0xFFFFFFFFFFFFFFFFFFFFFFFFFFFFFFFFFFFFFFFF AND PUSH20 0xFFFFFFFFFFFFFFFFFFFFFFFFFFFFFFFFFFFFFFFF AND DUP2 MSTORE PUSH1 0x20 ADD SWAP1 DUP2 MSTORE PUSH1 0x20 ADD PUSH0 KECCAK256 PUSH0 DUP3 DUP3 SLOAD PUSH2 0x1F2 SWAP2 SWAP1 PUSH2 0x63D JUMP JUMPDEST SWAP3 POP POP DUP2 SWAP1 SSTORE POP PUSH20 0x36CBD53842C5426634E7929541EC2318F3DCF7E PUSH20 0xFFFFFFFFFFFFFFFFFFFFFFFFFFFFFFFFFFFFFFFF AND PUSH4 0xA9059CBB CALLER DUP4 PUSH1 0x40 MLOAD DUP4 PUSH4 0xFFFFFFFF AND PUSH1 0xE0 SHL DUP2 MSTORE PUSH1 0x4 ADD PUSH2 0x248 SWAP3 SWAP2 SWAP1 PUSH2 0x67F JUMP JUMPDEST PUSH1 0x20 PUSH1 0x40 MLOAD DUP1 DUP4 SUB DUP2 PUSH0 DUP8 GAS CALL ISZERO DUP1 ISZERO PUSH2 0x264 JUMPI RETURNDATASIZE PUSH0 PUSH0 RETURNDATACOPY RETURNDATASIZE PUSH0 REVERT JUMPDEST POP POP POP POP PUSH1 0x40 MLOAD RETURNDATASIZE PUSH1 0x1F NOT PUSH1 0x1F DUP3 ADD AND DUP3 ADD DUP1 PUSH1 0x40 MSTORE POP DUP2 ADD SWAP1 PUSH2 0x288 SWAP2 SWAP1 PUSH2 0x6DB JUMP JUMPDEST POP CALLER PUSH20 0xFFFFFFFFFFFFFFFFFFFFFFFFFFFFFFFFFFFFFFFF AND PUSH32 0x884EDAD9CE6FA2440D8A54CC123490EB96D2768479D49FF9C7366125A9424364 DUP3 PUSH1 0x40 MLOAD PUSH2 0x2CF SWAP2 SWAP1 PUSH2 0x4C9 JUMP JUMPDEST PUSH1 0x40 MLOAD DUP1 SWAP2 SUB SWAP1 LOG2 POP JUMP JUMPDEST DUP1 PUSH0 PUSH0 DUP5 PUSH20 0xFFFFFFFFFFFFFFFFFFFFFFFFFFFFFFFFFFFFFFFF AND PUSH20 0xFFFFFFFFFFFFFFFFFFFFFFFFFFFFFFFFFFFFFFFF AND DUP2 MSTORE PUSH1 0x20 ADD SWAP1 DUP2 MSTORE PUSH1 0x20 ADD PUSH0 KECCAK256 PUSH0 DUP3 DUP3 SLOAD PUSH2 0x325 SWAP2 SWAP1 PUSH2 0x706 JUMP JUMPDEST SWAP3 POP POP DUP2 SWAP1 SSTORE POP PUSH20 0x36CBD53842C5426634E7929541EC2318F3DCF7E PUSH20 0xFFFFFFFFFFFFFFFFFFFFFFFFFFFFFFFFFFFFFFFF AND PUSH4 0x23B872DD DUP4 ADDRESS DUP5 PUSH1 0x40 MLOAD DUP5 PUSH4 0xFFFFFFFF AND PUSH1 0xE0 SHL DUP2 MSTORE PUSH1 0x4 ADD PUSH2 0x37D SWAP4 SWAP3 SWAP2 SWAP1 PUSH2 0x739 JUMP JUMPDEST PUSH1 0x20 PUSH1 0x40 MLOAD DUP1 DUP4 SUB DUP2 PUSH0 DUP8 GAS CALL ISZERO DUP1 ISZERO PUSH2 0x399 JUMPI RETURNDATASIZE PUSH0 PUSH0 RETURNDATACOPY RETURNDATASIZE PUSH0 REVERT JUMPDEST POP POP POP POP PUSH1 0x40 MLOAD RETURNDATASIZE PUSH1 0x1F NOT PUSH1 0x1F DUP3 ADD AND DUP3 ADD DUP1 PUSH1 0x40 MSTORE POP DUP2 ADD SWAP1 PUSH2 0x3BD SWAP2 SWAP1 PUSH2 0x6DB JUMP JUMPDEST POP DUP2 PUSH20 0xFFFFFFFFFFFFFFFFFFFFFFFFFFFFFFFFFFFFFFFF AND PUSH32 0xE1FFFCC4923D04B559F4D29A8BFC6CDA04EB5B0D3C460751C2402C5C5CC9109C DUP3 PUSH1 0x40 MLOAD PUSH2 0x404 SWAP2 SWAP1 PUSH2 0x4C9 JUMP JUMPDEST PUSH1 0x40 MLOAD DUP1 SWAP2 SUB SWAP1 LOG2 POP POP JUMP JUMPDEST PUSH20 0x36CBD53842C5426634E7929541EC2318F3DCF7E DUP2 JUMP JUMPDEST PUSH0 PUSH0 REVERT JUMPDEST PUSH0 PUSH20 0xFFFFFFFFFFFFFFFFFFFFFFFFFFFFFFFFFFFFFFFF DUP3 AND SWAP1 POP SWAP2 SWAP1 POP JUMP JUMPDEST PUSH0 PUSH2 0x455 DUP3 PUSH2 0x42C JUMP JUMPDEST SWAP1 POP SWAP2 SWAP1 POP JUMP JUMPDEST PUSH2 0x465 DUP2 PUSH2 0x44B JUMP JUMPDEST DUP2 EQ PUSH2 0x46F JUMPI PUSH0 PUSH0 REVERT JUMPDEST POP JUMP JUMPDEST PUSH0 DUP2 CALLDATALOAD SWAP1 POP PUSH2 0x480 DUP2 PUSH2 0x45C JUMP JUMPDEST SWAP3 SWAP2 POP POP JUMP JUMPDEST PUSH0 PUSH1 0x20 DUP3 DUP5 SUB SLT ISZERO PUSH2 0x49B JUMPI PUSH2 0x49A PUSH2 0x428 JUMP JUMPDEST JUMPDEST PUSH0 PUSH2 0x4A8 DUP5 DUP3 DUP6 ADD PUSH2 0x472 JUMP JUMPDEST SWAP2 POP POP SWAP3 SWAP2 POP POP JUMP JUMPDEST PUSH0 DUP2 SWAP1 POP SWAP2 SWAP1 POP JUMP JUMPDEST PUSH2 0x4C3 DUP2 PUSH2 0x4B1 JUMP JUMPDEST DUP3 MSTORE POP POP JUMP JUMPDEST PUSH0 PUSH1 0x20 DUP3 ADD SWAP1 POP PUSH2 0x4DC PUSH0 DUP4 ADD DUP5 PUSH2 0x4BA JUMP JUMPDEST SWAP3 SWAP2 POP POP JUMP JUMPDEST PUSH2 0x4EB DUP2 PUSH2 0x4B1 JUMP JUMPDEST DUP2 EQ PUSH2 0x4F5 JUMPI PUSH0 PUSH0 REVERT JUMPDEST POP JUMP JUMPDEST PUSH0 DUP2 CALLDATALOAD SWAP1 POP PUSH2 0x506 DUP2 PUSH2 0x4E2 JUMP JUMPDEST SWAP3 SWAP2 POP POP JUMP JUMPDEST PUSH0 PUSH1 0x20 DUP3 DUP5 SUB SLT ISZERO PUSH2 0x521 JUMPI PUSH2 0x520 PUSH2 0x428 JUMP JUMPDEST JUMPDEST PUSH0 PUSH2 0x52E DUP5 DUP3 DUP6 ADD PUSH2 0x4F8 JUMP JUMPDEST SWAP2 POP POP SWAP3 SWAP2 POP POP JUMP JUMPDEST PUSH0 PUSH0 PUSH1 0x40 DUP4 DUP6 SUB SLT ISZERO PUSH2 0x54D JUMPI PUSH2 0x54C PUSH2 0x428 JUMP JUMPDEST JUMPDEST PUSH0 PUSH2 0x55A DUP6 DUP3 DUP7 ADD PUSH2 0x472 JUMP JUMPDEST SWAP3 POP POP PUSH1 0x20 PUSH2 0x56B DUP6 DUP3 DUP7 ADD PUSH2 0x4F8 JUMP JUMPDEST SWAP2 POP POP SWAP3 POP SWAP3 SWAP1 POP JUMP JUMPDEST PUSH0 DUP2 SWAP1 POP SWAP2 SWAP1 POP JUMP JUMPDEST PUSH0 PUSH2 0x598 PUSH2 0x593 PUSH2 0x58E DUP5 PUSH2 0x42C JUMP JUMPDEST PUSH2 0x575 JUMP JUMPDEST PUSH2 0x42C JUMP JUMPDEST SWAP1 POP SWAP2 SWAP1 POP JUMP JUMPDEST PUSH0 PUSH2 0x5A9 DUP3 PUSH2 0x57E JUMP JUMPDEST SWAP1 POP SWAP2 SWAP1 POP JUMP JUMPDEST PUSH0 PUSH2 0x5BA DUP3 PUSH2 0x59F JUMP JUMPDEST SWAP1 POP SWAP2 SWAP1 POP JUMP JUMPDEST PUSH2 0x5CA DUP2 PUSH2 0x5B0 JUMP JUMPDEST DUP3 MSTORE POP POP JUMP JUMPDEST PUSH0 PUSH1 0x20 DUP3 ADD SWAP1 POP PUSH2 0x5E3 PUSH0 DUP4 ADD DUP5 PUSH2 0x5C1 JUMP JUMPDEST SWAP3 SWAP2 POP POP JUMP JUMPDEST PUSH0 PUSH1 0x40 DUP3 ADD SWAP1 POP PUSH2 0x5FC PUSH0 DUP4 ADD DUP6 PUSH2 0x4BA JUMP JUMPDEST PUSH2 0x609 PUSH1 0x20 DUP4 ADD DUP5 PUSH2 0x4BA JUMP JUMPDEST SWAP4 SWAP3 POP POP POP JUMP JUMPDEST PUSH32 0x4E487B7100000000000000000000000000000000000000000000000000000000 PUSH0 MSTORE PUSH1 0x11 PUSH1 0x4 MSTORE PUSH1 0x24 PUSH0 REVERT JUMPDEST PUSH0 PUSH2 0x647 DUP3 PUSH2 0x4B1 JUMP JUMPDEST SWAP2 POP PUSH2 0x652 DUP4 PUSH2 0x4B1 JUMP JUMPDEST SWAP3 POP DUP3 DUP3 SUB SWAP1 POP DUP2 DUP2 GT ISZERO PUSH2 0x66A JUMPI PUSH2 0x669 PUSH2 0x610 JUMP JUMPDEST JUMPDEST SWAP3 SWAP2 POP POP JUMP JUMPDEST PUSH2 0x679 DUP2 PUSH2 0x44B JUMP JUMPDEST DUP3 MSTORE POP POP JUMP JUMPDEST PUSH0 PUSH1 0x40 DUP3 ADD SWAP1 POP PUSH2 0x692 PUSH0 DUP4 ADD DUP6 PUSH2 0x670 JUMP JUMPDEST PUSH2 0x69F PUSH1 0x20 DUP4 ADD DUP5 PUSH2 0x4BA JUMP JUMPDEST SWAP4 SWAP3 POP POP POP JUMP JUMPDEST PUSH0 DUP2 ISZERO ISZERO SWAP1 POP SWAP2 SWAP1 POP JUMP JUMPDEST PUSH2 0x6BA DUP2 PUSH2 0x6A6 JUMP JUMPDEST DUP2 EQ PUSH2 0x6C4 JUMPI PUSH0 PUSH0 REVERT JUMPDEST POP JUMP JUMPDEST PUSH0 DUP2 MLOAD SWAP1 POP PUSH2 0x6D5 DUP2 PUSH2 0x6B1 JUMP JUMPDEST SWAP3 SWAP2 POP POP JUMP JUMPDEST PUSH0 PUSH1 0x20 DUP3 DUP5 SUB SLT ISZERO PUSH2 0x6F0 JUMPI PUSH2 0x6EF PUSH2 0x428 JUMP JUMPDEST JUMPDEST PUSH0 PUSH2 0x6FD DUP5 DUP3 DUP6 ADD PUSH2 0x6C7 JUMP JUMPDEST SWAP2 POP POP SWAP3 SWAP2 POP POP JUMP JUMPDEST PUSH0 PUSH2 0x710 DUP3 PUSH2 0x4B1 JUMP JUMPDEST SWAP2 POP PUSH2 0x71B DUP4 PUSH2 0x4B1 JUMP JUMPDEST SWAP3 POP DUP3 DUP3 ADD SWAP1 POP DUP1 DUP3 GT ISZERO PUSH2 0x733 JUMPI PUSH2 0x732 PUSH2 0x610 JUMP JUMPDEST JUMPDEST SWAP3 SWAP2 POP POP JUMP JUMPDEST PUSH0 PUSH1 0x60 DUP3 ADD SWAP1 POP PUSH2 0x74C PUSH0 DUP4 ADD DUP7 PUSH2 0x670 JUMP JUMPDEST PUSH2 0x759 PUSH1 0x20 DUP4 ADD DUP6 PUSH2 0x670 JUMP JUMPDEST PUSH2 0x766 PUSH1 0x40 DUP4 ADD DUP5 PUSH2 0x4BA JUMP JUMPDEST SWAP5 SWAP4 POP POP POP POP JUMP INVALID LOG2 PUSH5 0x6970667358 0x22 SLT KECCAK256 0xDD DUP14 PUSH18 0x203487F95EC49C8FF4BBC76A0D00E68F0C2B 0xD3 LT CREATE2 PUSH24 0x988CF8145975C864736F6C63430008210033000000000000 "
				},
				"gasEstimates": {
					"creation": {
						"codeDepositCost": "391200",
						"executionCost": "428",
						"totalCost": "391628"
					},
					"external": {
						"USDC()": "infinite",
						"balances(address)": "2779",
						"deposit(address,uint256)": "infinite",
						"withdraw(uint256)": "infinite"
					}
				},
				"methodIdentifiers": {
					"USDC()": "89a30271",
					"balances(address)": "27e235e3",
					"deposit(address,uint256)": "47e7ef24",
					"withdraw(uint256)": "2e1a7d4d"
				}
			},
			"storageLayout": {
				"storage": [
					{
						"astId": 91,
						"contract": "contracts/ccip/Vault.sol:Vault",
						"label": "balances",
						"offset": 0,
						"slot": "0",
						"type": "t_mapping(t_address,t_uint256)"
					}
				],
				"types": {
					"t_address": {
						"encoding": "inplace",
						"label": "address",
						"numberOfBytes": "20"
					},
					"t_mapping(t_address,t_uint256)": {
						"encoding": "mapping",
						"key": "t_address",
						"label": "mapping(address => uint256)",
						"numberOfBytes": "32",
						"value": "t_uint256"
					},
					"t_uint256": {
						"encoding": "inplace",
						"label": "uint256",
						"numberOfBytes": "32"
					}
				}
			},
			"userdoc": {
				"kind": "user",
				"methods": {},
				"version": 1
			}
		}
	}
}