{
	"contracts/ccip/Sender.sol": {
		"Sender": {
			"abi": [
				{
					"inputs": [],
					"stateMutability": "nonpayable",
					"type": "constructor"
				},
				{
					"inputs": [
						{
							"internalType": "address",
							"name": "owner",
							"type": "address"
						}
					],
					"name": "OwnableInvalidOwner",
					"type": "error"
				},
				{
					"inputs": [
						{
							"internalType": "address",
							"name": "account",
							"type": "address"
						}
					],
					"name": "OwnableUnauthorizedAccount",
					"type": "error"
				},
				{
					"inputs": [
						{
							"internalType": "contract IERC20",
							"name": "token",
							"type": "address"
						},
						{
							"internalType": "uint256",
							"name": "currentBalance",
							"type": "uint256"
						},
						{
							"internalType": "uint256",
							"name": "requiredAmount",
							"type": "uint256"
						}
					],
					"name": "Sender__InsufficientBalance",
					"type": "error"
				},
				{
					"inputs": [],
					"name": "Sender__NothingToWithdraw",
					"type": "error"
				},
				{
					"anonymous": false,
					"inputs": [
						{
							"indexed": true,
							"internalType": "address",
							"name": "previousOwner",
							"type": "address"
						},
						{
							"indexed": true,
							"internalType": "address",
							"name": "newOwner",
							"type": "address"
						}
					],
					"name": "OwnershipTransferred",
					"type": "event"
				},
				{
					"anonymous": false,
					"inputs": [
						{
							"indexed": false,
							"internalType": "bytes32",
							"name": "messageId",
							"type": "bytes32"
						},
						{
							"indexed": true,
							"internalType": "uint64",
							"name": "destinationChainSelector",
							"type": "uint64"
						},
						{
							"indexed": true,
							"internalType": "address",
							"name": "receiver",
							"type": "address"
						},
						{
							"indexed": false,
							"internalType": "uint256",
							"name": "amount",
							"type": "uint256"
						},
						{
							"indexed": false,
							"internalType": "uint256",
							"name": "ccipFee",
							"type": "uint256"
						}
					],
					"name": "USDCTransferred",
					"type": "event"
				},
				{
					"inputs": [],
					"name": "owner",
					"outputs": [
						{
							"internalType": "address",
							"name": "",
							"type": "address"
						}
					],
					"stateMutability": "view",
					"type": "function"
				},
				{
					"inputs": [],
					"name": "renounceOwnership",
					"outputs": [],
					"stateMutability": "nonpayable",
					"type": "function"
				},
				{
					"inputs": [
						{
							"internalType": "address",
							"name": "newOwner",
							"type": "address"
						}
					],
					"name": "transferOwnership",
					"outputs": [],
					"stateMutability": "nonpayable",
					"type": "function"
				},
				{
					"inputs": [
						{
							"internalType": "address",
							"name": "_receiver",
							"type": "address"
						},
						{
							"internalType": "uint256",
							"name": "_amount",
							"type": "uint256"
						},
						{
							"internalType": "address",
							"name": "_target",
							"type": "address"
						}
					],
					"name": "transferTokens",
					"outputs": [
						{
							"internalType": "bytes32",
							"name": "messageId",
							"type": "bytes32"
						}
					],
					"stateMutability": "nonpayable",
					"type": "function"
				},
				{
					"inputs": [
						{
							"internalType": "address",
							"name": "_beneficiary",
							"type": "address"
						}
					],
					"name": "withdrawToken",
					"outputs": [],
					"stateMutability": "nonpayable",
					"type": "function"
				}
			],
			"devdoc": {
				"errors": {
					"OwnableInvalidOwner(address)": [
						{
							"details": "The owner is not a valid owner account. (eg. `address(0)`)"
						}
					],
					"OwnableUnauthorizedAccount(address)": [
						{
							"details": "The caller account is not authorized to perform an operation."
						}
					]
				},
				"kind": "dev",
				"methods": {
					"owner()": {
						"details": "Returns the address of the current owner."
					},
					"renounceOwnership()": {
						"details": "Leaves the contract without owner. It will not be possible to call `onlyOwner` functions. Can only be called by the current owner. NOTE: Renouncing ownership will leave the contract without an owner, thereby disabling any functionality that is only available to the owner."
					},
					"transferOwnership(address)": {
						"details": "Transfers ownership of the contract to a new account (`newOwner`). Can only be called by the current owner."
					}
				},
				"version": 1
			},
			"evm": {
				"assembly": "    /* \"contracts/ccip/Sender.sol\":940:4521  contract Sender is Ownable {... */\n  mstore(0x40, 0x80)\n    /* \"contracts/ccip/Sender.sol\":2059:2095  constructor() Ownable(msg.sender) {} */\n  callvalue\n  dup1\n  iszero\n  tag_1\n  jumpi\n  revert(0x00, 0x00)\ntag_1:\n  pop\n    /* \"contracts/ccip/Sender.sol\":2081:2091  msg.sender */\n  caller\n    /* \"@openzeppelin/contracts@5.2.0/access/Ownable.sol\":1297:1298  0 */\n  0x00\n    /* \"@openzeppelin/contracts@5.2.0/access/Ownable.sol\":1273:1299  initialOwner == address(0) */\n  0xffffffffffffffffffffffffffffffffffffffff\n  and\n    /* \"@openzeppelin/contracts@5.2.0/access/Ownable.sol\":1273:1285  initialOwner */\n  dup2\n    /* \"@openzeppelin/contracts@5.2.0/access/Ownable.sol\":1273:1299  initialOwner == address(0) */\n  0xffffffffffffffffffffffffffffffffffffffff\n  and\n  sub\n    /* \"@openzeppelin/contracts@5.2.0/access/Ownable.sol\":1269:1364  if (initialOwner == address(0)) {... */\n  tag_5\n  jumpi\n    /* \"@openzeppelin/contracts@5.2.0/access/Ownable.sol\":1350:1351  0 */\n  0x00\n    /* \"@openzeppelin/contracts@5.2.0/access/Ownable.sol\":1322:1353  OwnableInvalidOwner(address(0)) */\n  mload(0x40)\n  0x1e4fbdf700000000000000000000000000000000000000000000000000000000\n  dup2\n  mstore\n  0x04\n  add\n  tag_6\n  swap2\n  swap1\n  tag_7\n  jump\t// in\ntag_6:\n  mload(0x40)\n  dup1\n  swap2\n  sub\n  swap1\n  revert\n    /* \"@openzeppelin/contracts@5.2.0/access/Ownable.sol\":1269:1364  if (initialOwner == address(0)) {... */\ntag_5:\n    /* \"@openzeppelin/contracts@5.2.0/access/Ownable.sol\":1373:1405  _transferOwnership(initialOwner) */\n  tag_8\n    /* \"@openzeppelin/contracts@5.2.0/access/Ownable.sol\":1392:1404  initialOwner */\n  dup2\n    /* \"@openzeppelin/contracts@5.2.0/access/Ownable.sol\":1373:1391  _transferOwnership */\n  shl(0x20, tag_9)\n    /* \"@openzeppelin/contracts@5.2.0/access/Ownable.sol\":1373:1405  _transferOwnership(initialOwner) */\n  0x20\n  shr\n  jump\t// in\ntag_8:\n    /* \"@openzeppelin/contracts@5.2.0/access/Ownable.sol\":1225:1412  constructor(address initialOwner) {... */\n  pop\n    /* \"contracts/ccip/Sender.sol\":940:4521  contract Sender is Ownable {... */\n  jump(tag_11)\n    /* \"@openzeppelin/contracts@5.2.0/access/Ownable.sol\":2912:3099  function _transferOwnership(address newOwner) internal virtual {... */\ntag_9:\n    /* \"@openzeppelin/contracts@5.2.0/access/Ownable.sol\":2985:3001  address oldOwner */\n  0x00\n    /* \"@openzeppelin/contracts@5.2.0/access/Ownable.sol\":3004:3010  _owner */\n  0x00\n  0x00\n  swap1\n  sload\n  swap1\n  0x0100\n  exp\n  swap1\n  div\n  0xffffffffffffffffffffffffffffffffffffffff\n  and\n    /* \"@openzeppelin/contracts@5.2.0/access/Ownable.sol\":2985:3010  address oldOwner = _owner */\n  swap1\n  pop\n    /* \"@openzeppelin/contracts@5.2.0/access/Ownable.sol\":3029:3037  newOwner */\n  dup2\n    /* \"@openzeppelin/contracts@5.2.0/access/Ownable.sol\":3020:3026  _owner */\n  0x00\n  0x00\n    /* \"@openzeppelin/contracts@5.2.0/access/Ownable.sol\":3020:3037  _owner = newOwner */\n  0x0100\n  exp\n  dup2\n  sload\n  dup2\n  0xffffffffffffffffffffffffffffffffffffffff\n  mul\n  not\n  and\n  swap1\n  dup4\n  0xffffffffffffffffffffffffffffffffffffffff\n  and\n  mul\n  or\n  swap1\n  sstore\n  pop\n    /* \"@openzeppelin/contracts@5.2.0/access/Ownable.sol\":3083:3091  newOwner */\n  dup2\n    /* \"@openzeppelin/contracts@5.2.0/access/Ownable.sol\":3052:3092  OwnershipTransferred(oldOwner, newOwner) */\n  0xffffffffffffffffffffffffffffffffffffffff\n  and\n    /* \"@openzeppelin/contracts@5.2.0/access/Ownable.sol\":3073:3081  oldOwner */\n  dup2\n    /* \"@openzeppelin/contracts@5.2.0/access/Ownable.sol\":3052:3092  OwnershipTransferred(oldOwner, newOwner) */\n  0xffffffffffffffffffffffffffffffffffffffff\n  and\n  0x8be0079c531659141344cd1fd0a4f28419497f9722a3daafe3b4186f6b6457e0\n  mload(0x40)\n  mload(0x40)\n  dup1\n  swap2\n  sub\n  swap1\n  log3\n    /* \"@openzeppelin/contracts@5.2.0/access/Ownable.sol\":2975:3099  {... */\n  pop\n    /* \"@openzeppelin/contracts@5.2.0/access/Ownable.sol\":2912:3099  function _transferOwnership(address newOwner) internal virtual {... */\n  pop\n  jump\t// out\n    /* \"#utility.yul\":7:133   */\ntag_13:\n    /* \"#utility.yul\":44:51   */\n  0x00\n    /* \"#utility.yul\":84:126   */\n  0xffffffffffffffffffffffffffffffffffffffff\n    /* \"#utility.yul\":77:82   */\n  dup3\n    /* \"#utility.yul\":73:127   */\n  and\n    /* \"#utility.yul\":62:127   */\n  swap1\n  pop\n    /* \"#utility.yul\":7:133   */\n  swap2\n  swap1\n  pop\n  jump\t// out\n    /* \"#utility.yul\":139:235   */\ntag_14:\n    /* \"#utility.yul\":176:183   */\n  0x00\n    /* \"#utility.yul\":205:229   */\n  tag_19\n    /* \"#utility.yul\":223:228   */\n  dup3\n    /* \"#utility.yul\":205:229   */\n  tag_13\n  jump\t// in\ntag_19:\n    /* \"#utility.yul\":194:229   */\n  swap1\n  pop\n    /* \"#utility.yul\":139:235   */\n  swap2\n  swap1\n  pop\n  jump\t// out\n    /* \"#utility.yul\":241:359   */\ntag_15:\n    /* \"#utility.yul\":328:352   */\n  tag_21\n    /* \"#utility.yul\":346:351   */\n  dup2\n    /* \"#utility.yul\":328:352   */\n  tag_14\n  jump\t// in\ntag_21:\n    /* \"#utility.yul\":323:326   */\n  dup3\n    /* \"#utility.yul\":316:353   */\n  mstore\n    /* \"#utility.yul\":241:359   */\n  pop\n  pop\n  jump\t// out\n    /* \"#utility.yul\":365:587   */\ntag_7:\n    /* \"#utility.yul\":458:462   */\n  0x00\n    /* \"#utility.yul\":496:498   */\n  0x20\n    /* \"#utility.yul\":485:494   */\n  dup3\n    /* \"#utility.yul\":481:499   */\n  add\n    /* \"#utility.yul\":473:499   */\n  swap1\n  pop\n    /* \"#utility.yul\":509:580   */\n  tag_23\n    /* \"#utility.yul\":577:578   */\n  0x00\n    /* \"#utility.yul\":566:575   */\n  dup4\n    /* \"#utility.yul\":562:579   */\n  add\n    /* \"#utility.yul\":553:559   */\n  dup5\n    /* \"#utility.yul\":509:580   */\n  tag_15\n  jump\t// in\ntag_23:\n    /* \"#utility.yul\":365:587   */\n  swap3\n  swap2\n  pop\n  pop\n  jump\t// out\n    /* \"contracts/ccip/Sender.sol\":940:4521  contract Sender is Ownable {... */\ntag_11:\n  dataSize(sub_0)\n  dup1\n  dataOffset(sub_0)\n  0x00\n  codecopy\n  0x00\n  return\nstop\n\nsub_0: assembly {\n        /* \"contracts/ccip/Sender.sol\":940:4521  contract Sender is Ownable {... */\n      mstore(0x40, 0x80)\n      callvalue\n      dup1\n      iszero\n      tag_1\n      jumpi\n      revert(0x00, 0x00)\n    tag_1:\n      pop\n      jumpi(tag_2, lt(calldatasize, 0x04))\n      shr(0xe0, calldataload(0x00))\n      dup1\n      0x4af350eb\n      eq\n      tag_3\n      jumpi\n      dup1\n      0x715018a6\n      eq\n      tag_4\n      jumpi\n      dup1\n      0x89476069\n      eq\n      tag_5\n      jumpi\n      dup1\n      0x8da5cb5b\n      eq\n      tag_6\n      jumpi\n      dup1\n      0xf2fde38b\n      eq\n      tag_7\n      jumpi\n    tag_2:\n      revert(0x00, 0x00)\n        /* \"contracts/ccip/Sender.sol\":2101:4240  function transferTokens(... */\n    tag_3:\n      tag_8\n      0x04\n      dup1\n      calldatasize\n      sub\n      dup2\n      add\n      swap1\n      tag_9\n      swap2\n      swap1\n      tag_10\n      jump\t// in\n    tag_9:\n      tag_11\n      jump\t// in\n    tag_8:\n      mload(0x40)\n      tag_12\n      swap2\n      swap1\n      tag_13\n      jump\t// in\n    tag_12:\n      mload(0x40)\n      dup1\n      swap2\n      sub\n      swap1\n      return\n        /* \"@openzeppelin/contracts@5.2.0/access/Ownable.sol\":2293:2394  function renounceOwnership() public virtual onlyOwner {... */\n    tag_4:\n      tag_14\n      tag_15\n      jump\t// in\n    tag_14:\n      stop\n        /* \"contracts/ccip/Sender.sol\":4246:4519  function withdrawToken(... */\n    tag_5:\n      tag_16\n      0x04\n      dup1\n      calldatasize\n      sub\n      dup2\n      add\n      swap1\n      tag_17\n      swap2\n      swap1\n      tag_18\n      jump\t// in\n    tag_17:\n      tag_19\n      jump\t// in\n    tag_16:\n      stop\n        /* \"@openzeppelin/contracts@5.2.0/access/Ownable.sol\":1638:1723  function owner() public view virtual returns (address) {... */\n    tag_6:\n      tag_20\n      tag_21\n      jump\t// in\n    tag_20:\n      mload(0x40)\n      tag_22\n      swap2\n      swap1\n      tag_23\n      jump\t// in\n    tag_22:\n      mload(0x40)\n      dup1\n      swap2\n      sub\n      swap1\n      return\n        /* \"@openzeppelin/contracts@5.2.0/access/Ownable.sol\":2543:2758  function transferOwnership(address newOwner) public virtual onlyOwner {... */\n    tag_7:\n      tag_24\n      0x04\n      dup1\n      calldatasize\n      sub\n      dup2\n      add\n      swap1\n      tag_25\n      swap2\n      swap1\n      tag_18\n      jump\t// in\n    tag_25:\n      tag_26\n      jump\t// in\n    tag_24:\n      stop\n        /* \"contracts/ccip/Sender.sol\":2101:4240  function transferTokens(... */\n    tag_11:\n        /* \"contracts/ccip/Sender.sol\":2242:2259  bytes32 messageId */\n      0x00\n        /* \"contracts/ccip/Sender.sol\":1504:1546  0x1c7D4B196Cb0C7B01d743Fbc6116a902379C7238 */\n      0x1c7d4b196cb0c7b01d743fbc6116a902379c7238\n        /* \"contracts/ccip/Sender.sol\":2289:2309  USDC_TOKEN.balanceOf */\n      0xffffffffffffffffffffffffffffffffffffffff\n      and\n      0x70a08231\n        /* \"contracts/ccip/Sender.sol\":2310:2320  msg.sender */\n      caller\n        /* \"contracts/ccip/Sender.sol\":2289:2321  USDC_TOKEN.balanceOf(msg.sender) */\n      mload(0x40)\n      dup3\n      0xffffffff\n      and\n      0xe0\n      shl\n      dup2\n      mstore\n      0x04\n      add\n      tag_28\n      swap2\n      swap1\n      tag_23\n      jump\t// in\n    tag_28:\n      0x20\n      mload(0x40)\n      dup1\n      dup4\n      sub\n      dup2\n      dup7\n      gas\n      staticcall\n      iszero\n      dup1\n      iszero\n      tag_30\n      jumpi\n      returndatacopy(0x00, 0x00, returndatasize)\n      revert(0x00, returndatasize)\n    tag_30:\n      pop\n      pop\n      pop\n      pop\n      mload(0x40)\n      returndatasize\n      not(0x1f)\n      0x1f\n      dup3\n      add\n      and\n      dup3\n      add\n      dup1\n      0x40\n      mstore\n      pop\n      dup2\n      add\n      swap1\n      tag_31\n      swap2\n      swap1\n      tag_32\n      jump\t// in\n    tag_31:\n        /* \"contracts/ccip/Sender.sol\":2279:2286  _amount */\n      dup4\n        /* \"contracts/ccip/Sender.sol\":2279:2321  _amount > USDC_TOKEN.balanceOf(msg.sender) */\n      gt\n        /* \"contracts/ccip/Sender.sol\":2275:2437  if (_amount > USDC_TOKEN.balanceOf(msg.sender)) {... */\n      iszero\n      tag_33\n      jumpi\n        /* \"contracts/ccip/Sender.sol\":1504:1546  0x1c7D4B196Cb0C7B01d743Fbc6116a902379C7238 */\n      0x1c7d4b196cb0c7b01d743fbc6116a902379c7238\n      dup1\n        /* \"contracts/ccip/Sender.sol\":2384:2404  USDC_TOKEN.balanceOf */\n      0xffffffffffffffffffffffffffffffffffffffff\n      and\n      0x70a08231\n        /* \"contracts/ccip/Sender.sol\":2405:2415  msg.sender */\n      caller\n        /* \"contracts/ccip/Sender.sol\":2384:2416  USDC_TOKEN.balanceOf(msg.sender) */\n      mload(0x40)\n      dup3\n      0xffffffff\n      and\n      0xe0\n      shl\n      dup2\n      mstore\n      0x04\n      add\n      tag_34\n      swap2\n      swap1\n      tag_23\n      jump\t// in\n    tag_34:\n      0x20\n      mload(0x40)\n      dup1\n      dup4\n      sub\n      dup2\n      dup7\n      gas\n      staticcall\n      iszero\n      dup1\n      iszero\n      tag_36\n      jumpi\n      returndatacopy(0x00, 0x00, returndatasize)\n      revert(0x00, returndatasize)\n    tag_36:\n      pop\n      pop\n      pop\n      pop\n      mload(0x40)\n      returndatasize\n      not(0x1f)\n      0x1f\n      dup3\n      add\n      and\n      dup3\n      add\n      dup1\n      0x40\n      mstore\n      pop\n      dup2\n      add\n      swap1\n      tag_37\n      swap2\n      swap1\n      tag_32\n      jump\t// in\n    tag_37:\n        /* \"contracts/ccip/Sender.sol\":2418:2425  _amount */\n      dup5\n        /* \"contracts/ccip/Sender.sol\":2344:2426  Sender__InsufficientBalance(USDC_TOKEN, USDC_TOKEN.balanceOf(msg.sender), _amount) */\n      mload(0x40)\n      0xf686745600000000000000000000000000000000000000000000000000000000\n      dup2\n      mstore\n      0x04\n      add\n      tag_38\n      swap4\n      swap3\n      swap2\n      swap1\n      tag_39\n      jump\t// in\n    tag_38:\n      mload(0x40)\n      dup1\n      swap2\n      sub\n      swap1\n      revert\n        /* \"contracts/ccip/Sender.sol\":2275:2437  if (_amount > USDC_TOKEN.balanceOf(msg.sender)) {... */\n    tag_33:\n        /* \"contracts/ccip/Sender.sol\":2446:2501  Client.EVMTokenAmount[]... */\n      0x00\n        /* \"contracts/ccip/Sender.sol\":2532:2533  1 */\n      0x01\n        /* \"contracts/ccip/Sender.sol\":2504:2534  new Client.EVMTokenAmount[](1) */\n      0xffffffffffffffff\n      dup2\n      gt\n      iszero\n      tag_40\n      jumpi\n      tag_41\n      tag_42\n      jump\t// in\n    tag_41:\n    tag_40:\n      mload(0x40)\n      swap1\n      dup1\n      dup3\n      mstore\n      dup1\n      0x20\n      mul\n      0x20\n      add\n      dup3\n      add\n      0x40\n      mstore\n      dup1\n      iszero\n      tag_43\n      jumpi\n      dup2\n      0x20\n      add\n    tag_44:\n      tag_45\n      tag_46\n      jump\t// in\n    tag_45:\n      dup2\n      mstore\n      0x20\n      add\n      swap1\n      0x01\n      swap1\n      sub\n      swap1\n      dup2\n      tag_44\n      jumpi\n      swap1\n      pop\n    tag_43:\n      pop\n        /* \"contracts/ccip/Sender.sol\":2446:2534  Client.EVMTokenAmount[]... */\n      swap1\n      pop\n        /* \"contracts/ccip/Sender.sol\":2544:2584  Client.EVMTokenAmount memory tokenAmount */\n      0x00\n        /* \"contracts/ccip/Sender.sol\":2587:2689  Client.EVMTokenAmount({... */\n      mload(0x40)\n      dup1\n      0x40\n      add\n      0x40\n      mstore\n      dup1\n        /* \"contracts/ccip/Sender.sol\":1504:1546  0x1c7D4B196Cb0C7B01d743Fbc6116a902379C7238 */\n      0x1c7d4b196cb0c7b01d743fbc6116a902379c7238\n        /* \"contracts/ccip/Sender.sol\":2587:2689  Client.EVMTokenAmount({... */\n      0xffffffffffffffffffffffffffffffffffffffff\n      and\n      dup2\n      mstore\n      0x20\n      add\n        /* \"contracts/ccip/Sender.sol\":2671:2678  _amount */\n      dup7\n        /* \"contracts/ccip/Sender.sol\":2587:2689  Client.EVMTokenAmount({... */\n      dup2\n      mstore\n      pop\n        /* \"contracts/ccip/Sender.sol\":2544:2689  Client.EVMTokenAmount memory tokenAmount = Client.EVMTokenAmount({... */\n      swap1\n      pop\n        /* \"contracts/ccip/Sender.sol\":2717:2728  tokenAmount */\n      dup1\n        /* \"contracts/ccip/Sender.sol\":2699:2711  tokenAmounts */\n      dup3\n        /* \"contracts/ccip/Sender.sol\":2712:2713  0 */\n      0x00\n        /* \"contracts/ccip/Sender.sol\":2699:2714  tokenAmounts[0] */\n      dup2\n      mload\n      dup2\n      lt\n      tag_47\n      jumpi\n      tag_48\n      tag_49\n      jump\t// in\n    tag_48:\n    tag_47:\n      0x20\n      mul\n      0x20\n      add\n      add\n        /* \"contracts/ccip/Sender.sol\":2699:2728  tokenAmounts[0] = tokenAmount */\n      dup2\n      swap1\n      mstore\n      pop\n        /* \"contracts/ccip/Sender.sol\":2738:2774  bytes memory depositFunctionCalldata */\n      0x00\n        /* \"contracts/ccip/Sender.sol\":2813:2836  IVault.deposit.selector */\n      shl(0xe0, 0x47e7ef24)\n        /* \"contracts/ccip/Sender.sol\":2850:2860  msg.sender */\n      caller\n        /* \"contracts/ccip/Sender.sol\":2874:2881  _amount */\n      dup8\n        /* \"contracts/ccip/Sender.sol\":2777:2891  abi.encodeWithSelector(... */\n      add(0x24, mload(0x40))\n      tag_50\n      swap3\n      swap2\n      swap1\n      tag_51\n      jump\t// in\n    tag_50:\n      mload(0x40)\n      0x20\n      dup2\n      dup4\n      sub\n      sub\n      dup2\n      mstore\n      swap1\n      0x40\n      mstore\n      swap1\n      not(0xffffffffffffffffffffffffffffffffffffffffffffffffffffffff)\n      and\n      0x20\n      dup3\n      add\n      dup1\n      mload\n      0xffffffffffffffffffffffffffffffffffffffffffffffffffffffff\n      dup4\n      dup2\n      dup4\n      and\n      or\n      dup4\n      mstore\n      pop\n      pop\n      pop\n      pop\n        /* \"contracts/ccip/Sender.sol\":2738:2891  bytes memory depositFunctionCalldata = abi.encodeWithSelector(... */\n      swap1\n      pop\n        /* \"contracts/ccip/Sender.sol\":2902:2938  Client.EVM2AnyMessage memory message */\n      0x00\n        /* \"contracts/ccip/Sender.sol\":2941:3486  Client.EVM2AnyMessage({... */\n      mload(0x40)\n      dup1\n      0xa0\n      add\n      0x40\n      mstore\n      dup1\n        /* \"contracts/ccip/Sender.sol\":2998:3007  _receiver */\n      dup10\n        /* \"contracts/ccip/Sender.sol\":2987:3008  abi.encode(_receiver) */\n      add(0x20, mload(0x40))\n      tag_52\n      swap2\n      swap1\n      tag_23\n      jump\t// in\n    tag_52:\n      mload(0x40)\n      0x20\n      dup2\n      dup4\n      sub\n      sub\n      dup2\n      mstore\n      swap1\n      0x40\n      mstore\n        /* \"contracts/ccip/Sender.sol\":2941:3486  Client.EVM2AnyMessage({... */\n      dup2\n      mstore\n      0x20\n      add\n        /* \"contracts/ccip/Sender.sol\":3056:3063  _target */\n      dup8\n        /* \"contracts/ccip/Sender.sol\":3115:3138  depositFunctionCalldata */\n      dup5\n        /* \"contracts/ccip/Sender.sol\":3028:3152  abi.encode(... */\n      add(0x20, mload(0x40))\n      tag_53\n      swap3\n      swap2\n      swap1\n      tag_54\n      jump\t// in\n    tag_53:\n      mload(0x40)\n      0x20\n      dup2\n      dup4\n      sub\n      sub\n      dup2\n      mstore\n      swap1\n      0x40\n      mstore\n        /* \"contracts/ccip/Sender.sol\":2941:3486  Client.EVM2AnyMessage({... */\n      dup2\n      mstore\n      0x20\n      add\n        /* \"contracts/ccip/Sender.sol\":3251:3263  tokenAmounts */\n      dup6\n        /* \"contracts/ccip/Sender.sol\":2941:3486  Client.EVM2AnyMessage({... */\n      dup2\n      mstore\n      0x20\n      add\n        /* \"contracts/ccip/Sender.sol\":1335:1377  0x779877A7B0D9E8603169DdbD7836e478b4624789 */\n      0x779877a7b0d9e8603169ddbd7836e478b4624789\n        /* \"contracts/ccip/Sender.sol\":2941:3486  Client.EVM2AnyMessage({... */\n      0xffffffffffffffffffffffffffffffffffffffff\n      and\n      dup2\n      mstore\n      0x20\n      add\n        /* \"contracts/ccip/Sender.sol\":3288:3432  Client._argsToBytes(... */\n      tag_55\n        /* \"contracts/ccip/Sender.sol\":3325:3366  Client.EVMExtraArgsV1({gasLimit: 200000}) */\n      mload(0x40)\n      dup1\n      0x20\n      add\n      0x40\n      mstore\n      dup1\n        /* \"contracts/ccip/Sender.sol\":3358:3364  200000 */\n      0x030d40\n        /* \"contracts/ccip/Sender.sol\":3325:3366  Client.EVMExtraArgsV1({gasLimit: 200000}) */\n      dup2\n      mstore\n      pop\n        /* \"contracts/ccip/Sender.sol\":3288:3307  Client._argsToBytes */\n      tag_56\n        /* \"contracts/ccip/Sender.sol\":3288:3432  Client._argsToBytes(... */\n      jump\t// in\n    tag_55:\n        /* \"contracts/ccip/Sender.sol\":2941:3486  Client.EVM2AnyMessage({... */\n      dup2\n      mstore\n      pop\n        /* \"contracts/ccip/Sender.sol\":2902:3486  Client.EVM2AnyMessage memory message = Client.EVM2AnyMessage({... */\n      swap1\n      pop\n        /* \"contracts/ccip/Sender.sol\":3497:3512  uint256 ccipFee */\n      0x00\n        /* \"contracts/ccip/Sender.sol\":1155:1197  0x0BF3dE8c5D3e8A2B34D2BEeB17ABfCeBaf363A59 */\n      0x0bf3de8c5d3e8a2b34d2beeb17abfcebaf363a59\n        /* \"contracts/ccip/Sender.sol\":3515:3528  ROUTER.getFee */\n      0xffffffffffffffffffffffffffffffffffffffff\n      and\n      0x20487ded\n        /* \"contracts/ccip/Sender.sol\":1698:1718  10344971235874465080 */\n      0x8f90b8876dee6538\n        /* \"contracts/ccip/Sender.sol\":3582:3589  message */\n      dup5\n        /* \"contracts/ccip/Sender.sol\":3515:3599  ROUTER.getFee(... */\n      mload(0x40)\n      dup4\n      0xffffffff\n      and\n      0xe0\n      shl\n      dup2\n      mstore\n      0x04\n      add\n      tag_57\n      swap3\n      swap2\n      swap1\n      tag_58\n      jump\t// in\n    tag_57:\n      0x20\n      mload(0x40)\n      dup1\n      dup4\n      sub\n      dup2\n      dup7\n      gas\n      staticcall\n      iszero\n      dup1\n      iszero\n      tag_60\n      jumpi\n      returndatacopy(0x00, 0x00, returndatasize)\n      revert(0x00, returndatasize)\n    tag_60:\n      pop\n      pop\n      pop\n      pop\n      mload(0x40)\n      returndatasize\n      not(0x1f)\n      0x1f\n      dup3\n      add\n      and\n      dup3\n      add\n      dup1\n      0x40\n      mstore\n      pop\n      dup2\n      add\n      swap1\n      tag_61\n      swap2\n      swap1\n      tag_32\n      jump\t// in\n    tag_61:\n        /* \"contracts/ccip/Sender.sol\":3497:3599  uint256 ccipFee = ROUTER.getFee(... */\n      swap1\n      pop\n        /* \"contracts/ccip/Sender.sol\":1335:1377  0x779877A7B0D9E8603169DdbD7836e478b4624789 */\n      0x779877a7b0d9e8603169ddbd7836e478b4624789\n        /* \"contracts/ccip/Sender.sol\":3624:3644  LINK_TOKEN.balanceOf */\n      0xffffffffffffffffffffffffffffffffffffffff\n      and\n      0x70a08231\n        /* \"contracts/ccip/Sender.sol\":3653:3657  this */\n      address\n        /* \"contracts/ccip/Sender.sol\":3624:3659  LINK_TOKEN.balanceOf(address(this)) */\n      mload(0x40)\n      dup3\n      0xffffffff\n      and\n      0xe0\n      shl\n      dup2\n      mstore\n      0x04\n      add\n      tag_62\n      swap2\n      swap1\n      tag_23\n      jump\t// in\n    tag_62:\n      0x20\n      mload(0x40)\n      dup1\n      dup4\n      sub\n      dup2\n      dup7\n      gas\n      staticcall\n      iszero\n      dup1\n      iszero\n      tag_64\n      jumpi\n      returndatacopy(0x00, 0x00, returndatasize)\n      revert(0x00, returndatasize)\n    tag_64:\n      pop\n      pop\n      pop\n      pop\n      mload(0x40)\n      returndatasize\n      not(0x1f)\n      0x1f\n      dup3\n      add\n      and\n      dup3\n      add\n      dup1\n      0x40\n      mstore\n      pop\n      dup2\n      add\n      swap1\n      tag_65\n      swap2\n      swap1\n      tag_32\n      jump\t// in\n    tag_65:\n        /* \"contracts/ccip/Sender.sol\":3614:3621  ccipFee */\n      dup2\n        /* \"contracts/ccip/Sender.sol\":3614:3659  ccipFee > LINK_TOKEN.balanceOf(address(this)) */\n      gt\n        /* \"contracts/ccip/Sender.sol\":3610:3778  if (ccipFee > LINK_TOKEN.balanceOf(address(this))) {... */\n      iszero\n      tag_66\n      jumpi\n        /* \"contracts/ccip/Sender.sol\":1335:1377  0x779877A7B0D9E8603169DdbD7836e478b4624789 */\n      0x779877a7b0d9e8603169ddbd7836e478b4624789\n      dup1\n        /* \"contracts/ccip/Sender.sol\":3722:3742  LINK_TOKEN.balanceOf */\n      0xffffffffffffffffffffffffffffffffffffffff\n      and\n      0x70a08231\n        /* \"contracts/ccip/Sender.sol\":3751:3755  this */\n      address\n        /* \"contracts/ccip/Sender.sol\":3722:3757  LINK_TOKEN.balanceOf(address(this)) */\n      mload(0x40)\n      dup3\n      0xffffffff\n      and\n      0xe0\n      shl\n      dup2\n      mstore\n      0x04\n      add\n      tag_67\n      swap2\n      swap1\n      tag_23\n      jump\t// in\n    tag_67:\n      0x20\n      mload(0x40)\n      dup1\n      dup4\n      sub\n      dup2\n      dup7\n      gas\n      staticcall\n      iszero\n      dup1\n      iszero\n      tag_69\n      jumpi\n      returndatacopy(0x00, 0x00, returndatasize)\n      revert(0x00, returndatasize)\n    tag_69:\n      pop\n      pop\n      pop\n      pop\n      mload(0x40)\n      returndatasize\n      not(0x1f)\n      0x1f\n      dup3\n      add\n      and\n      dup3\n      add\n      dup1\n      0x40\n      mstore\n      pop\n      dup2\n      add\n      swap1\n      tag_70\n      swap2\n      swap1\n      tag_32\n      jump\t// in\n    tag_70:\n        /* \"contracts/ccip/Sender.sol\":3759:3766  ccipFee */\n      dup3\n        /* \"contracts/ccip/Sender.sol\":3682:3767  Sender__InsufficientBalance(LINK_TOKEN, LINK_TOKEN.balanceOf(address(this)), ccipFee) */\n      mload(0x40)\n      0xf686745600000000000000000000000000000000000000000000000000000000\n      dup2\n      mstore\n      0x04\n      add\n      tag_71\n      swap4\n      swap3\n      swap2\n      swap1\n      tag_39\n      jump\t// in\n    tag_71:\n      mload(0x40)\n      dup1\n      swap2\n      sub\n      swap1\n      revert\n        /* \"contracts/ccip/Sender.sol\":3610:3778  if (ccipFee > LINK_TOKEN.balanceOf(address(this))) {... */\n    tag_66:\n        /* \"contracts/ccip/Sender.sol\":1335:1377  0x779877A7B0D9E8603169DdbD7836e478b4624789 */\n      0x779877a7b0d9e8603169ddbd7836e478b4624789\n        /* \"contracts/ccip/Sender.sol\":3788:3806  LINK_TOKEN.approve */\n      0xffffffffffffffffffffffffffffffffffffffff\n      and\n      0x095ea7b3\n        /* \"contracts/ccip/Sender.sol\":1155:1197  0x0BF3dE8c5D3e8A2B34D2BEeB17ABfCeBaf363A59 */\n      0x0bf3de8c5d3e8a2b34d2beeb17abfcebaf363a59\n        /* \"contracts/ccip/Sender.sol\":3824:3831  ccipFee */\n      dup4\n        /* \"contracts/ccip/Sender.sol\":3788:3832  LINK_TOKEN.approve(address(ROUTER), ccipFee) */\n      mload(0x40)\n      dup4\n      0xffffffff\n      and\n      0xe0\n      shl\n      dup2\n      mstore\n      0x04\n      add\n      tag_72\n      swap3\n      swap2\n      swap1\n      tag_51\n      jump\t// in\n    tag_72:\n      0x20\n      mload(0x40)\n      dup1\n      dup4\n      sub\n      dup2\n      0x00\n      dup8\n      gas\n      call\n      iszero\n      dup1\n      iszero\n      tag_74\n      jumpi\n      returndatacopy(0x00, 0x00, returndatasize)\n      revert(0x00, returndatasize)\n    tag_74:\n      pop\n      pop\n      pop\n      pop\n      mload(0x40)\n      returndatasize\n      not(0x1f)\n      0x1f\n      dup3\n      add\n      and\n      dup3\n      add\n      dup1\n      0x40\n      mstore\n      pop\n      dup2\n      add\n      swap1\n      tag_75\n      swap2\n      swap1\n      tag_76\n      jump\t// in\n    tag_75:\n      pop\n        /* \"contracts/ccip/Sender.sol\":3843:3906  USDC_TOKEN.safeTransferFrom(msg.sender, address(this), _amount) */\n      tag_77\n        /* \"contracts/ccip/Sender.sol\":3871:3881  msg.sender */\n      caller\n        /* \"contracts/ccip/Sender.sol\":3891:3895  this */\n      address\n        /* \"contracts/ccip/Sender.sol\":3898:3905  _amount */\n      dup11\n        /* \"contracts/ccip/Sender.sol\":1504:1546  0x1c7D4B196Cb0C7B01d743Fbc6116a902379C7238 */\n      0x1c7d4b196cb0c7b01d743fbc6116a902379c7238\n        /* \"contracts/ccip/Sender.sol\":3843:3870  USDC_TOKEN.safeTransferFrom */\n      0xffffffffffffffffffffffffffffffffffffffff\n      and\n      tag_78\n      swap1\n        /* \"contracts/ccip/Sender.sol\":3843:3906  USDC_TOKEN.safeTransferFrom(msg.sender, address(this), _amount) */\n      swap4\n      swap3\n      swap2\n      swap1\n      0xffffffff\n      and\n      jump\t// in\n    tag_77:\n        /* \"contracts/ccip/Sender.sol\":1504:1546  0x1c7D4B196Cb0C7B01d743Fbc6116a902379C7238 */\n      0x1c7d4b196cb0c7b01d743fbc6116a902379c7238\n        /* \"contracts/ccip/Sender.sol\":3916:3934  USDC_TOKEN.approve */\n      0xffffffffffffffffffffffffffffffffffffffff\n      and\n      0x095ea7b3\n        /* \"contracts/ccip/Sender.sol\":1155:1197  0x0BF3dE8c5D3e8A2B34D2BEeB17ABfCeBaf363A59 */\n      0x0bf3de8c5d3e8a2b34d2beeb17abfcebaf363a59\n        /* \"contracts/ccip/Sender.sol\":3952:3959  _amount */\n      dup11\n        /* \"contracts/ccip/Sender.sol\":3916:3960  USDC_TOKEN.approve(address(ROUTER), _amount) */\n      mload(0x40)\n      dup4\n      0xffffffff\n      and\n      0xe0\n      shl\n      dup2\n      mstore\n      0x04\n      add\n      tag_79\n      swap3\n      swap2\n      swap1\n      tag_51\n      jump\t// in\n    tag_79:\n      0x20\n      mload(0x40)\n      dup1\n      dup4\n      sub\n      dup2\n      0x00\n      dup8\n      gas\n      call\n      iszero\n      dup1\n      iszero\n      tag_81\n      jumpi\n      returndatacopy(0x00, 0x00, returndatasize)\n      revert(0x00, returndatasize)\n    tag_81:\n      pop\n      pop\n      pop\n      pop\n      mload(0x40)\n      returndatasize\n      not(0x1f)\n      0x1f\n      dup3\n      add\n      and\n      dup3\n      add\n      dup1\n      0x40\n      mstore\n      pop\n      dup2\n      add\n      swap1\n      tag_82\n      swap2\n      swap1\n      tag_76\n      jump\t// in\n    tag_82:\n      pop\n        /* \"contracts/ccip/Sender.sol\":1155:1197  0x0BF3dE8c5D3e8A2B34D2BEeB17ABfCeBaf363A59 */\n      0x0bf3de8c5d3e8a2b34d2beeb17abfcebaf363a59\n        /* \"contracts/ccip/Sender.sol\":4012:4027  ROUTER.ccipSend */\n      0xffffffffffffffffffffffffffffffffffffffff\n      and\n      0x96f4e9f9\n        /* \"contracts/ccip/Sender.sol\":1698:1718  10344971235874465080 */\n      0x8f90b8876dee6538\n        /* \"contracts/ccip/Sender.sol\":4056:4063  message */\n      dup5\n        /* \"contracts/ccip/Sender.sol\":4012:4064  ROUTER.ccipSend(DESTINATION_CHAIN_SELECTOR, message) */\n      mload(0x40)\n      dup4\n      0xffffffff\n      and\n      0xe0\n      shl\n      dup2\n      mstore\n      0x04\n      add\n      tag_83\n      swap3\n      swap2\n      swap1\n      tag_58\n      jump\t// in\n    tag_83:\n      0x20\n      mload(0x40)\n      dup1\n      dup4\n      sub\n      dup2\n      0x00\n      dup8\n      gas\n      call\n      iszero\n      dup1\n      iszero\n      tag_85\n      jumpi\n      returndatacopy(0x00, 0x00, returndatasize)\n      revert(0x00, returndatasize)\n    tag_85:\n      pop\n      pop\n      pop\n      pop\n      mload(0x40)\n      returndatasize\n      not(0x1f)\n      0x1f\n      dup3\n      add\n      and\n      dup3\n      add\n      dup1\n      0x40\n      mstore\n      pop\n      dup2\n      add\n      swap1\n      tag_86\n      swap2\n      swap1\n      tag_87\n      jump\t// in\n    tag_86:\n        /* \"contracts/ccip/Sender.sol\":4000:4064  messageId = ROUTER.ccipSend(DESTINATION_CHAIN_SELECTOR, message) */\n      swap6\n      pop\n        /* \"contracts/ccip/Sender.sol\":4172:4181  _receiver */\n      dup9\n        /* \"contracts/ccip/Sender.sol\":4080:4233  USDCTransferred(... */\n      0xffffffffffffffffffffffffffffffffffffffff\n      and\n        /* \"contracts/ccip/Sender.sol\":1698:1718  10344971235874465080 */\n      0x8f90b8876dee6538\n        /* \"contracts/ccip/Sender.sol\":4080:4233  USDCTransferred(... */\n      0xffffffffffffffff\n      and\n      0xeca040c7df5d1a8ea4277fa1a77f55e8ef67b6fcf617a6fc6b16067f5f7547b5\n        /* \"contracts/ccip/Sender.sol\":4109:4118  messageId */\n      dup9\n        /* \"contracts/ccip/Sender.sol\":4195:4202  _amount */\n      dup12\n        /* \"contracts/ccip/Sender.sol\":4216:4223  ccipFee */\n      dup6\n        /* \"contracts/ccip/Sender.sol\":4080:4233  USDCTransferred(... */\n      mload(0x40)\n      tag_88\n      swap4\n      swap3\n      swap2\n      swap1\n      tag_89\n      jump\t// in\n    tag_88:\n      mload(0x40)\n      dup1\n      swap2\n      sub\n      swap1\n      log3\n        /* \"contracts/ccip/Sender.sol\":2265:4240  {... */\n      pop\n      pop\n      pop\n      pop\n      pop\n        /* \"contracts/ccip/Sender.sol\":2101:4240  function transferTokens(... */\n      swap4\n      swap3\n      pop\n      pop\n      pop\n      jump\t// out\n        /* \"@openzeppelin/contracts@5.2.0/access/Ownable.sol\":2293:2394  function renounceOwnership() public virtual onlyOwner {... */\n    tag_15:\n        /* \"@openzeppelin/contracts@5.2.0/access/Ownable.sol\":1531:1544  _checkOwner() */\n      tag_91\n        /* \"@openzeppelin/contracts@5.2.0/access/Ownable.sol\":1531:1542  _checkOwner */\n      tag_92\n        /* \"@openzeppelin/contracts@5.2.0/access/Ownable.sol\":1531:1544  _checkOwner() */\n      jump\t// in\n    tag_91:\n        /* \"@openzeppelin/contracts@5.2.0/access/Ownable.sol\":2357:2387  _transferOwnership(address(0)) */\n      tag_94\n        /* \"@openzeppelin/contracts@5.2.0/access/Ownable.sol\":2384:2385  0 */\n      0x00\n        /* \"@openzeppelin/contracts@5.2.0/access/Ownable.sol\":2357:2375  _transferOwnership */\n      tag_95\n        /* \"@openzeppelin/contracts@5.2.0/access/Ownable.sol\":2357:2387  _transferOwnership(address(0)) */\n      jump\t// in\n    tag_94:\n        /* \"@openzeppelin/contracts@5.2.0/access/Ownable.sol\":2293:2394  function renounceOwnership() public virtual onlyOwner {... */\n      jump\t// out\n        /* \"contracts/ccip/Sender.sol\":4246:4519  function withdrawToken(... */\n    tag_19:\n        /* \"@openzeppelin/contracts@5.2.0/access/Ownable.sol\":1531:1544  _checkOwner() */\n      tag_97\n        /* \"@openzeppelin/contracts@5.2.0/access/Ownable.sol\":1531:1542  _checkOwner */\n      tag_92\n        /* \"@openzeppelin/contracts@5.2.0/access/Ownable.sol\":1531:1544  _checkOwner() */\n      jump\t// in\n    tag_97:\n        /* \"contracts/ccip/Sender.sol\":4332:4346  uint256 amount */\n      0x00\n        /* \"contracts/ccip/Sender.sol\":1504:1546  0x1c7D4B196Cb0C7B01d743Fbc6116a902379C7238 */\n      0x1c7d4b196cb0c7b01d743fbc6116a902379c7238\n        /* \"contracts/ccip/Sender.sol\":4349:4377  IERC20(USDC_TOKEN).balanceOf */\n      0xffffffffffffffffffffffffffffffffffffffff\n      and\n      0x70a08231\n        /* \"contracts/ccip/Sender.sol\":4386:4390  this */\n      address\n        /* \"contracts/ccip/Sender.sol\":4349:4392  IERC20(USDC_TOKEN).balanceOf(address(this)) */\n      mload(0x40)\n      dup3\n      0xffffffff\n      and\n      0xe0\n      shl\n      dup2\n      mstore\n      0x04\n      add\n      tag_99\n      swap2\n      swap1\n      tag_23\n      jump\t// in\n    tag_99:\n      0x20\n      mload(0x40)\n      dup1\n      dup4\n      sub\n      dup2\n      dup7\n      gas\n      staticcall\n      iszero\n      dup1\n      iszero\n      tag_101\n      jumpi\n      returndatacopy(0x00, 0x00, returndatasize)\n      revert(0x00, returndatasize)\n    tag_101:\n      pop\n      pop\n      pop\n      pop\n      mload(0x40)\n      returndatasize\n      not(0x1f)\n      0x1f\n      dup3\n      add\n      and\n      dup3\n      add\n      dup1\n      0x40\n      mstore\n      pop\n      dup2\n      add\n      swap1\n      tag_102\n      swap2\n      swap1\n      tag_32\n      jump\t// in\n    tag_102:\n        /* \"contracts/ccip/Sender.sol\":4332:4392  uint256 amount = IERC20(USDC_TOKEN).balanceOf(address(this)) */\n      swap1\n      pop\n        /* \"contracts/ccip/Sender.sol\":4416:4417  0 */\n      0x00\n        /* \"contracts/ccip/Sender.sol\":4406:4412  amount */\n      dup2\n        /* \"contracts/ccip/Sender.sol\":4406:4417  amount == 0 */\n      sub\n        /* \"contracts/ccip/Sender.sol\":4402:4453  if (amount == 0) revert Sender__NothingToWithdraw() */\n      tag_103\n      jumpi\n        /* \"contracts/ccip/Sender.sol\":4426:4453  Sender__NothingToWithdraw() */\n      mload(0x40)\n      0x6f22150a00000000000000000000000000000000000000000000000000000000\n      dup2\n      mstore\n      0x04\n      add\n      mload(0x40)\n      dup1\n      swap2\n      sub\n      swap1\n      revert\n        /* \"contracts/ccip/Sender.sol\":4402:4453  if (amount == 0) revert Sender__NothingToWithdraw() */\n    tag_103:\n        /* \"contracts/ccip/Sender.sol\":1504:1546  0x1c7D4B196Cb0C7B01d743Fbc6116a902379C7238 */\n      0x1c7d4b196cb0c7b01d743fbc6116a902379c7238\n        /* \"contracts/ccip/Sender.sol\":4463:4490  IERC20(USDC_TOKEN).transfer */\n      0xffffffffffffffffffffffffffffffffffffffff\n      and\n      0xa9059cbb\n        /* \"contracts/ccip/Sender.sol\":4491:4503  _beneficiary */\n      dup4\n        /* \"contracts/ccip/Sender.sol\":4505:4511  amount */\n      dup4\n        /* \"contracts/ccip/Sender.sol\":4463:4512  IERC20(USDC_TOKEN).transfer(_beneficiary, amount) */\n      mload(0x40)\n      dup4\n      0xffffffff\n      and\n      0xe0\n      shl\n      dup2\n      mstore\n      0x04\n      add\n      tag_104\n      swap3\n      swap2\n      swap1\n      tag_51\n      jump\t// in\n    tag_104:\n      0x20\n      mload(0x40)\n      dup1\n      dup4\n      sub\n      dup2\n      0x00\n      dup8\n      gas\n      call\n      iszero\n      dup1\n      iszero\n      tag_106\n      jumpi\n      returndatacopy(0x00, 0x00, returndatasize)\n      revert(0x00, returndatasize)\n    tag_106:\n      pop\n      pop\n      pop\n      pop\n      mload(0x40)\n      returndatasize\n      not(0x1f)\n      0x1f\n      dup3\n      add\n      and\n      dup3\n      add\n      dup1\n      0x40\n      mstore\n      pop\n      dup2\n      add\n      swap1\n      tag_107\n      swap2\n      swap1\n      tag_76\n      jump\t// in\n    tag_107:\n      pop\n        /* \"contracts/ccip/Sender.sol\":4322:4519  {... */\n      pop\n        /* \"contracts/ccip/Sender.sol\":4246:4519  function withdrawToken(... */\n      pop\n      jump\t// out\n        /* \"@openzeppelin/contracts@5.2.0/access/Ownable.sol\":1638:1723  function owner() public view virtual returns (address) {... */\n    tag_21:\n        /* \"@openzeppelin/contracts@5.2.0/access/Ownable.sol\":1684:1691  address */\n      0x00\n        /* \"@openzeppelin/contracts@5.2.0/access/Ownable.sol\":1710:1716  _owner */\n      0x00\n      0x00\n      swap1\n      sload\n      swap1\n      0x0100\n      exp\n      swap1\n      div\n      0xffffffffffffffffffffffffffffffffffffffff\n      and\n        /* \"@openzeppelin/contracts@5.2.0/access/Ownable.sol\":1703:1716  return _owner */\n      swap1\n      pop\n        /* \"@openzeppelin/contracts@5.2.0/access/Ownable.sol\":1638:1723  function owner() public view virtual returns (address) {... */\n      swap1\n      jump\t// out\n        /* \"@openzeppelin/contracts@5.2.0/access/Ownable.sol\":2543:2758  function transferOwnership(address newOwner) public virtual onlyOwner {... */\n    tag_26:\n        /* \"@openzeppelin/contracts@5.2.0/access/Ownable.sol\":1531:1544  _checkOwner() */\n      tag_110\n        /* \"@openzeppelin/contracts@5.2.0/access/Ownable.sol\":1531:1542  _checkOwner */\n      tag_92\n        /* \"@openzeppelin/contracts@5.2.0/access/Ownable.sol\":1531:1544  _checkOwner() */\n      jump\t// in\n    tag_110:\n        /* \"@openzeppelin/contracts@5.2.0/access/Ownable.sol\":2647:2648  0 */\n      0x00\n        /* \"@openzeppelin/contracts@5.2.0/access/Ownable.sol\":2627:2649  newOwner == address(0) */\n      0xffffffffffffffffffffffffffffffffffffffff\n      and\n        /* \"@openzeppelin/contracts@5.2.0/access/Ownable.sol\":2627:2635  newOwner */\n      dup2\n        /* \"@openzeppelin/contracts@5.2.0/access/Ownable.sol\":2627:2649  newOwner == address(0) */\n      0xffffffffffffffffffffffffffffffffffffffff\n      and\n      sub\n        /* \"@openzeppelin/contracts@5.2.0/access/Ownable.sol\":2623:2714  if (newOwner == address(0)) {... */\n      tag_112\n      jumpi\n        /* \"@openzeppelin/contracts@5.2.0/access/Ownable.sol\":2700:2701  0 */\n      0x00\n        /* \"@openzeppelin/contracts@5.2.0/access/Ownable.sol\":2672:2703  OwnableInvalidOwner(address(0)) */\n      mload(0x40)\n      0x1e4fbdf700000000000000000000000000000000000000000000000000000000\n      dup2\n      mstore\n      0x04\n      add\n      tag_113\n      swap2\n      swap1\n      tag_23\n      jump\t// in\n    tag_113:\n      mload(0x40)\n      dup1\n      swap2\n      sub\n      swap1\n      revert\n        /* \"@openzeppelin/contracts@5.2.0/access/Ownable.sol\":2623:2714  if (newOwner == address(0)) {... */\n    tag_112:\n        /* \"@openzeppelin/contracts@5.2.0/access/Ownable.sol\":2723:2751  _transferOwnership(newOwner) */\n      tag_114\n        /* \"@openzeppelin/contracts@5.2.0/access/Ownable.sol\":2742:2750  newOwner */\n      dup2\n        /* \"@openzeppelin/contracts@5.2.0/access/Ownable.sol\":2723:2741  _transferOwnership */\n      tag_95\n        /* \"@openzeppelin/contracts@5.2.0/access/Ownable.sol\":2723:2751  _transferOwnership(newOwner) */\n      jump\t// in\n    tag_114:\n        /* \"@openzeppelin/contracts@5.2.0/access/Ownable.sol\":2543:2758  function transferOwnership(address newOwner) public virtual onlyOwner {... */\n      pop\n      jump\t// out\n        /* \"@chainlink/contracts@1.3.0/src/v0.8/ccip/libraries/Client.sol\":1286:1464  function _argsToBytes(... */\n    tag_56:\n        /* \"@chainlink/contracts@1.3.0/src/v0.8/ccip/libraries/Client.sol\":1372:1388  bytes memory bts */\n      0x60\n        /* \"@chainlink/contracts@1.3.0/src/v0.8/ccip/libraries/Client.sol\":1218:1228  0x97a657c9 */\n      0x97a657c9\n        /* \"@chainlink/contracts@1.3.0/src/v0.8/ccip/libraries/Client.sol\":1426:1447  EVM_EXTRA_ARGS_V1_TAG */\n      0xe0\n      shl\n        /* \"@chainlink/contracts@1.3.0/src/v0.8/ccip/libraries/Client.sol\":1449:1458  extraArgs */\n      dup3\n        /* \"@chainlink/contracts@1.3.0/src/v0.8/ccip/libraries/Client.sol\":1403:1459  abi.encodeWithSelector(EVM_EXTRA_ARGS_V1_TAG, extraArgs) */\n      add(0x24, mload(0x40))\n      tag_116\n      swap2\n      swap1\n      tag_117\n      jump\t// in\n    tag_116:\n      mload(0x40)\n      0x20\n      dup2\n      dup4\n      sub\n      sub\n      dup2\n      mstore\n      swap1\n      0x40\n      mstore\n      swap1\n      not(0xffffffffffffffffffffffffffffffffffffffffffffffffffffffff)\n      and\n      0x20\n      dup3\n      add\n      dup1\n      mload\n      0xffffffffffffffffffffffffffffffffffffffffffffffffffffffff\n      dup4\n      dup2\n      dup4\n      and\n      or\n      dup4\n      mstore\n      pop\n      pop\n      pop\n      pop\n        /* \"@chainlink/contracts@1.3.0/src/v0.8/ccip/libraries/Client.sol\":1396:1459  return abi.encodeWithSelector(EVM_EXTRA_ARGS_V1_TAG, extraArgs) */\n      swap1\n      pop\n        /* \"@chainlink/contracts@1.3.0/src/v0.8/ccip/libraries/Client.sol\":1286:1464  function _argsToBytes(... */\n      swap2\n      swap1\n      pop\n      jump\t// out\n        /* \"@chainlink/contracts@1.3.0/src/v0.8/vendor/openzeppelin-solidity/v4.8.3/contracts/token/ERC20/utils/SafeERC20.sol\":932:1129  function safeTransferFrom(IERC20 token, address from, address to, uint256 value) internal {... */\n    tag_78:\n        /* \"@chainlink/contracts@1.3.0/src/v0.8/vendor/openzeppelin-solidity/v4.8.3/contracts/token/ERC20/utils/SafeERC20.sol\":1028:1124  _callOptionalReturn(token, abi.encodeWithSelector(token.transferFrom.selector, from, to, value)) */\n      tag_119\n        /* \"@chainlink/contracts@1.3.0/src/v0.8/vendor/openzeppelin-solidity/v4.8.3/contracts/token/ERC20/utils/SafeERC20.sol\":1048:1053  token */\n      dup5\n        /* \"@chainlink/contracts@1.3.0/src/v0.8/vendor/openzeppelin-solidity/v4.8.3/contracts/token/ERC20/utils/SafeERC20.sol\":1078:1105  token.transferFrom.selector */\n      shl(0xe0, 0x23b872dd)\n        /* \"@chainlink/contracts@1.3.0/src/v0.8/vendor/openzeppelin-solidity/v4.8.3/contracts/token/ERC20/utils/SafeERC20.sol\":1107:1111  from */\n      dup6\n        /* \"@chainlink/contracts@1.3.0/src/v0.8/vendor/openzeppelin-solidity/v4.8.3/contracts/token/ERC20/utils/SafeERC20.sol\":1113:1115  to */\n      dup6\n        /* \"@chainlink/contracts@1.3.0/src/v0.8/vendor/openzeppelin-solidity/v4.8.3/contracts/token/ERC20/utils/SafeERC20.sol\":1117:1122  value */\n      dup6\n        /* \"@chainlink/contracts@1.3.0/src/v0.8/vendor/openzeppelin-solidity/v4.8.3/contracts/token/ERC20/utils/SafeERC20.sol\":1055:1123  abi.encodeWithSelector(token.transferFrom.selector, from, to, value) */\n      add(0x24, mload(0x40))\n      tag_120\n      swap4\n      swap3\n      swap2\n      swap1\n      tag_121\n      jump\t// in\n    tag_120:\n      mload(0x40)\n      0x20\n      dup2\n      dup4\n      sub\n      sub\n      dup2\n      mstore\n      swap1\n      0x40\n      mstore\n      swap1\n      not(0xffffffffffffffffffffffffffffffffffffffffffffffffffffffff)\n      and\n      0x20\n      dup3\n      add\n      dup1\n      mload\n      0xffffffffffffffffffffffffffffffffffffffffffffffffffffffff\n      dup4\n      dup2\n      dup4\n      and\n      or\n      dup4\n      mstore\n      pop\n      pop\n      pop\n      pop\n        /* \"@chainlink/contracts@1.3.0/src/v0.8/vendor/openzeppelin-solidity/v4.8.3/contracts/token/ERC20/utils/SafeERC20.sol\":1028:1047  _callOptionalReturn */\n      tag_122\n        /* \"@chainlink/contracts@1.3.0/src/v0.8/vendor/openzeppelin-solidity/v4.8.3/contracts/token/ERC20/utils/SafeERC20.sol\":1028:1124  _callOptionalReturn(token, abi.encodeWithSelector(token.transferFrom.selector, from, to, value)) */\n      jump\t// in\n    tag_119:\n        /* \"@chainlink/contracts@1.3.0/src/v0.8/vendor/openzeppelin-solidity/v4.8.3/contracts/token/ERC20/utils/SafeERC20.sol\":932:1129  function safeTransferFrom(IERC20 token, address from, address to, uint256 value) internal {... */\n      pop\n      pop\n      pop\n      pop\n      jump\t// out\n        /* \"@openzeppelin/contracts@5.2.0/access/Ownable.sol\":1796:1958  function _checkOwner() internal view virtual {... */\n    tag_92:\n        /* \"@openzeppelin/contracts@5.2.0/access/Ownable.sol\":1866:1878  _msgSender() */\n      tag_124\n        /* \"@openzeppelin/contracts@5.2.0/access/Ownable.sol\":1866:1876  _msgSender */\n      tag_125\n        /* \"@openzeppelin/contracts@5.2.0/access/Ownable.sol\":1866:1878  _msgSender() */\n      jump\t// in\n    tag_124:\n        /* \"@openzeppelin/contracts@5.2.0/access/Ownable.sol\":1855:1878  owner() != _msgSender() */\n      0xffffffffffffffffffffffffffffffffffffffff\n      and\n        /* \"@openzeppelin/contracts@5.2.0/access/Ownable.sol\":1855:1862  owner() */\n      tag_126\n        /* \"@openzeppelin/contracts@5.2.0/access/Ownable.sol\":1855:1860  owner */\n      tag_21\n        /* \"@openzeppelin/contracts@5.2.0/access/Ownable.sol\":1855:1862  owner() */\n      jump\t// in\n    tag_126:\n        /* \"@openzeppelin/contracts@5.2.0/access/Ownable.sol\":1855:1878  owner() != _msgSender() */\n      0xffffffffffffffffffffffffffffffffffffffff\n      and\n      eq\n        /* \"@openzeppelin/contracts@5.2.0/access/Ownable.sol\":1851:1952  if (owner() != _msgSender()) {... */\n      tag_127\n      jumpi\n        /* \"@openzeppelin/contracts@5.2.0/access/Ownable.sol\":1928:1940  _msgSender() */\n      tag_128\n        /* \"@openzeppelin/contracts@5.2.0/access/Ownable.sol\":1928:1938  _msgSender */\n      tag_125\n        /* \"@openzeppelin/contracts@5.2.0/access/Ownable.sol\":1928:1940  _msgSender() */\n      jump\t// in\n    tag_128:\n        /* \"@openzeppelin/contracts@5.2.0/access/Ownable.sol\":1901:1941  OwnableUnauthorizedAccount(_msgSender()) */\n      mload(0x40)\n      0x118cdaa700000000000000000000000000000000000000000000000000000000\n      dup2\n      mstore\n      0x04\n      add\n      tag_129\n      swap2\n      swap1\n      tag_23\n      jump\t// in\n    tag_129:\n      mload(0x40)\n      dup1\n      swap2\n      sub\n      swap1\n      revert\n        /* \"@openzeppelin/contracts@5.2.0/access/Ownable.sol\":1851:1952  if (owner() != _msgSender()) {... */\n    tag_127:\n        /* \"@openzeppelin/contracts@5.2.0/access/Ownable.sol\":1796:1958  function _checkOwner() internal view virtual {... */\n      jump\t// out\n        /* \"@openzeppelin/contracts@5.2.0/access/Ownable.sol\":2912:3099  function _transferOwnership(address newOwner) internal virtual {... */\n    tag_95:\n        /* \"@openzeppelin/contracts@5.2.0/access/Ownable.sol\":2985:3001  address oldOwner */\n      0x00\n        /* \"@openzeppelin/contracts@5.2.0/access/Ownable.sol\":3004:3010  _owner */\n      0x00\n      0x00\n      swap1\n      sload\n      swap1\n      0x0100\n      exp\n      swap1\n      div\n      0xffffffffffffffffffffffffffffffffffffffff\n      and\n        /* \"@openzeppelin/contracts@5.2.0/access/Ownable.sol\":2985:3010  address oldOwner = _owner */\n      swap1\n      pop\n        /* \"@openzeppelin/contracts@5.2.0/access/Ownable.sol\":3029:3037  newOwner */\n      dup2\n        /* \"@openzeppelin/contracts@5.2.0/access/Ownable.sol\":3020:3026  _owner */\n      0x00\n      0x00\n        /* \"@openzeppelin/contracts@5.2.0/access/Ownable.sol\":3020:3037  _owner = newOwner */\n      0x0100\n      exp\n      dup2\n      sload\n      dup2\n      0xffffffffffffffffffffffffffffffffffffffff\n      mul\n      not\n      and\n      swap1\n      dup4\n      0xffffffffffffffffffffffffffffffffffffffff\n      and\n      mul\n      or\n      swap1\n      sstore\n      pop\n        /* \"@openzeppelin/contracts@5.2.0/access/Ownable.sol\":3083:3091  newOwner */\n      dup2\n        /* \"@openzeppelin/contracts@5.2.0/access/Ownable.sol\":3052:3092  OwnershipTransferred(oldOwner, newOwner) */\n      0xffffffffffffffffffffffffffffffffffffffff\n      and\n        /* \"@openzeppelin/contracts@5.2.0/access/Ownable.sol\":3073:3081  oldOwner */\n      dup2\n        /* \"@openzeppelin/contracts@5.2.0/access/Ownable.sol\":3052:3092  OwnershipTransferred(oldOwner, newOwner) */\n      0xffffffffffffffffffffffffffffffffffffffff\n      and\n      0x8be0079c531659141344cd1fd0a4f28419497f9722a3daafe3b4186f6b6457e0\n      mload(0x40)\n      mload(0x40)\n      dup1\n      swap2\n      sub\n      swap1\n      log3\n        /* \"@openzeppelin/contracts@5.2.0/access/Ownable.sol\":2975:3099  {... */\n      pop\n        /* \"@openzeppelin/contracts@5.2.0/access/Ownable.sol\":2912:3099  function _transferOwnership(address newOwner) internal virtual {... */\n      pop\n      jump\t// out\n        /* \"@chainlink/contracts@1.3.0/src/v0.8/vendor/openzeppelin-solidity/v4.8.3/contracts/token/ERC20/utils/SafeERC20.sol\":3401:4069  function _callOptionalReturn(IERC20 token, bytes memory data) private {... */\n    tag_122:\n        /* \"@chainlink/contracts@1.3.0/src/v0.8/vendor/openzeppelin-solidity/v4.8.3/contracts/token/ERC20/utils/SafeERC20.sol\":3804:3827  bytes memory returndata */\n      0x00\n        /* \"@chainlink/contracts@1.3.0/src/v0.8/vendor/openzeppelin-solidity/v4.8.3/contracts/token/ERC20/utils/SafeERC20.sol\":3830:3899  address(token).functionCall(data, \"SafeERC20: low-level call failed\") */\n      tag_132\n        /* \"@chainlink/contracts@1.3.0/src/v0.8/vendor/openzeppelin-solidity/v4.8.3/contracts/token/ERC20/utils/SafeERC20.sol\":3858:3862  data */\n      dup3\n        /* \"@chainlink/contracts@1.3.0/src/v0.8/vendor/openzeppelin-solidity/v4.8.3/contracts/token/ERC20/utils/SafeERC20.sol\":3830:3899  address(token).functionCall(data, \"SafeERC20: low-level call failed\") */\n      mload(0x40)\n      dup1\n      0x40\n      add\n      0x40\n      mstore\n      dup1\n      0x20\n      dup2\n      mstore\n      0x20\n      add\n      0x5361666545524332303a206c6f772d6c6576656c2063616c6c206661696c6564\n      dup2\n      mstore\n      pop\n        /* \"@chainlink/contracts@1.3.0/src/v0.8/vendor/openzeppelin-solidity/v4.8.3/contracts/token/ERC20/utils/SafeERC20.sol\":3838:3843  token */\n      dup6\n        /* \"@chainlink/contracts@1.3.0/src/v0.8/vendor/openzeppelin-solidity/v4.8.3/contracts/token/ERC20/utils/SafeERC20.sol\":3830:3857  address(token).functionCall */\n      0xffffffffffffffffffffffffffffffffffffffff\n      and\n      tag_133\n      swap1\n        /* \"@chainlink/contracts@1.3.0/src/v0.8/vendor/openzeppelin-solidity/v4.8.3/contracts/token/ERC20/utils/SafeERC20.sol\":3830:3899  address(token).functionCall(data, \"SafeERC20: low-level call failed\") */\n      swap3\n      swap2\n      swap1\n      0xffffffff\n      and\n      jump\t// in\n    tag_132:\n        /* \"@chainlink/contracts@1.3.0/src/v0.8/vendor/openzeppelin-solidity/v4.8.3/contracts/token/ERC20/utils/SafeERC20.sol\":3804:3899  bytes memory returndata = address(token).functionCall(data, \"SafeERC20: low-level call failed\") */\n      swap1\n      pop\n        /* \"@chainlink/contracts@1.3.0/src/v0.8/vendor/openzeppelin-solidity/v4.8.3/contracts/token/ERC20/utils/SafeERC20.sol\":3929:3930  0 */\n      0x00\n        /* \"@chainlink/contracts@1.3.0/src/v0.8/vendor/openzeppelin-solidity/v4.8.3/contracts/token/ERC20/utils/SafeERC20.sol\":3909:3919  returndata */\n      dup2\n        /* \"@chainlink/contracts@1.3.0/src/v0.8/vendor/openzeppelin-solidity/v4.8.3/contracts/token/ERC20/utils/SafeERC20.sol\":3909:3926  returndata.length */\n      mload\n        /* \"@chainlink/contracts@1.3.0/src/v0.8/vendor/openzeppelin-solidity/v4.8.3/contracts/token/ERC20/utils/SafeERC20.sol\":3909:3930  returndata.length > 0 */\n      gt\n        /* \"@chainlink/contracts@1.3.0/src/v0.8/vendor/openzeppelin-solidity/v4.8.3/contracts/token/ERC20/utils/SafeERC20.sol\":3905:4065  if (returndata.length > 0) {... */\n      iszero\n      tag_134\n      jumpi\n        /* \"@chainlink/contracts@1.3.0/src/v0.8/vendor/openzeppelin-solidity/v4.8.3/contracts/token/ERC20/utils/SafeERC20.sol\":3992:4002  returndata */\n      dup1\n        /* \"@chainlink/contracts@1.3.0/src/v0.8/vendor/openzeppelin-solidity/v4.8.3/contracts/token/ERC20/utils/SafeERC20.sol\":3981:4011  abi.decode(returndata, (bool)) */\n      dup1\n      0x20\n      add\n      swap1\n      mload\n      dup2\n      add\n      swap1\n      tag_135\n      swap2\n      swap1\n      tag_76\n      jump\t// in\n    tag_135:\n        /* \"@chainlink/contracts@1.3.0/src/v0.8/vendor/openzeppelin-solidity/v4.8.3/contracts/token/ERC20/utils/SafeERC20.sol\":3973:4058  require(abi.decode(returndata, (bool)), \"SafeERC20: ERC20 operation did not succeed\") */\n      tag_136\n      jumpi\n      mload(0x40)\n      0x08c379a000000000000000000000000000000000000000000000000000000000\n      dup2\n      mstore\n      0x04\n      add\n      tag_137\n      swap1\n      tag_138\n      jump\t// in\n    tag_137:\n      mload(0x40)\n      dup1\n      swap2\n      sub\n      swap1\n      revert\n    tag_136:\n        /* \"@chainlink/contracts@1.3.0/src/v0.8/vendor/openzeppelin-solidity/v4.8.3/contracts/token/ERC20/utils/SafeERC20.sol\":3905:4065  if (returndata.length > 0) {... */\n    tag_134:\n        /* \"@chainlink/contracts@1.3.0/src/v0.8/vendor/openzeppelin-solidity/v4.8.3/contracts/token/ERC20/utils/SafeERC20.sol\":3471:4069  {... */\n      pop\n        /* \"@chainlink/contracts@1.3.0/src/v0.8/vendor/openzeppelin-solidity/v4.8.3/contracts/token/ERC20/utils/SafeERC20.sol\":3401:4069  function _callOptionalReturn(IERC20 token, bytes memory data) private {... */\n      pop\n      pop\n      jump\t// out\n        /* \"@openzeppelin/contracts@5.2.0/utils/Context.sol\":656:752  function _msgSender() internal view virtual returns (address) {... */\n    tag_125:\n        /* \"@openzeppelin/contracts@5.2.0/utils/Context.sol\":709:716  address */\n      0x00\n        /* \"@openzeppelin/contracts@5.2.0/utils/Context.sol\":735:745  msg.sender */\n      caller\n        /* \"@openzeppelin/contracts@5.2.0/utils/Context.sol\":728:745  return msg.sender */\n      swap1\n      pop\n        /* \"@openzeppelin/contracts@5.2.0/utils/Context.sol\":656:752  function _msgSender() internal view virtual returns (address) {... */\n      swap1\n      jump\t// out\n        /* \"@chainlink/contracts@1.3.0/src/v0.8/vendor/openzeppelin-solidity/v4.8.3/contracts/utils/Address.sol\":3695:3882  function functionCall(address target, bytes memory data, string memory errorMessage) internal returns (bytes memory) {... */\n    tag_133:\n        /* \"@chainlink/contracts@1.3.0/src/v0.8/vendor/openzeppelin-solidity/v4.8.3/contracts/utils/Address.sol\":3798:3810  bytes memory */\n      0x60\n        /* \"@chainlink/contracts@1.3.0/src/v0.8/vendor/openzeppelin-solidity/v4.8.3/contracts/utils/Address.sol\":3825:3877  functionCallWithValue(target, data, 0, errorMessage) */\n      tag_141\n        /* \"@chainlink/contracts@1.3.0/src/v0.8/vendor/openzeppelin-solidity/v4.8.3/contracts/utils/Address.sol\":3847:3853  target */\n      dup5\n        /* \"@chainlink/contracts@1.3.0/src/v0.8/vendor/openzeppelin-solidity/v4.8.3/contracts/utils/Address.sol\":3855:3859  data */\n      dup5\n        /* \"@chainlink/contracts@1.3.0/src/v0.8/vendor/openzeppelin-solidity/v4.8.3/contracts/utils/Address.sol\":3861:3862  0 */\n      0x00\n        /* \"@chainlink/contracts@1.3.0/src/v0.8/vendor/openzeppelin-solidity/v4.8.3/contracts/utils/Address.sol\":3864:3876  errorMessage */\n      dup6\n        /* \"@chainlink/contracts@1.3.0/src/v0.8/vendor/openzeppelin-solidity/v4.8.3/contracts/utils/Address.sol\":3825:3846  functionCallWithValue */\n      tag_142\n        /* \"@chainlink/contracts@1.3.0/src/v0.8/vendor/openzeppelin-solidity/v4.8.3/contracts/utils/Address.sol\":3825:3877  functionCallWithValue(target, data, 0, errorMessage) */\n      jump\t// in\n    tag_141:\n        /* \"@chainlink/contracts@1.3.0/src/v0.8/vendor/openzeppelin-solidity/v4.8.3/contracts/utils/Address.sol\":3818:3877  return functionCallWithValue(target, data, 0, errorMessage) */\n      swap1\n      pop\n        /* \"@chainlink/contracts@1.3.0/src/v0.8/vendor/openzeppelin-solidity/v4.8.3/contracts/utils/Address.sol\":3695:3882  function functionCall(address target, bytes memory data, string memory errorMessage) internal returns (bytes memory) {... */\n      swap4\n      swap3\n      pop\n      pop\n      pop\n      jump\t// out\n        /* \"@chainlink/contracts@1.3.0/src/v0.8/vendor/openzeppelin-solidity/v4.8.3/contracts/utils/Address.sol\":4672:5086  function functionCallWithValue(... */\n    tag_142:\n        /* \"@chainlink/contracts@1.3.0/src/v0.8/vendor/openzeppelin-solidity/v4.8.3/contracts/utils/Address.sol\":4819:4831  bytes memory */\n      0x60\n        /* \"@chainlink/contracts@1.3.0/src/v0.8/vendor/openzeppelin-solidity/v4.8.3/contracts/utils/Address.sol\":4872:4877  value */\n      dup3\n        /* \"@chainlink/contracts@1.3.0/src/v0.8/vendor/openzeppelin-solidity/v4.8.3/contracts/utils/Address.sol\":4847:4868  address(this).balance */\n      selfbalance\n        /* \"@chainlink/contracts@1.3.0/src/v0.8/vendor/openzeppelin-solidity/v4.8.3/contracts/utils/Address.sol\":4847:4877  address(this).balance >= value */\n      lt\n      iszero\n        /* \"@chainlink/contracts@1.3.0/src/v0.8/vendor/openzeppelin-solidity/v4.8.3/contracts/utils/Address.sol\":4839:4920  require(address(this).balance >= value, \"Address: insufficient balance for call\") */\n      tag_144\n      jumpi\n      mload(0x40)\n      0x08c379a000000000000000000000000000000000000000000000000000000000\n      dup2\n      mstore\n      0x04\n      add\n      tag_145\n      swap1\n      tag_146\n      jump\t// in\n    tag_145:\n      mload(0x40)\n      dup1\n      swap2\n      sub\n      swap1\n      revert\n    tag_144:\n        /* \"@chainlink/contracts@1.3.0/src/v0.8/vendor/openzeppelin-solidity/v4.8.3/contracts/utils/Address.sol\":4927:4939  bool success */\n      0x00\n        /* \"@chainlink/contracts@1.3.0/src/v0.8/vendor/openzeppelin-solidity/v4.8.3/contracts/utils/Address.sol\":4941:4964  bytes memory returndata */\n      0x00\n        /* \"@chainlink/contracts@1.3.0/src/v0.8/vendor/openzeppelin-solidity/v4.8.3/contracts/utils/Address.sol\":4968:4974  target */\n      dup7\n        /* \"@chainlink/contracts@1.3.0/src/v0.8/vendor/openzeppelin-solidity/v4.8.3/contracts/utils/Address.sol\":4968:4979  target.call */\n      0xffffffffffffffffffffffffffffffffffffffff\n      and\n        /* \"@chainlink/contracts@1.3.0/src/v0.8/vendor/openzeppelin-solidity/v4.8.3/contracts/utils/Address.sol\":4987:4992  value */\n      dup6\n        /* \"@chainlink/contracts@1.3.0/src/v0.8/vendor/openzeppelin-solidity/v4.8.3/contracts/utils/Address.sol\":4994:4998  data */\n      dup8\n        /* \"@chainlink/contracts@1.3.0/src/v0.8/vendor/openzeppelin-solidity/v4.8.3/contracts/utils/Address.sol\":4968:4999  target.call{value: value}(data) */\n      mload(0x40)\n      tag_147\n      swap2\n      swap1\n      tag_148\n      jump\t// in\n    tag_147:\n      0x00\n      mload(0x40)\n      dup1\n      dup4\n      sub\n      dup2\n      dup6\n      dup8\n      gas\n      call\n      swap3\n      pop\n      pop\n      pop\n      returndatasize\n      dup1\n      0x00\n      dup2\n      eq\n      tag_151\n      jumpi\n      mload(0x40)\n      swap2\n      pop\n      and(add(returndatasize, 0x3f), not(0x1f))\n      dup3\n      add\n      0x40\n      mstore\n      returndatasize\n      dup3\n      mstore\n      returndatasize\n      0x00\n      0x20\n      dup5\n      add\n      returndatacopy\n      jump(tag_150)\n    tag_151:\n      0x60\n      swap2\n      pop\n    tag_150:\n      pop\n        /* \"@chainlink/contracts@1.3.0/src/v0.8/vendor/openzeppelin-solidity/v4.8.3/contracts/utils/Address.sol\":4926:4999  (bool success, bytes memory returndata) = target.call{value: value}(data) */\n      swap2\n      pop\n      swap2\n      pop\n        /* \"@chainlink/contracts@1.3.0/src/v0.8/vendor/openzeppelin-solidity/v4.8.3/contracts/utils/Address.sol\":5012:5081  verifyCallResultFromTarget(target, success, returndata, errorMessage) */\n      tag_152\n        /* \"@chainlink/contracts@1.3.0/src/v0.8/vendor/openzeppelin-solidity/v4.8.3/contracts/utils/Address.sol\":5039:5045  target */\n      dup8\n        /* \"@chainlink/contracts@1.3.0/src/v0.8/vendor/openzeppelin-solidity/v4.8.3/contracts/utils/Address.sol\":5047:5054  success */\n      dup4\n        /* \"@chainlink/contracts@1.3.0/src/v0.8/vendor/openzeppelin-solidity/v4.8.3/contracts/utils/Address.sol\":5056:5066  returndata */\n      dup4\n        /* \"@chainlink/contracts@1.3.0/src/v0.8/vendor/openzeppelin-solidity/v4.8.3/contracts/utils/Address.sol\":5068:5080  errorMessage */\n      dup8\n        /* \"@chainlink/contracts@1.3.0/src/v0.8/vendor/openzeppelin-solidity/v4.8.3/contracts/utils/Address.sol\":5012:5038  verifyCallResultFromTarget */\n      tag_153\n        /* \"@chainlink/contracts@1.3.0/src/v0.8/vendor/openzeppelin-solidity/v4.8.3/contracts/utils/Address.sol\":5012:5081  verifyCallResultFromTarget(target, success, returndata, errorMessage) */\n      jump\t// in\n    tag_152:\n        /* \"@chainlink/contracts@1.3.0/src/v0.8/vendor/openzeppelin-solidity/v4.8.3/contracts/utils/Address.sol\":5005:5081  return verifyCallResultFromTarget(target, success, returndata, errorMessage) */\n      swap3\n      pop\n      pop\n      pop\n        /* \"@chainlink/contracts@1.3.0/src/v0.8/vendor/openzeppelin-solidity/v4.8.3/contracts/utils/Address.sol\":4672:5086  function functionCallWithValue(... */\n      swap5\n      swap4\n      pop\n      pop\n      pop\n      pop\n      jump\t// out\n        /* \"@chainlink/contracts@1.3.0/src/v0.8/vendor/openzeppelin-solidity/v4.8.3/contracts/utils/Address.sol\":7016:7564  function verifyCallResultFromTarget(... */\n    tag_153:\n        /* \"@chainlink/contracts@1.3.0/src/v0.8/vendor/openzeppelin-solidity/v4.8.3/contracts/utils/Address.sol\":7178:7190  bytes memory */\n      0x60\n        /* \"@chainlink/contracts@1.3.0/src/v0.8/vendor/openzeppelin-solidity/v4.8.3/contracts/utils/Address.sol\":7202:7209  success */\n      dup4\n        /* \"@chainlink/contracts@1.3.0/src/v0.8/vendor/openzeppelin-solidity/v4.8.3/contracts/utils/Address.sol\":7198:7560  if (success) {... */\n      iszero\n      tag_155\n      jumpi\n        /* \"@chainlink/contracts@1.3.0/src/v0.8/vendor/openzeppelin-solidity/v4.8.3/contracts/utils/Address.sol\":7244:7245  0 */\n      0x00\n        /* \"@chainlink/contracts@1.3.0/src/v0.8/vendor/openzeppelin-solidity/v4.8.3/contracts/utils/Address.sol\":7223:7233  returndata */\n      dup4\n        /* \"@chainlink/contracts@1.3.0/src/v0.8/vendor/openzeppelin-solidity/v4.8.3/contracts/utils/Address.sol\":7223:7240  returndata.length */\n      mload\n        /* \"@chainlink/contracts@1.3.0/src/v0.8/vendor/openzeppelin-solidity/v4.8.3/contracts/utils/Address.sol\":7223:7245  returndata.length == 0 */\n      sub\n        /* \"@chainlink/contracts@1.3.0/src/v0.8/vendor/openzeppelin-solidity/v4.8.3/contracts/utils/Address.sol\":7219:7475  if (returndata.length == 0) {... */\n      tag_156\n      jumpi\n        /* \"@chainlink/contracts@1.3.0/src/v0.8/vendor/openzeppelin-solidity/v4.8.3/contracts/utils/Address.sol\":7414:7432  isContract(target) */\n      tag_157\n        /* \"@chainlink/contracts@1.3.0/src/v0.8/vendor/openzeppelin-solidity/v4.8.3/contracts/utils/Address.sol\":7425:7431  target */\n      dup6\n        /* \"@chainlink/contracts@1.3.0/src/v0.8/vendor/openzeppelin-solidity/v4.8.3/contracts/utils/Address.sol\":7414:7424  isContract */\n      tag_158\n        /* \"@chainlink/contracts@1.3.0/src/v0.8/vendor/openzeppelin-solidity/v4.8.3/contracts/utils/Address.sol\":7414:7432  isContract(target) */\n      jump\t// in\n    tag_157:\n        /* \"@chainlink/contracts@1.3.0/src/v0.8/vendor/openzeppelin-solidity/v4.8.3/contracts/utils/Address.sol\":7406:7466  require(isContract(target), \"Address: call to non-contract\") */\n      tag_159\n      jumpi\n      mload(0x40)\n      0x08c379a000000000000000000000000000000000000000000000000000000000\n      dup2\n      mstore\n      0x04\n      add\n      tag_160\n      swap1\n      tag_161\n      jump\t// in\n    tag_160:\n      mload(0x40)\n      dup1\n      swap2\n      sub\n      swap1\n      revert\n    tag_159:\n        /* \"@chainlink/contracts@1.3.0/src/v0.8/vendor/openzeppelin-solidity/v4.8.3/contracts/utils/Address.sol\":7219:7475  if (returndata.length == 0) {... */\n    tag_156:\n        /* \"@chainlink/contracts@1.3.0/src/v0.8/vendor/openzeppelin-solidity/v4.8.3/contracts/utils/Address.sol\":7489:7499  returndata */\n      dup3\n        /* \"@chainlink/contracts@1.3.0/src/v0.8/vendor/openzeppelin-solidity/v4.8.3/contracts/utils/Address.sol\":7482:7499  return returndata */\n      swap1\n      pop\n      jump(tag_154)\n        /* \"@chainlink/contracts@1.3.0/src/v0.8/vendor/openzeppelin-solidity/v4.8.3/contracts/utils/Address.sol\":7198:7560  if (success) {... */\n    tag_155:\n        /* \"@chainlink/contracts@1.3.0/src/v0.8/vendor/openzeppelin-solidity/v4.8.3/contracts/utils/Address.sol\":7520:7553  _revert(returndata, errorMessage) */\n      tag_163\n        /* \"@chainlink/contracts@1.3.0/src/v0.8/vendor/openzeppelin-solidity/v4.8.3/contracts/utils/Address.sol\":7528:7538  returndata */\n      dup4\n        /* \"@chainlink/contracts@1.3.0/src/v0.8/vendor/openzeppelin-solidity/v4.8.3/contracts/utils/Address.sol\":7540:7552  errorMessage */\n      dup4\n        /* \"@chainlink/contracts@1.3.0/src/v0.8/vendor/openzeppelin-solidity/v4.8.3/contracts/utils/Address.sol\":7520:7527  _revert */\n      tag_164\n        /* \"@chainlink/contracts@1.3.0/src/v0.8/vendor/openzeppelin-solidity/v4.8.3/contracts/utils/Address.sol\":7520:7553  _revert(returndata, errorMessage) */\n      jump\t// in\n    tag_163:\n        /* \"@chainlink/contracts@1.3.0/src/v0.8/vendor/openzeppelin-solidity/v4.8.3/contracts/utils/Address.sol\":7016:7564  function verifyCallResultFromTarget(... */\n    tag_154:\n      swap5\n      swap4\n      pop\n      pop\n      pop\n      pop\n      jump\t// out\n        /* \"@chainlink/contracts@1.3.0/src/v0.8/vendor/openzeppelin-solidity/v4.8.3/contracts/utils/Address.sol\":1121:1423  function isContract(address account) internal view returns (bool) {... */\n    tag_158:\n        /* \"@chainlink/contracts@1.3.0/src/v0.8/vendor/openzeppelin-solidity/v4.8.3/contracts/utils/Address.sol\":1181:1185  bool */\n      0x00\n        /* \"@chainlink/contracts@1.3.0/src/v0.8/vendor/openzeppelin-solidity/v4.8.3/contracts/utils/Address.sol\":1417:1418  0 */\n      0x00\n        /* \"@chainlink/contracts@1.3.0/src/v0.8/vendor/openzeppelin-solidity/v4.8.3/contracts/utils/Address.sol\":1395:1402  account */\n      dup3\n        /* \"@chainlink/contracts@1.3.0/src/v0.8/vendor/openzeppelin-solidity/v4.8.3/contracts/utils/Address.sol\":1395:1414  account.code.length */\n      0xffffffffffffffffffffffffffffffffffffffff\n      and\n      extcodesize\n        /* \"@chainlink/contracts@1.3.0/src/v0.8/vendor/openzeppelin-solidity/v4.8.3/contracts/utils/Address.sol\":1395:1418  account.code.length > 0 */\n      gt\n        /* \"@chainlink/contracts@1.3.0/src/v0.8/vendor/openzeppelin-solidity/v4.8.3/contracts/utils/Address.sol\":1388:1418  return account.code.length > 0 */\n      swap1\n      pop\n        /* \"@chainlink/contracts@1.3.0/src/v0.8/vendor/openzeppelin-solidity/v4.8.3/contracts/utils/Address.sol\":1121:1423  function isContract(address account) internal view returns (bool) {... */\n      swap2\n      swap1\n      pop\n      jump\t// out\n        /* \"@chainlink/contracts@1.3.0/src/v0.8/vendor/openzeppelin-solidity/v4.8.3/contracts/utils/Address.sol\":8030:8506  function _revert(bytes memory returndata, string memory errorMessage) private pure {... */\n    tag_164:\n        /* \"@chainlink/contracts@1.3.0/src/v0.8/vendor/openzeppelin-solidity/v4.8.3/contracts/utils/Address.sol\":8201:8202  0 */\n      0x00\n        /* \"@chainlink/contracts@1.3.0/src/v0.8/vendor/openzeppelin-solidity/v4.8.3/contracts/utils/Address.sol\":8181:8191  returndata */\n      dup3\n        /* \"@chainlink/contracts@1.3.0/src/v0.8/vendor/openzeppelin-solidity/v4.8.3/contracts/utils/Address.sol\":8181:8198  returndata.length */\n      mload\n        /* \"@chainlink/contracts@1.3.0/src/v0.8/vendor/openzeppelin-solidity/v4.8.3/contracts/utils/Address.sol\":8181:8202  returndata.length > 0 */\n      gt\n        /* \"@chainlink/contracts@1.3.0/src/v0.8/vendor/openzeppelin-solidity/v4.8.3/contracts/utils/Address.sol\":8177:8502  if (returndata.length > 0) {... */\n      iszero\n      tag_167\n      jumpi\n        /* \"@chainlink/contracts@1.3.0/src/v0.8/vendor/openzeppelin-solidity/v4.8.3/contracts/utils/Address.sol\":8383:8393  returndata */\n      dup2\n        /* \"@chainlink/contracts@1.3.0/src/v0.8/vendor/openzeppelin-solidity/v4.8.3/contracts/utils/Address.sol\":8377:8394  mload(returndata) */\n      mload\n        /* \"@chainlink/contracts@1.3.0/src/v0.8/vendor/openzeppelin-solidity/v4.8.3/contracts/utils/Address.sol\":8431:8446  returndata_size */\n      dup1\n        /* \"@chainlink/contracts@1.3.0/src/v0.8/vendor/openzeppelin-solidity/v4.8.3/contracts/utils/Address.sol\":8418:8428  returndata */\n      dup4\n        /* \"@chainlink/contracts@1.3.0/src/v0.8/vendor/openzeppelin-solidity/v4.8.3/contracts/utils/Address.sol\":8414:8416  32 */\n      0x20\n        /* \"@chainlink/contracts@1.3.0/src/v0.8/vendor/openzeppelin-solidity/v4.8.3/contracts/utils/Address.sol\":8410:8429  add(32, returndata) */\n      add\n        /* \"@chainlink/contracts@1.3.0/src/v0.8/vendor/openzeppelin-solidity/v4.8.3/contracts/utils/Address.sol\":8403:8447  revert(add(32, returndata), returndata_size) */\n      revert\n        /* \"@chainlink/contracts@1.3.0/src/v0.8/vendor/openzeppelin-solidity/v4.8.3/contracts/utils/Address.sol\":8177:8502  if (returndata.length > 0) {... */\n    tag_167:\n        /* \"@chainlink/contracts@1.3.0/src/v0.8/vendor/openzeppelin-solidity/v4.8.3/contracts/utils/Address.sol\":8482:8494  errorMessage */\n      dup1\n        /* \"@chainlink/contracts@1.3.0/src/v0.8/vendor/openzeppelin-solidity/v4.8.3/contracts/utils/Address.sol\":8475:8495  revert(errorMessage) */\n      mload(0x40)\n      0x08c379a000000000000000000000000000000000000000000000000000000000\n      dup2\n      mstore\n      0x04\n      add\n      tag_169\n      swap2\n      swap1\n      tag_170\n      jump\t// in\n    tag_169:\n      mload(0x40)\n      dup1\n      swap2\n      sub\n      swap1\n      revert\n    tag_46:\n      mload(0x40)\n      dup1\n      0x40\n      add\n      0x40\n      mstore\n      dup1\n      and(0xffffffffffffffffffffffffffffffffffffffff, 0x00)\n      dup2\n      mstore\n      0x20\n      add\n      0x00\n      dup2\n      mstore\n      pop\n      swap1\n      jump\t// out\n        /* \"#utility.yul\":88:205   */\n    tag_172:\n        /* \"#utility.yul\":197:198   */\n      0x00\n        /* \"#utility.yul\":194:195   */\n      0x00\n        /* \"#utility.yul\":187:199   */\n      revert\n        /* \"#utility.yul\":334:460   */\n    tag_174:\n        /* \"#utility.yul\":371:378   */\n      0x00\n        /* \"#utility.yul\":411:453   */\n      0xffffffffffffffffffffffffffffffffffffffff\n        /* \"#utility.yul\":404:409   */\n      dup3\n        /* \"#utility.yul\":400:454   */\n      and\n        /* \"#utility.yul\":389:454   */\n      swap1\n      pop\n        /* \"#utility.yul\":334:460   */\n      swap2\n      swap1\n      pop\n      jump\t// out\n        /* \"#utility.yul\":466:562   */\n    tag_175:\n        /* \"#utility.yul\":503:510   */\n      0x00\n        /* \"#utility.yul\":532:556   */\n      tag_233\n        /* \"#utility.yul\":550:555   */\n      dup3\n        /* \"#utility.yul\":532:556   */\n      tag_174\n      jump\t// in\n    tag_233:\n        /* \"#utility.yul\":521:556   */\n      swap1\n      pop\n        /* \"#utility.yul\":466:562   */\n      swap2\n      swap1\n      pop\n      jump\t// out\n        /* \"#utility.yul\":568:690   */\n    tag_176:\n        /* \"#utility.yul\":641:665   */\n      tag_235\n        /* \"#utility.yul\":659:664   */\n      dup2\n        /* \"#utility.yul\":641:665   */\n      tag_175\n      jump\t// in\n    tag_235:\n        /* \"#utility.yul\":634:639   */\n      dup2\n        /* \"#utility.yul\":631:666   */\n      eq\n        /* \"#utility.yul\":621:684   */\n      tag_236\n      jumpi\n        /* \"#utility.yul\":680:681   */\n      0x00\n        /* \"#utility.yul\":677:678   */\n      0x00\n        /* \"#utility.yul\":670:682   */\n      revert\n        /* \"#utility.yul\":621:684   */\n    tag_236:\n        /* \"#utility.yul\":568:690   */\n      pop\n      jump\t// out\n        /* \"#utility.yul\":696:835   */\n    tag_177:\n        /* \"#utility.yul\":742:747   */\n      0x00\n        /* \"#utility.yul\":780:786   */\n      dup2\n        /* \"#utility.yul\":767:787   */\n      calldataload\n        /* \"#utility.yul\":758:787   */\n      swap1\n      pop\n        /* \"#utility.yul\":796:829   */\n      tag_238\n        /* \"#utility.yul\":823:828   */\n      dup2\n        /* \"#utility.yul\":796:829   */\n      tag_176\n      jump\t// in\n    tag_238:\n        /* \"#utility.yul\":696:835   */\n      swap3\n      swap2\n      pop\n      pop\n      jump\t// out\n        /* \"#utility.yul\":841:918   */\n    tag_178:\n        /* \"#utility.yul\":878:885   */\n      0x00\n        /* \"#utility.yul\":907:912   */\n      dup2\n        /* \"#utility.yul\":896:912   */\n      swap1\n      pop\n        /* \"#utility.yul\":841:918   */\n      swap2\n      swap1\n      pop\n      jump\t// out\n        /* \"#utility.yul\":924:1046   */\n    tag_179:\n        /* \"#utility.yul\":997:1021   */\n      tag_241\n        /* \"#utility.yul\":1015:1020   */\n      dup2\n        /* \"#utility.yul\":997:1021   */\n      tag_178\n      jump\t// in\n    tag_241:\n        /* \"#utility.yul\":990:995   */\n      dup2\n        /* \"#utility.yul\":987:1022   */\n      eq\n        /* \"#utility.yul\":977:1040   */\n      tag_242\n      jumpi\n        /* \"#utility.yul\":1036:1037   */\n      0x00\n        /* \"#utility.yul\":1033:1034   */\n      0x00\n        /* \"#utility.yul\":1026:1038   */\n      revert\n        /* \"#utility.yul\":977:1040   */\n    tag_242:\n        /* \"#utility.yul\":924:1046   */\n      pop\n      jump\t// out\n        /* \"#utility.yul\":1052:1191   */\n    tag_180:\n        /* \"#utility.yul\":1098:1103   */\n      0x00\n        /* \"#utility.yul\":1136:1142   */\n      dup2\n        /* \"#utility.yul\":1123:1143   */\n      calldataload\n        /* \"#utility.yul\":1114:1143   */\n      swap1\n      pop\n        /* \"#utility.yul\":1152:1185   */\n      tag_244\n        /* \"#utility.yul\":1179:1184   */\n      dup2\n        /* \"#utility.yul\":1152:1185   */\n      tag_179\n      jump\t// in\n    tag_244:\n        /* \"#utility.yul\":1052:1191   */\n      swap3\n      swap2\n      pop\n      pop\n      jump\t// out\n        /* \"#utility.yul\":1197:1816   */\n    tag_10:\n        /* \"#utility.yul\":1274:1280   */\n      0x00\n        /* \"#utility.yul\":1282:1288   */\n      0x00\n        /* \"#utility.yul\":1290:1296   */\n      0x00\n        /* \"#utility.yul\":1339:1341   */\n      0x60\n        /* \"#utility.yul\":1327:1336   */\n      dup5\n        /* \"#utility.yul\":1318:1325   */\n      dup7\n        /* \"#utility.yul\":1314:1337   */\n      sub\n        /* \"#utility.yul\":1310:1342   */\n      slt\n        /* \"#utility.yul\":1307:1426   */\n      iszero\n      tag_246\n      jumpi\n        /* \"#utility.yul\":1345:1424   */\n      tag_247\n      tag_172\n      jump\t// in\n    tag_247:\n        /* \"#utility.yul\":1307:1426   */\n    tag_246:\n        /* \"#utility.yul\":1465:1466   */\n      0x00\n        /* \"#utility.yul\":1490:1543   */\n      tag_248\n        /* \"#utility.yul\":1535:1542   */\n      dup7\n        /* \"#utility.yul\":1526:1532   */\n      dup3\n        /* \"#utility.yul\":1515:1524   */\n      dup8\n        /* \"#utility.yul\":1511:1533   */\n      add\n        /* \"#utility.yul\":1490:1543   */\n      tag_177\n      jump\t// in\n    tag_248:\n        /* \"#utility.yul\":1480:1543   */\n      swap4\n      pop\n        /* \"#utility.yul\":1436:1553   */\n      pop\n        /* \"#utility.yul\":1592:1594   */\n      0x20\n        /* \"#utility.yul\":1618:1671   */\n      tag_249\n        /* \"#utility.yul\":1663:1670   */\n      dup7\n        /* \"#utility.yul\":1654:1660   */\n      dup3\n        /* \"#utility.yul\":1643:1652   */\n      dup8\n        /* \"#utility.yul\":1639:1661   */\n      add\n        /* \"#utility.yul\":1618:1671   */\n      tag_180\n      jump\t// in\n    tag_249:\n        /* \"#utility.yul\":1608:1671   */\n      swap3\n      pop\n        /* \"#utility.yul\":1563:1681   */\n      pop\n        /* \"#utility.yul\":1720:1722   */\n      0x40\n        /* \"#utility.yul\":1746:1799   */\n      tag_250\n        /* \"#utility.yul\":1791:1798   */\n      dup7\n        /* \"#utility.yul\":1782:1788   */\n      dup3\n        /* \"#utility.yul\":1771:1780   */\n      dup8\n        /* \"#utility.yul\":1767:1789   */\n      add\n        /* \"#utility.yul\":1746:1799   */\n      tag_177\n      jump\t// in\n    tag_250:\n        /* \"#utility.yul\":1736:1799   */\n      swap2\n      pop\n        /* \"#utility.yul\":1691:1809   */\n      pop\n        /* \"#utility.yul\":1197:1816   */\n      swap3\n      pop\n      swap3\n      pop\n      swap3\n      jump\t// out\n        /* \"#utility.yul\":1822:1899   */\n    tag_181:\n        /* \"#utility.yul\":1859:1866   */\n      0x00\n        /* \"#utility.yul\":1888:1893   */\n      dup2\n        /* \"#utility.yul\":1877:1893   */\n      swap1\n      pop\n        /* \"#utility.yul\":1822:1899   */\n      swap2\n      swap1\n      pop\n      jump\t// out\n        /* \"#utility.yul\":1905:2023   */\n    tag_182:\n        /* \"#utility.yul\":1992:2016   */\n      tag_253\n        /* \"#utility.yul\":2010:2015   */\n      dup2\n        /* \"#utility.yul\":1992:2016   */\n      tag_181\n      jump\t// in\n    tag_253:\n        /* \"#utility.yul\":1987:1990   */\n      dup3\n        /* \"#utility.yul\":1980:2017   */\n      mstore\n        /* \"#utility.yul\":1905:2023   */\n      pop\n      pop\n      jump\t// out\n        /* \"#utility.yul\":2029:2251   */\n    tag_13:\n        /* \"#utility.yul\":2122:2126   */\n      0x00\n        /* \"#utility.yul\":2160:2162   */\n      0x20\n        /* \"#utility.yul\":2149:2158   */\n      dup3\n        /* \"#utility.yul\":2145:2163   */\n      add\n        /* \"#utility.yul\":2137:2163   */\n      swap1\n      pop\n        /* \"#utility.yul\":2173:2244   */\n      tag_255\n        /* \"#utility.yul\":2241:2242   */\n      0x00\n        /* \"#utility.yul\":2230:2239   */\n      dup4\n        /* \"#utility.yul\":2226:2243   */\n      add\n        /* \"#utility.yul\":2217:2223   */\n      dup5\n        /* \"#utility.yul\":2173:2244   */\n      tag_182\n      jump\t// in\n    tag_255:\n        /* \"#utility.yul\":2029:2251   */\n      swap3\n      swap2\n      pop\n      pop\n      jump\t// out\n        /* \"#utility.yul\":2257:2586   */\n    tag_18:\n        /* \"#utility.yul\":2316:2322   */\n      0x00\n        /* \"#utility.yul\":2365:2367   */\n      0x20\n        /* \"#utility.yul\":2353:2362   */\n      dup3\n        /* \"#utility.yul\":2344:2351   */\n      dup5\n        /* \"#utility.yul\":2340:2363   */\n      sub\n        /* \"#utility.yul\":2336:2368   */\n      slt\n        /* \"#utility.yul\":2333:2452   */\n      iszero\n      tag_257\n      jumpi\n        /* \"#utility.yul\":2371:2450   */\n      tag_258\n      tag_172\n      jump\t// in\n    tag_258:\n        /* \"#utility.yul\":2333:2452   */\n    tag_257:\n        /* \"#utility.yul\":2491:2492   */\n      0x00\n        /* \"#utility.yul\":2516:2569   */\n      tag_259\n        /* \"#utility.yul\":2561:2568   */\n      dup5\n        /* \"#utility.yul\":2552:2558   */\n      dup3\n        /* \"#utility.yul\":2541:2550   */\n      dup6\n        /* \"#utility.yul\":2537:2559   */\n      add\n        /* \"#utility.yul\":2516:2569   */\n      tag_177\n      jump\t// in\n    tag_259:\n        /* \"#utility.yul\":2506:2569   */\n      swap2\n      pop\n        /* \"#utility.yul\":2462:2579   */\n      pop\n        /* \"#utility.yul\":2257:2586   */\n      swap3\n      swap2\n      pop\n      pop\n      jump\t// out\n        /* \"#utility.yul\":2592:2710   */\n    tag_183:\n        /* \"#utility.yul\":2679:2703   */\n      tag_261\n        /* \"#utility.yul\":2697:2702   */\n      dup2\n        /* \"#utility.yul\":2679:2703   */\n      tag_175\n      jump\t// in\n    tag_261:\n        /* \"#utility.yul\":2674:2677   */\n      dup3\n        /* \"#utility.yul\":2667:2704   */\n      mstore\n        /* \"#utility.yul\":2592:2710   */\n      pop\n      pop\n      jump\t// out\n        /* \"#utility.yul\":2716:2938   */\n    tag_23:\n        /* \"#utility.yul\":2809:2813   */\n      0x00\n        /* \"#utility.yul\":2847:2849   */\n      0x20\n        /* \"#utility.yul\":2836:2845   */\n      dup3\n        /* \"#utility.yul\":2832:2850   */\n      add\n        /* \"#utility.yul\":2824:2850   */\n      swap1\n      pop\n        /* \"#utility.yul\":2860:2931   */\n      tag_263\n        /* \"#utility.yul\":2928:2929   */\n      0x00\n        /* \"#utility.yul\":2917:2926   */\n      dup4\n        /* \"#utility.yul\":2913:2930   */\n      add\n        /* \"#utility.yul\":2904:2910   */\n      dup5\n        /* \"#utility.yul\":2860:2931   */\n      tag_183\n      jump\t// in\n    tag_263:\n        /* \"#utility.yul\":2716:2938   */\n      swap3\n      swap2\n      pop\n      pop\n      jump\t// out\n        /* \"#utility.yul\":2944:3087   */\n    tag_184:\n        /* \"#utility.yul\":3001:3006   */\n      0x00\n        /* \"#utility.yul\":3032:3038   */\n      dup2\n        /* \"#utility.yul\":3026:3039   */\n      mload\n        /* \"#utility.yul\":3017:3039   */\n      swap1\n      pop\n        /* \"#utility.yul\":3048:3081   */\n      tag_265\n        /* \"#utility.yul\":3075:3080   */\n      dup2\n        /* \"#utility.yul\":3048:3081   */\n      tag_179\n      jump\t// in\n    tag_265:\n        /* \"#utility.yul\":2944:3087   */\n      swap3\n      swap2\n      pop\n      pop\n      jump\t// out\n        /* \"#utility.yul\":3093:3444   */\n    tag_32:\n        /* \"#utility.yul\":3163:3169   */\n      0x00\n        /* \"#utility.yul\":3212:3214   */\n      0x20\n        /* \"#utility.yul\":3200:3209   */\n      dup3\n        /* \"#utility.yul\":3191:3198   */\n      dup5\n        /* \"#utility.yul\":3187:3210   */\n      sub\n        /* \"#utility.yul\":3183:3215   */\n      slt\n        /* \"#utility.yul\":3180:3299   */\n      iszero\n      tag_267\n      jumpi\n        /* \"#utility.yul\":3218:3297   */\n      tag_268\n      tag_172\n      jump\t// in\n    tag_268:\n        /* \"#utility.yul\":3180:3299   */\n    tag_267:\n        /* \"#utility.yul\":3338:3339   */\n      0x00\n        /* \"#utility.yul\":3363:3427   */\n      tag_269\n        /* \"#utility.yul\":3419:3426   */\n      dup5\n        /* \"#utility.yul\":3410:3416   */\n      dup3\n        /* \"#utility.yul\":3399:3408   */\n      dup6\n        /* \"#utility.yul\":3395:3417   */\n      add\n        /* \"#utility.yul\":3363:3427   */\n      tag_184\n      jump\t// in\n    tag_269:\n        /* \"#utility.yul\":3353:3427   */\n      swap2\n      pop\n        /* \"#utility.yul\":3309:3437   */\n      pop\n        /* \"#utility.yul\":3093:3444   */\n      swap3\n      swap2\n      pop\n      pop\n      jump\t// out\n        /* \"#utility.yul\":3450:3510   */\n    tag_185:\n        /* \"#utility.yul\":3478:3481   */\n      0x00\n        /* \"#utility.yul\":3499:3504   */\n      dup2\n        /* \"#utility.yul\":3492:3504   */\n      swap1\n      pop\n        /* \"#utility.yul\":3450:3510   */\n      swap2\n      swap1\n      pop\n      jump\t// out\n        /* \"#utility.yul\":3516:3658   */\n    tag_186:\n        /* \"#utility.yul\":3566:3575   */\n      0x00\n        /* \"#utility.yul\":3599:3652   */\n      tag_272\n        /* \"#utility.yul\":3617:3651   */\n      tag_273\n        /* \"#utility.yul\":3626:3650   */\n      tag_274\n        /* \"#utility.yul\":3644:3649   */\n      dup5\n        /* \"#utility.yul\":3626:3650   */\n      tag_174\n      jump\t// in\n    tag_274:\n        /* \"#utility.yul\":3617:3651   */\n      tag_185\n      jump\t// in\n    tag_273:\n        /* \"#utility.yul\":3599:3652   */\n      tag_174\n      jump\t// in\n    tag_272:\n        /* \"#utility.yul\":3586:3652   */\n      swap1\n      pop\n        /* \"#utility.yul\":3516:3658   */\n      swap2\n      swap1\n      pop\n      jump\t// out\n        /* \"#utility.yul\":3664:3790   */\n    tag_187:\n        /* \"#utility.yul\":3714:3723   */\n      0x00\n        /* \"#utility.yul\":3747:3784   */\n      tag_276\n        /* \"#utility.yul\":3778:3783   */\n      dup3\n        /* \"#utility.yul\":3747:3784   */\n      tag_186\n      jump\t// in\n    tag_276:\n        /* \"#utility.yul\":3734:3784   */\n      swap1\n      pop\n        /* \"#utility.yul\":3664:3790   */\n      swap2\n      swap1\n      pop\n      jump\t// out\n        /* \"#utility.yul\":3796:3936   */\n    tag_188:\n        /* \"#utility.yul\":3860:3869   */\n      0x00\n        /* \"#utility.yul\":3893:3930   */\n      tag_278\n        /* \"#utility.yul\":3924:3929   */\n      dup3\n        /* \"#utility.yul\":3893:3930   */\n      tag_187\n      jump\t// in\n    tag_278:\n        /* \"#utility.yul\":3880:3930   */\n      swap1\n      pop\n        /* \"#utility.yul\":3796:3936   */\n      swap2\n      swap1\n      pop\n      jump\t// out\n        /* \"#utility.yul\":3942:4101   */\n    tag_189:\n        /* \"#utility.yul\":4043:4094   */\n      tag_280\n        /* \"#utility.yul\":4088:4093   */\n      dup2\n        /* \"#utility.yul\":4043:4094   */\n      tag_188\n      jump\t// in\n    tag_280:\n        /* \"#utility.yul\":4038:4041   */\n      dup3\n        /* \"#utility.yul\":4031:4095   */\n      mstore\n        /* \"#utility.yul\":3942:4101   */\n      pop\n      pop\n      jump\t// out\n        /* \"#utility.yul\":4107:4225   */\n    tag_190:\n        /* \"#utility.yul\":4194:4218   */\n      tag_282\n        /* \"#utility.yul\":4212:4217   */\n      dup2\n        /* \"#utility.yul\":4194:4218   */\n      tag_178\n      jump\t// in\n    tag_282:\n        /* \"#utility.yul\":4189:4192   */\n      dup3\n        /* \"#utility.yul\":4182:4219   */\n      mstore\n        /* \"#utility.yul\":4107:4225   */\n      pop\n      pop\n      jump\t// out\n        /* \"#utility.yul\":4231:4701   */\n    tag_39:\n        /* \"#utility.yul\":4394:4398   */\n      0x00\n        /* \"#utility.yul\":4432:4434   */\n      0x60\n        /* \"#utility.yul\":4421:4430   */\n      dup3\n        /* \"#utility.yul\":4417:4435   */\n      add\n        /* \"#utility.yul\":4409:4435   */\n      swap1\n      pop\n        /* \"#utility.yul\":4445:4530   */\n      tag_284\n        /* \"#utility.yul\":4527:4528   */\n      0x00\n        /* \"#utility.yul\":4516:4525   */\n      dup4\n        /* \"#utility.yul\":4512:4529   */\n      add\n        /* \"#utility.yul\":4503:4509   */\n      dup7\n        /* \"#utility.yul\":4445:4530   */\n      tag_189\n      jump\t// in\n    tag_284:\n        /* \"#utility.yul\":4540:4612   */\n      tag_285\n        /* \"#utility.yul\":4608:4610   */\n      0x20\n        /* \"#utility.yul\":4597:4606   */\n      dup4\n        /* \"#utility.yul\":4593:4611   */\n      add\n        /* \"#utility.yul\":4584:4590   */\n      dup6\n        /* \"#utility.yul\":4540:4612   */\n      tag_190\n      jump\t// in\n    tag_285:\n        /* \"#utility.yul\":4622:4694   */\n      tag_286\n        /* \"#utility.yul\":4690:4692   */\n      0x40\n        /* \"#utility.yul\":4679:4688   */\n      dup4\n        /* \"#utility.yul\":4675:4693   */\n      add\n        /* \"#utility.yul\":4666:4672   */\n      dup5\n        /* \"#utility.yul\":4622:4694   */\n      tag_190\n      jump\t// in\n    tag_286:\n        /* \"#utility.yul\":4231:4701   */\n      swap5\n      swap4\n      pop\n      pop\n      pop\n      pop\n      jump\t// out\n        /* \"#utility.yul\":4707:4887   */\n    tag_42:\n        /* \"#utility.yul\":4755:4832   */\n      0x4e487b7100000000000000000000000000000000000000000000000000000000\n        /* \"#utility.yul\":4752:4753   */\n      0x00\n        /* \"#utility.yul\":4745:4833   */\n      mstore\n        /* \"#utility.yul\":4852:4856   */\n      0x41\n        /* \"#utility.yul\":4849:4850   */\n      0x04\n        /* \"#utility.yul\":4842:4857   */\n      mstore\n        /* \"#utility.yul\":4876:4880   */\n      0x24\n        /* \"#utility.yul\":4873:4874   */\n      0x00\n        /* \"#utility.yul\":4866:4881   */\n      revert\n        /* \"#utility.yul\":4893:5073   */\n    tag_49:\n        /* \"#utility.yul\":4941:5018   */\n      0x4e487b7100000000000000000000000000000000000000000000000000000000\n        /* \"#utility.yul\":4938:4939   */\n      0x00\n        /* \"#utility.yul\":4931:5019   */\n      mstore\n        /* \"#utility.yul\":5038:5042   */\n      0x32\n        /* \"#utility.yul\":5035:5036   */\n      0x04\n        /* \"#utility.yul\":5028:5043   */\n      mstore\n        /* \"#utility.yul\":5062:5066   */\n      0x24\n        /* \"#utility.yul\":5059:5060   */\n      0x00\n        /* \"#utility.yul\":5052:5067   */\n      revert\n        /* \"#utility.yul\":5079:5411   */\n    tag_51:\n        /* \"#utility.yul\":5200:5204   */\n      0x00\n        /* \"#utility.yul\":5238:5240   */\n      0x40\n        /* \"#utility.yul\":5227:5236   */\n      dup3\n        /* \"#utility.yul\":5223:5241   */\n      add\n        /* \"#utility.yul\":5215:5241   */\n      swap1\n      pop\n        /* \"#utility.yul\":5251:5322   */\n      tag_290\n        /* \"#utility.yul\":5319:5320   */\n      0x00\n        /* \"#utility.yul\":5308:5317   */\n      dup4\n        /* \"#utility.yul\":5304:5321   */\n      add\n        /* \"#utility.yul\":5295:5301   */\n      dup6\n        /* \"#utility.yul\":5251:5322   */\n      tag_183\n      jump\t// in\n    tag_290:\n        /* \"#utility.yul\":5332:5404   */\n      tag_291\n        /* \"#utility.yul\":5400:5402   */\n      0x20\n        /* \"#utility.yul\":5389:5398   */\n      dup4\n        /* \"#utility.yul\":5385:5403   */\n      add\n        /* \"#utility.yul\":5376:5382   */\n      dup5\n        /* \"#utility.yul\":5332:5404   */\n      tag_190\n      jump\t// in\n    tag_291:\n        /* \"#utility.yul\":5079:5411   */\n      swap4\n      swap3\n      pop\n      pop\n      pop\n      jump\t// out\n        /* \"#utility.yul\":5417:5515   */\n    tag_191:\n        /* \"#utility.yul\":5468:5474   */\n      0x00\n        /* \"#utility.yul\":5502:5507   */\n      dup2\n        /* \"#utility.yul\":5496:5508   */\n      mload\n        /* \"#utility.yul\":5486:5508   */\n      swap1\n      pop\n        /* \"#utility.yul\":5417:5515   */\n      swap2\n      swap1\n      pop\n      jump\t// out\n        /* \"#utility.yul\":5521:5689   */\n    tag_192:\n        /* \"#utility.yul\":5604:5615   */\n      0x00\n        /* \"#utility.yul\":5638:5644   */\n      dup3\n        /* \"#utility.yul\":5633:5636   */\n      dup3\n        /* \"#utility.yul\":5626:5645   */\n      mstore\n        /* \"#utility.yul\":5678:5682   */\n      0x20\n        /* \"#utility.yul\":5673:5676   */\n      dup3\n        /* \"#utility.yul\":5669:5683   */\n      add\n        /* \"#utility.yul\":5654:5683   */\n      swap1\n      pop\n        /* \"#utility.yul\":5521:5689   */\n      swap3\n      swap2\n      pop\n      pop\n      jump\t// out\n        /* \"#utility.yul\":5695:5834   */\n    tag_193:\n        /* \"#utility.yul\":5784:5790   */\n      dup3\n        /* \"#utility.yul\":5779:5782   */\n      dup2\n        /* \"#utility.yul\":5774:5777   */\n      dup4\n        /* \"#utility.yul\":5768:5791   */\n      mcopy\n        /* \"#utility.yul\":5825:5826   */\n      0x00\n        /* \"#utility.yul\":5816:5822   */\n      dup4\n        /* \"#utility.yul\":5811:5814   */\n      dup4\n        /* \"#utility.yul\":5807:5823   */\n      add\n        /* \"#utility.yul\":5800:5827   */\n      mstore\n        /* \"#utility.yul\":5695:5834   */\n      pop\n      pop\n      pop\n      jump\t// out\n        /* \"#utility.yul\":5840:5942   */\n    tag_194:\n        /* \"#utility.yul\":5881:5887   */\n      0x00\n        /* \"#utility.yul\":5932:5934   */\n      0x1f\n        /* \"#utility.yul\":5928:5935   */\n      not\n        /* \"#utility.yul\":5923:5925   */\n      0x1f\n        /* \"#utility.yul\":5916:5921   */\n      dup4\n        /* \"#utility.yul\":5912:5926   */\n      add\n        /* \"#utility.yul\":5908:5936   */\n      and\n        /* \"#utility.yul\":5898:5936   */\n      swap1\n      pop\n        /* \"#utility.yul\":5840:5942   */\n      swap2\n      swap1\n      pop\n      jump\t// out\n        /* \"#utility.yul\":5948:6321   */\n    tag_195:\n        /* \"#utility.yul\":6034:6037   */\n      0x00\n        /* \"#utility.yul\":6062:6100   */\n      tag_297\n        /* \"#utility.yul\":6094:6099   */\n      dup3\n        /* \"#utility.yul\":6062:6100   */\n      tag_191\n      jump\t// in\n    tag_297:\n        /* \"#utility.yul\":6116:6186   */\n      tag_298\n        /* \"#utility.yul\":6179:6185   */\n      dup2\n        /* \"#utility.yul\":6174:6177   */\n      dup6\n        /* \"#utility.yul\":6116:6186   */\n      tag_192\n      jump\t// in\n    tag_298:\n        /* \"#utility.yul\":6109:6186   */\n      swap4\n      pop\n        /* \"#utility.yul\":6195:6260   */\n      tag_299\n        /* \"#utility.yul\":6253:6259   */\n      dup2\n        /* \"#utility.yul\":6248:6251   */\n      dup6\n        /* \"#utility.yul\":6241:6245   */\n      0x20\n        /* \"#utility.yul\":6234:6239   */\n      dup7\n        /* \"#utility.yul\":6230:6246   */\n      add\n        /* \"#utility.yul\":6195:6260   */\n      tag_193\n      jump\t// in\n    tag_299:\n        /* \"#utility.yul\":6285:6314   */\n      tag_300\n        /* \"#utility.yul\":6307:6313   */\n      dup2\n        /* \"#utility.yul\":6285:6314   */\n      tag_194\n      jump\t// in\n    tag_300:\n        /* \"#utility.yul\":6280:6283   */\n      dup5\n        /* \"#utility.yul\":6276:6315   */\n      add\n        /* \"#utility.yul\":6269:6315   */\n      swap2\n      pop\n        /* \"#utility.yul\":6038:6321   */\n      pop\n        /* \"#utility.yul\":5948:6321   */\n      swap3\n      swap2\n      pop\n      pop\n      jump\t// out\n        /* \"#utility.yul\":6327:6746   */\n    tag_54:\n        /* \"#utility.yul\":6466:6470   */\n      0x00\n        /* \"#utility.yul\":6504:6506   */\n      0x40\n        /* \"#utility.yul\":6493:6502   */\n      dup3\n        /* \"#utility.yul\":6489:6507   */\n      add\n        /* \"#utility.yul\":6481:6507   */\n      swap1\n      pop\n        /* \"#utility.yul\":6517:6588   */\n      tag_302\n        /* \"#utility.yul\":6585:6586   */\n      0x00\n        /* \"#utility.yul\":6574:6583   */\n      dup4\n        /* \"#utility.yul\":6570:6587   */\n      add\n        /* \"#utility.yul\":6561:6567   */\n      dup6\n        /* \"#utility.yul\":6517:6588   */\n      tag_183\n      jump\t// in\n    tag_302:\n        /* \"#utility.yul\":6635:6644   */\n      dup2\n        /* \"#utility.yul\":6629:6633   */\n      dup2\n        /* \"#utility.yul\":6625:6645   */\n      sub\n        /* \"#utility.yul\":6620:6622   */\n      0x20\n        /* \"#utility.yul\":6609:6618   */\n      dup4\n        /* \"#utility.yul\":6605:6623   */\n      add\n        /* \"#utility.yul\":6598:6646   */\n      mstore\n        /* \"#utility.yul\":6663:6739   */\n      tag_303\n        /* \"#utility.yul\":6734:6738   */\n      dup2\n        /* \"#utility.yul\":6725:6731   */\n      dup5\n        /* \"#utility.yul\":6663:6739   */\n      tag_195\n      jump\t// in\n    tag_303:\n        /* \"#utility.yul\":6655:6739   */\n      swap1\n      pop\n        /* \"#utility.yul\":6327:6746   */\n      swap4\n      swap3\n      pop\n      pop\n      pop\n      jump\t// out\n        /* \"#utility.yul\":6752:6853   */\n    tag_196:\n        /* \"#utility.yul\":6788:6795   */\n      0x00\n        /* \"#utility.yul\":6828:6846   */\n      0xffffffffffffffff\n        /* \"#utility.yul\":6821:6826   */\n      dup3\n        /* \"#utility.yul\":6817:6847   */\n      and\n        /* \"#utility.yul\":6806:6847   */\n      swap1\n      pop\n        /* \"#utility.yul\":6752:6853   */\n      swap2\n      swap1\n      pop\n      jump\t// out\n        /* \"#utility.yul\":6859:6974   */\n    tag_197:\n        /* \"#utility.yul\":6944:6967   */\n      tag_306\n        /* \"#utility.yul\":6961:6966   */\n      dup2\n        /* \"#utility.yul\":6944:6967   */\n      tag_196\n      jump\t// in\n    tag_306:\n        /* \"#utility.yul\":6939:6942   */\n      dup3\n        /* \"#utility.yul\":6932:6968   */\n      mstore\n        /* \"#utility.yul\":6859:6974   */\n      pop\n      pop\n      jump\t// out\n        /* \"#utility.yul\":6980:7138   */\n    tag_198:\n        /* \"#utility.yul\":7053:7064   */\n      0x00\n        /* \"#utility.yul\":7087:7093   */\n      dup3\n        /* \"#utility.yul\":7082:7085   */\n      dup3\n        /* \"#utility.yul\":7075:7094   */\n      mstore\n        /* \"#utility.yul\":7127:7131   */\n      0x20\n        /* \"#utility.yul\":7122:7125   */\n      dup3\n        /* \"#utility.yul\":7118:7132   */\n      add\n        /* \"#utility.yul\":7103:7132   */\n      swap1\n      pop\n        /* \"#utility.yul\":6980:7138   */\n      swap3\n      swap2\n      pop\n      pop\n      jump\t// out\n        /* \"#utility.yul\":7144:7497   */\n    tag_199:\n        /* \"#utility.yul\":7220:7223   */\n      0x00\n        /* \"#utility.yul\":7248:7286   */\n      tag_309\n        /* \"#utility.yul\":7280:7285   */\n      dup3\n        /* \"#utility.yul\":7248:7286   */\n      tag_191\n      jump\t// in\n    tag_309:\n        /* \"#utility.yul\":7302:7362   */\n      tag_310\n        /* \"#utility.yul\":7355:7361   */\n      dup2\n        /* \"#utility.yul\":7350:7353   */\n      dup6\n        /* \"#utility.yul\":7302:7362   */\n      tag_198\n      jump\t// in\n    tag_310:\n        /* \"#utility.yul\":7295:7362   */\n      swap4\n      pop\n        /* \"#utility.yul\":7371:7436   */\n      tag_311\n        /* \"#utility.yul\":7429:7435   */\n      dup2\n        /* \"#utility.yul\":7424:7427   */\n      dup6\n        /* \"#utility.yul\":7417:7421   */\n      0x20\n        /* \"#utility.yul\":7410:7415   */\n      dup7\n        /* \"#utility.yul\":7406:7422   */\n      add\n        /* \"#utility.yul\":7371:7436   */\n      tag_193\n      jump\t// in\n    tag_311:\n        /* \"#utility.yul\":7461:7490   */\n      tag_312\n        /* \"#utility.yul\":7483:7489   */\n      dup2\n        /* \"#utility.yul\":7461:7490   */\n      tag_194\n      jump\t// in\n    tag_312:\n        /* \"#utility.yul\":7456:7459   */\n      dup5\n        /* \"#utility.yul\":7452:7491   */\n      add\n        /* \"#utility.yul\":7445:7491   */\n      swap2\n      pop\n        /* \"#utility.yul\":7224:7497   */\n      pop\n        /* \"#utility.yul\":7144:7497   */\n      swap3\n      swap2\n      pop\n      pop\n      jump\t// out\n        /* \"#utility.yul\":7503:7647   */\n    tag_200:\n        /* \"#utility.yul\":7600:7606   */\n      0x00\n        /* \"#utility.yul\":7634:7639   */\n      dup2\n        /* \"#utility.yul\":7628:7640   */\n      mload\n        /* \"#utility.yul\":7618:7640   */\n      swap1\n      pop\n        /* \"#utility.yul\":7503:7647   */\n      swap2\n      swap1\n      pop\n      jump\t// out\n        /* \"#utility.yul\":7653:7857   */\n    tag_201:\n        /* \"#utility.yul\":7772:7783   */\n      0x00\n        /* \"#utility.yul\":7806:7812   */\n      dup3\n        /* \"#utility.yul\":7801:7804   */\n      dup3\n        /* \"#utility.yul\":7794:7813   */\n      mstore\n        /* \"#utility.yul\":7846:7850   */\n      0x20\n        /* \"#utility.yul\":7841:7844   */\n      dup3\n        /* \"#utility.yul\":7837:7851   */\n      add\n        /* \"#utility.yul\":7822:7851   */\n      swap1\n      pop\n        /* \"#utility.yul\":7653:7857   */\n      swap3\n      swap2\n      pop\n      pop\n      jump\t// out\n        /* \"#utility.yul\":7863:8025   */\n    tag_202:\n        /* \"#utility.yul\":7960:7964   */\n      0x00\n        /* \"#utility.yul\":7983:7986   */\n      dup2\n        /* \"#utility.yul\":7975:7986   */\n      swap1\n      pop\n        /* \"#utility.yul\":8013:8017   */\n      0x20\n        /* \"#utility.yul\":8008:8011   */\n      dup3\n        /* \"#utility.yul\":8004:8018   */\n      add\n        /* \"#utility.yul\":7996:8018   */\n      swap1\n      pop\n        /* \"#utility.yul\":7863:8025   */\n      swap2\n      swap1\n      pop\n      jump\t// out\n        /* \"#utility.yul\":8031:8139   */\n    tag_203:\n        /* \"#utility.yul\":8108:8132   */\n      tag_317\n        /* \"#utility.yul\":8126:8131   */\n      dup2\n        /* \"#utility.yul\":8108:8132   */\n      tag_175\n      jump\t// in\n    tag_317:\n        /* \"#utility.yul\":8103:8106   */\n      dup3\n        /* \"#utility.yul\":8096:8133   */\n      mstore\n        /* \"#utility.yul\":8031:8139   */\n      pop\n      pop\n      jump\t// out\n        /* \"#utility.yul\":8145:8253   */\n    tag_204:\n        /* \"#utility.yul\":8222:8246   */\n      tag_319\n        /* \"#utility.yul\":8240:8245   */\n      dup2\n        /* \"#utility.yul\":8222:8246   */\n      tag_178\n      jump\t// in\n    tag_319:\n        /* \"#utility.yul\":8217:8220   */\n      dup3\n        /* \"#utility.yul\":8210:8247   */\n      mstore\n        /* \"#utility.yul\":8145:8253   */\n      pop\n      pop\n      jump\t// out\n        /* \"#utility.yul\":8327:8837   */\n    tag_205:\n        /* \"#utility.yul\":8474:8478   */\n      0x40\n        /* \"#utility.yul\":8469:8472   */\n      dup3\n        /* \"#utility.yul\":8465:8479   */\n      add\n        /* \"#utility.yul\":8562:8566   */\n      0x00\n        /* \"#utility.yul\":8555:8560   */\n      dup3\n        /* \"#utility.yul\":8551:8567   */\n      add\n        /* \"#utility.yul\":8545:8568   */\n      mload\n        /* \"#utility.yul\":8581:8644   */\n      tag_321\n        /* \"#utility.yul\":8638:8642   */\n      0x00\n        /* \"#utility.yul\":8633:8636   */\n      dup6\n        /* \"#utility.yul\":8629:8643   */\n      add\n        /* \"#utility.yul\":8615:8627   */\n      dup3\n        /* \"#utility.yul\":8581:8644   */\n      tag_203\n      jump\t// in\n    tag_321:\n        /* \"#utility.yul\":8489:8654   */\n      pop\n        /* \"#utility.yul\":8738:8742   */\n      0x20\n        /* \"#utility.yul\":8731:8736   */\n      dup3\n        /* \"#utility.yul\":8727:8743   */\n      add\n        /* \"#utility.yul\":8721:8744   */\n      mload\n        /* \"#utility.yul\":8757:8820   */\n      tag_322\n        /* \"#utility.yul\":8814:8818   */\n      0x20\n        /* \"#utility.yul\":8809:8812   */\n      dup6\n        /* \"#utility.yul\":8805:8819   */\n      add\n        /* \"#utility.yul\":8791:8803   */\n      dup3\n        /* \"#utility.yul\":8757:8820   */\n      tag_204\n      jump\t// in\n    tag_322:\n        /* \"#utility.yul\":8664:8830   */\n      pop\n        /* \"#utility.yul\":8443:8837   */\n      pop\n        /* \"#utility.yul\":8327:8837   */\n      pop\n      pop\n      jump\t// out\n        /* \"#utility.yul\":8843:9142   */\n    tag_206:\n        /* \"#utility.yul\":8972:8982   */\n      0x00\n        /* \"#utility.yul\":8993:9099   */\n      tag_324\n        /* \"#utility.yul\":9095:9098   */\n      dup4\n        /* \"#utility.yul\":9087:9093   */\n      dup4\n        /* \"#utility.yul\":8993:9099   */\n      tag_205\n      jump\t// in\n    tag_324:\n        /* \"#utility.yul\":9131:9135   */\n      0x40\n        /* \"#utility.yul\":9126:9129   */\n      dup4\n        /* \"#utility.yul\":9122:9136   */\n      add\n        /* \"#utility.yul\":9108:9136   */\n      swap1\n      pop\n        /* \"#utility.yul\":8843:9142   */\n      swap3\n      swap2\n      pop\n      pop\n      jump\t// out\n        /* \"#utility.yul\":9148:9291   */\n    tag_207:\n        /* \"#utility.yul\":9248:9252   */\n      0x00\n        /* \"#utility.yul\":9280:9284   */\n      0x20\n        /* \"#utility.yul\":9275:9278   */\n      dup3\n        /* \"#utility.yul\":9271:9285   */\n      add\n        /* \"#utility.yul\":9263:9285   */\n      swap1\n      pop\n        /* \"#utility.yul\":9148:9291   */\n      swap2\n      swap1\n      pop\n      jump\t// out\n        /* \"#utility.yul\":9369:10321   */\n    tag_208:\n        /* \"#utility.yul\":9538:9541   */\n      0x00\n        /* \"#utility.yul\":9567:9651   */\n      tag_327\n        /* \"#utility.yul\":9645:9650   */\n      dup3\n        /* \"#utility.yul\":9567:9651   */\n      tag_200\n      jump\t// in\n    tag_327:\n        /* \"#utility.yul\":9667:9773   */\n      tag_328\n        /* \"#utility.yul\":9766:9772   */\n      dup2\n        /* \"#utility.yul\":9761:9764   */\n      dup6\n        /* \"#utility.yul\":9667:9773   */\n      tag_201\n      jump\t// in\n    tag_328:\n        /* \"#utility.yul\":9660:9773   */\n      swap4\n      pop\n        /* \"#utility.yul\":9797:9883   */\n      tag_329\n        /* \"#utility.yul\":9877:9882   */\n      dup4\n        /* \"#utility.yul\":9797:9883   */\n      tag_202\n      jump\t// in\n    tag_329:\n        /* \"#utility.yul\":9906:9913   */\n      dup1\n        /* \"#utility.yul\":9937:9938   */\n      0x00\n        /* \"#utility.yul\":9922:10296   */\n    tag_330:\n        /* \"#utility.yul\":9947:9953   */\n      dup4\n        /* \"#utility.yul\":9944:9945   */\n      dup2\n        /* \"#utility.yul\":9941:9954   */\n      lt\n        /* \"#utility.yul\":9922:10296   */\n      iszero\n      tag_332\n      jumpi\n        /* \"#utility.yul\":10023:10029   */\n      dup2\n        /* \"#utility.yul\":10017:10030   */\n      mload\n        /* \"#utility.yul\":10050:10173   */\n      tag_333\n        /* \"#utility.yul\":10169:10172   */\n      dup9\n        /* \"#utility.yul\":10154:10167   */\n      dup3\n        /* \"#utility.yul\":10050:10173   */\n      tag_206\n      jump\t// in\n    tag_333:\n        /* \"#utility.yul\":10043:10173   */\n      swap8\n      pop\n        /* \"#utility.yul\":10196:10286   */\n      tag_334\n        /* \"#utility.yul\":10279:10285   */\n      dup4\n        /* \"#utility.yul\":10196:10286   */\n      tag_207\n      jump\t// in\n    tag_334:\n        /* \"#utility.yul\":10186:10286   */\n      swap3\n      pop\n        /* \"#utility.yul\":9982:10296   */\n      pop\n        /* \"#utility.yul\":9969:9970   */\n      0x01\n        /* \"#utility.yul\":9966:9967   */\n      dup2\n        /* \"#utility.yul\":9962:9971   */\n      add\n        /* \"#utility.yul\":9957:9971   */\n      swap1\n      pop\n        /* \"#utility.yul\":9922:10296   */\n      jump(tag_330)\n    tag_332:\n        /* \"#utility.yul\":9926:9940   */\n      pop\n        /* \"#utility.yul\":10312:10315   */\n      dup6\n        /* \"#utility.yul\":10305:10315   */\n      swap4\n      pop\n        /* \"#utility.yul\":9543:10321   */\n      pop\n      pop\n      pop\n        /* \"#utility.yul\":9369:10321   */\n      swap3\n      swap2\n      pop\n      pop\n      jump\t// out\n        /* \"#utility.yul\":10395:11851   */\n    tag_209:\n        /* \"#utility.yul\":10524:10527   */\n      0x00\n        /* \"#utility.yul\":10560:10564   */\n      0xa0\n        /* \"#utility.yul\":10555:10558   */\n      dup4\n        /* \"#utility.yul\":10551:10565   */\n      add\n        /* \"#utility.yul\":10651:10655   */\n      0x00\n        /* \"#utility.yul\":10644:10649   */\n      dup4\n        /* \"#utility.yul\":10640:10656   */\n      add\n        /* \"#utility.yul\":10634:10657   */\n      mload\n        /* \"#utility.yul\":10704:10707   */\n      dup5\n        /* \"#utility.yul\":10698:10702   */\n      dup3\n        /* \"#utility.yul\":10694:10708   */\n      sub\n        /* \"#utility.yul\":10687:10691   */\n      0x00\n        /* \"#utility.yul\":10682:10685   */\n      dup7\n        /* \"#utility.yul\":10678:10692   */\n      add\n        /* \"#utility.yul\":10671:10709   */\n      mstore\n        /* \"#utility.yul\":10730:10801   */\n      tag_336\n        /* \"#utility.yul\":10796:10800   */\n      dup3\n        /* \"#utility.yul\":10782:10794   */\n      dup3\n        /* \"#utility.yul\":10730:10801   */\n      tag_199\n      jump\t// in\n    tag_336:\n        /* \"#utility.yul\":10722:10801   */\n      swap2\n      pop\n        /* \"#utility.yul\":10575:10812   */\n      pop\n        /* \"#utility.yul\":10894:10898   */\n      0x20\n        /* \"#utility.yul\":10887:10892   */\n      dup4\n        /* \"#utility.yul\":10883:10899   */\n      add\n        /* \"#utility.yul\":10877:10900   */\n      mload\n        /* \"#utility.yul\":10947:10950   */\n      dup5\n        /* \"#utility.yul\":10941:10945   */\n      dup3\n        /* \"#utility.yul\":10937:10951   */\n      sub\n        /* \"#utility.yul\":10930:10934   */\n      0x20\n        /* \"#utility.yul\":10925:10928   */\n      dup7\n        /* \"#utility.yul\":10921:10935   */\n      add\n        /* \"#utility.yul\":10914:10952   */\n      mstore\n        /* \"#utility.yul\":10973:11044   */\n      tag_337\n        /* \"#utility.yul\":11039:11043   */\n      dup3\n        /* \"#utility.yul\":11025:11037   */\n      dup3\n        /* \"#utility.yul\":10973:11044   */\n      tag_199\n      jump\t// in\n    tag_337:\n        /* \"#utility.yul\":10965:11044   */\n      swap2\n      pop\n        /* \"#utility.yul\":10822:11055   */\n      pop\n        /* \"#utility.yul\":11145:11149   */\n      0x40\n        /* \"#utility.yul\":11138:11143   */\n      dup4\n        /* \"#utility.yul\":11134:11150   */\n      add\n        /* \"#utility.yul\":11128:11151   */\n      mload\n        /* \"#utility.yul\":11198:11201   */\n      dup5\n        /* \"#utility.yul\":11192:11196   */\n      dup3\n        /* \"#utility.yul\":11188:11202   */\n      sub\n        /* \"#utility.yul\":11181:11185   */\n      0x40\n        /* \"#utility.yul\":11176:11179   */\n      dup7\n        /* \"#utility.yul\":11172:11186   */\n      add\n        /* \"#utility.yul\":11165:11203   */\n      mstore\n        /* \"#utility.yul\":11224:11387   */\n      tag_338\n        /* \"#utility.yul\":11382:11386   */\n      dup3\n        /* \"#utility.yul\":11368:11380   */\n      dup3\n        /* \"#utility.yul\":11224:11387   */\n      tag_208\n      jump\t// in\n    tag_338:\n        /* \"#utility.yul\":11216:11387   */\n      swap2\n      pop\n        /* \"#utility.yul\":11065:11398   */\n      pop\n        /* \"#utility.yul\":11484:11488   */\n      0x60\n        /* \"#utility.yul\":11477:11482   */\n      dup4\n        /* \"#utility.yul\":11473:11489   */\n      add\n        /* \"#utility.yul\":11467:11490   */\n      mload\n        /* \"#utility.yul\":11503:11566   */\n      tag_339\n        /* \"#utility.yul\":11560:11564   */\n      0x60\n        /* \"#utility.yul\":11555:11558   */\n      dup7\n        /* \"#utility.yul\":11551:11565   */\n      add\n        /* \"#utility.yul\":11537:11549   */\n      dup3\n        /* \"#utility.yul\":11503:11566   */\n      tag_203\n      jump\t// in\n    tag_339:\n        /* \"#utility.yul\":11408:11576   */\n      pop\n        /* \"#utility.yul\":11663:11667   */\n      0x80\n        /* \"#utility.yul\":11656:11661   */\n      dup4\n        /* \"#utility.yul\":11652:11668   */\n      add\n        /* \"#utility.yul\":11646:11669   */\n      mload\n        /* \"#utility.yul\":11716:11719   */\n      dup5\n        /* \"#utility.yul\":11710:11714   */\n      dup3\n        /* \"#utility.yul\":11706:11720   */\n      sub\n        /* \"#utility.yul\":11699:11703   */\n      0x80\n        /* \"#utility.yul\":11694:11697   */\n      dup7\n        /* \"#utility.yul\":11690:11704   */\n      add\n        /* \"#utility.yul\":11683:11721   */\n      mstore\n        /* \"#utility.yul\":11742:11813   */\n      tag_340\n        /* \"#utility.yul\":11808:11812   */\n      dup3\n        /* \"#utility.yul\":11794:11806   */\n      dup3\n        /* \"#utility.yul\":11742:11813   */\n      tag_199\n      jump\t// in\n    tag_340:\n        /* \"#utility.yul\":11734:11813   */\n      swap2\n      pop\n        /* \"#utility.yul\":11586:11824   */\n      pop\n        /* \"#utility.yul\":11841:11845   */\n      dup1\n        /* \"#utility.yul\":11834:11845   */\n      swap2\n      pop\n        /* \"#utility.yul\":10529:11851   */\n      pop\n        /* \"#utility.yul\":10395:11851   */\n      swap3\n      swap2\n      pop\n      pop\n      jump\t// out\n        /* \"#utility.yul\":11857:12356   */\n    tag_58:\n        /* \"#utility.yul\":12036:12040   */\n      0x00\n        /* \"#utility.yul\":12074:12076   */\n      0x40\n        /* \"#utility.yul\":12063:12072   */\n      dup3\n        /* \"#utility.yul\":12059:12077   */\n      add\n        /* \"#utility.yul\":12051:12077   */\n      swap1\n      pop\n        /* \"#utility.yul\":12087:12156   */\n      tag_342\n        /* \"#utility.yul\":12153:12154   */\n      0x00\n        /* \"#utility.yul\":12142:12151   */\n      dup4\n        /* \"#utility.yul\":12138:12155   */\n      add\n        /* \"#utility.yul\":12129:12135   */\n      dup6\n        /* \"#utility.yul\":12087:12156   */\n      tag_197\n      jump\t// in\n    tag_342:\n        /* \"#utility.yul\":12203:12212   */\n      dup2\n        /* \"#utility.yul\":12197:12201   */\n      dup2\n        /* \"#utility.yul\":12193:12213   */\n      sub\n        /* \"#utility.yul\":12188:12190   */\n      0x20\n        /* \"#utility.yul\":12177:12186   */\n      dup4\n        /* \"#utility.yul\":12173:12191   */\n      add\n        /* \"#utility.yul\":12166:12214   */\n      mstore\n        /* \"#utility.yul\":12231:12349   */\n      tag_343\n        /* \"#utility.yul\":12344:12348   */\n      dup2\n        /* \"#utility.yul\":12335:12341   */\n      dup5\n        /* \"#utility.yul\":12231:12349   */\n      tag_209\n      jump\t// in\n    tag_343:\n        /* \"#utility.yul\":12223:12349   */\n      swap1\n      pop\n        /* \"#utility.yul\":11857:12356   */\n      swap4\n      swap3\n      pop\n      pop\n      pop\n      jump\t// out\n        /* \"#utility.yul\":12362:12452   */\n    tag_210:\n        /* \"#utility.yul\":12396:12403   */\n      0x00\n        /* \"#utility.yul\":12439:12444   */\n      dup2\n        /* \"#utility.yul\":12432:12445   */\n      iszero\n        /* \"#utility.yul\":12425:12446   */\n      iszero\n        /* \"#utility.yul\":12414:12446   */\n      swap1\n      pop\n        /* \"#utility.yul\":12362:12452   */\n      swap2\n      swap1\n      pop\n      jump\t// out\n        /* \"#utility.yul\":12458:12574   */\n    tag_211:\n        /* \"#utility.yul\":12528:12549   */\n      tag_346\n        /* \"#utility.yul\":12543:12548   */\n      dup2\n        /* \"#utility.yul\":12528:12549   */\n      tag_210\n      jump\t// in\n    tag_346:\n        /* \"#utility.yul\":12521:12526   */\n      dup2\n        /* \"#utility.yul\":12518:12550   */\n      eq\n        /* \"#utility.yul\":12508:12568   */\n      tag_347\n      jumpi\n        /* \"#utility.yul\":12564:12565   */\n      0x00\n        /* \"#utility.yul\":12561:12562   */\n      0x00\n        /* \"#utility.yul\":12554:12566   */\n      revert\n        /* \"#utility.yul\":12508:12568   */\n    tag_347:\n        /* \"#utility.yul\":12458:12574   */\n      pop\n      jump\t// out\n        /* \"#utility.yul\":12580:12717   */\n    tag_212:\n        /* \"#utility.yul\":12634:12639   */\n      0x00\n        /* \"#utility.yul\":12665:12671   */\n      dup2\n        /* \"#utility.yul\":12659:12672   */\n      mload\n        /* \"#utility.yul\":12650:12672   */\n      swap1\n      pop\n        /* \"#utility.yul\":12681:12711   */\n      tag_349\n        /* \"#utility.yul\":12705:12710   */\n      dup2\n        /* \"#utility.yul\":12681:12711   */\n      tag_211\n      jump\t// in\n    tag_349:\n        /* \"#utility.yul\":12580:12717   */\n      swap3\n      swap2\n      pop\n      pop\n      jump\t// out\n        /* \"#utility.yul\":12723:13068   */\n    tag_76:\n        /* \"#utility.yul\":12790:12796   */\n      0x00\n        /* \"#utility.yul\":12839:12841   */\n      0x20\n        /* \"#utility.yul\":12827:12836   */\n      dup3\n        /* \"#utility.yul\":12818:12825   */\n      dup5\n        /* \"#utility.yul\":12814:12837   */\n      sub\n        /* \"#utility.yul\":12810:12842   */\n      slt\n        /* \"#utility.yul\":12807:12926   */\n      iszero\n      tag_351\n      jumpi\n        /* \"#utility.yul\":12845:12924   */\n      tag_352\n      tag_172\n      jump\t// in\n    tag_352:\n        /* \"#utility.yul\":12807:12926   */\n    tag_351:\n        /* \"#utility.yul\":12965:12966   */\n      0x00\n        /* \"#utility.yul\":12990:13051   */\n      tag_353\n        /* \"#utility.yul\":13043:13050   */\n      dup5\n        /* \"#utility.yul\":13034:13040   */\n      dup3\n        /* \"#utility.yul\":13023:13032   */\n      dup6\n        /* \"#utility.yul\":13019:13041   */\n      add\n        /* \"#utility.yul\":12990:13051   */\n      tag_212\n      jump\t// in\n    tag_353:\n        /* \"#utility.yul\":12980:13051   */\n      swap2\n      pop\n        /* \"#utility.yul\":12936:13061   */\n      pop\n        /* \"#utility.yul\":12723:13068   */\n      swap3\n      swap2\n      pop\n      pop\n      jump\t// out\n        /* \"#utility.yul\":13074:13196   */\n    tag_213:\n        /* \"#utility.yul\":13147:13171   */\n      tag_355\n        /* \"#utility.yul\":13165:13170   */\n      dup2\n        /* \"#utility.yul\":13147:13171   */\n      tag_181\n      jump\t// in\n    tag_355:\n        /* \"#utility.yul\":13140:13145   */\n      dup2\n        /* \"#utility.yul\":13137:13172   */\n      eq\n        /* \"#utility.yul\":13127:13190   */\n      tag_356\n      jumpi\n        /* \"#utility.yul\":13186:13187   */\n      0x00\n        /* \"#utility.yul\":13183:13184   */\n      0x00\n        /* \"#utility.yul\":13176:13188   */\n      revert\n        /* \"#utility.yul\":13127:13190   */\n    tag_356:\n        /* \"#utility.yul\":13074:13196   */\n      pop\n      jump\t// out\n        /* \"#utility.yul\":13202:13345   */\n    tag_214:\n        /* \"#utility.yul\":13259:13264   */\n      0x00\n        /* \"#utility.yul\":13290:13296   */\n      dup2\n        /* \"#utility.yul\":13284:13297   */\n      mload\n        /* \"#utility.yul\":13275:13297   */\n      swap1\n      pop\n        /* \"#utility.yul\":13306:13339   */\n      tag_358\n        /* \"#utility.yul\":13333:13338   */\n      dup2\n        /* \"#utility.yul\":13306:13339   */\n      tag_213\n      jump\t// in\n    tag_358:\n        /* \"#utility.yul\":13202:13345   */\n      swap3\n      swap2\n      pop\n      pop\n      jump\t// out\n        /* \"#utility.yul\":13351:13702   */\n    tag_87:\n        /* \"#utility.yul\":13421:13427   */\n      0x00\n        /* \"#utility.yul\":13470:13472   */\n      0x20\n        /* \"#utility.yul\":13458:13467   */\n      dup3\n        /* \"#utility.yul\":13449:13456   */\n      dup5\n        /* \"#utility.yul\":13445:13468   */\n      sub\n        /* \"#utility.yul\":13441:13473   */\n      slt\n        /* \"#utility.yul\":13438:13557   */\n      iszero\n      tag_360\n      jumpi\n        /* \"#utility.yul\":13476:13555   */\n      tag_361\n      tag_172\n      jump\t// in\n    tag_361:\n        /* \"#utility.yul\":13438:13557   */\n    tag_360:\n        /* \"#utility.yul\":13596:13597   */\n      0x00\n        /* \"#utility.yul\":13621:13685   */\n      tag_362\n        /* \"#utility.yul\":13677:13684   */\n      dup5\n        /* \"#utility.yul\":13668:13674   */\n      dup3\n        /* \"#utility.yul\":13657:13666   */\n      dup6\n        /* \"#utility.yul\":13653:13675   */\n      add\n        /* \"#utility.yul\":13621:13685   */\n      tag_214\n      jump\t// in\n    tag_362:\n        /* \"#utility.yul\":13611:13685   */\n      swap2\n      pop\n        /* \"#utility.yul\":13567:13695   */\n      pop\n        /* \"#utility.yul\":13351:13702   */\n      swap3\n      swap2\n      pop\n      pop\n      jump\t// out\n        /* \"#utility.yul\":13708:14150   */\n    tag_89:\n        /* \"#utility.yul\":13857:13861   */\n      0x00\n        /* \"#utility.yul\":13895:13897   */\n      0x60\n        /* \"#utility.yul\":13884:13893   */\n      dup3\n        /* \"#utility.yul\":13880:13898   */\n      add\n        /* \"#utility.yul\":13872:13898   */\n      swap1\n      pop\n        /* \"#utility.yul\":13908:13979   */\n      tag_364\n        /* \"#utility.yul\":13976:13977   */\n      0x00\n        /* \"#utility.yul\":13965:13974   */\n      dup4\n        /* \"#utility.yul\":13961:13978   */\n      add\n        /* \"#utility.yul\":13952:13958   */\n      dup7\n        /* \"#utility.yul\":13908:13979   */\n      tag_182\n      jump\t// in\n    tag_364:\n        /* \"#utility.yul\":13989:14061   */\n      tag_365\n        /* \"#utility.yul\":14057:14059   */\n      0x20\n        /* \"#utility.yul\":14046:14055   */\n      dup4\n        /* \"#utility.yul\":14042:14060   */\n      add\n        /* \"#utility.yul\":14033:14039   */\n      dup6\n        /* \"#utility.yul\":13989:14061   */\n      tag_190\n      jump\t// in\n    tag_365:\n        /* \"#utility.yul\":14071:14143   */\n      tag_366\n        /* \"#utility.yul\":14139:14141   */\n      0x40\n        /* \"#utility.yul\":14128:14137   */\n      dup4\n        /* \"#utility.yul\":14124:14142   */\n      add\n        /* \"#utility.yul\":14115:14121   */\n      dup5\n        /* \"#utility.yul\":14071:14143   */\n      tag_190\n      jump\t// in\n    tag_366:\n        /* \"#utility.yul\":13708:14150   */\n      swap5\n      swap4\n      pop\n      pop\n      pop\n      pop\n      jump\t// out\n        /* \"#utility.yul\":14224:14571   */\n    tag_215:\n        /* \"#utility.yul\":14381:14385   */\n      0x20\n        /* \"#utility.yul\":14376:14379   */\n      dup3\n        /* \"#utility.yul\":14372:14386   */\n      add\n        /* \"#utility.yul\":14472:14476   */\n      0x00\n        /* \"#utility.yul\":14465:14470   */\n      dup3\n        /* \"#utility.yul\":14461:14477   */\n      add\n        /* \"#utility.yul\":14455:14478   */\n      mload\n        /* \"#utility.yul\":14491:14554   */\n      tag_368\n        /* \"#utility.yul\":14548:14552   */\n      0x00\n        /* \"#utility.yul\":14543:14546   */\n      dup6\n        /* \"#utility.yul\":14539:14553   */\n      add\n        /* \"#utility.yul\":14525:14537   */\n      dup3\n        /* \"#utility.yul\":14491:14554   */\n      tag_204\n      jump\t// in\n    tag_368:\n        /* \"#utility.yul\":14396:14564   */\n      pop\n        /* \"#utility.yul\":14350:14571   */\n      pop\n        /* \"#utility.yul\":14224:14571   */\n      pop\n      pop\n      jump\t// out\n        /* \"#utility.yul\":14577:14919   */\n    tag_117:\n        /* \"#utility.yul\":14730:14734   */\n      0x00\n        /* \"#utility.yul\":14768:14770   */\n      0x20\n        /* \"#utility.yul\":14757:14766   */\n      dup3\n        /* \"#utility.yul\":14753:14771   */\n      add\n        /* \"#utility.yul\":14745:14771   */\n      swap1\n      pop\n        /* \"#utility.yul\":14781:14912   */\n      tag_370\n        /* \"#utility.yul\":14909:14910   */\n      0x00\n        /* \"#utility.yul\":14898:14907   */\n      dup4\n        /* \"#utility.yul\":14894:14911   */\n      add\n        /* \"#utility.yul\":14885:14891   */\n      dup5\n        /* \"#utility.yul\":14781:14912   */\n      tag_215\n      jump\t// in\n    tag_370:\n        /* \"#utility.yul\":14577:14919   */\n      swap3\n      swap2\n      pop\n      pop\n      jump\t// out\n        /* \"#utility.yul\":14925:15367   */\n    tag_121:\n        /* \"#utility.yul\":15074:15078   */\n      0x00\n        /* \"#utility.yul\":15112:15114   */\n      0x60\n        /* \"#utility.yul\":15101:15110   */\n      dup3\n        /* \"#utility.yul\":15097:15115   */\n      add\n        /* \"#utility.yul\":15089:15115   */\n      swap1\n      pop\n        /* \"#utility.yul\":15125:15196   */\n      tag_372\n        /* \"#utility.yul\":15193:15194   */\n      0x00\n        /* \"#utility.yul\":15182:15191   */\n      dup4\n        /* \"#utility.yul\":15178:15195   */\n      add\n        /* \"#utility.yul\":15169:15175   */\n      dup7\n        /* \"#utility.yul\":15125:15196   */\n      tag_183\n      jump\t// in\n    tag_372:\n        /* \"#utility.yul\":15206:15278   */\n      tag_373\n        /* \"#utility.yul\":15274:15276   */\n      0x20\n        /* \"#utility.yul\":15263:15272   */\n      dup4\n        /* \"#utility.yul\":15259:15277   */\n      add\n        /* \"#utility.yul\":15250:15256   */\n      dup6\n        /* \"#utility.yul\":15206:15278   */\n      tag_183\n      jump\t// in\n    tag_373:\n        /* \"#utility.yul\":15288:15360   */\n      tag_374\n        /* \"#utility.yul\":15356:15358   */\n      0x40\n        /* \"#utility.yul\":15345:15354   */\n      dup4\n        /* \"#utility.yul\":15341:15359   */\n      add\n        /* \"#utility.yul\":15332:15338   */\n      dup5\n        /* \"#utility.yul\":15288:15360   */\n      tag_190\n      jump\t// in\n    tag_374:\n        /* \"#utility.yul\":14925:15367   */\n      swap5\n      swap4\n      pop\n      pop\n      pop\n      pop\n      jump\t// out\n        /* \"#utility.yul\":15373:15542   */\n    tag_216:\n        /* \"#utility.yul\":15457:15468   */\n      0x00\n        /* \"#utility.yul\":15491:15497   */\n      dup3\n        /* \"#utility.yul\":15486:15489   */\n      dup3\n        /* \"#utility.yul\":15479:15498   */\n      mstore\n        /* \"#utility.yul\":15531:15535   */\n      0x20\n        /* \"#utility.yul\":15526:15529   */\n      dup3\n        /* \"#utility.yul\":15522:15536   */\n      add\n        /* \"#utility.yul\":15507:15536   */\n      swap1\n      pop\n        /* \"#utility.yul\":15373:15542   */\n      swap3\n      swap2\n      pop\n      pop\n      jump\t// out\n        /* \"#utility.yul\":15548:15777   */\n    tag_217:\n        /* \"#utility.yul\":15688:15722   */\n      0x5361666545524332303a204552433230206f7065726174696f6e20646964206e\n        /* \"#utility.yul\":15684:15685   */\n      0x00\n        /* \"#utility.yul\":15676:15682   */\n      dup3\n        /* \"#utility.yul\":15672:15686   */\n      add\n        /* \"#utility.yul\":15665:15723   */\n      mstore\n        /* \"#utility.yul\":15757:15769   */\n      0x6f74207375636365656400000000000000000000000000000000000000000000\n        /* \"#utility.yul\":15752:15754   */\n      0x20\n        /* \"#utility.yul\":15744:15750   */\n      dup3\n        /* \"#utility.yul\":15740:15755   */\n      add\n        /* \"#utility.yul\":15733:15770   */\n      mstore\n        /* \"#utility.yul\":15548:15777   */\n      pop\n      jump\t// out\n        /* \"#utility.yul\":15783:16149   */\n    tag_218:\n        /* \"#utility.yul\":15925:15928   */\n      0x00\n        /* \"#utility.yul\":15946:16013   */\n      tag_378\n        /* \"#utility.yul\":16010:16012   */\n      0x2a\n        /* \"#utility.yul\":16005:16008   */\n      dup4\n        /* \"#utility.yul\":15946:16013   */\n      tag_216\n      jump\t// in\n    tag_378:\n        /* \"#utility.yul\":15939:16013   */\n      swap2\n      pop\n        /* \"#utility.yul\":16022:16115   */\n      tag_379\n        /* \"#utility.yul\":16111:16114   */\n      dup3\n        /* \"#utility.yul\":16022:16115   */\n      tag_217\n      jump\t// in\n    tag_379:\n        /* \"#utility.yul\":16140:16142   */\n      0x40\n        /* \"#utility.yul\":16135:16138   */\n      dup3\n        /* \"#utility.yul\":16131:16143   */\n      add\n        /* \"#utility.yul\":16124:16143   */\n      swap1\n      pop\n        /* \"#utility.yul\":15783:16149   */\n      swap2\n      swap1\n      pop\n      jump\t// out\n        /* \"#utility.yul\":16155:16574   */\n    tag_138:\n        /* \"#utility.yul\":16321:16325   */\n      0x00\n        /* \"#utility.yul\":16359:16361   */\n      0x20\n        /* \"#utility.yul\":16348:16357   */\n      dup3\n        /* \"#utility.yul\":16344:16362   */\n      add\n        /* \"#utility.yul\":16336:16362   */\n      swap1\n      pop\n        /* \"#utility.yul\":16408:16417   */\n      dup2\n        /* \"#utility.yul\":16402:16406   */\n      dup2\n        /* \"#utility.yul\":16398:16418   */\n      sub\n        /* \"#utility.yul\":16394:16395   */\n      0x00\n        /* \"#utility.yul\":16383:16392   */\n      dup4\n        /* \"#utility.yul\":16379:16396   */\n      add\n        /* \"#utility.yul\":16372:16419   */\n      mstore\n        /* \"#utility.yul\":16436:16567   */\n      tag_381\n        /* \"#utility.yul\":16562:16566   */\n      dup2\n        /* \"#utility.yul\":16436:16567   */\n      tag_218\n      jump\t// in\n    tag_381:\n        /* \"#utility.yul\":16428:16567   */\n      swap1\n      pop\n        /* \"#utility.yul\":16155:16574   */\n      swap2\n      swap1\n      pop\n      jump\t// out\n        /* \"#utility.yul\":16580:16805   */\n    tag_219:\n        /* \"#utility.yul\":16720:16754   */\n      0x416464726573733a20696e73756666696369656e742062616c616e636520666f\n        /* \"#utility.yul\":16716:16717   */\n      0x00\n        /* \"#utility.yul\":16708:16714   */\n      dup3\n        /* \"#utility.yul\":16704:16718   */\n      add\n        /* \"#utility.yul\":16697:16755   */\n      mstore\n        /* \"#utility.yul\":16789:16797   */\n      0x722063616c6c0000000000000000000000000000000000000000000000000000\n        /* \"#utility.yul\":16784:16786   */\n      0x20\n        /* \"#utility.yul\":16776:16782   */\n      dup3\n        /* \"#utility.yul\":16772:16787   */\n      add\n        /* \"#utility.yul\":16765:16798   */\n      mstore\n        /* \"#utility.yul\":16580:16805   */\n      pop\n      jump\t// out\n        /* \"#utility.yul\":16811:17177   */\n    tag_220:\n        /* \"#utility.yul\":16953:16956   */\n      0x00\n        /* \"#utility.yul\":16974:17041   */\n      tag_384\n        /* \"#utility.yul\":17038:17040   */\n      0x26\n        /* \"#utility.yul\":17033:17036   */\n      dup4\n        /* \"#utility.yul\":16974:17041   */\n      tag_216\n      jump\t// in\n    tag_384:\n        /* \"#utility.yul\":16967:17041   */\n      swap2\n      pop\n        /* \"#utility.yul\":17050:17143   */\n      tag_385\n        /* \"#utility.yul\":17139:17142   */\n      dup3\n        /* \"#utility.yul\":17050:17143   */\n      tag_219\n      jump\t// in\n    tag_385:\n        /* \"#utility.yul\":17168:17170   */\n      0x40\n        /* \"#utility.yul\":17163:17166   */\n      dup3\n        /* \"#utility.yul\":17159:17171   */\n      add\n        /* \"#utility.yul\":17152:17171   */\n      swap1\n      pop\n        /* \"#utility.yul\":16811:17177   */\n      swap2\n      swap1\n      pop\n      jump\t// out\n        /* \"#utility.yul\":17183:17602   */\n    tag_146:\n        /* \"#utility.yul\":17349:17353   */\n      0x00\n        /* \"#utility.yul\":17387:17389   */\n      0x20\n        /* \"#utility.yul\":17376:17385   */\n      dup3\n        /* \"#utility.yul\":17372:17390   */\n      add\n        /* \"#utility.yul\":17364:17390   */\n      swap1\n      pop\n        /* \"#utility.yul\":17436:17445   */\n      dup2\n        /* \"#utility.yul\":17430:17434   */\n      dup2\n        /* \"#utility.yul\":17426:17446   */\n      sub\n        /* \"#utility.yul\":17422:17423   */\n      0x00\n        /* \"#utility.yul\":17411:17420   */\n      dup4\n        /* \"#utility.yul\":17407:17424   */\n      add\n        /* \"#utility.yul\":17400:17447   */\n      mstore\n        /* \"#utility.yul\":17464:17595   */\n      tag_387\n        /* \"#utility.yul\":17590:17594   */\n      dup2\n        /* \"#utility.yul\":17464:17595   */\n      tag_220\n      jump\t// in\n    tag_387:\n        /* \"#utility.yul\":17456:17595   */\n      swap1\n      pop\n        /* \"#utility.yul\":17183:17602   */\n      swap2\n      swap1\n      pop\n      jump\t// out\n        /* \"#utility.yul\":17608:17755   */\n    tag_221:\n        /* \"#utility.yul\":17709:17720   */\n      0x00\n        /* \"#utility.yul\":17746:17749   */\n      dup2\n        /* \"#utility.yul\":17731:17749   */\n      swap1\n      pop\n        /* \"#utility.yul\":17608:17755   */\n      swap3\n      swap2\n      pop\n      pop\n      jump\t// out\n        /* \"#utility.yul\":17761:18147   */\n    tag_222:\n        /* \"#utility.yul\":17865:17868   */\n      0x00\n        /* \"#utility.yul\":17893:17931   */\n      tag_390\n        /* \"#utility.yul\":17925:17930   */\n      dup3\n        /* \"#utility.yul\":17893:17931   */\n      tag_191\n      jump\t// in\n    tag_390:\n        /* \"#utility.yul\":17947:18035   */\n      tag_391\n        /* \"#utility.yul\":18028:18034   */\n      dup2\n        /* \"#utility.yul\":18023:18026   */\n      dup6\n        /* \"#utility.yul\":17947:18035   */\n      tag_221\n      jump\t// in\n    tag_391:\n        /* \"#utility.yul\":17940:18035   */\n      swap4\n      pop\n        /* \"#utility.yul\":18044:18109   */\n      tag_392\n        /* \"#utility.yul\":18102:18108   */\n      dup2\n        /* \"#utility.yul\":18097:18100   */\n      dup6\n        /* \"#utility.yul\":18090:18094   */\n      0x20\n        /* \"#utility.yul\":18083:18088   */\n      dup7\n        /* \"#utility.yul\":18079:18095   */\n      add\n        /* \"#utility.yul\":18044:18109   */\n      tag_193\n      jump\t// in\n    tag_392:\n        /* \"#utility.yul\":18134:18140   */\n      dup1\n        /* \"#utility.yul\":18129:18132   */\n      dup5\n        /* \"#utility.yul\":18125:18141   */\n      add\n        /* \"#utility.yul\":18118:18141   */\n      swap2\n      pop\n        /* \"#utility.yul\":17869:18147   */\n      pop\n        /* \"#utility.yul\":17761:18147   */\n      swap3\n      swap2\n      pop\n      pop\n      jump\t// out\n        /* \"#utility.yul\":18153:18424   */\n    tag_148:\n        /* \"#utility.yul\":18283:18286   */\n      0x00\n        /* \"#utility.yul\":18305:18398   */\n      tag_394\n        /* \"#utility.yul\":18394:18397   */\n      dup3\n        /* \"#utility.yul\":18385:18391   */\n      dup5\n        /* \"#utility.yul\":18305:18398   */\n      tag_222\n      jump\t// in\n    tag_394:\n        /* \"#utility.yul\":18298:18398   */\n      swap2\n      pop\n        /* \"#utility.yul\":18415:18418   */\n      dup2\n        /* \"#utility.yul\":18408:18418   */\n      swap1\n      pop\n        /* \"#utility.yul\":18153:18424   */\n      swap3\n      swap2\n      pop\n      pop\n      jump\t// out\n        /* \"#utility.yul\":18430:18609   */\n    tag_223:\n        /* \"#utility.yul\":18570:18601   */\n      0x416464726573733a2063616c6c20746f206e6f6e2d636f6e7472616374000000\n        /* \"#utility.yul\":18566:18567   */\n      0x00\n        /* \"#utility.yul\":18558:18564   */\n      dup3\n        /* \"#utility.yul\":18554:18568   */\n      add\n        /* \"#utility.yul\":18547:18602   */\n      mstore\n        /* \"#utility.yul\":18430:18609   */\n      pop\n      jump\t// out\n        /* \"#utility.yul\":18615:18981   */\n    tag_224:\n        /* \"#utility.yul\":18757:18760   */\n      0x00\n        /* \"#utility.yul\":18778:18845   */\n      tag_397\n        /* \"#utility.yul\":18842:18844   */\n      0x1d\n        /* \"#utility.yul\":18837:18840   */\n      dup4\n        /* \"#utility.yul\":18778:18845   */\n      tag_216\n      jump\t// in\n    tag_397:\n        /* \"#utility.yul\":18771:18845   */\n      swap2\n      pop\n        /* \"#utility.yul\":18854:18947   */\n      tag_398\n        /* \"#utility.yul\":18943:18946   */\n      dup3\n        /* \"#utility.yul\":18854:18947   */\n      tag_223\n      jump\t// in\n    tag_398:\n        /* \"#utility.yul\":18972:18974   */\n      0x20\n        /* \"#utility.yul\":18967:18970   */\n      dup3\n        /* \"#utility.yul\":18963:18975   */\n      add\n        /* \"#utility.yul\":18956:18975   */\n      swap1\n      pop\n        /* \"#utility.yul\":18615:18981   */\n      swap2\n      swap1\n      pop\n      jump\t// out\n        /* \"#utility.yul\":18987:19406   */\n    tag_161:\n        /* \"#utility.yul\":19153:19157   */\n      0x00\n        /* \"#utility.yul\":19191:19193   */\n      0x20\n        /* \"#utility.yul\":19180:19189   */\n      dup3\n        /* \"#utility.yul\":19176:19194   */\n      add\n        /* \"#utility.yul\":19168:19194   */\n      swap1\n      pop\n        /* \"#utility.yul\":19240:19249   */\n      dup2\n        /* \"#utility.yul\":19234:19238   */\n      dup2\n        /* \"#utility.yul\":19230:19250   */\n      sub\n        /* \"#utility.yul\":19226:19227   */\n      0x00\n        /* \"#utility.yul\":19215:19224   */\n      dup4\n        /* \"#utility.yul\":19211:19228   */\n      add\n        /* \"#utility.yul\":19204:19251   */\n      mstore\n        /* \"#utility.yul\":19268:19399   */\n      tag_400\n        /* \"#utility.yul\":19394:19398   */\n      dup2\n        /* \"#utility.yul\":19268:19399   */\n      tag_224\n      jump\t// in\n    tag_400:\n        /* \"#utility.yul\":19260:19399   */\n      swap1\n      pop\n        /* \"#utility.yul\":18987:19406   */\n      swap2\n      swap1\n      pop\n      jump\t// out\n        /* \"#utility.yul\":19412:19511   */\n    tag_225:\n        /* \"#utility.yul\":19464:19470   */\n      0x00\n        /* \"#utility.yul\":19498:19503   */\n      dup2\n        /* \"#utility.yul\":19492:19504   */\n      mload\n        /* \"#utility.yul\":19482:19504   */\n      swap1\n      pop\n        /* \"#utility.yul\":19412:19511   */\n      swap2\n      swap1\n      pop\n      jump\t// out\n        /* \"#utility.yul\":19517:19894   */\n    tag_226:\n        /* \"#utility.yul\":19605:19608   */\n      0x00\n        /* \"#utility.yul\":19633:19672   */\n      tag_403\n        /* \"#utility.yul\":19666:19671   */\n      dup3\n        /* \"#utility.yul\":19633:19672   */\n      tag_225\n      jump\t// in\n    tag_403:\n        /* \"#utility.yul\":19688:19759   */\n      tag_404\n        /* \"#utility.yul\":19752:19758   */\n      dup2\n        /* \"#utility.yul\":19747:19750   */\n      dup6\n        /* \"#utility.yul\":19688:19759   */\n      tag_216\n      jump\t// in\n    tag_404:\n        /* \"#utility.yul\":19681:19759   */\n      swap4\n      pop\n        /* \"#utility.yul\":19768:19833   */\n      tag_405\n        /* \"#utility.yul\":19826:19832   */\n      dup2\n        /* \"#utility.yul\":19821:19824   */\n      dup6\n        /* \"#utility.yul\":19814:19818   */\n      0x20\n        /* \"#utility.yul\":19807:19812   */\n      dup7\n        /* \"#utility.yul\":19803:19819   */\n      add\n        /* \"#utility.yul\":19768:19833   */\n      tag_193\n      jump\t// in\n    tag_405:\n        /* \"#utility.yul\":19858:19887   */\n      tag_406\n        /* \"#utility.yul\":19880:19886   */\n      dup2\n        /* \"#utility.yul\":19858:19887   */\n      tag_194\n      jump\t// in\n    tag_406:\n        /* \"#utility.yul\":19853:19856   */\n      dup5\n        /* \"#utility.yul\":19849:19888   */\n      add\n        /* \"#utility.yul\":19842:19888   */\n      swap2\n      pop\n        /* \"#utility.yul\":19609:19894   */\n      pop\n        /* \"#utility.yul\":19517:19894   */\n      swap3\n      swap2\n      pop\n      pop\n      jump\t// out\n        /* \"#utility.yul\":19900:20213   */\n    tag_170:\n        /* \"#utility.yul\":20013:20017   */\n      0x00\n        /* \"#utility.yul\":20051:20053   */\n      0x20\n        /* \"#utility.yul\":20040:20049   */\n      dup3\n        /* \"#utility.yul\":20036:20054   */\n      add\n        /* \"#utility.yul\":20028:20054   */\n      swap1\n      pop\n        /* \"#utility.yul\":20100:20109   */\n      dup2\n        /* \"#utility.yul\":20094:20098   */\n      dup2\n        /* \"#utility.yul\":20090:20110   */\n      sub\n        /* \"#utility.yul\":20086:20087   */\n      0x00\n        /* \"#utility.yul\":20075:20084   */\n      dup4\n        /* \"#utility.yul\":20071:20088   */\n      add\n        /* \"#utility.yul\":20064:20111   */\n      mstore\n        /* \"#utility.yul\":20128:20206   */\n      tag_408\n        /* \"#utility.yul\":20201:20205   */\n      dup2\n        /* \"#utility.yul\":20192:20198   */\n      dup5\n        /* \"#utility.yul\":20128:20206   */\n      tag_226\n      jump\t// in\n    tag_408:\n        /* \"#utility.yul\":20120:20206   */\n      swap1\n      pop\n        /* \"#utility.yul\":19900:20213   */\n      swap3\n      swap2\n      pop\n      pop\n      jump\t// out\n\n    auxdata: 0xa264697066735822122012231459f5e1e86d04c8fb62025cd2e66b03949e29e10845c93a5fd16d1f93e064736f6c63430008210033\n}\n",
				"bytecode": {
					"linkReferences": {},
					"object": "608060405234801561000f575f5ffd5b50335f73ffffffffffffffffffffffffffffffffffffffff168173ffffffffffffffffffffffffffffffffffffffff1603610081575f6040517f1e4fbdf70000000000000000000000000000000000000000000000000000000081526004016100789190610196565b60405180910390fd5b6100908161009660201b60201c565b506101af565b5f5f5f9054906101000a900473ffffffffffffffffffffffffffffffffffffffff169050815f5f6101000a81548173ffffffffffffffffffffffffffffffffffffffff021916908373ffffffffffffffffffffffffffffffffffffffff1602179055508173ffffffffffffffffffffffffffffffffffffffff168173ffffffffffffffffffffffffffffffffffffffff167f8be0079c531659141344cd1fd0a4f28419497f9722a3daafe3b4186f6b6457e060405160405180910390a35050565b5f73ffffffffffffffffffffffffffffffffffffffff82169050919050565b5f61018082610157565b9050919050565b61019081610176565b82525050565b5f6020820190506101a95f830184610187565b92915050565b611929806101bc5f395ff3fe608060405234801561000f575f5ffd5b5060043610610055575f3560e01c80634af350eb14610059578063715018a61461008957806389476069146100935780638da5cb5b146100af578063f2fde38b146100cd575b5f5ffd5b610073600480360381019061006e9190611077565b6100e9565b60405161008091906110df565b60405180910390f35b6100916108b5565b005b6100ad60048036038101906100a891906110f8565b6108c8565b005b6100b7610a2c565b6040516100c49190611132565b60405180910390f35b6100e760048036038101906100e291906110f8565b610a53565b005b5f731c7d4b196cb0c7b01d743fbc6116a902379c723873ffffffffffffffffffffffffffffffffffffffff166370a08231336040518263ffffffff1660e01b81526004016101379190611132565b602060405180830381865afa158015610152573d5f5f3e3d5ffd5b505050506040513d601f19601f82011682018060405250810190610176919061115f565b83111561024957731c7d4b196cb0c7b01d743fbc6116a902379c72388073ffffffffffffffffffffffffffffffffffffffff166370a08231336040518263ffffffff1660e01b81526004016101cb9190611132565b602060405180830381865afa1580156101e6573d5f5f3e3d5ffd5b505050506040513d601f19601f8201168201806040525081019061020a919061115f565b846040517ff6867456000000000000000000000000000000000000000000000000000000008152600401610240939291906111f4565b60405180910390fd5b5f600167ffffffffffffffff81111561026557610264611229565b5b60405190808252806020026020018201604052801561029e57816020015b61028b610fb8565b8152602001906001900390816102835790505b5090505f6040518060400160405280731c7d4b196cb0c7b01d743fbc6116a902379c723873ffffffffffffffffffffffffffffffffffffffff16815260200186815250905080825f815181106102f7576102f6611256565b5b60200260200101819052505f6347e7ef2460e01b338760405160240161031e929190611283565b604051602081830303815290604052907bffffffffffffffffffffffffffffffffffffffffffffffffffffffff19166020820180517bffffffffffffffffffffffffffffffffffffffffffffffffffffffff838183161783525050505090505f6040518060a001604052808960405160200161039a9190611132565b604051602081830303815290604052815260200187846040516020016103c192919061131a565b604051602081830303815290604052815260200185815260200173779877a7b0d9e8603169ddbd7836e478b462478973ffffffffffffffffffffffffffffffffffffffff168152602001610425604051806020016040528062030d40815250610ad7565b81525090505f730bf3de8c5d3e8a2b34d2beeb17abfcebaf363a5973ffffffffffffffffffffffffffffffffffffffff166320487ded678f90b8876dee6538846040518363ffffffff1660e01b815260040161048292919061152d565b602060405180830381865afa15801561049d573d5f5f3e3d5ffd5b505050506040513d601f19601f820116820180604052508101906104c1919061115f565b905073779877a7b0d9e8603169ddbd7836e478b462478973ffffffffffffffffffffffffffffffffffffffff166370a08231306040518263ffffffff1660e01b81526004016105109190611132565b602060405180830381865afa15801561052b573d5f5f3e3d5ffd5b505050506040513d601f19601f8201168201806040525081019061054f919061115f565b8111156106225773779877a7b0d9e8603169ddbd7836e478b46247898073ffffffffffffffffffffffffffffffffffffffff166370a08231306040518263ffffffff1660e01b81526004016105a49190611132565b602060405180830381865afa1580156105bf573d5f5f3e3d5ffd5b505050506040513d601f19601f820116820180604052508101906105e3919061115f565b826040517ff6867456000000000000000000000000000000000000000000000000000000008152600401610619939291906111f4565b60405180910390fd5b73779877a7b0d9e8603169ddbd7836e478b462478973ffffffffffffffffffffffffffffffffffffffff1663095ea7b3730bf3de8c5d3e8a2b34d2beeb17abfcebaf363a59836040518363ffffffff1660e01b8152600401610685929190611283565b6020604051808303815f875af11580156106a1573d5f5f3e3d5ffd5b505050506040513d601f19601f820116820180604052508101906106c59190611590565b5061070733308a731c7d4b196cb0c7b01d743fbc6116a902379c723873ffffffffffffffffffffffffffffffffffffffff16610b56909392919063ffffffff16565b731c7d4b196cb0c7b01d743fbc6116a902379c723873ffffffffffffffffffffffffffffffffffffffff1663095ea7b3730bf3de8c5d3e8a2b34d2beeb17abfcebaf363a598a6040518363ffffffff1660e01b815260040161076a929190611283565b6020604051808303815f875af1158015610786573d5f5f3e3d5ffd5b505050506040513d601f19601f820116820180604052508101906107aa9190611590565b50730bf3de8c5d3e8a2b34d2beeb17abfcebaf363a5973ffffffffffffffffffffffffffffffffffffffff166396f4e9f9678f90b8876dee6538846040518363ffffffff1660e01b815260040161080292919061152d565b6020604051808303815f875af115801561081e573d5f5f3e3d5ffd5b505050506040513d601f19601f8201168201806040525081019061084291906115e5565b95508873ffffffffffffffffffffffffffffffffffffffff16678f90b8876dee653867ffffffffffffffff167feca040c7df5d1a8ea4277fa1a77f55e8ef67b6fcf617a6fc6b16067f5f7547b5888b856040516108a193929190611610565b60405180910390a350505050509392505050565b6108bd610bdf565b6108c65f610c66565b565b6108d0610bdf565b5f731c7d4b196cb0c7b01d743fbc6116a902379c723873ffffffffffffffffffffffffffffffffffffffff166370a08231306040518263ffffffff1660e01b815260040161091e9190611132565b602060405180830381865afa158015610939573d5f5f3e3d5ffd5b505050506040513d601f19601f8201168201806040525081019061095d919061115f565b90505f8103610998576040517f6f22150a00000000000000000000000000000000000000000000000000000000815260040160405180910390fd5b731c7d4b196cb0c7b01d743fbc6116a902379c723873ffffffffffffffffffffffffffffffffffffffff1663a9059cbb83836040518363ffffffff1660e01b81526004016109e7929190611283565b6020604051808303815f875af1158015610a03573d5f5f3e3d5ffd5b505050506040513d601f19601f82011682018060405250810190610a279190611590565b505050565b5f5f5f9054906101000a900473ffffffffffffffffffffffffffffffffffffffff16905090565b610a5b610bdf565b5f73ffffffffffffffffffffffffffffffffffffffff168173ffffffffffffffffffffffffffffffffffffffff1603610acb575f6040517f1e4fbdf7000000000000000000000000000000000000000000000000000000008152600401610ac29190611132565b60405180910390fd5b610ad481610c66565b50565b60606397a657c960e01b82604051602401610af2919061165f565b604051602081830303815290604052907bffffffffffffffffffffffffffffffffffffffffffffffffffffffff19166020820180517bffffffffffffffffffffffffffffffffffffffffffffffffffffffff83818316178352505050509050919050565b610bd9846323b872dd60e01b858585604051602401610b7793929190611678565b604051602081830303815290604052907bffffffffffffffffffffffffffffffffffffffffffffffffffffffff19166020820180517bffffffffffffffffffffffffffffffffffffffffffffffffffffffff8381831617835250505050610d27565b50505050565b610be7610dec565b73ffffffffffffffffffffffffffffffffffffffff16610c05610a2c565b73ffffffffffffffffffffffffffffffffffffffff1614610c6457610c28610dec565b6040517f118cdaa7000000000000000000000000000000000000000000000000000000008152600401610c5b9190611132565b60405180910390fd5b565b5f5f5f9054906101000a900473ffffffffffffffffffffffffffffffffffffffff169050815f5f6101000a81548173ffffffffffffffffffffffffffffffffffffffff021916908373ffffffffffffffffffffffffffffffffffffffff1602179055508173ffffffffffffffffffffffffffffffffffffffff168173ffffffffffffffffffffffffffffffffffffffff167f8be0079c531659141344cd1fd0a4f28419497f9722a3daafe3b4186f6b6457e060405160405180910390a35050565b5f610d88826040518060400160405280602081526020017f5361666545524332303a206c6f772d6c6576656c2063616c6c206661696c65648152508573ffffffffffffffffffffffffffffffffffffffff16610df39092919063ffffffff16565b90505f81511115610de75780806020019051810190610da79190611590565b610de6576040517f08c379a0000000000000000000000000000000000000000000000000000000008152600401610ddd9061172d565b60405180910390fd5b5b505050565b5f33905090565b6060610e0184845f85610e0a565b90509392505050565b606082471015610e4f576040517f08c379a0000000000000000000000000000000000000000000000000000000008152600401610e46906117bb565b60405180910390fd5b5f5f8673ffffffffffffffffffffffffffffffffffffffff168587604051610e779190611813565b5f6040518083038185875af1925050503d805f8114610eb1576040519150601f19603f3d011682016040523d82523d5f602084013e610eb6565b606091505b5091509150610ec787838387610ed3565b92505050949350505050565b60608315610f34575f835103610f2c57610eec85610f47565b610f2b576040517f08c379a0000000000000000000000000000000000000000000000000000000008152600401610f2290611873565b60405180910390fd5b5b829050610f3f565b610f3e8383610f69565b5b949350505050565b5f5f8273ffffffffffffffffffffffffffffffffffffffff163b119050919050565b5f82511115610f7b5781518083602001fd5b806040517f08c379a0000000000000000000000000000000000000000000000000000000008152600401610faf91906118d3565b60405180910390fd5b60405180604001604052805f73ffffffffffffffffffffffffffffffffffffffff1681526020015f81525090565b5f5ffd5b5f73ffffffffffffffffffffffffffffffffffffffff82169050919050565b5f61101382610fea565b9050919050565b61102381611009565b811461102d575f5ffd5b50565b5f8135905061103e8161101a565b92915050565b5f819050919050565b61105681611044565b8114611060575f5ffd5b50565b5f813590506110718161104d565b92915050565b5f5f5f6060848603121561108e5761108d610fe6565b5b5f61109b86828701611030565b93505060206110ac86828701611063565b92505060406110bd86828701611030565b9150509250925092565b5f819050919050565b6110d9816110c7565b82525050565b5f6020820190506110f25f8301846110d0565b92915050565b5f6020828403121561110d5761110c610fe6565b5b5f61111a84828501611030565b91505092915050565b61112c81611009565b82525050565b5f6020820190506111455f830184611123565b92915050565b5f815190506111598161104d565b92915050565b5f6020828403121561117457611173610fe6565b5b5f6111818482850161114b565b91505092915050565b5f819050919050565b5f6111ad6111a86111a384610fea565b61118a565b610fea565b9050919050565b5f6111be82611193565b9050919050565b5f6111cf826111b4565b9050919050565b6111df816111c5565b82525050565b6111ee81611044565b82525050565b5f6060820190506112075f8301866111d6565b61121460208301856111e5565b61122160408301846111e5565b949350505050565b7f4e487b71000000000000000000000000000000000000000000000000000000005f52604160045260245ffd5b7f4e487b71000000000000000000000000000000000000000000000000000000005f52603260045260245ffd5b5f6040820190506112965f830185611123565b6112a360208301846111e5565b9392505050565b5f81519050919050565b5f82825260208201905092915050565b8281835e5f83830152505050565b5f601f19601f8301169050919050565b5f6112ec826112aa565b6112f681856112b4565b93506113068185602086016112c4565b61130f816112d2565b840191505092915050565b5f60408201905061132d5f830185611123565b818103602083015261133f81846112e2565b90509392505050565b5f67ffffffffffffffff82169050919050565b61136481611348565b82525050565b5f82825260208201905092915050565b5f611384826112aa565b61138e818561136a565b935061139e8185602086016112c4565b6113a7816112d2565b840191505092915050565b5f81519050919050565b5f82825260208201905092915050565b5f819050602082019050919050565b6113e481611009565b82525050565b6113f381611044565b82525050565b604082015f82015161140d5f8501826113db565b50602082015161142060208501826113ea565b50505050565b5f61143183836113f9565b60408301905092915050565b5f602082019050919050565b5f611453826113b2565b61145d81856113bc565b9350611468836113cc565b805f5b8381101561149857815161147f8882611426565b975061148a8361143d565b92505060018101905061146b565b5085935050505092915050565b5f60a083015f8301518482035f8601526114bf828261137a565b915050602083015184820360208601526114d9828261137a565b915050604083015184820360408601526114f38282611449565b915050606083015161150860608601826113db565b5060808301518482036080860152611520828261137a565b9150508091505092915050565b5f6040820190506115405f83018561135b565b818103602083015261155281846114a5565b90509392505050565b5f8115159050919050565b61156f8161155b565b8114611579575f5ffd5b50565b5f8151905061158a81611566565b92915050565b5f602082840312156115a5576115a4610fe6565b5b5f6115b28482850161157c565b91505092915050565b6115c4816110c7565b81146115ce575f5ffd5b50565b5f815190506115df816115bb565b92915050565b5f602082840312156115fa576115f9610fe6565b5b5f611607848285016115d1565b91505092915050565b5f6060820190506116235f8301866110d0565b61163060208301856111e5565b61163d60408301846111e5565b949350505050565b602082015f8201516116595f8501826113ea565b50505050565b5f6020820190506116725f830184611645565b92915050565b5f60608201905061168b5f830186611123565b6116986020830185611123565b6116a560408301846111e5565b949350505050565b5f82825260208201905092915050565b7f5361666545524332303a204552433230206f7065726174696f6e20646964206e5f8201527f6f74207375636365656400000000000000000000000000000000000000000000602082015250565b5f611717602a836116ad565b9150611722826116bd565b604082019050919050565b5f6020820190508181035f8301526117448161170b565b9050919050565b7f416464726573733a20696e73756666696369656e742062616c616e636520666f5f8201527f722063616c6c0000000000000000000000000000000000000000000000000000602082015250565b5f6117a56026836116ad565b91506117b08261174b565b604082019050919050565b5f6020820190508181035f8301526117d281611799565b9050919050565b5f81905092915050565b5f6117ed826112aa565b6117f781856117d9565b93506118078185602086016112c4565b80840191505092915050565b5f61181e82846117e3565b915081905092915050565b7f416464726573733a2063616c6c20746f206e6f6e2d636f6e74726163740000005f82015250565b5f61185d601d836116ad565b915061186882611829565b602082019050919050565b5f6020820190508181035f83015261188a81611851565b9050919050565b5f81519050919050565b5f6118a582611891565b6118af81856116ad565b93506118bf8185602086016112c4565b6118c8816112d2565b840191505092915050565b5f6020820190508181035f8301526118eb818461189b565b90509291505056fea264697066735822122012231459f5e1e86d04c8fb62025cd2e66b03949e29e10845c93a5fd16d1f93e064736f6c63430008210033",
					"opcodes": "PUSH1 0x80 PUSH1 0x40 MSTORE CALLVALUE DUP1 ISZERO PUSH2 0xF JUMPI PUSH0 PUSH0 REVERT JUMPDEST POP CALLER PUSH0 PUSH20 0xFFFFFFFFFFFFFFFFFFFFFFFFFFFFFFFFFFFFFFFF AND DUP2 PUSH20 0xFFFFFFFFFFFFFFFFFFFFFFFFFFFFFFFFFFFFFFFF AND SUB PUSH2 0x81 JUMPI PUSH0 PUSH1 0x40 MLOAD PUSH32 0x1E4FBDF700000000000000000000000000000000000000000000000000000000 DUP2 MSTORE PUSH1 0x4 ADD PUSH2 0x78 SWAP2 SWAP1 PUSH2 0x196 JUMP JUMPDEST PUSH1 0x40 MLOAD DUP1 SWAP2 SUB SWAP1 REVERT JUMPDEST PUSH2 0x90 DUP2 PUSH2 0x96 PUSH1 0x20 SHL PUSH1 0x20 SHR JUMP JUMPDEST POP PUSH2 0x1AF JUMP JUMPDEST PUSH0 PUSH0 PUSH0 SWAP1 SLOAD SWAP1 PUSH2 0x100 EXP SWAP1 DIV PUSH20 0xFFFFFFFFFFFFFFFFFFFFFFFFFFFFFFFFFFFFFFFF AND SWAP1 POP DUP2 PUSH0 PUSH0 PUSH2 0x100 EXP DUP2 SLOAD DUP2 PUSH20 0xFFFFFFFFFFFFFFFFFFFFFFFFFFFFFFFFFFFFFFFF MUL NOT AND SWAP1 DUP4 PUSH20 0xFFFFFFFFFFFFFFFFFFFFFFFFFFFFFFFFFFFFFFFF AND MUL OR SWAP1 SSTORE POP DUP2 PUSH20 0xFFFFFFFFFFFFFFFFFFFFFFFFFFFFFFFFFFFFFFFF AND DUP2 PUSH20 0xFFFFFFFFFFFFFFFFFFFFFFFFFFFFFFFFFFFFFFFF AND PUSH32 0x8BE0079C531659141344CD1FD0A4F28419497F9722A3DAAFE3B4186F6B6457E0 PUSH1 0x40 MLOAD PUSH1 0x40 MLOAD DUP1 SWAP2 SUB SWAP1 LOG3 POP POP JUMP JUMPDEST PUSH0 PUSH20 0xFFFFFFFFFFFFFFFFFFFFFFFFFFFFFFFFFFFFFFFF DUP3 AND SWAP1 POP SWAP2 SWAP1 POP JUMP JUMPDEST PUSH0 PUSH2 0x180 DUP3 PUSH2 0x157 JUMP JUMPDEST SWAP1 POP SWAP2 SWAP1 POP JUMP JUMPDEST PUSH2 0x190 DUP2 PUSH2 0x176 JUMP JUMPDEST DUP3 MSTORE POP POP JUMP JUMPDEST PUSH0 PUSH1 0x20 DUP3 ADD SWAP1 POP PUSH2 0x1A9 PUSH0 DUP4 ADD DUP5 PUSH2 0x187 JUMP JUMPDEST SWAP3 SWAP2 POP POP JUMP JUMPDEST PUSH2 0x1929 DUP1 PUSH2 0x1BC PUSH0 CODECOPY PUSH0 RETURN INVALID PUSH1 0x80 PUSH1 0x40 MSTORE CALLVALUE DUP1 ISZERO PUSH2 0xF JUMPI PUSH0 PUSH0 REVERT JUMPDEST POP PUSH1 0x4 CALLDATASIZE LT PUSH2 0x55 JUMPI PUSH0 CALLDATALOAD PUSH1 0xE0 SHR DUP1 PUSH4 0x4AF350EB EQ PUSH2 0x59 JUMPI DUP1 PUSH4 0x715018A6 EQ PUSH2 0x89 JUMPI DUP1 PUSH4 0x89476069 EQ PUSH2 0x93 JUMPI DUP1 PUSH4 0x8DA5CB5B EQ PUSH2 0xAF JUMPI DUP1 PUSH4 0xF2FDE38B EQ PUSH2 0xCD JUMPI JUMPDEST PUSH0 PUSH0 REVERT JUMPDEST PUSH2 0x73 PUSH1 0x4 DUP1 CALLDATASIZE SUB DUP2 ADD SWAP1 PUSH2 0x6E SWAP2 SWAP1 PUSH2 0x1077 JUMP JUMPDEST PUSH2 0xE9 JUMP JUMPDEST PUSH1 0x40 MLOAD PUSH2 0x80 SWAP2 SWAP1 PUSH2 0x10DF JUMP JUMPDEST PUSH1 0x40 MLOAD DUP1 SWAP2 SUB SWAP1 RETURN JUMPDEST PUSH2 0x91 PUSH2 0x8B5 JUMP JUMPDEST STOP JUMPDEST PUSH2 0xAD PUSH1 0x4 DUP1 CALLDATASIZE SUB DUP2 ADD SWAP1 PUSH2 0xA8 SWAP2 SWAP1 PUSH2 0x10F8 JUMP JUMPDEST PUSH2 0x8C8 JUMP JUMPDEST STOP JUMPDEST PUSH2 0xB7 PUSH2 0xA2C JUMP JUMPDEST PUSH1 0x40 MLOAD PUSH2 0xC4 SWAP2 SWAP1 PUSH2 0x1132 JUMP JUMPDEST PUSH1 0x40 MLOAD DUP1 SWAP2 SUB SWAP1 RETURN JUMPDEST PUSH2 0xE7 PUSH1 0x4 DUP1 CALLDATASIZE SUB DUP2 ADD SWAP1 PUSH2 0xE2 SWAP2 SWAP1 PUSH2 0x10F8 JUMP JUMPDEST PUSH2 0xA53 JUMP JUMPDEST STOP JUMPDEST PUSH0 PUSH20 0x1C7D4B196CB0C7B01D743FBC6116A902379C7238 PUSH20 0xFFFFFFFFFFFFFFFFFFFFFFFFFFFFFFFFFFFFFFFF AND PUSH4 0x70A08231 CALLER PUSH1 0x40 MLOAD DUP3 PUSH4 0xFFFFFFFF AND PUSH1 0xE0 SHL DUP2 MSTORE PUSH1 0x4 ADD PUSH2 0x137 SWAP2 SWAP1 PUSH2 0x1132 JUMP JUMPDEST PUSH1 0x20 PUSH1 0x40 MLOAD DUP1 DUP4 SUB DUP2 DUP7 GAS STATICCALL ISZERO DUP1 ISZERO PUSH2 0x152 JUMPI RETURNDATASIZE PUSH0 PUSH0 RETURNDATACOPY RETURNDATASIZE PUSH0 REVERT JUMPDEST POP POP POP POP PUSH1 0x40 MLOAD RETURNDATASIZE PUSH1 0x1F NOT PUSH1 0x1F DUP3 ADD AND DUP3 ADD DUP1 PUSH1 0x40 MSTORE POP DUP2 ADD SWAP1 PUSH2 0x176 SWAP2 SWAP1 PUSH2 0x115F JUMP JUMPDEST DUP4 GT ISZERO PUSH2 0x249 JUMPI PUSH20 0x1C7D4B196CB0C7B01D743FBC6116A902379C7238 DUP1 PUSH20 0xFFFFFFFFFFFFFFFFFFFFFFFFFFFFFFFFFFFFFFFF AND PUSH4 0x70A08231 CALLER PUSH1 0x40 MLOAD DUP3 PUSH4 0xFFFFFFFF AND PUSH1 0xE0 SHL DUP2 MSTORE PUSH1 0x4 ADD PUSH2 0x1CB SWAP2 SWAP1 PUSH2 0x1132 JUMP JUMPDEST PUSH1 0x20 PUSH1 0x40 MLOAD DUP1 DUP4 SUB DUP2 DUP7 GAS STATICCALL ISZERO DUP1 ISZERO PUSH2 0x1E6 JUMPI RETURNDATASIZE PUSH0 PUSH0 RETURNDATACOPY RETURNDATASIZE PUSH0 REVERT JUMPDEST POP POP POP POP PUSH1 0x40 MLOAD RETURNDATASIZE PUSH1 0x1F NOT PUSH1 0x1F DUP3 ADD AND DUP3 ADD DUP1 PUSH1 0x40 MSTORE POP DUP2 ADD SWAP1 PUSH2 0x20A SWAP2 SWAP1 PUSH2 0x115F JUMP JUMPDEST DUP5 PUSH1 0x40 MLOAD PUSH32 0xF686745600000000000000000000000000000000000000000000000000000000 DUP2 MSTORE PUSH1 0x4 ADD PUSH2 0x240 SWAP4 SWAP3 SWAP2 SWAP1 PUSH2 0x11F4 JUMP JUMPDEST PUSH1 0x40 MLOAD DUP1 SWAP2 SUB SWAP1 REVERT JUMPDEST PUSH0 PUSH1 0x1 PUSH8 0xFFFFFFFFFFFFFFFF DUP2 GT ISZERO PUSH2 0x265 JUMPI PUSH2 0x264 PUSH2 0x1229 JUMP JUMPDEST JUMPDEST PUSH1 0x40 MLOAD SWAP1 DUP1 DUP3 MSTORE DUP1 PUSH1 0x20 MUL PUSH1 0x20 ADD DUP3 ADD PUSH1 0x40 MSTORE DUP1 ISZERO PUSH2 0x29E JUMPI DUP2 PUSH1 0x20 ADD JUMPDEST PUSH2 0x28B PUSH2 0xFB8 JUMP JUMPDEST DUP2 MSTORE PUSH1 0x20 ADD SWAP1 PUSH1 0x1 SWAP1 SUB SWAP1 DUP2 PUSH2 0x283 JUMPI SWAP1 POP JUMPDEST POP SWAP1 POP PUSH0 PUSH1 0x40 MLOAD DUP1 PUSH1 0x40 ADD PUSH1 0x40 MSTORE DUP1 PUSH20 0x1C7D4B196CB0C7B01D743FBC6116A902379C7238 PUSH20 0xFFFFFFFFFFFFFFFFFFFFFFFFFFFFFFFFFFFFFFFF AND DUP2 MSTORE PUSH1 0x20 ADD DUP7 DUP2 MSTORE POP SWAP1 POP DUP1 DUP3 PUSH0 DUP2 MLOAD DUP2 LT PUSH2 0x2F7 JUMPI PUSH2 0x2F6 PUSH2 0x1256 JUMP JUMPDEST JUMPDEST PUSH1 0x20 MUL PUSH1 0x20 ADD ADD DUP2 SWAP1 MSTORE POP PUSH0 PUSH4 0x47E7EF24 PUSH1 0xE0 SHL CALLER DUP8 PUSH1 0x40 MLOAD PUSH1 0x24 ADD PUSH2 0x31E SWAP3 SWAP2 SWAP1 PUSH2 0x1283 JUMP JUMPDEST PUSH1 0x40 MLOAD PUSH1 0x20 DUP2 DUP4 SUB SUB DUP2 MSTORE SWAP1 PUSH1 0x40 MSTORE SWAP1 PUSH28 0xFFFFFFFFFFFFFFFFFFFFFFFFFFFFFFFFFFFFFFFFFFFFFFFFFFFFFFFF NOT AND PUSH1 0x20 DUP3 ADD DUP1 MLOAD PUSH28 0xFFFFFFFFFFFFFFFFFFFFFFFFFFFFFFFFFFFFFFFFFFFFFFFFFFFFFFFF DUP4 DUP2 DUP4 AND OR DUP4 MSTORE POP POP POP POP SWAP1 POP PUSH0 PUSH1 0x40 MLOAD DUP1 PUSH1 0xA0 ADD PUSH1 0x40 MSTORE DUP1 DUP10 PUSH1 0x40 MLOAD PUSH1 0x20 ADD PUSH2 0x39A SWAP2 SWAP1 PUSH2 0x1132 JUMP JUMPDEST PUSH1 0x40 MLOAD PUSH1 0x20 DUP2 DUP4 SUB SUB DUP2 MSTORE SWAP1 PUSH1 0x40 MSTORE DUP2 MSTORE PUSH1 0x20 ADD DUP8 DUP5 PUSH1 0x40 MLOAD PUSH1 0x20 ADD PUSH2 0x3C1 SWAP3 SWAP2 SWAP1 PUSH2 0x131A JUMP JUMPDEST PUSH1 0x40 MLOAD PUSH1 0x20 DUP2 DUP4 SUB SUB DUP2 MSTORE SWAP1 PUSH1 0x40 MSTORE DUP2 MSTORE PUSH1 0x20 ADD DUP6 DUP2 MSTORE PUSH1 0x20 ADD PUSH20 0x779877A7B0D9E8603169DDBD7836E478B4624789 PUSH20 0xFFFFFFFFFFFFFFFFFFFFFFFFFFFFFFFFFFFFFFFF AND DUP2 MSTORE PUSH1 0x20 ADD PUSH2 0x425 PUSH1 0x40 MLOAD DUP1 PUSH1 0x20 ADD PUSH1 0x40 MSTORE DUP1 PUSH3 0x30D40 DUP2 MSTORE POP PUSH2 0xAD7 JUMP JUMPDEST DUP2 MSTORE POP SWAP1 POP PUSH0 PUSH20 0xBF3DE8C5D3E8A2B34D2BEEB17ABFCEBAF363A59 PUSH20 0xFFFFFFFFFFFFFFFFFFFFFFFFFFFFFFFFFFFFFFFF AND PUSH4 0x20487DED PUSH8 0x8F90B8876DEE6538 DUP5 PUSH1 0x40 MLOAD DUP4 PUSH4 0xFFFFFFFF AND PUSH1 0xE0 SHL DUP2 MSTORE PUSH1 0x4 ADD PUSH2 0x482 SWAP3 SWAP2 SWAP1 PUSH2 0x152D JUMP JUMPDEST PUSH1 0x20 PUSH1 0x40 MLOAD DUP1 DUP4 SUB DUP2 DUP7 GAS STATICCALL ISZERO DUP1 ISZERO PUSH2 0x49D JUMPI RETURNDATASIZE PUSH0 PUSH0 RETURNDATACOPY RETURNDATASIZE PUSH0 REVERT JUMPDEST POP POP POP POP PUSH1 0x40 MLOAD RETURNDATASIZE PUSH1 0x1F NOT PUSH1 0x1F DUP3 ADD AND DUP3 ADD DUP1 PUSH1 0x40 MSTORE POP DUP2 ADD SWAP1 PUSH2 0x4C1 SWAP2 SWAP1 PUSH2 0x115F JUMP JUMPDEST SWAP1 POP PUSH20 0x779877A7B0D9E8603169DDBD7836E478B4624789 PUSH20 0xFFFFFFFFFFFFFFFFFFFFFFFFFFFFFFFFFFFFFFFF AND PUSH4 0x70A08231 ADDRESS PUSH1 0x40 MLOAD DUP3 PUSH4 0xFFFFFFFF AND PUSH1 0xE0 SHL DUP2 MSTORE PUSH1 0x4 ADD PUSH2 0x510 SWAP2 SWAP1 PUSH2 0x1132 JUMP JUMPDEST PUSH1 0x20 PUSH1 0x40 MLOAD DUP1 DUP4 SUB DUP2 DUP7 GAS STATICCALL ISZERO DUP1 ISZERO PUSH2 0x52B JUMPI RETURNDATASIZE PUSH0 PUSH0 RETURNDATACOPY RETURNDATASIZE PUSH0 REVERT JUMPDEST POP POP POP POP PUSH1 0x40 MLOAD RETURNDATASIZE PUSH1 0x1F NOT PUSH1 0x1F DUP3 ADD AND DUP3 ADD DUP1 PUSH1 0x40 MSTORE POP DUP2 ADD SWAP1 PUSH2 0x54F SWAP2 SWAP1 PUSH2 0x115F JUMP JUMPDEST DUP2 GT ISZERO PUSH2 0x622 JUMPI PUSH20 0x779877A7B0D9E8603169DDBD7836E478B4624789 DUP1 PUSH20 0xFFFFFFFFFFFFFFFFFFFFFFFFFFFFFFFFFFFFFFFF AND PUSH4 0x70A08231 ADDRESS PUSH1 0x40 MLOAD DUP3 PUSH4 0xFFFFFFFF AND PUSH1 0xE0 SHL DUP2 MSTORE PUSH1 0x4 ADD PUSH2 0x5A4 SWAP2 SWAP1 PUSH2 0x1132 JUMP JUMPDEST PUSH1 0x20 PUSH1 0x40 MLOAD DUP1 DUP4 SUB DUP2 DUP7 GAS STATICCALL ISZERO DUP1 ISZERO PUSH2 0x5BF JUMPI RETURNDATASIZE PUSH0 PUSH0 RETURNDATACOPY RETURNDATASIZE PUSH0 REVERT JUMPDEST POP POP POP POP PUSH1 0x40 MLOAD RETURNDATASIZE PUSH1 0x1F NOT PUSH1 0x1F DUP3 ADD AND DUP3 ADD DUP1 PUSH1 0x40 MSTORE POP DUP2 ADD SWAP1 PUSH2 0x5E3 SWAP2 SWAP1 PUSH2 0x115F JUMP JUMPDEST DUP3 PUSH1 0x40 MLOAD PUSH32 0xF686745600000000000000000000000000000000000000000000000000000000 DUP2 MSTORE PUSH1 0x4 ADD PUSH2 0x619 SWAP4 SWAP3 SWAP2 SWAP1 PUSH2 0x11F4 JUMP JUMPDEST PUSH1 0x40 MLOAD DUP1 SWAP2 SUB SWAP1 REVERT JUMPDEST PUSH20 0x779877A7B0D9E8603169DDBD7836E478B4624789 PUSH20 0xFFFFFFFFFFFFFFFFFFFFFFFFFFFFFFFFFFFFFFFF AND PUSH4 0x95EA7B3 PUSH20 0xBF3DE8C5D3E8A2B34D2BEEB17ABFCEBAF363A59 DUP4 PUSH1 0x40 MLOAD DUP4 PUSH4 0xFFFFFFFF AND PUSH1 0xE0 SHL DUP2 MSTORE PUSH1 0x4 ADD PUSH2 0x685 SWAP3 SWAP2 SWAP1 PUSH2 0x1283 JUMP JUMPDEST PUSH1 0x20 PUSH1 0x40 MLOAD DUP1 DUP4 SUB DUP2 PUSH0 DUP8 GAS CALL ISZERO DUP1 ISZERO PUSH2 0x6A1 JUMPI RETURNDATASIZE PUSH0 PUSH0 RETURNDATACOPY RETURNDATASIZE PUSH0 REVERT JUMPDEST POP POP POP POP PUSH1 0x40 MLOAD RETURNDATASIZE PUSH1 0x1F NOT PUSH1 0x1F DUP3 ADD AND DUP3 ADD DUP1 PUSH1 0x40 MSTORE POP DUP2 ADD SWAP1 PUSH2 0x6C5 SWAP2 SWAP1 PUSH2 0x1590 JUMP JUMPDEST POP PUSH2 0x707 CALLER ADDRESS DUP11 PUSH20 0x1C7D4B196CB0C7B01D743FBC6116A902379C7238 PUSH20 0xFFFFFFFFFFFFFFFFFFFFFFFFFFFFFFFFFFFFFFFF AND PUSH2 0xB56 SWAP1 SWAP4 SWAP3 SWAP2 SWAP1 PUSH4 0xFFFFFFFF AND JUMP JUMPDEST PUSH20 0x1C7D4B196CB0C7B01D743FBC6116A902379C7238 PUSH20 0xFFFFFFFFFFFFFFFFFFFFFFFFFFFFFFFFFFFFFFFF AND PUSH4 0x95EA7B3 PUSH20 0xBF3DE8C5D3E8A2B34D2BEEB17ABFCEBAF363A59 DUP11 PUSH1 0x40 MLOAD DUP4 PUSH4 0xFFFFFFFF AND PUSH1 0xE0 SHL DUP2 MSTORE PUSH1 0x4 ADD PUSH2 0x76A SWAP3 SWAP2 SWAP1 PUSH2 0x1283 JUMP JUMPDEST PUSH1 0x20 PUSH1 0x40 MLOAD DUP1 DUP4 SUB DUP2 PUSH0 DUP8 GAS CALL ISZERO DUP1 ISZERO PUSH2 0x786 JUMPI RETURNDATASIZE PUSH0 PUSH0 RETURNDATACOPY RETURNDATASIZE PUSH0 REVERT JUMPDEST POP POP POP POP PUSH1 0x40 MLOAD RETURNDATASIZE PUSH1 0x1F NOT PUSH1 0x1F DUP3 ADD AND DUP3 ADD DUP1 PUSH1 0x40 MSTORE POP DUP2 ADD SWAP1 PUSH2 0x7AA SWAP2 SWAP1 PUSH2 0x1590 JUMP JUMPDEST POP PUSH20 0xBF3DE8C5D3E8A2B34D2BEEB17ABFCEBAF363A59 PUSH20 0xFFFFFFFFFFFFFFFFFFFFFFFFFFFFFFFFFFFFFFFF AND PUSH4 0x96F4E9F9 PUSH8 0x8F90B8876DEE6538 DUP5 PUSH1 0x40 MLOAD DUP4 PUSH4 0xFFFFFFFF AND PUSH1 0xE0 SHL DUP2 MSTORE PUSH1 0x4 ADD PUSH2 0x802 SWAP3 SWAP2 SWAP1 PUSH2 0x152D JUMP JUMPDEST PUSH1 0x20 PUSH1 0x40 MLOAD DUP1 DUP4 SUB DUP2 PUSH0 DUP8 GAS CALL ISZERO DUP1 ISZERO PUSH2 0x81E JUMPI RETURNDATASIZE PUSH0 PUSH0 RETURNDATACOPY RETURNDATASIZE PUSH0 REVERT JUMPDEST POP POP POP POP PUSH1 0x40 MLOAD RETURNDATASIZE PUSH1 0x1F NOT PUSH1 0x1F DUP3 ADD AND DUP3 ADD DUP1 PUSH1 0x40 MSTORE POP DUP2 ADD SWAP1 PUSH2 0x842 SWAP2 SWAP1 PUSH2 0x15E5 JUMP JUMPDEST SWAP6 POP DUP9 PUSH20 0xFFFFFFFFFFFFFFFFFFFFFFFFFFFFFFFFFFFFFFFF AND PUSH8 0x8F90B8876DEE6538 PUSH8 0xFFFFFFFFFFFFFFFF AND PUSH32 0xECA040C7DF5D1A8EA4277FA1A77F55E8EF67B6FCF617A6FC6B16067F5F7547B5 DUP9 DUP12 DUP6 PUSH1 0x40 MLOAD PUSH2 0x8A1 SWAP4 SWAP3 SWAP2 SWAP1 PUSH2 0x1610 JUMP JUMPDEST PUSH1 0x40 MLOAD DUP1 SWAP2 SUB SWAP1 LOG3 POP POP POP POP POP SWAP4 SWAP3 POP POP POP JUMP JUMPDEST PUSH2 0x8BD PUSH2 0xBDF JUMP JUMPDEST PUSH2 0x8C6 PUSH0 PUSH2 0xC66 JUMP JUMPDEST JUMP JUMPDEST PUSH2 0x8D0 PUSH2 0xBDF JUMP JUMPDEST PUSH0 PUSH20 0x1C7D4B196CB0C7B01D743FBC6116A902379C7238 PUSH20 0xFFFFFFFFFFFFFFFFFFFFFFFFFFFFFFFFFFFFFFFF AND PUSH4 0x70A08231 ADDRESS PUSH1 0x40 MLOAD DUP3 PUSH4 0xFFFFFFFF AND PUSH1 0xE0 SHL DUP2 MSTORE PUSH1 0x4 ADD PUSH2 0x91E SWAP2 SWAP1 PUSH2 0x1132 JUMP JUMPDEST PUSH1 0x20 PUSH1 0x40 MLOAD DUP1 DUP4 SUB DUP2 DUP7 GAS STATICCALL ISZERO DUP1 ISZERO PUSH2 0x939 JUMPI RETURNDATASIZE PUSH0 PUSH0 RETURNDATACOPY RETURNDATASIZE PUSH0 REVERT JUMPDEST POP POP POP POP PUSH1 0x40 MLOAD RETURNDATASIZE PUSH1 0x1F NOT PUSH1 0x1F DUP3 ADD AND DUP3 ADD DUP1 PUSH1 0x40 MSTORE POP DUP2 ADD SWAP1 PUSH2 0x95D SWAP2 SWAP1 PUSH2 0x115F JUMP JUMPDEST SWAP1 POP PUSH0 DUP2 SUB PUSH2 0x998 JUMPI PUSH1 0x40 MLOAD PUSH32 0x6F22150A00000000000000000000000000000000000000000000000000000000 DUP2 MSTORE PUSH1 0x4 ADD PUSH1 0x40 MLOAD DUP1 SWAP2 SUB SWAP1 REVERT JUMPDEST PUSH20 0x1C7D4B196CB0C7B01D743FBC6116A902379C7238 PUSH20 0xFFFFFFFFFFFFFFFFFFFFFFFFFFFFFFFFFFFFFFFF AND PUSH4 0xA9059CBB DUP4 DUP4 PUSH1 0x40 MLOAD DUP4 PUSH4 0xFFFFFFFF AND PUSH1 0xE0 SHL DUP2 MSTORE PUSH1 0x4 ADD PUSH2 0x9E7 SWAP3 SWAP2 SWAP1 PUSH2 0x1283 JUMP JUMPDEST PUSH1 0x20 PUSH1 0x40 MLOAD DUP1 DUP4 SUB DUP2 PUSH0 DUP8 GAS CALL ISZERO DUP1 ISZERO PUSH2 0xA03 JUMPI RETURNDATASIZE PUSH0 PUSH0 RETURNDATACOPY RETURNDATASIZE PUSH0 REVERT JUMPDEST POP POP POP POP PUSH1 0x40 MLOAD RETURNDATASIZE PUSH1 0x1F NOT PUSH1 0x1F DUP3 ADD AND DUP3 ADD DUP1 PUSH1 0x40 MSTORE POP DUP2 ADD SWAP1 PUSH2 0xA27 SWAP2 SWAP1 PUSH2 0x1590 JUMP JUMPDEST POP POP POP JUMP JUMPDEST PUSH0 PUSH0 PUSH0 SWAP1 SLOAD SWAP1 PUSH2 0x100 EXP SWAP1 DIV PUSH20 0xFFFFFFFFFFFFFFFFFFFFFFFFFFFFFFFFFFFFFFFF AND SWAP1 POP SWAP1 JUMP JUMPDEST PUSH2 0xA5B PUSH2 0xBDF JUMP JUMPDEST PUSH0 PUSH20 0xFFFFFFFFFFFFFFFFFFFFFFFFFFFFFFFFFFFFFFFF AND DUP2 PUSH20 0xFFFFFFFFFFFFFFFFFFFFFFFFFFFFFFFFFFFFFFFF AND SUB PUSH2 0xACB JUMPI PUSH0 PUSH1 0x40 MLOAD PUSH32 0x1E4FBDF700000000000000000000000000000000000000000000000000000000 DUP2 MSTORE PUSH1 0x4 ADD PUSH2 0xAC2 SWAP2 SWAP1 PUSH2 0x1132 JUMP JUMPDEST PUSH1 0x40 MLOAD DUP1 SWAP2 SUB SWAP1 REVERT JUMPDEST PUSH2 0xAD4 DUP2 PUSH2 0xC66 JUMP JUMPDEST POP JUMP JUMPDEST PUSH1 0x60 PUSH4 0x97A657C9 PUSH1 0xE0 SHL DUP3 PUSH1 0x40 MLOAD PUSH1 0x24 ADD PUSH2 0xAF2 SWAP2 SWAP1 PUSH2 0x165F JUMP JUMPDEST PUSH1 0x40 MLOAD PUSH1 0x20 DUP2 DUP4 SUB SUB DUP2 MSTORE SWAP1 PUSH1 0x40 MSTORE SWAP1 PUSH28 0xFFFFFFFFFFFFFFFFFFFFFFFFFFFFFFFFFFFFFFFFFFFFFFFFFFFFFFFF NOT AND PUSH1 0x20 DUP3 ADD DUP1 MLOAD PUSH28 0xFFFFFFFFFFFFFFFFFFFFFFFFFFFFFFFFFFFFFFFFFFFFFFFFFFFFFFFF DUP4 DUP2 DUP4 AND OR DUP4 MSTORE POP POP POP POP SWAP1 POP SWAP2 SWAP1 POP JUMP JUMPDEST PUSH2 0xBD9 DUP5 PUSH4 0x23B872DD PUSH1 0xE0 SHL DUP6 DUP6 DUP6 PUSH1 0x40 MLOAD PUSH1 0x24 ADD PUSH2 0xB77 SWAP4 SWAP3 SWAP2 SWAP1 PUSH2 0x1678 JUMP JUMPDEST PUSH1 0x40 MLOAD PUSH1 0x20 DUP2 DUP4 SUB SUB DUP2 MSTORE SWAP1 PUSH1 0x40 MSTORE SWAP1 PUSH28 0xFFFFFFFFFFFFFFFFFFFFFFFFFFFFFFFFFFFFFFFFFFFFFFFFFFFFFFFF NOT AND PUSH1 0x20 DUP3 ADD DUP1 MLOAD PUSH28 0xFFFFFFFFFFFFFFFFFFFFFFFFFFFFFFFFFFFFFFFFFFFFFFFFFFFFFFFF DUP4 DUP2 DUP4 AND OR DUP4 MSTORE POP POP POP POP PUSH2 0xD27 JUMP JUMPDEST POP POP POP POP JUMP JUMPDEST PUSH2 0xBE7 PUSH2 0xDEC JUMP JUMPDEST PUSH20 0xFFFFFFFFFFFFFFFFFFFFFFFFFFFFFFFFFFFFFFFF AND PUSH2 0xC05 PUSH2 0xA2C JUMP JUMPDEST PUSH20 0xFFFFFFFFFFFFFFFFFFFFFFFFFFFFFFFFFFFFFFFF AND EQ PUSH2 0xC64 JUMPI PUSH2 0xC28 PUSH2 0xDEC JUMP JUMPDEST PUSH1 0x40 MLOAD PUSH32 0x118CDAA700000000000000000000000000000000000000000000000000000000 DUP2 MSTORE PUSH1 0x4 ADD PUSH2 0xC5B SWAP2 SWAP1 PUSH2 0x1132 JUMP JUMPDEST PUSH1 0x40 MLOAD DUP1 SWAP2 SUB SWAP1 REVERT JUMPDEST JUMP JUMPDEST PUSH0 PUSH0 PUSH0 SWAP1 SLOAD SWAP1 PUSH2 0x100 EXP SWAP1 DIV PUSH20 0xFFFFFFFFFFFFFFFFFFFFFFFFFFFFFFFFFFFFFFFF AND SWAP1 POP DUP2 PUSH0 PUSH0 PUSH2 0x100 EXP DUP2 SLOAD DUP2 PUSH20 0xFFFFFFFFFFFFFFFFFFFFFFFFFFFFFFFFFFFFFFFF MUL NOT AND SWAP1 DUP4 PUSH20 0xFFFFFFFFFFFFFFFFFFFFFFFFFFFFFFFFFFFFFFFF AND MUL OR SWAP1 SSTORE POP DUP2 PUSH20 0xFFFFFFFFFFFFFFFFFFFFFFFFFFFFFFFFFFFFFFFF AND DUP2 PUSH20 0xFFFFFFFFFFFFFFFFFFFFFFFFFFFFFFFFFFFFFFFF AND PUSH32 0x8BE0079C531659141344CD1FD0A4F28419497F9722A3DAAFE3B4186F6B6457E0 PUSH1 0x40 MLOAD PUSH1 0x40 MLOAD DUP1 SWAP2 SUB SWAP1 LOG3 POP POP JUMP JUMPDEST PUSH0 PUSH2 0xD88 DUP3 PUSH1 0x40 MLOAD DUP1 PUSH1 0x40 ADD PUSH1 0x40 MSTORE DUP1 PUSH1 0x20 DUP2 MSTORE PUSH1 0x20 ADD PUSH32 0x5361666545524332303A206C6F772D6C6576656C2063616C6C206661696C6564 DUP2 MSTORE POP DUP6 PUSH20 0xFFFFFFFFFFFFFFFFFFFFFFFFFFFFFFFFFFFFFFFF AND PUSH2 0xDF3 SWAP1 SWAP3 SWAP2 SWAP1 PUSH4 0xFFFFFFFF AND JUMP JUMPDEST SWAP1 POP PUSH0 DUP2 MLOAD GT ISZERO PUSH2 0xDE7 JUMPI DUP1 DUP1 PUSH1 0x20 ADD SWAP1 MLOAD DUP2 ADD SWAP1 PUSH2 0xDA7 SWAP2 SWAP1 PUSH2 0x1590 JUMP JUMPDEST PUSH2 0xDE6 JUMPI PUSH1 0x40 MLOAD PUSH32 0x8C379A000000000000000000000000000000000000000000000000000000000 DUP2 MSTORE PUSH1 0x4 ADD PUSH2 0xDDD SWAP1 PUSH2 0x172D JUMP JUMPDEST PUSH1 0x40 MLOAD DUP1 SWAP2 SUB SWAP1 REVERT JUMPDEST JUMPDEST POP POP POP JUMP JUMPDEST PUSH0 CALLER SWAP1 POP SWAP1 JUMP JUMPDEST PUSH1 0x60 PUSH2 0xE01 DUP5 DUP5 PUSH0 DUP6 PUSH2 0xE0A JUMP JUMPDEST SWAP1 POP SWAP4 SWAP3 POP POP POP JUMP JUMPDEST PUSH1 0x60 DUP3 SELFBALANCE LT ISZERO PUSH2 0xE4F JUMPI PUSH1 0x40 MLOAD PUSH32 0x8C379A000000000000000000000000000000000000000000000000000000000 DUP2 MSTORE PUSH1 0x4 ADD PUSH2 0xE46 SWAP1 PUSH2 0x17BB JUMP JUMPDEST PUSH1 0x40 MLOAD DUP1 SWAP2 SUB SWAP1 REVERT JUMPDEST PUSH0 PUSH0 DUP7 PUSH20 0xFFFFFFFFFFFFFFFFFFFFFFFFFFFFFFFFFFFFFFFF AND DUP6 DUP8 PUSH1 0x40 MLOAD PUSH2 0xE77 SWAP2 SWAP1 PUSH2 0x1813 JUMP JUMPDEST PUSH0 PUSH1 0x40 MLOAD DUP1 DUP4 SUB DUP2 DUP6 DUP8 GAS CALL SWAP3 POP POP POP RETURNDATASIZE DUP1 PUSH0 DUP2 EQ PUSH2 0xEB1 JUMPI PUSH1 0x40 MLOAD SWAP2 POP PUSH1 0x1F NOT PUSH1 0x3F RETURNDATASIZE ADD AND DUP3 ADD PUSH1 0x40 MSTORE RETURNDATASIZE DUP3 MSTORE RETURNDATASIZE PUSH0 PUSH1 0x20 DUP5 ADD RETURNDATACOPY PUSH2 0xEB6 JUMP JUMPDEST PUSH1 0x60 SWAP2 POP JUMPDEST POP SWAP2 POP SWAP2 POP PUSH2 0xEC7 DUP8 DUP4 DUP4 DUP8 PUSH2 0xED3 JUMP JUMPDEST SWAP3 POP POP POP SWAP5 SWAP4 POP POP POP POP JUMP JUMPDEST PUSH1 0x60 DUP4 ISZERO PUSH2 0xF34 JUMPI PUSH0 DUP4 MLOAD SUB PUSH2 0xF2C JUMPI PUSH2 0xEEC DUP6 PUSH2 0xF47 JUMP JUMPDEST PUSH2 0xF2B JUMPI PUSH1 0x40 MLOAD PUSH32 0x8C379A000000000000000000000000000000000000000000000000000000000 DUP2 MSTORE PUSH1 0x4 ADD PUSH2 0xF22 SWAP1 PUSH2 0x1873 JUMP JUMPDEST PUSH1 0x40 MLOAD DUP1 SWAP2 SUB SWAP1 REVERT JUMPDEST JUMPDEST DUP3 SWAP1 POP PUSH2 0xF3F JUMP JUMPDEST PUSH2 0xF3E DUP4 DUP4 PUSH2 0xF69 JUMP JUMPDEST JUMPDEST SWAP5 SWAP4 POP POP POP POP JUMP JUMPDEST PUSH0 PUSH0 DUP3 PUSH20 0xFFFFFFFFFFFFFFFFFFFFFFFFFFFFFFFFFFFFFFFF AND EXTCODESIZE GT SWAP1 POP SWAP2 SWAP1 POP JUMP JUMPDEST PUSH0 DUP3 MLOAD GT ISZERO PUSH2 0xF7B JUMPI DUP2 MLOAD DUP1 DUP4 PUSH1 0x20 ADD REVERT JUMPDEST DUP1 PUSH1 0x40 MLOAD PUSH32 0x8C379A000000000000000000000000000000000000000000000000000000000 DUP2 MSTORE PUSH1 0x4 ADD PUSH2 0xFAF SWAP2 SWAP1 PUSH2 0x18D3 JUMP JUMPDEST PUSH1 0x40 MLOAD DUP1 SWAP2 SUB SWAP1 REVERT JUMPDEST PUSH1 0x40 MLOAD DUP1 PUSH1 0x40 ADD PUSH1 0x40 MSTORE DUP1 PUSH0 PUSH20 0xFFFFFFFFFFFFFFFFFFFFFFFFFFFFFFFFFFFFFFFF AND DUP2 MSTORE PUSH1 0x20 ADD PUSH0 DUP2 MSTORE POP SWAP1 JUMP JUMPDEST PUSH0 PUSH0 REVERT JUMPDEST PUSH0 PUSH20 0xFFFFFFFFFFFFFFFFFFFFFFFFFFFFFFFFFFFFFFFF DUP3 AND SWAP1 POP SWAP2 SWAP1 POP JUMP JUMPDEST PUSH0 PUSH2 0x1013 DUP3 PUSH2 0xFEA JUMP JUMPDEST SWAP1 POP SWAP2 SWAP1 POP JUMP JUMPDEST PUSH2 0x1023 DUP2 PUSH2 0x1009 JUMP JUMPDEST DUP2 EQ PUSH2 0x102D JUMPI PUSH0 PUSH0 REVERT JUMPDEST POP JUMP JUMPDEST PUSH0 DUP2 CALLDATALOAD SWAP1 POP PUSH2 0x103E DUP2 PUSH2 0x101A JUMP JUMPDEST SWAP3 SWAP2 POP POP JUMP JUMPDEST PUSH0 DUP2 SWAP1 POP SWAP2 SWAP1 POP JUMP JUMPDEST PUSH2 0x1056 DUP2 PUSH2 0x1044 JUMP JUMPDEST DUP2 EQ PUSH2 0x1060 JUMPI PUSH0 PUSH0 REVERT JUMPDEST POP JUMP JUMPDEST PUSH0 DUP2 CALLDATALOAD SWAP1 POP PUSH2 0x1071 DUP2 PUSH2 0x104D JUMP JUMPDEST SWAP3 SWAP2 POP POP JUMP JUMPDEST PUSH0 PUSH0 PUSH0 PUSH1 0x60 DUP5 DUP7 SUB SLT ISZERO PUSH2 0x108E JUMPI PUSH2 0x108D PUSH2 0xFE6 JUMP JUMPDEST JUMPDEST PUSH0 PUSH2 0x109B DUP7 DUP3 DUP8 ADD PUSH2 0x1030 JUMP JUMPDEST SWAP4 POP POP PUSH1 0x20 PUSH2 0x10AC DUP7 DUP3 DUP8 ADD PUSH2 0x1063 JUMP JUMPDEST SWAP3 POP POP PUSH1 0x40 PUSH2 0x10BD DUP7 DUP3 DUP8 ADD PUSH2 0x1030 JUMP JUMPDEST SWAP2 POP POP SWAP3 POP SWAP3 POP SWAP3 JUMP JUMPDEST PUSH0 DUP2 SWAP1 POP SWAP2 SWAP1 POP JUMP JUMPDEST PUSH2 0x10D9 DUP2 PUSH2 0x10C7 JUMP JUMPDEST DUP3 MSTORE POP POP JUMP JUMPDEST PUSH0 PUSH1 0x20 DUP3 ADD SWAP1 POP PUSH2 0x10F2 PUSH0 DUP4 ADD DUP5 PUSH2 0x10D0 JUMP JUMPDEST SWAP3 SWAP2 POP POP JUMP JUMPDEST PUSH0 PUSH1 0x20 DUP3 DUP5 SUB SLT ISZERO PUSH2 0x110D JUMPI PUSH2 0x110C PUSH2 0xFE6 JUMP JUMPDEST JUMPDEST PUSH0 PUSH2 0x111A DUP5 DUP3 DUP6 ADD PUSH2 0x1030 JUMP JUMPDEST SWAP2 POP POP SWAP3 SWAP2 POP POP JUMP JUMPDEST PUSH2 0x112C DUP2 PUSH2 0x1009 JUMP JUMPDEST DUP3 MSTORE POP POP JUMP JUMPDEST PUSH0 PUSH1 0x20 DUP3 ADD SWAP1 POP PUSH2 0x1145 PUSH0 DUP4 ADD DUP5 PUSH2 0x1123 JUMP JUMPDEST SWAP3 SWAP2 POP POP JUMP JUMPDEST PUSH0 DUP2 MLOAD SWAP1 POP PUSH2 0x1159 DUP2 PUSH2 0x104D JUMP JUMPDEST SWAP3 SWAP2 POP POP JUMP JUMPDEST PUSH0 PUSH1 0x20 DUP3 DUP5 SUB SLT ISZERO PUSH2 0x1174 JUMPI PUSH2 0x1173 PUSH2 0xFE6 JUMP JUMPDEST JUMPDEST PUSH0 PUSH2 0x1181 DUP5 DUP3 DUP6 ADD PUSH2 0x114B JUMP JUMPDEST SWAP2 POP POP SWAP3 SWAP2 POP POP JUMP JUMPDEST PUSH0 DUP2 SWAP1 POP SWAP2 SWAP1 POP JUMP JUMPDEST PUSH0 PUSH2 0x11AD PUSH2 0x11A8 PUSH2 0x11A3 DUP5 PUSH2 0xFEA JUMP JUMPDEST PUSH2 0x118A JUMP JUMPDEST PUSH2 0xFEA JUMP JUMPDEST SWAP1 POP SWAP2 SWAP1 POP JUMP JUMPDEST PUSH0 PUSH2 0x11BE DUP3 PUSH2 0x1193 JUMP JUMPDEST SWAP1 POP SWAP2 SWAP1 POP JUMP JUMPDEST PUSH0 PUSH2 0x11CF DUP3 PUSH2 0x11B4 JUMP JUMPDEST SWAP1 POP SWAP2 SWAP1 POP JUMP JUMPDEST PUSH2 0x11DF DUP2 PUSH2 0x11C5 JUMP JUMPDEST DUP3 MSTORE POP POP JUMP JUMPDEST PUSH2 0x11EE DUP2 PUSH2 0x1044 JUMP JUMPDEST DUP3 MSTORE POP POP JUMP JUMPDEST PUSH0 PUSH1 0x60 DUP3 ADD SWAP1 POP PUSH2 0x1207 PUSH0 DUP4 ADD DUP7 PUSH2 0x11D6 JUMP JUMPDEST PUSH2 0x1214 PUSH1 0x20 DUP4 ADD DUP6 PUSH2 0x11E5 JUMP JUMPDEST PUSH2 0x1221 PUSH1 0x40 DUP4 ADD DUP5 PUSH2 0x11E5 JUMP JUMPDEST SWAP5 SWAP4 POP POP POP POP JUMP JUMPDEST PUSH32 0x4E487B7100000000000000000000000000000000000000000000000000000000 PUSH0 MSTORE PUSH1 0x41 PUSH1 0x4 MSTORE PUSH1 0x24 PUSH0 REVERT JUMPDEST PUSH32 0x4E487B7100000000000000000000000000000000000000000000000000000000 PUSH0 MSTORE PUSH1 0x32 PUSH1 0x4 MSTORE PUSH1 0x24 PUSH0 REVERT JUMPDEST PUSH0 PUSH1 0x40 DUP3 ADD SWAP1 POP PUSH2 0x1296 PUSH0 DUP4 ADD DUP6 PUSH2 0x1123 JUMP JUMPDEST PUSH2 0x12A3 PUSH1 0x20 DUP4 ADD DUP5 PUSH2 0x11E5 JUMP JUMPDEST SWAP4 SWAP3 POP POP POP JUMP JUMPDEST PUSH0 DUP2 MLOAD SWAP1 POP SWAP2 SWAP1 POP JUMP JUMPDEST PUSH0 DUP3 DUP3 MSTORE PUSH1 0x20 DUP3 ADD SWAP1 POP SWAP3 SWAP2 POP POP JUMP JUMPDEST DUP3 DUP2 DUP4 MCOPY PUSH0 DUP4 DUP4 ADD MSTORE POP POP POP JUMP JUMPDEST PUSH0 PUSH1 0x1F NOT PUSH1 0x1F DUP4 ADD AND SWAP1 POP SWAP2 SWAP1 POP JUMP JUMPDEST PUSH0 PUSH2 0x12EC DUP3 PUSH2 0x12AA JUMP JUMPDEST PUSH2 0x12F6 DUP2 DUP6 PUSH2 0x12B4 JUMP JUMPDEST SWAP4 POP PUSH2 0x1306 DUP2 DUP6 PUSH1 0x20 DUP7 ADD PUSH2 0x12C4 JUMP JUMPDEST PUSH2 0x130F DUP2 PUSH2 0x12D2 JUMP JUMPDEST DUP5 ADD SWAP2 POP POP SWAP3 SWAP2 POP POP JUMP JUMPDEST PUSH0 PUSH1 0x40 DUP3 ADD SWAP1 POP PUSH2 0x132D PUSH0 DUP4 ADD DUP6 PUSH2 0x1123 JUMP JUMPDEST DUP2 DUP2 SUB PUSH1 0x20 DUP4 ADD MSTORE PUSH2 0x133F DUP2 DUP5 PUSH2 0x12E2 JUMP JUMPDEST SWAP1 POP SWAP4 SWAP3 POP POP POP JUMP JUMPDEST PUSH0 PUSH8 0xFFFFFFFFFFFFFFFF DUP3 AND SWAP1 POP SWAP2 SWAP1 POP JUMP JUMPDEST PUSH2 0x1364 DUP2 PUSH2 0x1348 JUMP JUMPDEST DUP3 MSTORE POP POP JUMP JUMPDEST PUSH0 DUP3 DUP3 MSTORE PUSH1 0x20 DUP3 ADD SWAP1 POP SWAP3 SWAP2 POP POP JUMP JUMPDEST PUSH0 PUSH2 0x1384 DUP3 PUSH2 0x12AA JUMP JUMPDEST PUSH2 0x138E DUP2 DUP6 PUSH2 0x136A JUMP JUMPDEST SWAP4 POP PUSH2 0x139E DUP2 DUP6 PUSH1 0x20 DUP7 ADD PUSH2 0x12C4 JUMP JUMPDEST PUSH2 0x13A7 DUP2 PUSH2 0x12D2 JUMP JUMPDEST DUP5 ADD SWAP2 POP POP SWAP3 SWAP2 POP POP JUMP JUMPDEST PUSH0 DUP2 MLOAD SWAP1 POP SWAP2 SWAP1 POP JUMP JUMPDEST PUSH0 DUP3 DUP3 MSTORE PUSH1 0x20 DUP3 ADD SWAP1 POP SWAP3 SWAP2 POP POP JUMP JUMPDEST PUSH0 DUP2 SWAP1 POP PUSH1 0x20 DUP3 ADD SWAP1 POP SWAP2 SWAP1 POP JUMP JUMPDEST PUSH2 0x13E4 DUP2 PUSH2 0x1009 JUMP JUMPDEST DUP3 MSTORE POP POP JUMP JUMPDEST PUSH2 0x13F3 DUP2 PUSH2 0x1044 JUMP JUMPDEST DUP3 MSTORE POP POP JUMP JUMPDEST PUSH1 0x40 DUP3 ADD PUSH0 DUP3 ADD MLOAD PUSH2 0x140D PUSH0 DUP6 ADD DUP3 PUSH2 0x13DB JUMP JUMPDEST POP PUSH1 0x20 DUP3 ADD MLOAD PUSH2 0x1420 PUSH1 0x20 DUP6 ADD DUP3 PUSH2 0x13EA JUMP JUMPDEST POP POP POP POP JUMP JUMPDEST PUSH0 PUSH2 0x1431 DUP4 DUP4 PUSH2 0x13F9 JUMP JUMPDEST PUSH1 0x40 DUP4 ADD SWAP1 POP SWAP3 SWAP2 POP POP JUMP JUMPDEST PUSH0 PUSH1 0x20 DUP3 ADD SWAP1 POP SWAP2 SWAP1 POP JUMP JUMPDEST PUSH0 PUSH2 0x1453 DUP3 PUSH2 0x13B2 JUMP JUMPDEST PUSH2 0x145D DUP2 DUP6 PUSH2 0x13BC JUMP JUMPDEST SWAP4 POP PUSH2 0x1468 DUP4 PUSH2 0x13CC JUMP JUMPDEST DUP1 PUSH0 JUMPDEST DUP4 DUP2 LT ISZERO PUSH2 0x1498 JUMPI DUP2 MLOAD PUSH2 0x147F DUP9 DUP3 PUSH2 0x1426 JUMP JUMPDEST SWAP8 POP PUSH2 0x148A DUP4 PUSH2 0x143D JUMP JUMPDEST SWAP3 POP POP PUSH1 0x1 DUP2 ADD SWAP1 POP PUSH2 0x146B JUMP JUMPDEST POP DUP6 SWAP4 POP POP POP POP SWAP3 SWAP2 POP POP JUMP JUMPDEST PUSH0 PUSH1 0xA0 DUP4 ADD PUSH0 DUP4 ADD MLOAD DUP5 DUP3 SUB PUSH0 DUP7 ADD MSTORE PUSH2 0x14BF DUP3 DUP3 PUSH2 0x137A JUMP JUMPDEST SWAP2 POP POP PUSH1 0x20 DUP4 ADD MLOAD DUP5 DUP3 SUB PUSH1 0x20 DUP7 ADD MSTORE PUSH2 0x14D9 DUP3 DUP3 PUSH2 0x137A JUMP JUMPDEST SWAP2 POP POP PUSH1 0x40 DUP4 ADD MLOAD DUP5 DUP3 SUB PUSH1 0x40 DUP7 ADD MSTORE PUSH2 0x14F3 DUP3 DUP3 PUSH2 0x1449 JUMP JUMPDEST SWAP2 POP POP PUSH1 0x60 DUP4 ADD MLOAD PUSH2 0x1508 PUSH1 0x60 DUP7 ADD DUP3 PUSH2 0x13DB JUMP JUMPDEST POP PUSH1 0x80 DUP4 ADD MLOAD DUP5 DUP3 SUB PUSH1 0x80 DUP7 ADD MSTORE PUSH2 0x1520 DUP3 DUP3 PUSH2 0x137A JUMP JUMPDEST SWAP2 POP POP DUP1 SWAP2 POP POP SWAP3 SWAP2 POP POP JUMP JUMPDEST PUSH0 PUSH1 0x40 DUP3 ADD SWAP1 POP PUSH2 0x1540 PUSH0 DUP4 ADD DUP6 PUSH2 0x135B JUMP JUMPDEST DUP2 DUP2 SUB PUSH1 0x20 DUP4 ADD MSTORE PUSH2 0x1552 DUP2 DUP5 PUSH2 0x14A5 JUMP JUMPDEST SWAP1 POP SWAP4 SWAP3 POP POP POP JUMP JUMPDEST PUSH0 DUP2 ISZERO ISZERO SWAP1 POP SWAP2 SWAP1 POP JUMP JUMPDEST PUSH2 0x156F DUP2 PUSH2 0x155B JUMP JUMPDEST DUP2 EQ PUSH2 0x1579 JUMPI PUSH0 PUSH0 REVERT JUMPDEST POP JUMP JUMPDEST PUSH0 DUP2 MLOAD SWAP1 POP PUSH2 0x158A DUP2 PUSH2 0x1566 JUMP JUMPDEST SWAP3 SWAP2 POP POP JUMP JUMPDEST PUSH0 PUSH1 0x20 DUP3 DUP5 SUB SLT ISZERO PUSH2 0x15A5 JUMPI PUSH2 0x15A4 PUSH2 0xFE6 JUMP JUMPDEST JUMPDEST PUSH0 PUSH2 0x15B2 DUP5 DUP3 DUP6 ADD PUSH2 0x157C JUMP JUMPDEST SWAP2 POP POP SWAP3 SWAP2 POP POP JUMP JUMPDEST PUSH2 0x15C4 DUP2 PUSH2 0x10C7 JUMP JUMPDEST DUP2 EQ PUSH2 0x15CE JUMPI PUSH0 PUSH0 REVERT JUMPDEST POP JUMP JUMPDEST PUSH0 DUP2 MLOAD SWAP1 POP PUSH2 0x15DF DUP2 PUSH2 0x15BB JUMP JUMPDEST SWAP3 SWAP2 POP POP JUMP JUMPDEST PUSH0 PUSH1 0x20 DUP3 DUP5 SUB SLT ISZERO PUSH2 0x15FA JUMPI PUSH2 0x15F9 PUSH2 0xFE6 JUMP JUMPDEST JUMPDEST PUSH0 PUSH2 0x1607 DUP5 DUP3 DUP6 ADD PUSH2 0x15D1 JUMP JUMPDEST SWAP2 POP POP SWAP3 SWAP2 POP POP JUMP JUMPDEST PUSH0 PUSH1 0x60 DUP3 ADD SWAP1 POP PUSH2 0x1623 PUSH0 DUP4 ADD DUP7 PUSH2 0x10D0 JUMP JUMPDEST PUSH2 0x1630 PUSH1 0x20 DUP4 ADD DUP6 PUSH2 0x11E5 JUMP JUMPDEST PUSH2 0x163D PUSH1 0x40 DUP4 ADD DUP5 PUSH2 0x11E5 JUMP JUMPDEST SWAP5 SWAP4 POP POP POP POP JUMP JUMPDEST PUSH1 0x20 DUP3 ADD PUSH0 DUP3 ADD MLOAD PUSH2 0x1659 PUSH0 DUP6 ADD DUP3 PUSH2 0x13EA JUMP JUMPDEST POP POP POP POP JUMP JUMPDEST PUSH0 PUSH1 0x20 DUP3 ADD SWAP1 POP PUSH2 0x1672 PUSH0 DUP4 ADD DUP5 PUSH2 0x1645 JUMP JUMPDEST SWAP3 SWAP2 POP POP JUMP JUMPDEST PUSH0 PUSH1 0x60 DUP3 ADD SWAP1 POP PUSH2 0x168B PUSH0 DUP4 ADD DUP7 PUSH2 0x1123 JUMP JUMPDEST PUSH2 0x1698 PUSH1 0x20 DUP4 ADD DUP6 PUSH2 0x1123 JUMP JUMPDEST PUSH2 0x16A5 PUSH1 0x40 DUP4 ADD DUP5 PUSH2 0x11E5 JUMP JUMPDEST SWAP5 SWAP4 POP POP POP POP JUMP JUMPDEST PUSH0 DUP3 DUP3 MSTORE PUSH1 0x20 DUP3 ADD SWAP1 POP SWAP3 SWAP2 POP POP JUMP JUMPDEST PUSH32 0x5361666545524332303A204552433230206F7065726174696F6E20646964206E PUSH0 DUP3 ADD MSTORE PUSH32 0x6F74207375636365656400000000000000000000000000000000000000000000 PUSH1 0x20 DUP3 ADD MSTORE POP JUMP JUMPDEST PUSH0 PUSH2 0x1717 PUSH1 0x2A DUP4 PUSH2 0x16AD JUMP JUMPDEST SWAP2 POP PUSH2 0x1722 DUP3 PUSH2 0x16BD JUMP JUMPDEST PUSH1 0x40 DUP3 ADD SWAP1 POP SWAP2 SWAP1 POP JUMP JUMPDEST PUSH0 PUSH1 0x20 DUP3 ADD SWAP1 POP DUP2 DUP2 SUB PUSH0 DUP4 ADD MSTORE PUSH2 0x1744 DUP2 PUSH2 0x170B JUMP JUMPDEST SWAP1 POP SWAP2 SWAP1 POP JUMP JUMPDEST PUSH32 0x416464726573733A20696E73756666696369656E742062616C616E636520666F PUSH0 DUP3 ADD MSTORE PUSH32 0x722063616C6C0000000000000000000000000000000000000000000000000000 PUSH1 0x20 DUP3 ADD MSTORE POP JUMP JUMPDEST PUSH0 PUSH2 0x17A5 PUSH1 0x26 DUP4 PUSH2 0x16AD JUMP JUMPDEST SWAP2 POP PUSH2 0x17B0 DUP3 PUSH2 0x174B JUMP JUMPDEST PUSH1 0x40 DUP3 ADD SWAP1 POP SWAP2 SWAP1 POP JUMP JUMPDEST PUSH0 PUSH1 0x20 DUP3 ADD SWAP1 POP DUP2 DUP2 SUB PUSH0 DUP4 ADD MSTORE PUSH2 0x17D2 DUP2 PUSH2 0x1799 JUMP JUMPDEST SWAP1 POP SWAP2 SWAP1 POP JUMP JUMPDEST PUSH0 DUP2 SWAP1 POP SWAP3 SWAP2 POP POP JUMP JUMPDEST PUSH0 PUSH2 0x17ED DUP3 PUSH2 0x12AA JUMP JUMPDEST PUSH2 0x17F7 DUP2 DUP6 PUSH2 0x17D9 JUMP JUMPDEST SWAP4 POP PUSH2 0x1807 DUP2 DUP6 PUSH1 0x20 DUP7 ADD PUSH2 0x12C4 JUMP JUMPDEST DUP1 DUP5 ADD SWAP2 POP POP SWAP3 SWAP2 POP POP JUMP JUMPDEST PUSH0 PUSH2 0x181E DUP3 DUP5 PUSH2 0x17E3 JUMP JUMPDEST SWAP2 POP DUP2 SWAP1 POP SWAP3 SWAP2 POP POP JUMP JUMPDEST PUSH32 0x416464726573733A2063616C6C20746F206E6F6E2D636F6E7472616374000000 PUSH0 DUP3 ADD MSTORE POP JUMP JUMPDEST PUSH0 PUSH2 0x185D PUSH1 0x1D DUP4 PUSH2 0x16AD JUMP JUMPDEST SWAP2 POP PUSH2 0x1868 DUP3 PUSH2 0x1829 JUMP JUMPDEST PUSH1 0x20 DUP3 ADD SWAP1 POP SWAP2 SWAP1 POP JUMP JUMPDEST PUSH0 PUSH1 0x20 DUP3 ADD SWAP1 POP DUP2 DUP2 SUB PUSH0 DUP4 ADD MSTORE PUSH2 0x188A DUP2 PUSH2 0x1851 JUMP JUMPDEST SWAP1 POP SWAP2 SWAP1 POP JUMP JUMPDEST PUSH0 DUP2 MLOAD SWAP1 POP SWAP2 SWAP1 POP JUMP JUMPDEST PUSH0 PUSH2 0x18A5 DUP3 PUSH2 0x1891 JUMP JUMPDEST PUSH2 0x18AF DUP2 DUP6 PUSH2 0x16AD JUMP JUMPDEST SWAP4 POP PUSH2 0x18BF DUP2 DUP6 PUSH1 0x20 DUP7 ADD PUSH2 0x12C4 JUMP JUMPDEST PUSH2 0x18C8 DUP2 PUSH2 0x12D2 JUMP JUMPDEST DUP5 ADD SWAP2 POP POP SWAP3 SWAP2 POP POP JUMP JUMPDEST PUSH0 PUSH1 0x20 DUP3 ADD SWAP1 POP DUP2 DUP2 SUB PUSH0 DUP4 ADD MSTORE PUSH2 0x18EB DUP2 DUP5 PUSH2 0x189B JUMP JUMPDEST SWAP1 POP SWAP3 SWAP2 POP POP JUMP INVALID LOG2 PUSH5 0x6970667358 0x22 SLT KECCAK256 SLT 0x23 EQ MSIZE CREATE2 RJUMPI 0xE86D DIV 0xC8 EXTSTATICCALL PUSH3 0x25CD2 DUPN 0x6B SUB SWAP5 SWAP15 0x29 RJUMPI 0x845 0xC9 GASPRICE PUSH0 DATALOADN 0x6D1F SWAP4 RJUMP 0x6473 PUSH16 0x6C634300082100330000000000000000 "
				},
				"gasEstimates": {
					"creation": {
						"codeDepositCost": "1288200",
						"executionCost": "infinite",
						"totalCost": "infinite"
					},
					"external": {
						"owner()": "2558",
						"renounceOwnership()": "infinite",
						"transferOwnership(address)": "infinite",
						"transferTokens(address,uint256,address)": "infinite",
						"withdrawToken(address)": "infinite"
					}
				},
				"methodIdentifiers": {
					"owner()": "8da5cb5b",
					"renounceOwnership()": "715018a6",
					"transferOwnership(address)": "f2fde38b",
					"transferTokens(address,uint256,address)": "4af350eb",
					"withdrawToken(address)": "89476069"
				}
			},
			"storageLayout": {
				"storage": [
					{
						"astId": 856,
						"contract": "contracts/ccip/Sender.sol:Sender",
						"label": "_owner",
						"offset": 0,
						"slot": "0",
						"type": "t_address"
					}
				],
				"types": {
					"t_address": {
						"encoding": "inplace",
						"label": "address",
						"numberOfBytes": "20"
					}
				}
			},
			"userdoc": {
				"kind": "user",
				"methods": {},
				"notice": "THIS IS AN EXAMPLE CONTRACT THAT USES HARDCODED VALUES FOR CLARITY. THIS IS AN EXAMPLE CONTRACT THAT USES UN-AUDITED CODE. DO NOT USE THIS CODE IN PRODUCTION.",
				"version": 1
			}
		}
	}
}