{
	"contracts/ccip/Receiver.sol": {
		"Receiver": {
			"abi": [
				{
					"inputs": [],
					"stateMutability": "nonpayable",
					"type": "constructor"
				},
				{
					"inputs": [
						{
							"internalType": "address",
							"name": "router",
							"type": "address"
						}
					],
					"name": "InvalidRouter",
					"type": "error"
				},
				{
					"inputs": [
						{
							"internalType": "address",
							"name": "owner",
							"type": "address"
						}
					],
					"name": "OwnableInvalidOwner",
					"type": "error"
				},
				{
					"inputs": [
						{
							"internalType": "address",
							"name": "account",
							"type": "address"
						}
					],
					"name": "OwnableUnauthorizedAccount",
					"type": "error"
				},
				{
					"inputs": [],
					"name": "Receiver__FunctionCallFail",
					"type": "error"
				},
				{
					"inputs": [
						{
							"internalType": "uint64",
							"name": "sourceChainSelector",
							"type": "uint64"
						},
						{
							"internalType": "address",
							"name": "sender",
							"type": "address"
						}
					],
					"name": "Receiver__NotAllowedForSourceChainOrSenderAddress",
					"type": "error"
				},
				{
					"inputs": [],
					"name": "Receiver__NothingToWithdraw",
					"type": "error"
				},
				{
					"inputs": [],
					"name": "Receiver__SenderNotSet",
					"type": "error"
				},
				{
					"anonymous": false,
					"inputs": [
						{
							"indexed": true,
							"internalType": "bytes32",
							"name": "messageId",
							"type": "bytes32"
						},
						{
							"indexed": true,
							"internalType": "uint64",
							"name": "sourceChainSelector",
							"type": "uint64"
						},
						{
							"indexed": false,
							"internalType": "address",
							"name": "sender",
							"type": "address"
						},
						{
							"indexed": false,
							"internalType": "bytes",
							"name": "data",
							"type": "bytes"
						},
						{
							"indexed": false,
							"internalType": "address",
							"name": "token",
							"type": "address"
						},
						{
							"indexed": false,
							"internalType": "uint256",
							"name": "tokenAmount",
							"type": "uint256"
						}
					],
					"name": "MessageReceived",
					"type": "event"
				},
				{
					"anonymous": false,
					"inputs": [
						{
							"indexed": true,
							"internalType": "address",
							"name": "previousOwner",
							"type": "address"
						},
						{
							"indexed": true,
							"internalType": "address",
							"name": "newOwner",
							"type": "address"
						}
					],
					"name": "OwnershipTransferred",
					"type": "event"
				},
				{
					"inputs": [
						{
							"components": [
								{
									"internalType": "bytes32",
									"name": "messageId",
									"type": "bytes32"
								},
								{
									"internalType": "uint64",
									"name": "sourceChainSelector",
									"type": "uint64"
								},
								{
									"internalType": "bytes",
									"name": "sender",
									"type": "bytes"
								},
								{
									"internalType": "bytes",
									"name": "data",
									"type": "bytes"
								},
								{
									"components": [
										{
											"internalType": "address",
											"name": "token",
											"type": "address"
										},
										{
											"internalType": "uint256",
											"name": "amount",
											"type": "uint256"
										}
									],
									"internalType": "struct Client.EVMTokenAmount[]",
									"name": "destTokenAmounts",
									"type": "tuple[]"
								}
							],
							"internalType": "struct Client.Any2EVMMessage",
							"name": "message",
							"type": "tuple"
						}
					],
					"name": "ccipReceive",
					"outputs": [],
					"stateMutability": "nonpayable",
					"type": "function"
				},
				{
					"inputs": [],
					"name": "getRouter",
					"outputs": [
						{
							"internalType": "address",
							"name": "",
							"type": "address"
						}
					],
					"stateMutability": "view",
					"type": "function"
				},
				{
					"inputs": [],
					"name": "owner",
					"outputs": [
						{
							"internalType": "address",
							"name": "",
							"type": "address"
						}
					],
					"stateMutability": "view",
					"type": "function"
				},
				{
					"inputs": [],
					"name": "renounceOwnership",
					"outputs": [],
					"stateMutability": "nonpayable",
					"type": "function"
				},
				{
					"inputs": [
						{
							"internalType": "address",
							"name": "_sender",
							"type": "address"
						}
					],
					"name": "setSender",
					"outputs": [],
					"stateMutability": "nonpayable",
					"type": "function"
				},
				{
					"inputs": [
						{
							"internalType": "bytes4",
							"name": "interfaceId",
							"type": "bytes4"
						}
					],
					"name": "supportsInterface",
					"outputs": [
						{
							"internalType": "bool",
							"name": "",
							"type": "bool"
						}
					],
					"stateMutability": "view",
					"type": "function"
				},
				{
					"inputs": [
						{
							"internalType": "address",
							"name": "newOwner",
							"type": "address"
						}
					],
					"name": "transferOwnership",
					"outputs": [],
					"stateMutability": "nonpayable",
					"type": "function"
				},
				{
					"inputs": [
						{
							"internalType": "address",
							"name": "_token",
							"type": "address"
						}
					],
					"name": "withdrawToken",
					"outputs": [],
					"stateMutability": "nonpayable",
					"type": "function"
				}
			],
			"devdoc": {
				"errors": {
					"OwnableInvalidOwner(address)": [
						{
							"details": "The owner is not a valid owner account. (eg. `address(0)`)"
						}
					],
					"OwnableUnauthorizedAccount(address)": [
						{
							"details": "The caller account is not authorized to perform an operation."
						}
					]
				},
				"kind": "dev",
				"methods": {
					"ccipReceive((bytes32,uint64,bytes,bytes,(address,uint256)[]))": {
						"details": "Note ensure you check the msg.sender is the OffRampRouter",
						"params": {
							"message": "CCIP Message"
						}
					},
					"getRouter()": {
						"returns": {
							"_0": "CCIP router address"
						}
					},
					"owner()": {
						"details": "Returns the address of the current owner."
					},
					"renounceOwnership()": {
						"details": "Leaves the contract without owner. It will not be possible to call `onlyOwner` functions. Can only be called by the current owner. NOTE: Renouncing ownership will leave the contract without an owner, thereby disabling any functionality that is only available to the owner."
					},
					"supportsInterface(bytes4)": {
						"details": "Should indicate whether the contract implements IAny2EVMMessageReceiver e.g. return interfaceId == type(IAny2EVMMessageReceiver).interfaceId || interfaceId == type(IERC165).interfaceId This allows CCIP to check if ccipReceive is available before calling it. If this returns false or reverts, only tokens are transferred to the receiver. If this returns true, tokens are transferred and ccipReceive is called atomically. Additionally, if the receiver address does not have code associated with it at the time of execution (EXTCODESIZE returns 0), only tokens will be transferred.",
						"params": {
							"interfaceId": "The interfaceId to check"
						},
						"returns": {
							"_0": "true if the interfaceId is supported"
						}
					},
					"transferOwnership(address)": {
						"details": "Transfers ownership of the contract to a new account (`newOwner`). Can only be called by the current owner."
					}
				},
				"version": 1
			},
			"evm": {
				"assembly": "    /* \"contracts/ccip/Receiver.sol\":895:3974  contract Receiver is CCIPReceiver, Ownable {... */\n  mstore(0x40, 0xa0)\n    /* \"contracts/ccip/Receiver.sol\":2038:2131  constructor() CCIPReceiver(0xD3b06cEbF099CE7DA4AcCf578aaebFDBd6e88a93) Ownable(msg.sender) {} */\n  callvalue\n  dup1\n  iszero\n  tag_1\n  jumpi\n  revert(0x00, 0x00)\ntag_1:\n  pop\n    /* \"contracts/ccip/Receiver.sol\":2117:2127  msg.sender */\n  caller\n    /* \"contracts/ccip/Receiver.sol\":2065:2107  0xD3b06cEbF099CE7DA4AcCf578aaebFDBd6e88a93 */\n  0xd3b06cebf099ce7da4accf578aaebfdbd6e88a93\n    /* \"@chainlink/contracts@1.3.0/src/v0.8/ccip/applications/CCIPReceiver.sol\":568:569  0 */\n  0x00\n    /* \"@chainlink/contracts@1.3.0/src/v0.8/ccip/applications/CCIPReceiver.sol\":550:570  router == address(0) */\n  0xffffffffffffffffffffffffffffffffffffffff\n  and\n    /* \"@chainlink/contracts@1.3.0/src/v0.8/ccip/applications/CCIPReceiver.sol\":550:556  router */\n  dup2\n    /* \"@chainlink/contracts@1.3.0/src/v0.8/ccip/applications/CCIPReceiver.sol\":550:570  router == address(0) */\n  0xffffffffffffffffffffffffffffffffffffffff\n  and\n  sub\n    /* \"@chainlink/contracts@1.3.0/src/v0.8/ccip/applications/CCIPReceiver.sol\":546:604  if (router == address(0)) revert InvalidRouter(address(0)) */\n  tag_6\n  jumpi\n    /* \"@chainlink/contracts@1.3.0/src/v0.8/ccip/applications/CCIPReceiver.sol\":601:602  0 */\n  0x00\n    /* \"@chainlink/contracts@1.3.0/src/v0.8/ccip/applications/CCIPReceiver.sol\":579:604  InvalidRouter(address(0)) */\n  mload(0x40)\n  0xd7f7333400000000000000000000000000000000000000000000000000000000\n  dup2\n  mstore\n  0x04\n  add\n  tag_7\n  swap2\n  swap1\n  tag_8\n  jump\t// in\ntag_7:\n  mload(0x40)\n  dup1\n  swap2\n  sub\n  swap1\n  revert\n    /* \"@chainlink/contracts@1.3.0/src/v0.8/ccip/applications/CCIPReceiver.sol\":546:604  if (router == address(0)) revert InvalidRouter(address(0)) */\ntag_6:\n    /* \"@chainlink/contracts@1.3.0/src/v0.8/ccip/applications/CCIPReceiver.sol\":625:631  router */\n  dup1\n    /* \"@chainlink/contracts@1.3.0/src/v0.8/ccip/applications/CCIPReceiver.sol\":610:631  i_ccipRouter = router */\n  0xffffffffffffffffffffffffffffffffffffffff\n  and\n  0x80\n  dup2\n  0xffffffffffffffffffffffffffffffffffffffff\n  and\n  dup2\n  mstore\n  pop\n  pop\n    /* \"@chainlink/contracts@1.3.0/src/v0.8/ccip/applications/CCIPReceiver.sol\":504:636  constructor(... */\n  pop\n    /* \"@openzeppelin/contracts@5.2.0/access/Ownable.sol\":1297:1298  0 */\n  0x00\n    /* \"@openzeppelin/contracts@5.2.0/access/Ownable.sol\":1273:1299  initialOwner == address(0) */\n  0xffffffffffffffffffffffffffffffffffffffff\n  and\n    /* \"@openzeppelin/contracts@5.2.0/access/Ownable.sol\":1273:1285  initialOwner */\n  dup2\n    /* \"@openzeppelin/contracts@5.2.0/access/Ownable.sol\":1273:1299  initialOwner == address(0) */\n  0xffffffffffffffffffffffffffffffffffffffff\n  and\n  sub\n    /* \"@openzeppelin/contracts@5.2.0/access/Ownable.sol\":1269:1364  if (initialOwner == address(0)) {... */\n  tag_10\n  jumpi\n    /* \"@openzeppelin/contracts@5.2.0/access/Ownable.sol\":1350:1351  0 */\n  0x00\n    /* \"@openzeppelin/contracts@5.2.0/access/Ownable.sol\":1322:1353  OwnableInvalidOwner(address(0)) */\n  mload(0x40)\n  0x1e4fbdf700000000000000000000000000000000000000000000000000000000\n  dup2\n  mstore\n  0x04\n  add\n  tag_11\n  swap2\n  swap1\n  tag_8\n  jump\t// in\ntag_11:\n  mload(0x40)\n  dup1\n  swap2\n  sub\n  swap1\n  revert\n    /* \"@openzeppelin/contracts@5.2.0/access/Ownable.sol\":1269:1364  if (initialOwner == address(0)) {... */\ntag_10:\n    /* \"@openzeppelin/contracts@5.2.0/access/Ownable.sol\":1373:1405  _transferOwnership(initialOwner) */\n  tag_12\n    /* \"@openzeppelin/contracts@5.2.0/access/Ownable.sol\":1392:1404  initialOwner */\n  dup2\n    /* \"@openzeppelin/contracts@5.2.0/access/Ownable.sol\":1373:1391  _transferOwnership */\n  shl(0x20, tag_13)\n    /* \"@openzeppelin/contracts@5.2.0/access/Ownable.sol\":1373:1405  _transferOwnership(initialOwner) */\n  0x20\n  shr\n  jump\t// in\ntag_12:\n    /* \"@openzeppelin/contracts@5.2.0/access/Ownable.sol\":1225:1412  constructor(address initialOwner) {... */\n  pop\n    /* \"contracts/ccip/Receiver.sol\":895:3974  contract Receiver is CCIPReceiver, Ownable {... */\n  jump(tag_15)\n    /* \"@openzeppelin/contracts@5.2.0/access/Ownable.sol\":2912:3099  function _transferOwnership(address newOwner) internal virtual {... */\ntag_13:\n    /* \"@openzeppelin/contracts@5.2.0/access/Ownable.sol\":2985:3001  address oldOwner */\n  0x00\n    /* \"@openzeppelin/contracts@5.2.0/access/Ownable.sol\":3004:3010  _owner */\n  0x00\n  0x00\n  swap1\n  sload\n  swap1\n  0x0100\n  exp\n  swap1\n  div\n  0xffffffffffffffffffffffffffffffffffffffff\n  and\n    /* \"@openzeppelin/contracts@5.2.0/access/Ownable.sol\":2985:3010  address oldOwner = _owner */\n  swap1\n  pop\n    /* \"@openzeppelin/contracts@5.2.0/access/Ownable.sol\":3029:3037  newOwner */\n  dup2\n    /* \"@openzeppelin/contracts@5.2.0/access/Ownable.sol\":3020:3026  _owner */\n  0x00\n  0x00\n    /* \"@openzeppelin/contracts@5.2.0/access/Ownable.sol\":3020:3037  _owner = newOwner */\n  0x0100\n  exp\n  dup2\n  sload\n  dup2\n  0xffffffffffffffffffffffffffffffffffffffff\n  mul\n  not\n  and\n  swap1\n  dup4\n  0xffffffffffffffffffffffffffffffffffffffff\n  and\n  mul\n  or\n  swap1\n  sstore\n  pop\n    /* \"@openzeppelin/contracts@5.2.0/access/Ownable.sol\":3083:3091  newOwner */\n  dup2\n    /* \"@openzeppelin/contracts@5.2.0/access/Ownable.sol\":3052:3092  OwnershipTransferred(oldOwner, newOwner) */\n  0xffffffffffffffffffffffffffffffffffffffff\n  and\n    /* \"@openzeppelin/contracts@5.2.0/access/Ownable.sol\":3073:3081  oldOwner */\n  dup2\n    /* \"@openzeppelin/contracts@5.2.0/access/Ownable.sol\":3052:3092  OwnershipTransferred(oldOwner, newOwner) */\n  0xffffffffffffffffffffffffffffffffffffffff\n  and\n  0x8be0079c531659141344cd1fd0a4f28419497f9722a3daafe3b4186f6b6457e0\n  mload(0x40)\n  mload(0x40)\n  dup1\n  swap2\n  sub\n  swap1\n  log3\n    /* \"@openzeppelin/contracts@5.2.0/access/Ownable.sol\":2975:3099  {... */\n  pop\n    /* \"@openzeppelin/contracts@5.2.0/access/Ownable.sol\":2912:3099  function _transferOwnership(address newOwner) internal virtual {... */\n  pop\n  jump\t// out\n    /* \"#utility.yul\":7:133   */\ntag_17:\n    /* \"#utility.yul\":44:51   */\n  0x00\n    /* \"#utility.yul\":84:126   */\n  0xffffffffffffffffffffffffffffffffffffffff\n    /* \"#utility.yul\":77:82   */\n  dup3\n    /* \"#utility.yul\":73:127   */\n  and\n    /* \"#utility.yul\":62:127   */\n  swap1\n  pop\n    /* \"#utility.yul\":7:133   */\n  swap2\n  swap1\n  pop\n  jump\t// out\n    /* \"#utility.yul\":139:235   */\ntag_18:\n    /* \"#utility.yul\":176:183   */\n  0x00\n    /* \"#utility.yul\":205:229   */\n  tag_23\n    /* \"#utility.yul\":223:228   */\n  dup3\n    /* \"#utility.yul\":205:229   */\n  tag_17\n  jump\t// in\ntag_23:\n    /* \"#utility.yul\":194:229   */\n  swap1\n  pop\n    /* \"#utility.yul\":139:235   */\n  swap2\n  swap1\n  pop\n  jump\t// out\n    /* \"#utility.yul\":241:359   */\ntag_19:\n    /* \"#utility.yul\":328:352   */\n  tag_25\n    /* \"#utility.yul\":346:351   */\n  dup2\n    /* \"#utility.yul\":328:352   */\n  tag_18\n  jump\t// in\ntag_25:\n    /* \"#utility.yul\":323:326   */\n  dup3\n    /* \"#utility.yul\":316:353   */\n  mstore\n    /* \"#utility.yul\":241:359   */\n  pop\n  pop\n  jump\t// out\n    /* \"#utility.yul\":365:587   */\ntag_8:\n    /* \"#utility.yul\":458:462   */\n  0x00\n    /* \"#utility.yul\":496:498   */\n  0x20\n    /* \"#utility.yul\":485:494   */\n  dup3\n    /* \"#utility.yul\":481:499   */\n  add\n    /* \"#utility.yul\":473:499   */\n  swap1\n  pop\n    /* \"#utility.yul\":509:580   */\n  tag_27\n    /* \"#utility.yul\":577:578   */\n  0x00\n    /* \"#utility.yul\":566:575   */\n  dup4\n    /* \"#utility.yul\":562:579   */\n  add\n    /* \"#utility.yul\":553:559   */\n  dup5\n    /* \"#utility.yul\":509:580   */\n  tag_19\n  jump\t// in\ntag_27:\n    /* \"#utility.yul\":365:587   */\n  swap3\n  swap2\n  pop\n  pop\n  jump\t// out\n    /* \"contracts/ccip/Receiver.sol\":895:3974  contract Receiver is CCIPReceiver, Ownable {... */\ntag_15:\n  mload(0x80)\n  codecopy(0x00, dataOffset(sub_0), dataSize(sub_0))\n  0x00\n  assignImmutable(\"0x5c4c6aa067b6f8e6cb38e6ab843832a94d1712d661a04d73c517d6a1931a9e5d\")\n  return(0x00, dataSize(sub_0))\nstop\n\nsub_0: assembly {\n        /* \"contracts/ccip/Receiver.sol\":895:3974  contract Receiver is CCIPReceiver, Ownable {... */\n      mstore(0x40, 0x80)\n      callvalue\n      dup1\n      iszero\n      tag_1\n      jumpi\n      revert(0x00, 0x00)\n    tag_1:\n      pop\n      jumpi(tag_2, lt(calldatasize, 0x04))\n      shr(0xe0, calldataload(0x00))\n      dup1\n      0x8da5cb5b\n      gt\n      tag_11\n      jumpi\n      dup1\n      0x8da5cb5b\n      eq\n      tag_7\n      jumpi\n      dup1\n      0xb0f479a1\n      eq\n      tag_8\n      jumpi\n      dup1\n      0xced32b0c\n      eq\n      tag_9\n      jumpi\n      dup1\n      0xf2fde38b\n      eq\n      tag_10\n      jumpi\n      jump(tag_2)\n    tag_11:\n      dup1\n      0x01ffc9a7\n      eq\n      tag_3\n      jumpi\n      dup1\n      0x715018a6\n      eq\n      tag_4\n      jumpi\n      dup1\n      0x85572ffb\n      eq\n      tag_5\n      jumpi\n      dup1\n      0x89476069\n      eq\n      tag_6\n      jumpi\n    tag_2:\n      revert(0x00, 0x00)\n        /* \"@chainlink/contracts@1.3.0/src/v0.8/ccip/applications/CCIPReceiver.sol\":1413:1630  function supportsInterface(... */\n    tag_3:\n      tag_12\n      0x04\n      dup1\n      calldatasize\n      sub\n      dup2\n      add\n      swap1\n      tag_13\n      swap2\n      swap1\n      tag_14\n      jump\t// in\n    tag_13:\n      tag_15\n      jump\t// in\n    tag_12:\n      mload(0x40)\n      tag_16\n      swap2\n      swap1\n      tag_17\n      jump\t// in\n    tag_16:\n      mload(0x40)\n      dup1\n      swap2\n      sub\n      swap1\n      return\n        /* \"@openzeppelin/contracts@5.2.0/access/Ownable.sol\":2293:2394  function renounceOwnership() public virtual onlyOwner {... */\n    tag_4:\n      tag_18\n      tag_19\n      jump\t// in\n    tag_18:\n      stop\n        /* \"@chainlink/contracts@1.3.0/src/v0.8/ccip/applications/CCIPReceiver.sol\":1676:1814  function ccipReceive(... */\n    tag_5:\n      tag_20\n      0x04\n      dup1\n      calldatasize\n      sub\n      dup2\n      add\n      swap1\n      tag_21\n      swap2\n      swap1\n      tag_22\n      jump\t// in\n    tag_21:\n      tag_23\n      jump\t// in\n    tag_20:\n      stop\n        /* \"contracts/ccip/Receiver.sol\":3622:3972  function withdrawToken(address _token) public onlyOwner {... */\n    tag_6:\n      tag_24\n      0x04\n      dup1\n      calldatasize\n      sub\n      dup2\n      add\n      swap1\n      tag_25\n      swap2\n      swap1\n      tag_26\n      jump\t// in\n    tag_25:\n      tag_27\n      jump\t// in\n    tag_24:\n      stop\n        /* \"@openzeppelin/contracts@5.2.0/access/Ownable.sol\":1638:1723  function owner() public view virtual returns (address) {... */\n    tag_7:\n      tag_28\n      tag_29\n      jump\t// in\n    tag_28:\n      mload(0x40)\n      tag_30\n      swap2\n      swap1\n      tag_31\n      jump\t// in\n    tag_30:\n      mload(0x40)\n      dup1\n      swap2\n      sub\n      swap1\n      return\n        /* \"@chainlink/contracts@1.3.0/src/v0.8/ccip/applications/CCIPReceiver.sol\":2237:2335  function getRouter() public view virtual returns (address) {... */\n    tag_8:\n      tag_32\n      tag_33\n      jump\t// in\n    tag_32:\n      mload(0x40)\n      tag_34\n      swap2\n      swap1\n      tag_31\n      jump\t// in\n    tag_34:\n      mload(0x40)\n      dup1\n      swap2\n      sub\n      swap1\n      return\n        /* \"contracts/ccip/Receiver.sol\":2520:2679  function setSender(address _sender) external onlyOwner {... */\n    tag_9:\n      tag_35\n      0x04\n      dup1\n      calldatasize\n      sub\n      dup2\n      add\n      swap1\n      tag_36\n      swap2\n      swap1\n      tag_26\n      jump\t// in\n    tag_36:\n      tag_37\n      jump\t// in\n    tag_35:\n      stop\n        /* \"@openzeppelin/contracts@5.2.0/access/Ownable.sol\":2543:2758  function transferOwnership(address newOwner) public virtual onlyOwner {... */\n    tag_10:\n      tag_38\n      0x04\n      dup1\n      calldatasize\n      sub\n      dup2\n      add\n      swap1\n      tag_39\n      swap2\n      swap1\n      tag_26\n      jump\t// in\n    tag_39:\n      tag_40\n      jump\t// in\n    tag_38:\n      stop\n        /* \"@chainlink/contracts@1.3.0/src/v0.8/ccip/applications/CCIPReceiver.sol\":1413:1630  function supportsInterface(... */\n    tag_15:\n        /* \"@chainlink/contracts@1.3.0/src/v0.8/ccip/applications/CCIPReceiver.sol\":1506:1510  bool */\n      0x00\n        /* \"@chainlink/contracts@1.3.0/src/v0.8/ccip/applications/CCIPReceiver.sol\":1540:1581  type(IAny2EVMMessageReceiver).interfaceId */\n      0x85572ffb00000000000000000000000000000000000000000000000000000000\n        /* \"@chainlink/contracts@1.3.0/src/v0.8/ccip/applications/CCIPReceiver.sol\":1525:1581  interfaceId == type(IAny2EVMMessageReceiver).interfaceId */\n      not(0xffffffffffffffffffffffffffffffffffffffffffffffffffffffff)\n      and\n        /* \"@chainlink/contracts@1.3.0/src/v0.8/ccip/applications/CCIPReceiver.sol\":1525:1536  interfaceId */\n      dup3\n        /* \"@chainlink/contracts@1.3.0/src/v0.8/ccip/applications/CCIPReceiver.sol\":1525:1581  interfaceId == type(IAny2EVMMessageReceiver).interfaceId */\n      not(0xffffffffffffffffffffffffffffffffffffffffffffffffffffffff)\n      and\n      eq\n        /* \"@chainlink/contracts@1.3.0/src/v0.8/ccip/applications/CCIPReceiver.sol\":1525:1625  interfaceId == type(IAny2EVMMessageReceiver).interfaceId || interfaceId == type(IERC165).interfaceId */\n      dup1\n      tag_42\n      jumpi\n      pop\n        /* \"@chainlink/contracts@1.3.0/src/v0.8/ccip/applications/CCIPReceiver.sol\":1600:1625  type(IERC165).interfaceId */\n      0x01ffc9a700000000000000000000000000000000000000000000000000000000\n        /* \"@chainlink/contracts@1.3.0/src/v0.8/ccip/applications/CCIPReceiver.sol\":1585:1625  interfaceId == type(IERC165).interfaceId */\n      not(0xffffffffffffffffffffffffffffffffffffffffffffffffffffffff)\n      and\n        /* \"@chainlink/contracts@1.3.0/src/v0.8/ccip/applications/CCIPReceiver.sol\":1585:1596  interfaceId */\n      dup3\n        /* \"@chainlink/contracts@1.3.0/src/v0.8/ccip/applications/CCIPReceiver.sol\":1585:1625  interfaceId == type(IERC165).interfaceId */\n      not(0xffffffffffffffffffffffffffffffffffffffffffffffffffffffff)\n      and\n      eq\n        /* \"@chainlink/contracts@1.3.0/src/v0.8/ccip/applications/CCIPReceiver.sol\":1525:1625  interfaceId == type(IAny2EVMMessageReceiver).interfaceId || interfaceId == type(IERC165).interfaceId */\n    tag_42:\n        /* \"@chainlink/contracts@1.3.0/src/v0.8/ccip/applications/CCIPReceiver.sol\":1518:1625  return interfaceId == type(IAny2EVMMessageReceiver).interfaceId || interfaceId == type(IERC165).interfaceId */\n      swap1\n      pop\n        /* \"@chainlink/contracts@1.3.0/src/v0.8/ccip/applications/CCIPReceiver.sol\":1413:1630  function supportsInterface(... */\n      swap2\n      swap1\n      pop\n      jump\t// out\n        /* \"@openzeppelin/contracts@5.2.0/access/Ownable.sol\":2293:2394  function renounceOwnership() public virtual onlyOwner {... */\n    tag_19:\n        /* \"@openzeppelin/contracts@5.2.0/access/Ownable.sol\":1531:1544  _checkOwner() */\n      tag_44\n        /* \"@openzeppelin/contracts@5.2.0/access/Ownable.sol\":1531:1542  _checkOwner */\n      tag_45\n        /* \"@openzeppelin/contracts@5.2.0/access/Ownable.sol\":1531:1544  _checkOwner() */\n      jump\t// in\n    tag_44:\n        /* \"@openzeppelin/contracts@5.2.0/access/Ownable.sol\":2357:2387  _transferOwnership(address(0)) */\n      tag_47\n        /* \"@openzeppelin/contracts@5.2.0/access/Ownable.sol\":2384:2385  0 */\n      0x00\n        /* \"@openzeppelin/contracts@5.2.0/access/Ownable.sol\":2357:2375  _transferOwnership */\n      tag_48\n        /* \"@openzeppelin/contracts@5.2.0/access/Ownable.sol\":2357:2387  _transferOwnership(address(0)) */\n      jump\t// in\n    tag_47:\n        /* \"@openzeppelin/contracts@5.2.0/access/Ownable.sol\":2293:2394  function renounceOwnership() public virtual onlyOwner {... */\n      jump\t// out\n        /* \"@chainlink/contracts@1.3.0/src/v0.8/ccip/applications/CCIPReceiver.sol\":1676:1814  function ccipReceive(... */\n    tag_23:\n        /* \"@chainlink/contracts@1.3.0/src/v0.8/ccip/applications/CCIPReceiver.sol\":2481:2492  getRouter() */\n      tag_50\n        /* \"@chainlink/contracts@1.3.0/src/v0.8/ccip/applications/CCIPReceiver.sol\":2481:2490  getRouter */\n      tag_33\n        /* \"@chainlink/contracts@1.3.0/src/v0.8/ccip/applications/CCIPReceiver.sol\":2481:2492  getRouter() */\n      jump\t// in\n    tag_50:\n        /* \"@chainlink/contracts@1.3.0/src/v0.8/ccip/applications/CCIPReceiver.sol\":2467:2492  msg.sender != getRouter() */\n      0xffffffffffffffffffffffffffffffffffffffff\n      and\n        /* \"@chainlink/contracts@1.3.0/src/v0.8/ccip/applications/CCIPReceiver.sol\":2467:2477  msg.sender */\n      caller\n        /* \"@chainlink/contracts@1.3.0/src/v0.8/ccip/applications/CCIPReceiver.sol\":2467:2492  msg.sender != getRouter() */\n      0xffffffffffffffffffffffffffffffffffffffff\n      and\n      eq\n        /* \"@chainlink/contracts@1.3.0/src/v0.8/ccip/applications/CCIPReceiver.sol\":2463:2526  if (msg.sender != getRouter()) revert InvalidRouter(msg.sender) */\n      tag_51\n      jumpi\n        /* \"@chainlink/contracts@1.3.0/src/v0.8/ccip/applications/CCIPReceiver.sol\":2515:2525  msg.sender */\n      caller\n        /* \"@chainlink/contracts@1.3.0/src/v0.8/ccip/applications/CCIPReceiver.sol\":2501:2526  InvalidRouter(msg.sender) */\n      mload(0x40)\n      0xd7f7333400000000000000000000000000000000000000000000000000000000\n      dup2\n      mstore\n      0x04\n      add\n      tag_52\n      swap2\n      swap1\n      tag_31\n      jump\t// in\n    tag_52:\n      mload(0x40)\n      dup1\n      swap2\n      sub\n      swap1\n      revert\n        /* \"@chainlink/contracts@1.3.0/src/v0.8/ccip/applications/CCIPReceiver.sol\":2463:2526  if (msg.sender != getRouter()) revert InvalidRouter(msg.sender) */\n    tag_51:\n        /* \"@chainlink/contracts@1.3.0/src/v0.8/ccip/applications/CCIPReceiver.sol\":1788:1809  _ccipReceive(message) */\n      tag_54\n        /* \"@chainlink/contracts@1.3.0/src/v0.8/ccip/applications/CCIPReceiver.sol\":1801:1808  message */\n      dup2\n        /* \"@chainlink/contracts@1.3.0/src/v0.8/ccip/applications/CCIPReceiver.sol\":1788:1809  _ccipReceive(message) */\n      tag_55\n      swap1\n      tag_56\n      jump\t// in\n    tag_55:\n        /* \"@chainlink/contracts@1.3.0/src/v0.8/ccip/applications/CCIPReceiver.sol\":1788:1800  _ccipReceive */\n      tag_57\n        /* \"@chainlink/contracts@1.3.0/src/v0.8/ccip/applications/CCIPReceiver.sol\":1788:1809  _ccipReceive(message) */\n      jump\t// in\n    tag_54:\n        /* \"@chainlink/contracts@1.3.0/src/v0.8/ccip/applications/CCIPReceiver.sol\":1676:1814  function ccipReceive(... */\n      pop\n      jump\t// out\n        /* \"contracts/ccip/Receiver.sol\":3622:3972  function withdrawToken(address _token) public onlyOwner {... */\n    tag_27:\n        /* \"@openzeppelin/contracts@5.2.0/access/Ownable.sol\":1531:1544  _checkOwner() */\n      tag_59\n        /* \"@openzeppelin/contracts@5.2.0/access/Ownable.sol\":1531:1542  _checkOwner */\n      tag_45\n        /* \"@openzeppelin/contracts@5.2.0/access/Ownable.sol\":1531:1544  _checkOwner() */\n      jump\t// in\n    tag_59:\n        /* \"contracts/ccip/Receiver.sol\":3737:3751  uint256 amount */\n      0x00\n        /* \"contracts/ccip/Receiver.sol\":3761:3767  _token */\n      dup2\n        /* \"contracts/ccip/Receiver.sol\":3754:3778  IERC20(_token).balanceOf */\n      0xffffffffffffffffffffffffffffffffffffffff\n      and\n      0x70a08231\n        /* \"contracts/ccip/Receiver.sol\":3787:3791  this */\n      address\n        /* \"contracts/ccip/Receiver.sol\":3754:3793  IERC20(_token).balanceOf(address(this)) */\n      mload(0x40)\n      dup3\n      0xffffffff\n      and\n      0xe0\n      shl\n      dup2\n      mstore\n      0x04\n      add\n      tag_61\n      swap2\n      swap1\n      tag_31\n      jump\t// in\n    tag_61:\n      0x20\n      mload(0x40)\n      dup1\n      dup4\n      sub\n      dup2\n      dup7\n      gas\n      staticcall\n      iszero\n      dup1\n      iszero\n      tag_63\n      jumpi\n      returndatacopy(0x00, 0x00, returndatasize)\n      revert(0x00, returndatasize)\n    tag_63:\n      pop\n      pop\n      pop\n      pop\n      mload(0x40)\n      returndatasize\n      not(0x1f)\n      0x1f\n      dup3\n      add\n      and\n      dup3\n      add\n      dup1\n      0x40\n      mstore\n      pop\n      dup2\n      add\n      swap1\n      tag_64\n      swap2\n      swap1\n      tag_65\n      jump\t// in\n    tag_64:\n        /* \"contracts/ccip/Receiver.sol\":3737:3793  uint256 amount = IERC20(_token).balanceOf(address(this)) */\n      swap1\n      pop\n        /* \"contracts/ccip/Receiver.sol\":3868:3869  0 */\n      0x00\n        /* \"contracts/ccip/Receiver.sol\":3858:3864  amount */\n      dup2\n        /* \"contracts/ccip/Receiver.sol\":3858:3869  amount == 0 */\n      sub\n        /* \"contracts/ccip/Receiver.sol\":3854:3907  if (amount == 0) revert Receiver__NothingToWithdraw() */\n      tag_66\n      jumpi\n        /* \"contracts/ccip/Receiver.sol\":3878:3907  Receiver__NothingToWithdraw() */\n      mload(0x40)\n      0xbbefb2e900000000000000000000000000000000000000000000000000000000\n      dup2\n      mstore\n      0x04\n      add\n      mload(0x40)\n      dup1\n      swap2\n      sub\n      swap1\n      revert\n        /* \"contracts/ccip/Receiver.sol\":3854:3907  if (amount == 0) revert Receiver__NothingToWithdraw() */\n    tag_66:\n        /* \"contracts/ccip/Receiver.sol\":3918:3965  IERC20(_token).safeTransfer(msg.sender, amount) */\n      tag_67\n        /* \"contracts/ccip/Receiver.sol\":3946:3956  msg.sender */\n      caller\n        /* \"contracts/ccip/Receiver.sol\":3958:3964  amount */\n      dup3\n        /* \"contracts/ccip/Receiver.sol\":3925:3931  _token */\n      dup5\n        /* \"contracts/ccip/Receiver.sol\":3918:3945  IERC20(_token).safeTransfer */\n      0xffffffffffffffffffffffffffffffffffffffff\n      and\n      tag_68\n      swap1\n        /* \"contracts/ccip/Receiver.sol\":3918:3965  IERC20(_token).safeTransfer(msg.sender, amount) */\n      swap3\n      swap2\n      swap1\n      0xffffffff\n      and\n      jump\t// in\n    tag_67:\n        /* \"contracts/ccip/Receiver.sol\":3678:3972  {... */\n      pop\n        /* \"contracts/ccip/Receiver.sol\":3622:3972  function withdrawToken(address _token) public onlyOwner {... */\n      pop\n      jump\t// out\n        /* \"@openzeppelin/contracts@5.2.0/access/Ownable.sol\":1638:1723  function owner() public view virtual returns (address) {... */\n    tag_29:\n        /* \"@openzeppelin/contracts@5.2.0/access/Ownable.sol\":1684:1691  address */\n      0x00\n        /* \"@openzeppelin/contracts@5.2.0/access/Ownable.sol\":1710:1716  _owner */\n      0x00\n      0x00\n      swap1\n      sload\n      swap1\n      0x0100\n      exp\n      swap1\n      div\n      0xffffffffffffffffffffffffffffffffffffffff\n      and\n        /* \"@openzeppelin/contracts@5.2.0/access/Ownable.sol\":1703:1716  return _owner */\n      swap1\n      pop\n        /* \"@openzeppelin/contracts@5.2.0/access/Ownable.sol\":1638:1723  function owner() public view virtual returns (address) {... */\n      swap1\n      jump\t// out\n        /* \"@chainlink/contracts@1.3.0/src/v0.8/ccip/applications/CCIPReceiver.sol\":2237:2335  function getRouter() public view virtual returns (address) {... */\n    tag_33:\n        /* \"@chainlink/contracts@1.3.0/src/v0.8/ccip/applications/CCIPReceiver.sol\":2287:2294  address */\n      0x00\n        /* \"@chainlink/contracts@1.3.0/src/v0.8/ccip/applications/CCIPReceiver.sol\":2317:2329  i_ccipRouter */\n      immutable(\"0x5c4c6aa067b6f8e6cb38e6ab843832a94d1712d661a04d73c517d6a1931a9e5d\")\n        /* \"@chainlink/contracts@1.3.0/src/v0.8/ccip/applications/CCIPReceiver.sol\":2302:2330  return address(i_ccipRouter) */\n      swap1\n      pop\n        /* \"@chainlink/contracts@1.3.0/src/v0.8/ccip/applications/CCIPReceiver.sol\":2237:2335  function getRouter() public view virtual returns (address) {... */\n      swap1\n      jump\t// out\n        /* \"contracts/ccip/Receiver.sol\":2520:2679  function setSender(address _sender) external onlyOwner {... */\n    tag_37:\n        /* \"@openzeppelin/contracts@5.2.0/access/Ownable.sol\":1531:1544  _checkOwner() */\n      tag_72\n        /* \"@openzeppelin/contracts@5.2.0/access/Ownable.sol\":1531:1542  _checkOwner */\n      tag_45\n        /* \"@openzeppelin/contracts@5.2.0/access/Ownable.sol\":1531:1544  _checkOwner() */\n      jump\t// in\n    tag_72:\n        /* \"contracts/ccip/Receiver.sol\":2665:2672  _sender */\n      dup1\n        /* \"contracts/ccip/Receiver.sol\":2654:2662  s_sender */\n      0x01\n      0x00\n        /* \"contracts/ccip/Receiver.sol\":2654:2672  s_sender = _sender */\n      0x0100\n      exp\n      dup2\n      sload\n      dup2\n      0xffffffffffffffffffffffffffffffffffffffff\n      mul\n      not\n      and\n      swap1\n      dup4\n      0xffffffffffffffffffffffffffffffffffffffff\n      and\n      mul\n      or\n      swap1\n      sstore\n      pop\n        /* \"contracts/ccip/Receiver.sol\":2520:2679  function setSender(address _sender) external onlyOwner {... */\n      pop\n      jump\t// out\n        /* \"@openzeppelin/contracts@5.2.0/access/Ownable.sol\":2543:2758  function transferOwnership(address newOwner) public virtual onlyOwner {... */\n    tag_40:\n        /* \"@openzeppelin/contracts@5.2.0/access/Ownable.sol\":1531:1544  _checkOwner() */\n      tag_75\n        /* \"@openzeppelin/contracts@5.2.0/access/Ownable.sol\":1531:1542  _checkOwner */\n      tag_45\n        /* \"@openzeppelin/contracts@5.2.0/access/Ownable.sol\":1531:1544  _checkOwner() */\n      jump\t// in\n    tag_75:\n        /* \"@openzeppelin/contracts@5.2.0/access/Ownable.sol\":2647:2648  0 */\n      0x00\n        /* \"@openzeppelin/contracts@5.2.0/access/Ownable.sol\":2627:2649  newOwner == address(0) */\n      0xffffffffffffffffffffffffffffffffffffffff\n      and\n        /* \"@openzeppelin/contracts@5.2.0/access/Ownable.sol\":2627:2635  newOwner */\n      dup2\n        /* \"@openzeppelin/contracts@5.2.0/access/Ownable.sol\":2627:2649  newOwner == address(0) */\n      0xffffffffffffffffffffffffffffffffffffffff\n      and\n      sub\n        /* \"@openzeppelin/contracts@5.2.0/access/Ownable.sol\":2623:2714  if (newOwner == address(0)) {... */\n      tag_77\n      jumpi\n        /* \"@openzeppelin/contracts@5.2.0/access/Ownable.sol\":2700:2701  0 */\n      0x00\n        /* \"@openzeppelin/contracts@5.2.0/access/Ownable.sol\":2672:2703  OwnableInvalidOwner(address(0)) */\n      mload(0x40)\n      0x1e4fbdf700000000000000000000000000000000000000000000000000000000\n      dup2\n      mstore\n      0x04\n      add\n      tag_78\n      swap2\n      swap1\n      tag_31\n      jump\t// in\n    tag_78:\n      mload(0x40)\n      dup1\n      swap2\n      sub\n      swap1\n      revert\n        /* \"@openzeppelin/contracts@5.2.0/access/Ownable.sol\":2623:2714  if (newOwner == address(0)) {... */\n    tag_77:\n        /* \"@openzeppelin/contracts@5.2.0/access/Ownable.sol\":2723:2751  _transferOwnership(newOwner) */\n      tag_79\n        /* \"@openzeppelin/contracts@5.2.0/access/Ownable.sol\":2742:2750  newOwner */\n      dup2\n        /* \"@openzeppelin/contracts@5.2.0/access/Ownable.sol\":2723:2741  _transferOwnership */\n      tag_48\n        /* \"@openzeppelin/contracts@5.2.0/access/Ownable.sol\":2723:2751  _transferOwnership(newOwner) */\n      jump\t// in\n    tag_79:\n        /* \"@openzeppelin/contracts@5.2.0/access/Ownable.sol\":2543:2758  function transferOwnership(address newOwner) public virtual onlyOwner {... */\n      pop\n      jump\t// out\n        /* \"@openzeppelin/contracts@5.2.0/access/Ownable.sol\":1796:1958  function _checkOwner() internal view virtual {... */\n    tag_45:\n        /* \"@openzeppelin/contracts@5.2.0/access/Ownable.sol\":1866:1878  _msgSender() */\n      tag_81\n        /* \"@openzeppelin/contracts@5.2.0/access/Ownable.sol\":1866:1876  _msgSender */\n      tag_82\n        /* \"@openzeppelin/contracts@5.2.0/access/Ownable.sol\":1866:1878  _msgSender() */\n      jump\t// in\n    tag_81:\n        /* \"@openzeppelin/contracts@5.2.0/access/Ownable.sol\":1855:1878  owner() != _msgSender() */\n      0xffffffffffffffffffffffffffffffffffffffff\n      and\n        /* \"@openzeppelin/contracts@5.2.0/access/Ownable.sol\":1855:1862  owner() */\n      tag_83\n        /* \"@openzeppelin/contracts@5.2.0/access/Ownable.sol\":1855:1860  owner */\n      tag_29\n        /* \"@openzeppelin/contracts@5.2.0/access/Ownable.sol\":1855:1862  owner() */\n      jump\t// in\n    tag_83:\n        /* \"@openzeppelin/contracts@5.2.0/access/Ownable.sol\":1855:1878  owner() != _msgSender() */\n      0xffffffffffffffffffffffffffffffffffffffff\n      and\n      eq\n        /* \"@openzeppelin/contracts@5.2.0/access/Ownable.sol\":1851:1952  if (owner() != _msgSender()) {... */\n      tag_84\n      jumpi\n        /* \"@openzeppelin/contracts@5.2.0/access/Ownable.sol\":1928:1940  _msgSender() */\n      tag_85\n        /* \"@openzeppelin/contracts@5.2.0/access/Ownable.sol\":1928:1938  _msgSender */\n      tag_82\n        /* \"@openzeppelin/contracts@5.2.0/access/Ownable.sol\":1928:1940  _msgSender() */\n      jump\t// in\n    tag_85:\n        /* \"@openzeppelin/contracts@5.2.0/access/Ownable.sol\":1901:1941  OwnableUnauthorizedAccount(_msgSender()) */\n      mload(0x40)\n      0x118cdaa700000000000000000000000000000000000000000000000000000000\n      dup2\n      mstore\n      0x04\n      add\n      tag_86\n      swap2\n      swap1\n      tag_31\n      jump\t// in\n    tag_86:\n      mload(0x40)\n      dup1\n      swap2\n      sub\n      swap1\n      revert\n        /* \"@openzeppelin/contracts@5.2.0/access/Ownable.sol\":1851:1952  if (owner() != _msgSender()) {... */\n    tag_84:\n        /* \"@openzeppelin/contracts@5.2.0/access/Ownable.sol\":1796:1958  function _checkOwner() internal view virtual {... */\n      jump\t// out\n        /* \"@openzeppelin/contracts@5.2.0/access/Ownable.sol\":2912:3099  function _transferOwnership(address newOwner) internal virtual {... */\n    tag_48:\n        /* \"@openzeppelin/contracts@5.2.0/access/Ownable.sol\":2985:3001  address oldOwner */\n      0x00\n        /* \"@openzeppelin/contracts@5.2.0/access/Ownable.sol\":3004:3010  _owner */\n      0x00\n      0x00\n      swap1\n      sload\n      swap1\n      0x0100\n      exp\n      swap1\n      div\n      0xffffffffffffffffffffffffffffffffffffffff\n      and\n        /* \"@openzeppelin/contracts@5.2.0/access/Ownable.sol\":2985:3010  address oldOwner = _owner */\n      swap1\n      pop\n        /* \"@openzeppelin/contracts@5.2.0/access/Ownable.sol\":3029:3037  newOwner */\n      dup2\n        /* \"@openzeppelin/contracts@5.2.0/access/Ownable.sol\":3020:3026  _owner */\n      0x00\n      0x00\n        /* \"@openzeppelin/contracts@5.2.0/access/Ownable.sol\":3020:3037  _owner = newOwner */\n      0x0100\n      exp\n      dup2\n      sload\n      dup2\n      0xffffffffffffffffffffffffffffffffffffffff\n      mul\n      not\n      and\n      swap1\n      dup4\n      0xffffffffffffffffffffffffffffffffffffffff\n      and\n      mul\n      or\n      swap1\n      sstore\n      pop\n        /* \"@openzeppelin/contracts@5.2.0/access/Ownable.sol\":3083:3091  newOwner */\n      dup2\n        /* \"@openzeppelin/contracts@5.2.0/access/Ownable.sol\":3052:3092  OwnershipTransferred(oldOwner, newOwner) */\n      0xffffffffffffffffffffffffffffffffffffffff\n      and\n        /* \"@openzeppelin/contracts@5.2.0/access/Ownable.sol\":3073:3081  oldOwner */\n      dup2\n        /* \"@openzeppelin/contracts@5.2.0/access/Ownable.sol\":3052:3092  OwnershipTransferred(oldOwner, newOwner) */\n      0xffffffffffffffffffffffffffffffffffffffff\n      and\n      0x8be0079c531659141344cd1fd0a4f28419497f9722a3daafe3b4186f6b6457e0\n      mload(0x40)\n      mload(0x40)\n      dup1\n      swap2\n      sub\n      swap1\n      log3\n        /* \"@openzeppelin/contracts@5.2.0/access/Ownable.sol\":2975:3099  {... */\n      pop\n        /* \"@openzeppelin/contracts@5.2.0/access/Ownable.sol\":2912:3099  function _transferOwnership(address newOwner) internal virtual {... */\n      pop\n      jump\t// out\n        /* \"contracts/ccip/Receiver.sol\":2719:3616  function _ccipReceive(... */\n    tag_57:\n        /* \"contracts/ccip/Receiver.sol\":2871:2885  any2EvmMessage */\n      dup1\n        /* \"contracts/ccip/Receiver.sol\":2871:2905  any2EvmMessage.sourceChainSelector */\n      0x20\n      add\n      mload\n        /* \"contracts/ccip/Receiver.sol\":2930:2944  any2EvmMessage */\n      dup2\n        /* \"contracts/ccip/Receiver.sol\":2930:2951  any2EvmMessage.sender */\n      0x40\n      add\n      mload\n        /* \"contracts/ccip/Receiver.sol\":2919:2963  abi.decode(any2EvmMessage.sender, (address)) */\n      dup1\n      0x20\n      add\n      swap1\n      mload\n      dup2\n      add\n      swap1\n      tag_88\n      swap2\n      swap1\n      tag_89\n      jump\t// in\n    tag_88:\n        /* \"contracts/ccip/Receiver.sol\":2242:2243  0 */\n      0x00\n        /* \"contracts/ccip/Receiver.sol\":2222:2244  s_sender == address(0) */\n      0xffffffffffffffffffffffffffffffffffffffff\n      and\n        /* \"contracts/ccip/Receiver.sol\":2222:2230  s_sender */\n      0x01\n      0x00\n      swap1\n      sload\n      swap1\n      0x0100\n      exp\n      swap1\n      div\n      0xffffffffffffffffffffffffffffffffffffffff\n      and\n        /* \"contracts/ccip/Receiver.sol\":2222:2244  s_sender == address(0) */\n      0xffffffffffffffffffffffffffffffffffffffff\n      and\n      sub\n        /* \"contracts/ccip/Receiver.sol\":2218:2302  if (s_sender == address(0)) {... */\n      tag_91\n      jumpi\n        /* \"contracts/ccip/Receiver.sol\":2267:2291  Receiver__SenderNotSet() */\n      mload(0x40)\n      0x271040b300000000000000000000000000000000000000000000000000000000\n      dup2\n      mstore\n      0x04\n      add\n      mload(0x40)\n      dup1\n      swap2\n      sub\n      swap1\n      revert\n        /* \"contracts/ccip/Receiver.sol\":2218:2302  if (s_sender == address(0)) {... */\n    tag_91:\n        /* \"contracts/ccip/Receiver.sol\":1677:1697  16015286601757825753 */\n      0xde41ba4fc9d91ad9\n        /* \"contracts/ccip/Receiver.sol\":2315:2360  _sourceChainSelector != SOURCE_CHAIN_SELECTOR */\n      0xffffffffffffffff\n      and\n        /* \"contracts/ccip/Receiver.sol\":2315:2335  _sourceChainSelector */\n      dup3\n        /* \"contracts/ccip/Receiver.sol\":2315:2360  _sourceChainSelector != SOURCE_CHAIN_SELECTOR */\n      0xffffffffffffffff\n      and\n      eq\n      iszero\n        /* \"contracts/ccip/Receiver.sol\":2315:2383  _sourceChainSelector != SOURCE_CHAIN_SELECTOR || _sender != s_sender */\n      dup1\n      tag_92\n      jumpi\n      pop\n        /* \"contracts/ccip/Receiver.sol\":2375:2383  s_sender */\n      0x01\n      0x00\n      swap1\n      sload\n      swap1\n      0x0100\n      exp\n      swap1\n      div\n      0xffffffffffffffffffffffffffffffffffffffff\n      and\n        /* \"contracts/ccip/Receiver.sol\":2364:2383  _sender != s_sender */\n      0xffffffffffffffffffffffffffffffffffffffff\n      and\n        /* \"contracts/ccip/Receiver.sol\":2364:2371  _sender */\n      dup2\n        /* \"contracts/ccip/Receiver.sol\":2364:2383  _sender != s_sender */\n      0xffffffffffffffffffffffffffffffffffffffff\n      and\n      eq\n      iszero\n        /* \"contracts/ccip/Receiver.sol\":2315:2383  _sourceChainSelector != SOURCE_CHAIN_SELECTOR || _sender != s_sender */\n    tag_92:\n        /* \"contracts/ccip/Receiver.sol\":2311:2497  if (_sourceChainSelector != SOURCE_CHAIN_SELECTOR || _sender != s_sender) {... */\n      iszero\n      tag_93\n      jumpi\n        /* \"contracts/ccip/Receiver.sol\":2456:2476  _sourceChainSelector */\n      dup2\n        /* \"contracts/ccip/Receiver.sol\":2478:2485  _sender */\n      dup2\n        /* \"contracts/ccip/Receiver.sol\":2406:2486  Receiver__NotAllowedForSourceChainOrSenderAddress(_sourceChainSelector, _sender) */\n      mload(0x40)\n      0xf607742500000000000000000000000000000000000000000000000000000000\n      dup2\n      mstore\n      0x04\n      add\n      tag_94\n      swap3\n      swap2\n      swap1\n      tag_95\n      jump\t// in\n    tag_94:\n      mload(0x40)\n      dup1\n      swap2\n      sub\n      swap1\n      revert\n        /* \"contracts/ccip/Receiver.sol\":2311:2497  if (_sourceChainSelector != SOURCE_CHAIN_SELECTOR || _sender != s_sender) {... */\n    tag_93:\n        /* \"contracts/ccip/Receiver.sol\":3042:3056  address target */\n      0x00\n        /* \"contracts/ccip/Receiver.sol\":3058:3087  bytes memory functionCallData */\n      0x00\n        /* \"contracts/ccip/Receiver.sol\":3102:3116  any2EvmMessage */\n      dup5\n        /* \"contracts/ccip/Receiver.sol\":3102:3121  any2EvmMessage.data */\n      0x60\n      add\n      mload\n        /* \"contracts/ccip/Receiver.sol\":3091:3140  abi.decode(any2EvmMessage.data, (address, bytes)) */\n      dup1\n      0x20\n      add\n      swap1\n      mload\n      dup2\n      add\n      swap1\n      tag_97\n      swap2\n      swap1\n      tag_98\n      jump\t// in\n    tag_97:\n        /* \"contracts/ccip/Receiver.sol\":3041:3140  (address target, bytes memory functionCallData) = abi.decode(any2EvmMessage.data, (address, bytes)) */\n      swap2\n      pop\n      swap2\n      pop\n        /* \"contracts/ccip/Receiver.sol\":3151:3163  bool success */\n      0x00\n        /* \"contracts/ccip/Receiver.sol\":3169:3175  target */\n      dup3\n        /* \"contracts/ccip/Receiver.sol\":3169:3180  target.call */\n      0xffffffffffffffffffffffffffffffffffffffff\n      and\n        /* \"contracts/ccip/Receiver.sol\":3181:3197  functionCallData */\n      dup3\n        /* \"contracts/ccip/Receiver.sol\":3169:3198  target.call(functionCallData) */\n      mload(0x40)\n      tag_99\n      swap2\n      swap1\n      tag_100\n      jump\t// in\n    tag_99:\n      0x00\n      mload(0x40)\n      dup1\n      dup4\n      sub\n      dup2\n      0x00\n      dup7\n      gas\n      call\n      swap2\n      pop\n      pop\n      returndatasize\n      dup1\n      0x00\n      dup2\n      eq\n      tag_103\n      jumpi\n      mload(0x40)\n      swap2\n      pop\n      and(add(returndatasize, 0x3f), not(0x1f))\n      dup3\n      add\n      0x40\n      mstore\n      returndatasize\n      dup3\n      mstore\n      returndatasize\n      0x00\n      0x20\n      dup5\n      add\n      returndatacopy\n      jump(tag_102)\n    tag_103:\n      0x60\n      swap2\n      pop\n    tag_102:\n      pop\n        /* \"contracts/ccip/Receiver.sol\":3150:3198  (bool success, ) = target.call(functionCallData) */\n      pop\n      swap1\n      pop\n        /* \"contracts/ccip/Receiver.sol\":3214:3221  success */\n      dup1\n        /* \"contracts/ccip/Receiver.sol\":3209:3283  if (!success) {... */\n      tag_104\n      jumpi\n        /* \"contracts/ccip/Receiver.sol\":3244:3272  Receiver__FunctionCallFail() */\n      mload(0x40)\n      0x08af6b3700000000000000000000000000000000000000000000000000000000\n      dup2\n      mstore\n      0x04\n      add\n      mload(0x40)\n      dup1\n      swap2\n      sub\n      swap1\n      revert\n        /* \"contracts/ccip/Receiver.sol\":3209:3283  if (!success) {... */\n    tag_104:\n        /* \"contracts/ccip/Receiver.sol\":3365:3379  any2EvmMessage */\n      dup6\n        /* \"contracts/ccip/Receiver.sol\":3365:3399  any2EvmMessage.sourceChainSelector */\n      0x20\n      add\n      mload\n        /* \"contracts/ccip/Receiver.sol\":3298:3609  MessageReceived(... */\n      0xffffffffffffffff\n      and\n        /* \"contracts/ccip/Receiver.sol\":3327:3341  any2EvmMessage */\n      dup7\n        /* \"contracts/ccip/Receiver.sol\":3327:3351  any2EvmMessage.messageId */\n      0x00\n      add\n      mload\n        /* \"contracts/ccip/Receiver.sol\":3298:3609  MessageReceived(... */\n      0xefd22b16d02120210ec8687e3528d040d94b6509ca1a54ecc33b9e6790abfe24\n        /* \"contracts/ccip/Receiver.sol\":3424:3438  any2EvmMessage */\n      dup9\n        /* \"contracts/ccip/Receiver.sol\":3424:3445  any2EvmMessage.sender */\n      0x40\n      add\n      mload\n        /* \"contracts/ccip/Receiver.sol\":3413:3457  abi.decode(any2EvmMessage.sender, (address)) */\n      dup1\n      0x20\n      add\n      swap1\n      mload\n      dup2\n      add\n      swap1\n      tag_105\n      swap2\n      swap1\n      tag_89\n      jump\t// in\n    tag_105:\n        /* \"contracts/ccip/Receiver.sol\":3471:3485  any2EvmMessage */\n      dup10\n        /* \"contracts/ccip/Receiver.sol\":3471:3490  any2EvmMessage.data */\n      0x60\n      add\n      mload\n        /* \"contracts/ccip/Receiver.sol\":3504:3518  any2EvmMessage */\n      dup11\n        /* \"contracts/ccip/Receiver.sol\":3504:3535  any2EvmMessage.destTokenAmounts */\n      0x80\n      add\n      mload\n        /* \"contracts/ccip/Receiver.sol\":3536:3537  0 */\n      0x00\n        /* \"contracts/ccip/Receiver.sol\":3504:3538  any2EvmMessage.destTokenAmounts[0] */\n      dup2\n      mload\n      dup2\n      lt\n      tag_106\n      jumpi\n      tag_107\n      tag_108\n      jump\t// in\n    tag_107:\n    tag_106:\n      0x20\n      mul\n      0x20\n      add\n      add\n      mload\n        /* \"contracts/ccip/Receiver.sol\":3504:3544  any2EvmMessage.destTokenAmounts[0].token */\n      0x00\n      add\n      mload\n        /* \"contracts/ccip/Receiver.sol\":3558:3572  any2EvmMessage */\n      dup12\n        /* \"contracts/ccip/Receiver.sol\":3558:3589  any2EvmMessage.destTokenAmounts */\n      0x80\n      add\n      mload\n        /* \"contracts/ccip/Receiver.sol\":3590:3591  0 */\n      0x00\n        /* \"contracts/ccip/Receiver.sol\":3558:3592  any2EvmMessage.destTokenAmounts[0] */\n      dup2\n      mload\n      dup2\n      lt\n      tag_109\n      jumpi\n      tag_110\n      tag_108\n      jump\t// in\n    tag_110:\n    tag_109:\n      0x20\n      mul\n      0x20\n      add\n      add\n      mload\n        /* \"contracts/ccip/Receiver.sol\":3558:3599  any2EvmMessage.destTokenAmounts[0].amount */\n      0x20\n      add\n      mload\n        /* \"contracts/ccip/Receiver.sol\":3298:3609  MessageReceived(... */\n      mload(0x40)\n      tag_111\n      swap5\n      swap4\n      swap3\n      swap2\n      swap1\n      tag_112\n      jump\t// in\n    tag_111:\n      mload(0x40)\n      dup1\n      swap2\n      sub\n      swap1\n      log3\n        /* \"contracts/ccip/Receiver.sol\":3031:3616  {... */\n      pop\n      pop\n      pop\n        /* \"contracts/ccip/Receiver.sol\":2719:3616  function _ccipReceive(... */\n      pop\n      pop\n      pop\n      jump\t// out\n        /* \"@chainlink/contracts@1.3.0/src/v0.8/vendor/openzeppelin-solidity/v4.8.3/contracts/token/ERC20/utils/SafeERC20.sol\":759:928  function safeTransfer(IERC20 token, address to, uint256 value) internal {... */\n    tag_68:\n        /* \"@chainlink/contracts@1.3.0/src/v0.8/vendor/openzeppelin-solidity/v4.8.3/contracts/token/ERC20/utils/SafeERC20.sol\":837:923  _callOptionalReturn(token, abi.encodeWithSelector(token.transfer.selector, to, value)) */\n      tag_114\n        /* \"@chainlink/contracts@1.3.0/src/v0.8/vendor/openzeppelin-solidity/v4.8.3/contracts/token/ERC20/utils/SafeERC20.sol\":857:862  token */\n      dup4\n        /* \"@chainlink/contracts@1.3.0/src/v0.8/vendor/openzeppelin-solidity/v4.8.3/contracts/token/ERC20/utils/SafeERC20.sol\":887:910  token.transfer.selector */\n      shl(0xe0, 0xa9059cbb)\n        /* \"@chainlink/contracts@1.3.0/src/v0.8/vendor/openzeppelin-solidity/v4.8.3/contracts/token/ERC20/utils/SafeERC20.sol\":912:914  to */\n      dup5\n        /* \"@chainlink/contracts@1.3.0/src/v0.8/vendor/openzeppelin-solidity/v4.8.3/contracts/token/ERC20/utils/SafeERC20.sol\":916:921  value */\n      dup5\n        /* \"@chainlink/contracts@1.3.0/src/v0.8/vendor/openzeppelin-solidity/v4.8.3/contracts/token/ERC20/utils/SafeERC20.sol\":864:922  abi.encodeWithSelector(token.transfer.selector, to, value) */\n      add(0x24, mload(0x40))\n      tag_115\n      swap3\n      swap2\n      swap1\n      tag_116\n      jump\t// in\n    tag_115:\n      mload(0x40)\n      0x20\n      dup2\n      dup4\n      sub\n      sub\n      dup2\n      mstore\n      swap1\n      0x40\n      mstore\n      swap1\n      not(0xffffffffffffffffffffffffffffffffffffffffffffffffffffffff)\n      and\n      0x20\n      dup3\n      add\n      dup1\n      mload\n      0xffffffffffffffffffffffffffffffffffffffffffffffffffffffff\n      dup4\n      dup2\n      dup4\n      and\n      or\n      dup4\n      mstore\n      pop\n      pop\n      pop\n      pop\n        /* \"@chainlink/contracts@1.3.0/src/v0.8/vendor/openzeppelin-solidity/v4.8.3/contracts/token/ERC20/utils/SafeERC20.sol\":837:856  _callOptionalReturn */\n      tag_117\n        /* \"@chainlink/contracts@1.3.0/src/v0.8/vendor/openzeppelin-solidity/v4.8.3/contracts/token/ERC20/utils/SafeERC20.sol\":837:923  _callOptionalReturn(token, abi.encodeWithSelector(token.transfer.selector, to, value)) */\n      jump\t// in\n    tag_114:\n        /* \"@chainlink/contracts@1.3.0/src/v0.8/vendor/openzeppelin-solidity/v4.8.3/contracts/token/ERC20/utils/SafeERC20.sol\":759:928  function safeTransfer(IERC20 token, address to, uint256 value) internal {... */\n      pop\n      pop\n      pop\n      jump\t// out\n        /* \"@openzeppelin/contracts@5.2.0/utils/Context.sol\":656:752  function _msgSender() internal view virtual returns (address) {... */\n    tag_82:\n        /* \"@openzeppelin/contracts@5.2.0/utils/Context.sol\":709:716  address */\n      0x00\n        /* \"@openzeppelin/contracts@5.2.0/utils/Context.sol\":735:745  msg.sender */\n      caller\n        /* \"@openzeppelin/contracts@5.2.0/utils/Context.sol\":728:745  return msg.sender */\n      swap1\n      pop\n        /* \"@openzeppelin/contracts@5.2.0/utils/Context.sol\":656:752  function _msgSender() internal view virtual returns (address) {... */\n      swap1\n      jump\t// out\n        /* \"@chainlink/contracts@1.3.0/src/v0.8/vendor/openzeppelin-solidity/v4.8.3/contracts/token/ERC20/utils/SafeERC20.sol\":3401:4069  function _callOptionalReturn(IERC20 token, bytes memory data) private {... */\n    tag_117:\n        /* \"@chainlink/contracts@1.3.0/src/v0.8/vendor/openzeppelin-solidity/v4.8.3/contracts/token/ERC20/utils/SafeERC20.sol\":3804:3827  bytes memory returndata */\n      0x00\n        /* \"@chainlink/contracts@1.3.0/src/v0.8/vendor/openzeppelin-solidity/v4.8.3/contracts/token/ERC20/utils/SafeERC20.sol\":3830:3899  address(token).functionCall(data, \"SafeERC20: low-level call failed\") */\n      tag_120\n        /* \"@chainlink/contracts@1.3.0/src/v0.8/vendor/openzeppelin-solidity/v4.8.3/contracts/token/ERC20/utils/SafeERC20.sol\":3858:3862  data */\n      dup3\n        /* \"@chainlink/contracts@1.3.0/src/v0.8/vendor/openzeppelin-solidity/v4.8.3/contracts/token/ERC20/utils/SafeERC20.sol\":3830:3899  address(token).functionCall(data, \"SafeERC20: low-level call failed\") */\n      mload(0x40)\n      dup1\n      0x40\n      add\n      0x40\n      mstore\n      dup1\n      0x20\n      dup2\n      mstore\n      0x20\n      add\n      0x5361666545524332303a206c6f772d6c6576656c2063616c6c206661696c6564\n      dup2\n      mstore\n      pop\n        /* \"@chainlink/contracts@1.3.0/src/v0.8/vendor/openzeppelin-solidity/v4.8.3/contracts/token/ERC20/utils/SafeERC20.sol\":3838:3843  token */\n      dup6\n        /* \"@chainlink/contracts@1.3.0/src/v0.8/vendor/openzeppelin-solidity/v4.8.3/contracts/token/ERC20/utils/SafeERC20.sol\":3830:3857  address(token).functionCall */\n      0xffffffffffffffffffffffffffffffffffffffff\n      and\n      tag_121\n      swap1\n        /* \"@chainlink/contracts@1.3.0/src/v0.8/vendor/openzeppelin-solidity/v4.8.3/contracts/token/ERC20/utils/SafeERC20.sol\":3830:3899  address(token).functionCall(data, \"SafeERC20: low-level call failed\") */\n      swap3\n      swap2\n      swap1\n      0xffffffff\n      and\n      jump\t// in\n    tag_120:\n        /* \"@chainlink/contracts@1.3.0/src/v0.8/vendor/openzeppelin-solidity/v4.8.3/contracts/token/ERC20/utils/SafeERC20.sol\":3804:3899  bytes memory returndata = address(token).functionCall(data, \"SafeERC20: low-level call failed\") */\n      swap1\n      pop\n        /* \"@chainlink/contracts@1.3.0/src/v0.8/vendor/openzeppelin-solidity/v4.8.3/contracts/token/ERC20/utils/SafeERC20.sol\":3929:3930  0 */\n      0x00\n        /* \"@chainlink/contracts@1.3.0/src/v0.8/vendor/openzeppelin-solidity/v4.8.3/contracts/token/ERC20/utils/SafeERC20.sol\":3909:3919  returndata */\n      dup2\n        /* \"@chainlink/contracts@1.3.0/src/v0.8/vendor/openzeppelin-solidity/v4.8.3/contracts/token/ERC20/utils/SafeERC20.sol\":3909:3926  returndata.length */\n      mload\n        /* \"@chainlink/contracts@1.3.0/src/v0.8/vendor/openzeppelin-solidity/v4.8.3/contracts/token/ERC20/utils/SafeERC20.sol\":3909:3930  returndata.length > 0 */\n      gt\n        /* \"@chainlink/contracts@1.3.0/src/v0.8/vendor/openzeppelin-solidity/v4.8.3/contracts/token/ERC20/utils/SafeERC20.sol\":3905:4065  if (returndata.length > 0) {... */\n      iszero\n      tag_122\n      jumpi\n        /* \"@chainlink/contracts@1.3.0/src/v0.8/vendor/openzeppelin-solidity/v4.8.3/contracts/token/ERC20/utils/SafeERC20.sol\":3992:4002  returndata */\n      dup1\n        /* \"@chainlink/contracts@1.3.0/src/v0.8/vendor/openzeppelin-solidity/v4.8.3/contracts/token/ERC20/utils/SafeERC20.sol\":3981:4011  abi.decode(returndata, (bool)) */\n      dup1\n      0x20\n      add\n      swap1\n      mload\n      dup2\n      add\n      swap1\n      tag_123\n      swap2\n      swap1\n      tag_124\n      jump\t// in\n    tag_123:\n        /* \"@chainlink/contracts@1.3.0/src/v0.8/vendor/openzeppelin-solidity/v4.8.3/contracts/token/ERC20/utils/SafeERC20.sol\":3973:4058  require(abi.decode(returndata, (bool)), \"SafeERC20: ERC20 operation did not succeed\") */\n      tag_125\n      jumpi\n      mload(0x40)\n      0x08c379a000000000000000000000000000000000000000000000000000000000\n      dup2\n      mstore\n      0x04\n      add\n      tag_126\n      swap1\n      tag_127\n      jump\t// in\n    tag_126:\n      mload(0x40)\n      dup1\n      swap2\n      sub\n      swap1\n      revert\n    tag_125:\n        /* \"@chainlink/contracts@1.3.0/src/v0.8/vendor/openzeppelin-solidity/v4.8.3/contracts/token/ERC20/utils/SafeERC20.sol\":3905:4065  if (returndata.length > 0) {... */\n    tag_122:\n        /* \"@chainlink/contracts@1.3.0/src/v0.8/vendor/openzeppelin-solidity/v4.8.3/contracts/token/ERC20/utils/SafeERC20.sol\":3471:4069  {... */\n      pop\n        /* \"@chainlink/contracts@1.3.0/src/v0.8/vendor/openzeppelin-solidity/v4.8.3/contracts/token/ERC20/utils/SafeERC20.sol\":3401:4069  function _callOptionalReturn(IERC20 token, bytes memory data) private {... */\n      pop\n      pop\n      jump\t// out\n        /* \"@chainlink/contracts@1.3.0/src/v0.8/vendor/openzeppelin-solidity/v4.8.3/contracts/utils/Address.sol\":3695:3882  function functionCall(address target, bytes memory data, string memory errorMessage) internal returns (bytes memory) {... */\n    tag_121:\n        /* \"@chainlink/contracts@1.3.0/src/v0.8/vendor/openzeppelin-solidity/v4.8.3/contracts/utils/Address.sol\":3798:3810  bytes memory */\n      0x60\n        /* \"@chainlink/contracts@1.3.0/src/v0.8/vendor/openzeppelin-solidity/v4.8.3/contracts/utils/Address.sol\":3825:3877  functionCallWithValue(target, data, 0, errorMessage) */\n      tag_129\n        /* \"@chainlink/contracts@1.3.0/src/v0.8/vendor/openzeppelin-solidity/v4.8.3/contracts/utils/Address.sol\":3847:3853  target */\n      dup5\n        /* \"@chainlink/contracts@1.3.0/src/v0.8/vendor/openzeppelin-solidity/v4.8.3/contracts/utils/Address.sol\":3855:3859  data */\n      dup5\n        /* \"@chainlink/contracts@1.3.0/src/v0.8/vendor/openzeppelin-solidity/v4.8.3/contracts/utils/Address.sol\":3861:3862  0 */\n      0x00\n        /* \"@chainlink/contracts@1.3.0/src/v0.8/vendor/openzeppelin-solidity/v4.8.3/contracts/utils/Address.sol\":3864:3876  errorMessage */\n      dup6\n        /* \"@chainlink/contracts@1.3.0/src/v0.8/vendor/openzeppelin-solidity/v4.8.3/contracts/utils/Address.sol\":3825:3846  functionCallWithValue */\n      tag_130\n        /* \"@chainlink/contracts@1.3.0/src/v0.8/vendor/openzeppelin-solidity/v4.8.3/contracts/utils/Address.sol\":3825:3877  functionCallWithValue(target, data, 0, errorMessage) */\n      jump\t// in\n    tag_129:\n        /* \"@chainlink/contracts@1.3.0/src/v0.8/vendor/openzeppelin-solidity/v4.8.3/contracts/utils/Address.sol\":3818:3877  return functionCallWithValue(target, data, 0, errorMessage) */\n      swap1\n      pop\n        /* \"@chainlink/contracts@1.3.0/src/v0.8/vendor/openzeppelin-solidity/v4.8.3/contracts/utils/Address.sol\":3695:3882  function functionCall(address target, bytes memory data, string memory errorMessage) internal returns (bytes memory) {... */\n      swap4\n      swap3\n      pop\n      pop\n      pop\n      jump\t// out\n        /* \"@chainlink/contracts@1.3.0/src/v0.8/vendor/openzeppelin-solidity/v4.8.3/contracts/utils/Address.sol\":4672:5086  function functionCallWithValue(... */\n    tag_130:\n        /* \"@chainlink/contracts@1.3.0/src/v0.8/vendor/openzeppelin-solidity/v4.8.3/contracts/utils/Address.sol\":4819:4831  bytes memory */\n      0x60\n        /* \"@chainlink/contracts@1.3.0/src/v0.8/vendor/openzeppelin-solidity/v4.8.3/contracts/utils/Address.sol\":4872:4877  value */\n      dup3\n        /* \"@chainlink/contracts@1.3.0/src/v0.8/vendor/openzeppelin-solidity/v4.8.3/contracts/utils/Address.sol\":4847:4868  address(this).balance */\n      selfbalance\n        /* \"@chainlink/contracts@1.3.0/src/v0.8/vendor/openzeppelin-solidity/v4.8.3/contracts/utils/Address.sol\":4847:4877  address(this).balance >= value */\n      lt\n      iszero\n        /* \"@chainlink/contracts@1.3.0/src/v0.8/vendor/openzeppelin-solidity/v4.8.3/contracts/utils/Address.sol\":4839:4920  require(address(this).balance >= value, \"Address: insufficient balance for call\") */\n      tag_132\n      jumpi\n      mload(0x40)\n      0x08c379a000000000000000000000000000000000000000000000000000000000\n      dup2\n      mstore\n      0x04\n      add\n      tag_133\n      swap1\n      tag_134\n      jump\t// in\n    tag_133:\n      mload(0x40)\n      dup1\n      swap2\n      sub\n      swap1\n      revert\n    tag_132:\n        /* \"@chainlink/contracts@1.3.0/src/v0.8/vendor/openzeppelin-solidity/v4.8.3/contracts/utils/Address.sol\":4927:4939  bool success */\n      0x00\n        /* \"@chainlink/contracts@1.3.0/src/v0.8/vendor/openzeppelin-solidity/v4.8.3/contracts/utils/Address.sol\":4941:4964  bytes memory returndata */\n      0x00\n        /* \"@chainlink/contracts@1.3.0/src/v0.8/vendor/openzeppelin-solidity/v4.8.3/contracts/utils/Address.sol\":4968:4974  target */\n      dup7\n        /* \"@chainlink/contracts@1.3.0/src/v0.8/vendor/openzeppelin-solidity/v4.8.3/contracts/utils/Address.sol\":4968:4979  target.call */\n      0xffffffffffffffffffffffffffffffffffffffff\n      and\n        /* \"@chainlink/contracts@1.3.0/src/v0.8/vendor/openzeppelin-solidity/v4.8.3/contracts/utils/Address.sol\":4987:4992  value */\n      dup6\n        /* \"@chainlink/contracts@1.3.0/src/v0.8/vendor/openzeppelin-solidity/v4.8.3/contracts/utils/Address.sol\":4994:4998  data */\n      dup8\n        /* \"@chainlink/contracts@1.3.0/src/v0.8/vendor/openzeppelin-solidity/v4.8.3/contracts/utils/Address.sol\":4968:4999  target.call{value: value}(data) */\n      mload(0x40)\n      tag_135\n      swap2\n      swap1\n      tag_100\n      jump\t// in\n    tag_135:\n      0x00\n      mload(0x40)\n      dup1\n      dup4\n      sub\n      dup2\n      dup6\n      dup8\n      gas\n      call\n      swap3\n      pop\n      pop\n      pop\n      returndatasize\n      dup1\n      0x00\n      dup2\n      eq\n      tag_138\n      jumpi\n      mload(0x40)\n      swap2\n      pop\n      and(add(returndatasize, 0x3f), not(0x1f))\n      dup3\n      add\n      0x40\n      mstore\n      returndatasize\n      dup3\n      mstore\n      returndatasize\n      0x00\n      0x20\n      dup5\n      add\n      returndatacopy\n      jump(tag_137)\n    tag_138:\n      0x60\n      swap2\n      pop\n    tag_137:\n      pop\n        /* \"@chainlink/contracts@1.3.0/src/v0.8/vendor/openzeppelin-solidity/v4.8.3/contracts/utils/Address.sol\":4926:4999  (bool success, bytes memory returndata) = target.call{value: value}(data) */\n      swap2\n      pop\n      swap2\n      pop\n        /* \"@chainlink/contracts@1.3.0/src/v0.8/vendor/openzeppelin-solidity/v4.8.3/contracts/utils/Address.sol\":5012:5081  verifyCallResultFromTarget(target, success, returndata, errorMessage) */\n      tag_139\n        /* \"@chainlink/contracts@1.3.0/src/v0.8/vendor/openzeppelin-solidity/v4.8.3/contracts/utils/Address.sol\":5039:5045  target */\n      dup8\n        /* \"@chainlink/contracts@1.3.0/src/v0.8/vendor/openzeppelin-solidity/v4.8.3/contracts/utils/Address.sol\":5047:5054  success */\n      dup4\n        /* \"@chainlink/contracts@1.3.0/src/v0.8/vendor/openzeppelin-solidity/v4.8.3/contracts/utils/Address.sol\":5056:5066  returndata */\n      dup4\n        /* \"@chainlink/contracts@1.3.0/src/v0.8/vendor/openzeppelin-solidity/v4.8.3/contracts/utils/Address.sol\":5068:5080  errorMessage */\n      dup8\n        /* \"@chainlink/contracts@1.3.0/src/v0.8/vendor/openzeppelin-solidity/v4.8.3/contracts/utils/Address.sol\":5012:5038  verifyCallResultFromTarget */\n      tag_140\n        /* \"@chainlink/contracts@1.3.0/src/v0.8/vendor/openzeppelin-solidity/v4.8.3/contracts/utils/Address.sol\":5012:5081  verifyCallResultFromTarget(target, success, returndata, errorMessage) */\n      jump\t// in\n    tag_139:\n        /* \"@chainlink/contracts@1.3.0/src/v0.8/vendor/openzeppelin-solidity/v4.8.3/contracts/utils/Address.sol\":5005:5081  return verifyCallResultFromTarget(target, success, returndata, errorMessage) */\n      swap3\n      pop\n      pop\n      pop\n        /* \"@chainlink/contracts@1.3.0/src/v0.8/vendor/openzeppelin-solidity/v4.8.3/contracts/utils/Address.sol\":4672:5086  function functionCallWithValue(... */\n      swap5\n      swap4\n      pop\n      pop\n      pop\n      pop\n      jump\t// out\n        /* \"@chainlink/contracts@1.3.0/src/v0.8/vendor/openzeppelin-solidity/v4.8.3/contracts/utils/Address.sol\":7016:7564  function verifyCallResultFromTarget(... */\n    tag_140:\n        /* \"@chainlink/contracts@1.3.0/src/v0.8/vendor/openzeppelin-solidity/v4.8.3/contracts/utils/Address.sol\":7178:7190  bytes memory */\n      0x60\n        /* \"@chainlink/contracts@1.3.0/src/v0.8/vendor/openzeppelin-solidity/v4.8.3/contracts/utils/Address.sol\":7202:7209  success */\n      dup4\n        /* \"@chainlink/contracts@1.3.0/src/v0.8/vendor/openzeppelin-solidity/v4.8.3/contracts/utils/Address.sol\":7198:7560  if (success) {... */\n      iszero\n      tag_142\n      jumpi\n        /* \"@chainlink/contracts@1.3.0/src/v0.8/vendor/openzeppelin-solidity/v4.8.3/contracts/utils/Address.sol\":7244:7245  0 */\n      0x00\n        /* \"@chainlink/contracts@1.3.0/src/v0.8/vendor/openzeppelin-solidity/v4.8.3/contracts/utils/Address.sol\":7223:7233  returndata */\n      dup4\n        /* \"@chainlink/contracts@1.3.0/src/v0.8/vendor/openzeppelin-solidity/v4.8.3/contracts/utils/Address.sol\":7223:7240  returndata.length */\n      mload\n        /* \"@chainlink/contracts@1.3.0/src/v0.8/vendor/openzeppelin-solidity/v4.8.3/contracts/utils/Address.sol\":7223:7245  returndata.length == 0 */\n      sub\n        /* \"@chainlink/contracts@1.3.0/src/v0.8/vendor/openzeppelin-solidity/v4.8.3/contracts/utils/Address.sol\":7219:7475  if (returndata.length == 0) {... */\n      tag_143\n      jumpi\n        /* \"@chainlink/contracts@1.3.0/src/v0.8/vendor/openzeppelin-solidity/v4.8.3/contracts/utils/Address.sol\":7414:7432  isContract(target) */\n      tag_144\n        /* \"@chainlink/contracts@1.3.0/src/v0.8/vendor/openzeppelin-solidity/v4.8.3/contracts/utils/Address.sol\":7425:7431  target */\n      dup6\n        /* \"@chainlink/contracts@1.3.0/src/v0.8/vendor/openzeppelin-solidity/v4.8.3/contracts/utils/Address.sol\":7414:7424  isContract */\n      tag_145\n        /* \"@chainlink/contracts@1.3.0/src/v0.8/vendor/openzeppelin-solidity/v4.8.3/contracts/utils/Address.sol\":7414:7432  isContract(target) */\n      jump\t// in\n    tag_144:\n        /* \"@chainlink/contracts@1.3.0/src/v0.8/vendor/openzeppelin-solidity/v4.8.3/contracts/utils/Address.sol\":7406:7466  require(isContract(target), \"Address: call to non-contract\") */\n      tag_146\n      jumpi\n      mload(0x40)\n      0x08c379a000000000000000000000000000000000000000000000000000000000\n      dup2\n      mstore\n      0x04\n      add\n      tag_147\n      swap1\n      tag_148\n      jump\t// in\n    tag_147:\n      mload(0x40)\n      dup1\n      swap2\n      sub\n      swap1\n      revert\n    tag_146:\n        /* \"@chainlink/contracts@1.3.0/src/v0.8/vendor/openzeppelin-solidity/v4.8.3/contracts/utils/Address.sol\":7219:7475  if (returndata.length == 0) {... */\n    tag_143:\n        /* \"@chainlink/contracts@1.3.0/src/v0.8/vendor/openzeppelin-solidity/v4.8.3/contracts/utils/Address.sol\":7489:7499  returndata */\n      dup3\n        /* \"@chainlink/contracts@1.3.0/src/v0.8/vendor/openzeppelin-solidity/v4.8.3/contracts/utils/Address.sol\":7482:7499  return returndata */\n      swap1\n      pop\n      jump(tag_141)\n        /* \"@chainlink/contracts@1.3.0/src/v0.8/vendor/openzeppelin-solidity/v4.8.3/contracts/utils/Address.sol\":7198:7560  if (success) {... */\n    tag_142:\n        /* \"@chainlink/contracts@1.3.0/src/v0.8/vendor/openzeppelin-solidity/v4.8.3/contracts/utils/Address.sol\":7520:7553  _revert(returndata, errorMessage) */\n      tag_150\n        /* \"@chainlink/contracts@1.3.0/src/v0.8/vendor/openzeppelin-solidity/v4.8.3/contracts/utils/Address.sol\":7528:7538  returndata */\n      dup4\n        /* \"@chainlink/contracts@1.3.0/src/v0.8/vendor/openzeppelin-solidity/v4.8.3/contracts/utils/Address.sol\":7540:7552  errorMessage */\n      dup4\n        /* \"@chainlink/contracts@1.3.0/src/v0.8/vendor/openzeppelin-solidity/v4.8.3/contracts/utils/Address.sol\":7520:7527  _revert */\n      tag_151\n        /* \"@chainlink/contracts@1.3.0/src/v0.8/vendor/openzeppelin-solidity/v4.8.3/contracts/utils/Address.sol\":7520:7553  _revert(returndata, errorMessage) */\n      jump\t// in\n    tag_150:\n        /* \"@chainlink/contracts@1.3.0/src/v0.8/vendor/openzeppelin-solidity/v4.8.3/contracts/utils/Address.sol\":7016:7564  function verifyCallResultFromTarget(... */\n    tag_141:\n      swap5\n      swap4\n      pop\n      pop\n      pop\n      pop\n      jump\t// out\n        /* \"@chainlink/contracts@1.3.0/src/v0.8/vendor/openzeppelin-solidity/v4.8.3/contracts/utils/Address.sol\":1121:1423  function isContract(address account) internal view returns (bool) {... */\n    tag_145:\n        /* \"@chainlink/contracts@1.3.0/src/v0.8/vendor/openzeppelin-solidity/v4.8.3/contracts/utils/Address.sol\":1181:1185  bool */\n      0x00\n        /* \"@chainlink/contracts@1.3.0/src/v0.8/vendor/openzeppelin-solidity/v4.8.3/contracts/utils/Address.sol\":1417:1418  0 */\n      0x00\n        /* \"@chainlink/contracts@1.3.0/src/v0.8/vendor/openzeppelin-solidity/v4.8.3/contracts/utils/Address.sol\":1395:1402  account */\n      dup3\n        /* \"@chainlink/contracts@1.3.0/src/v0.8/vendor/openzeppelin-solidity/v4.8.3/contracts/utils/Address.sol\":1395:1414  account.code.length */\n      0xffffffffffffffffffffffffffffffffffffffff\n      and\n      extcodesize\n        /* \"@chainlink/contracts@1.3.0/src/v0.8/vendor/openzeppelin-solidity/v4.8.3/contracts/utils/Address.sol\":1395:1418  account.code.length > 0 */\n      gt\n        /* \"@chainlink/contracts@1.3.0/src/v0.8/vendor/openzeppelin-solidity/v4.8.3/contracts/utils/Address.sol\":1388:1418  return account.code.length > 0 */\n      swap1\n      pop\n        /* \"@chainlink/contracts@1.3.0/src/v0.8/vendor/openzeppelin-solidity/v4.8.3/contracts/utils/Address.sol\":1121:1423  function isContract(address account) internal view returns (bool) {... */\n      swap2\n      swap1\n      pop\n      jump\t// out\n        /* \"@chainlink/contracts@1.3.0/src/v0.8/vendor/openzeppelin-solidity/v4.8.3/contracts/utils/Address.sol\":8030:8506  function _revert(bytes memory returndata, string memory errorMessage) private pure {... */\n    tag_151:\n        /* \"@chainlink/contracts@1.3.0/src/v0.8/vendor/openzeppelin-solidity/v4.8.3/contracts/utils/Address.sol\":8201:8202  0 */\n      0x00\n        /* \"@chainlink/contracts@1.3.0/src/v0.8/vendor/openzeppelin-solidity/v4.8.3/contracts/utils/Address.sol\":8181:8191  returndata */\n      dup3\n        /* \"@chainlink/contracts@1.3.0/src/v0.8/vendor/openzeppelin-solidity/v4.8.3/contracts/utils/Address.sol\":8181:8198  returndata.length */\n      mload\n        /* \"@chainlink/contracts@1.3.0/src/v0.8/vendor/openzeppelin-solidity/v4.8.3/contracts/utils/Address.sol\":8181:8202  returndata.length > 0 */\n      gt\n        /* \"@chainlink/contracts@1.3.0/src/v0.8/vendor/openzeppelin-solidity/v4.8.3/contracts/utils/Address.sol\":8177:8502  if (returndata.length > 0) {... */\n      iszero\n      tag_154\n      jumpi\n        /* \"@chainlink/contracts@1.3.0/src/v0.8/vendor/openzeppelin-solidity/v4.8.3/contracts/utils/Address.sol\":8383:8393  returndata */\n      dup2\n        /* \"@chainlink/contracts@1.3.0/src/v0.8/vendor/openzeppelin-solidity/v4.8.3/contracts/utils/Address.sol\":8377:8394  mload(returndata) */\n      mload\n        /* \"@chainlink/contracts@1.3.0/src/v0.8/vendor/openzeppelin-solidity/v4.8.3/contracts/utils/Address.sol\":8431:8446  returndata_size */\n      dup1\n        /* \"@chainlink/contracts@1.3.0/src/v0.8/vendor/openzeppelin-solidity/v4.8.3/contracts/utils/Address.sol\":8418:8428  returndata */\n      dup4\n        /* \"@chainlink/contracts@1.3.0/src/v0.8/vendor/openzeppelin-solidity/v4.8.3/contracts/utils/Address.sol\":8414:8416  32 */\n      0x20\n        /* \"@chainlink/contracts@1.3.0/src/v0.8/vendor/openzeppelin-solidity/v4.8.3/contracts/utils/Address.sol\":8410:8429  add(32, returndata) */\n      add\n        /* \"@chainlink/contracts@1.3.0/src/v0.8/vendor/openzeppelin-solidity/v4.8.3/contracts/utils/Address.sol\":8403:8447  revert(add(32, returndata), returndata_size) */\n      revert\n        /* \"@chainlink/contracts@1.3.0/src/v0.8/vendor/openzeppelin-solidity/v4.8.3/contracts/utils/Address.sol\":8177:8502  if (returndata.length > 0) {... */\n    tag_154:\n        /* \"@chainlink/contracts@1.3.0/src/v0.8/vendor/openzeppelin-solidity/v4.8.3/contracts/utils/Address.sol\":8482:8494  errorMessage */\n      dup1\n        /* \"@chainlink/contracts@1.3.0/src/v0.8/vendor/openzeppelin-solidity/v4.8.3/contracts/utils/Address.sol\":8475:8495  revert(errorMessage) */\n      mload(0x40)\n      0x08c379a000000000000000000000000000000000000000000000000000000000\n      dup2\n      mstore\n      0x04\n      add\n      tag_156\n      swap2\n      swap1\n      tag_157\n      jump\t// in\n    tag_156:\n      mload(0x40)\n      dup1\n      swap2\n      sub\n      swap1\n      revert\n        /* \"#utility.yul\":7:82   */\n    tag_158:\n        /* \"#utility.yul\":40:46   */\n      0x00\n        /* \"#utility.yul\":73:75   */\n      0x40\n        /* \"#utility.yul\":67:76   */\n      mload\n        /* \"#utility.yul\":57:76   */\n      swap1\n      pop\n        /* \"#utility.yul\":7:82   */\n      swap1\n      jump\t// out\n        /* \"#utility.yul\":88:205   */\n    tag_159:\n        /* \"#utility.yul\":197:198   */\n      0x00\n        /* \"#utility.yul\":194:195   */\n      0x00\n        /* \"#utility.yul\":187:199   */\n      revert\n        /* \"#utility.yul\":211:328   */\n    tag_160:\n        /* \"#utility.yul\":320:321   */\n      0x00\n        /* \"#utility.yul\":317:318   */\n      0x00\n        /* \"#utility.yul\":310:322   */\n      revert\n        /* \"#utility.yul\":334:483   */\n    tag_161:\n        /* \"#utility.yul\":370:377   */\n      0x00\n        /* \"#utility.yul\":410:476   */\n      0xffffffff00000000000000000000000000000000000000000000000000000000\n        /* \"#utility.yul\":403:408   */\n      dup3\n        /* \"#utility.yul\":399:477   */\n      and\n        /* \"#utility.yul\":388:477   */\n      swap1\n      pop\n        /* \"#utility.yul\":334:483   */\n      swap2\n      swap1\n      pop\n      jump\t// out\n        /* \"#utility.yul\":489:609   */\n    tag_162:\n        /* \"#utility.yul\":561:584   */\n      tag_236\n        /* \"#utility.yul\":578:583   */\n      dup2\n        /* \"#utility.yul\":561:584   */\n      tag_161\n      jump\t// in\n    tag_236:\n        /* \"#utility.yul\":554:559   */\n      dup2\n        /* \"#utility.yul\":551:585   */\n      eq\n        /* \"#utility.yul\":541:603   */\n      tag_237\n      jumpi\n        /* \"#utility.yul\":599:600   */\n      0x00\n        /* \"#utility.yul\":596:597   */\n      0x00\n        /* \"#utility.yul\":589:601   */\n      revert\n        /* \"#utility.yul\":541:603   */\n    tag_237:\n        /* \"#utility.yul\":489:609   */\n      pop\n      jump\t// out\n        /* \"#utility.yul\":615:752   */\n    tag_163:\n        /* \"#utility.yul\":660:665   */\n      0x00\n        /* \"#utility.yul\":698:704   */\n      dup2\n        /* \"#utility.yul\":685:705   */\n      calldataload\n        /* \"#utility.yul\":676:705   */\n      swap1\n      pop\n        /* \"#utility.yul\":714:746   */\n      tag_239\n        /* \"#utility.yul\":740:745   */\n      dup2\n        /* \"#utility.yul\":714:746   */\n      tag_162\n      jump\t// in\n    tag_239:\n        /* \"#utility.yul\":615:752   */\n      swap3\n      swap2\n      pop\n      pop\n      jump\t// out\n        /* \"#utility.yul\":758:1085   */\n    tag_14:\n        /* \"#utility.yul\":816:822   */\n      0x00\n        /* \"#utility.yul\":865:867   */\n      0x20\n        /* \"#utility.yul\":853:862   */\n      dup3\n        /* \"#utility.yul\":844:851   */\n      dup5\n        /* \"#utility.yul\":840:863   */\n      sub\n        /* \"#utility.yul\":836:868   */\n      slt\n        /* \"#utility.yul\":833:952   */\n      iszero\n      tag_241\n      jumpi\n        /* \"#utility.yul\":871:950   */\n      tag_242\n      tag_159\n      jump\t// in\n    tag_242:\n        /* \"#utility.yul\":833:952   */\n    tag_241:\n        /* \"#utility.yul\":991:992   */\n      0x00\n        /* \"#utility.yul\":1016:1068   */\n      tag_243\n        /* \"#utility.yul\":1060:1067   */\n      dup5\n        /* \"#utility.yul\":1051:1057   */\n      dup3\n        /* \"#utility.yul\":1040:1049   */\n      dup6\n        /* \"#utility.yul\":1036:1058   */\n      add\n        /* \"#utility.yul\":1016:1068   */\n      tag_163\n      jump\t// in\n    tag_243:\n        /* \"#utility.yul\":1006:1068   */\n      swap2\n      pop\n        /* \"#utility.yul\":962:1078   */\n      pop\n        /* \"#utility.yul\":758:1085   */\n      swap3\n      swap2\n      pop\n      pop\n      jump\t// out\n        /* \"#utility.yul\":1091:1181   */\n    tag_164:\n        /* \"#utility.yul\":1125:1132   */\n      0x00\n        /* \"#utility.yul\":1168:1173   */\n      dup2\n        /* \"#utility.yul\":1161:1174   */\n      iszero\n        /* \"#utility.yul\":1154:1175   */\n      iszero\n        /* \"#utility.yul\":1143:1175   */\n      swap1\n      pop\n        /* \"#utility.yul\":1091:1181   */\n      swap2\n      swap1\n      pop\n      jump\t// out\n        /* \"#utility.yul\":1187:1296   */\n    tag_165:\n        /* \"#utility.yul\":1268:1289   */\n      tag_246\n        /* \"#utility.yul\":1283:1288   */\n      dup2\n        /* \"#utility.yul\":1268:1289   */\n      tag_164\n      jump\t// in\n    tag_246:\n        /* \"#utility.yul\":1263:1266   */\n      dup3\n        /* \"#utility.yul\":1256:1290   */\n      mstore\n        /* \"#utility.yul\":1187:1296   */\n      pop\n      pop\n      jump\t// out\n        /* \"#utility.yul\":1302:1512   */\n    tag_17:\n        /* \"#utility.yul\":1389:1393   */\n      0x00\n        /* \"#utility.yul\":1427:1429   */\n      0x20\n        /* \"#utility.yul\":1416:1425   */\n      dup3\n        /* \"#utility.yul\":1412:1430   */\n      add\n        /* \"#utility.yul\":1404:1430   */\n      swap1\n      pop\n        /* \"#utility.yul\":1440:1505   */\n      tag_248\n        /* \"#utility.yul\":1502:1503   */\n      0x00\n        /* \"#utility.yul\":1491:1500   */\n      dup4\n        /* \"#utility.yul\":1487:1504   */\n      add\n        /* \"#utility.yul\":1478:1484   */\n      dup5\n        /* \"#utility.yul\":1440:1505   */\n      tag_165\n      jump\t// in\n    tag_248:\n        /* \"#utility.yul\":1302:1512   */\n      swap3\n      swap2\n      pop\n      pop\n      jump\t// out\n        /* \"#utility.yul\":1518:1635   */\n    tag_166:\n        /* \"#utility.yul\":1627:1628   */\n      0x00\n        /* \"#utility.yul\":1624:1625   */\n      0x00\n        /* \"#utility.yul\":1617:1629   */\n      revert\n        /* \"#utility.yul\":1677:1915   */\n    tag_167:\n        /* \"#utility.yul\":1756:1761   */\n      0x00\n        /* \"#utility.yul\":1797:1800   */\n      0xa0\n        /* \"#utility.yul\":1788:1794   */\n      dup3\n        /* \"#utility.yul\":1783:1786   */\n      dup5\n        /* \"#utility.yul\":1779:1795   */\n      sub\n        /* \"#utility.yul\":1775:1801   */\n      slt\n        /* \"#utility.yul\":1772:1885   */\n      iszero\n      tag_251\n      jumpi\n        /* \"#utility.yul\":1804:1883   */\n      tag_252\n      tag_166\n      jump\t// in\n    tag_252:\n        /* \"#utility.yul\":1772:1885   */\n    tag_251:\n        /* \"#utility.yul\":1903:1909   */\n      dup2\n        /* \"#utility.yul\":1894:1909   */\n      swap1\n      pop\n        /* \"#utility.yul\":1677:1915   */\n      swap3\n      swap2\n      pop\n      pop\n      jump\t// out\n        /* \"#utility.yul\":1921:2476   */\n    tag_22:\n        /* \"#utility.yul\":2013:2019   */\n      0x00\n        /* \"#utility.yul\":2062:2064   */\n      0x20\n        /* \"#utility.yul\":2050:2059   */\n      dup3\n        /* \"#utility.yul\":2041:2048   */\n      dup5\n        /* \"#utility.yul\":2037:2060   */\n      sub\n        /* \"#utility.yul\":2033:2065   */\n      slt\n        /* \"#utility.yul\":2030:2149   */\n      iszero\n      tag_254\n      jumpi\n        /* \"#utility.yul\":2068:2147   */\n      tag_255\n      tag_159\n      jump\t// in\n    tag_255:\n        /* \"#utility.yul\":2030:2149   */\n    tag_254:\n        /* \"#utility.yul\":2216:2217   */\n      0x00\n        /* \"#utility.yul\":2205:2214   */\n      dup3\n        /* \"#utility.yul\":2201:2218   */\n      add\n        /* \"#utility.yul\":2188:2219   */\n      calldataload\n        /* \"#utility.yul\":2246:2264   */\n      0xffffffffffffffff\n        /* \"#utility.yul\":2238:2244   */\n      dup2\n        /* \"#utility.yul\":2235:2265   */\n      gt\n        /* \"#utility.yul\":2232:2349   */\n      iszero\n      tag_256\n      jumpi\n        /* \"#utility.yul\":2268:2347   */\n      tag_257\n      tag_160\n      jump\t// in\n    tag_257:\n        /* \"#utility.yul\":2232:2349   */\n    tag_256:\n        /* \"#utility.yul\":2373:2459   */\n      tag_258\n        /* \"#utility.yul\":2451:2458   */\n      dup5\n        /* \"#utility.yul\":2442:2448   */\n      dup3\n        /* \"#utility.yul\":2431:2440   */\n      dup6\n        /* \"#utility.yul\":2427:2449   */\n      add\n        /* \"#utility.yul\":2373:2459   */\n      tag_167\n      jump\t// in\n    tag_258:\n        /* \"#utility.yul\":2363:2459   */\n      swap2\n      pop\n        /* \"#utility.yul\":2159:2469   */\n      pop\n        /* \"#utility.yul\":1921:2476   */\n      swap3\n      swap2\n      pop\n      pop\n      jump\t// out\n        /* \"#utility.yul\":2482:2608   */\n    tag_168:\n        /* \"#utility.yul\":2519:2526   */\n      0x00\n        /* \"#utility.yul\":2559:2601   */\n      0xffffffffffffffffffffffffffffffffffffffff\n        /* \"#utility.yul\":2552:2557   */\n      dup3\n        /* \"#utility.yul\":2548:2602   */\n      and\n        /* \"#utility.yul\":2537:2602   */\n      swap1\n      pop\n        /* \"#utility.yul\":2482:2608   */\n      swap2\n      swap1\n      pop\n      jump\t// out\n        /* \"#utility.yul\":2614:2710   */\n    tag_169:\n        /* \"#utility.yul\":2651:2658   */\n      0x00\n        /* \"#utility.yul\":2680:2704   */\n      tag_261\n        /* \"#utility.yul\":2698:2703   */\n      dup3\n        /* \"#utility.yul\":2680:2704   */\n      tag_168\n      jump\t// in\n    tag_261:\n        /* \"#utility.yul\":2669:2704   */\n      swap1\n      pop\n        /* \"#utility.yul\":2614:2710   */\n      swap2\n      swap1\n      pop\n      jump\t// out\n        /* \"#utility.yul\":2716:2838   */\n    tag_170:\n        /* \"#utility.yul\":2789:2813   */\n      tag_263\n        /* \"#utility.yul\":2807:2812   */\n      dup2\n        /* \"#utility.yul\":2789:2813   */\n      tag_169\n      jump\t// in\n    tag_263:\n        /* \"#utility.yul\":2782:2787   */\n      dup2\n        /* \"#utility.yul\":2779:2814   */\n      eq\n        /* \"#utility.yul\":2769:2832   */\n      tag_264\n      jumpi\n        /* \"#utility.yul\":2828:2829   */\n      0x00\n        /* \"#utility.yul\":2825:2826   */\n      0x00\n        /* \"#utility.yul\":2818:2830   */\n      revert\n        /* \"#utility.yul\":2769:2832   */\n    tag_264:\n        /* \"#utility.yul\":2716:2838   */\n      pop\n      jump\t// out\n        /* \"#utility.yul\":2844:2983   */\n    tag_171:\n        /* \"#utility.yul\":2890:2895   */\n      0x00\n        /* \"#utility.yul\":2928:2934   */\n      dup2\n        /* \"#utility.yul\":2915:2935   */\n      calldataload\n        /* \"#utility.yul\":2906:2935   */\n      swap1\n      pop\n        /* \"#utility.yul\":2944:2977   */\n      tag_266\n        /* \"#utility.yul\":2971:2976   */\n      dup2\n        /* \"#utility.yul\":2944:2977   */\n      tag_170\n      jump\t// in\n    tag_266:\n        /* \"#utility.yul\":2844:2983   */\n      swap3\n      swap2\n      pop\n      pop\n      jump\t// out\n        /* \"#utility.yul\":2989:3318   */\n    tag_26:\n        /* \"#utility.yul\":3048:3054   */\n      0x00\n        /* \"#utility.yul\":3097:3099   */\n      0x20\n        /* \"#utility.yul\":3085:3094   */\n      dup3\n        /* \"#utility.yul\":3076:3083   */\n      dup5\n        /* \"#utility.yul\":3072:3095   */\n      sub\n        /* \"#utility.yul\":3068:3100   */\n      slt\n        /* \"#utility.yul\":3065:3184   */\n      iszero\n      tag_268\n      jumpi\n        /* \"#utility.yul\":3103:3182   */\n      tag_269\n      tag_159\n      jump\t// in\n    tag_269:\n        /* \"#utility.yul\":3065:3184   */\n    tag_268:\n        /* \"#utility.yul\":3223:3224   */\n      0x00\n        /* \"#utility.yul\":3248:3301   */\n      tag_270\n        /* \"#utility.yul\":3293:3300   */\n      dup5\n        /* \"#utility.yul\":3284:3290   */\n      dup3\n        /* \"#utility.yul\":3273:3282   */\n      dup6\n        /* \"#utility.yul\":3269:3291   */\n      add\n        /* \"#utility.yul\":3248:3301   */\n      tag_171\n      jump\t// in\n    tag_270:\n        /* \"#utility.yul\":3238:3301   */\n      swap2\n      pop\n        /* \"#utility.yul\":3194:3311   */\n      pop\n        /* \"#utility.yul\":2989:3318   */\n      swap3\n      swap2\n      pop\n      pop\n      jump\t// out\n        /* \"#utility.yul\":3324:3442   */\n    tag_172:\n        /* \"#utility.yul\":3411:3435   */\n      tag_272\n        /* \"#utility.yul\":3429:3434   */\n      dup2\n        /* \"#utility.yul\":3411:3435   */\n      tag_169\n      jump\t// in\n    tag_272:\n        /* \"#utility.yul\":3406:3409   */\n      dup3\n        /* \"#utility.yul\":3399:3436   */\n      mstore\n        /* \"#utility.yul\":3324:3442   */\n      pop\n      pop\n      jump\t// out\n        /* \"#utility.yul\":3448:3670   */\n    tag_31:\n        /* \"#utility.yul\":3541:3545   */\n      0x00\n        /* \"#utility.yul\":3579:3581   */\n      0x20\n        /* \"#utility.yul\":3568:3577   */\n      dup3\n        /* \"#utility.yul\":3564:3582   */\n      add\n        /* \"#utility.yul\":3556:3582   */\n      swap1\n      pop\n        /* \"#utility.yul\":3592:3663   */\n      tag_274\n        /* \"#utility.yul\":3660:3661   */\n      0x00\n        /* \"#utility.yul\":3649:3658   */\n      dup4\n        /* \"#utility.yul\":3645:3662   */\n      add\n        /* \"#utility.yul\":3636:3642   */\n      dup5\n        /* \"#utility.yul\":3592:3663   */\n      tag_172\n      jump\t// in\n    tag_274:\n        /* \"#utility.yul\":3448:3670   */\n      swap3\n      swap2\n      pop\n      pop\n      jump\t// out\n        /* \"#utility.yul\":3676:3793   */\n    tag_173:\n        /* \"#utility.yul\":3785:3786   */\n      0x00\n        /* \"#utility.yul\":3782:3783   */\n      0x00\n        /* \"#utility.yul\":3775:3787   */\n      revert\n        /* \"#utility.yul\":3799:3901   */\n    tag_174:\n        /* \"#utility.yul\":3840:3846   */\n      0x00\n        /* \"#utility.yul\":3891:3893   */\n      0x1f\n        /* \"#utility.yul\":3887:3894   */\n      not\n        /* \"#utility.yul\":3882:3884   */\n      0x1f\n        /* \"#utility.yul\":3875:3880   */\n      dup4\n        /* \"#utility.yul\":3871:3885   */\n      add\n        /* \"#utility.yul\":3867:3895   */\n      and\n        /* \"#utility.yul\":3857:3895   */\n      swap1\n      pop\n        /* \"#utility.yul\":3799:3901   */\n      swap2\n      swap1\n      pop\n      jump\t// out\n        /* \"#utility.yul\":3907:4087   */\n    tag_175:\n        /* \"#utility.yul\":3955:4032   */\n      0x4e487b7100000000000000000000000000000000000000000000000000000000\n        /* \"#utility.yul\":3952:3953   */\n      0x00\n        /* \"#utility.yul\":3945:4033   */\n      mstore\n        /* \"#utility.yul\":4052:4056   */\n      0x41\n        /* \"#utility.yul\":4049:4050   */\n      0x04\n        /* \"#utility.yul\":4042:4057   */\n      mstore\n        /* \"#utility.yul\":4076:4080   */\n      0x24\n        /* \"#utility.yul\":4073:4074   */\n      0x00\n        /* \"#utility.yul\":4066:4081   */\n      revert\n        /* \"#utility.yul\":4093:4374   */\n    tag_176:\n        /* \"#utility.yul\":4176:4203   */\n      tag_279\n        /* \"#utility.yul\":4198:4202   */\n      dup3\n        /* \"#utility.yul\":4176:4203   */\n      tag_174\n      jump\t// in\n    tag_279:\n        /* \"#utility.yul\":4168:4174   */\n      dup2\n        /* \"#utility.yul\":4164:4204   */\n      add\n        /* \"#utility.yul\":4306:4312   */\n      dup2\n        /* \"#utility.yul\":4294:4304   */\n      dup2\n        /* \"#utility.yul\":4291:4313   */\n      lt\n        /* \"#utility.yul\":4270:4288   */\n      0xffffffffffffffff\n        /* \"#utility.yul\":4258:4268   */\n      dup3\n        /* \"#utility.yul\":4255:4289   */\n      gt\n        /* \"#utility.yul\":4252:4314   */\n      or\n        /* \"#utility.yul\":4249:4337   */\n      iszero\n      tag_280\n      jumpi\n        /* \"#utility.yul\":4317:4335   */\n      tag_281\n      tag_175\n      jump\t// in\n    tag_281:\n        /* \"#utility.yul\":4249:4337   */\n    tag_280:\n        /* \"#utility.yul\":4357:4367   */\n      dup1\n        /* \"#utility.yul\":4353:4355   */\n      0x40\n        /* \"#utility.yul\":4346:4368   */\n      mstore\n        /* \"#utility.yul\":4136:4374   */\n      pop\n        /* \"#utility.yul\":4093:4374   */\n      pop\n      pop\n      jump\t// out\n        /* \"#utility.yul\":4380:4509   */\n    tag_177:\n        /* \"#utility.yul\":4414:4420   */\n      0x00\n        /* \"#utility.yul\":4441:4461   */\n      tag_283\n      tag_158\n      jump\t// in\n    tag_283:\n        /* \"#utility.yul\":4431:4461   */\n      swap1\n      pop\n        /* \"#utility.yul\":4470:4503   */\n      tag_284\n        /* \"#utility.yul\":4498:4502   */\n      dup3\n        /* \"#utility.yul\":4490:4496   */\n      dup3\n        /* \"#utility.yul\":4470:4503   */\n      tag_176\n      jump\t// in\n    tag_284:\n        /* \"#utility.yul\":4380:4509   */\n      swap2\n      swap1\n      pop\n      jump\t// out\n        /* \"#utility.yul\":4515:4632   */\n    tag_178:\n        /* \"#utility.yul\":4624:4625   */\n      0x00\n        /* \"#utility.yul\":4621:4622   */\n      0x00\n        /* \"#utility.yul\":4614:4626   */\n      revert\n        /* \"#utility.yul\":4638:4715   */\n    tag_179:\n        /* \"#utility.yul\":4675:4682   */\n      0x00\n        /* \"#utility.yul\":4704:4709   */\n      dup2\n        /* \"#utility.yul\":4693:4709   */\n      swap1\n      pop\n        /* \"#utility.yul\":4638:4715   */\n      swap2\n      swap1\n      pop\n      jump\t// out\n        /* \"#utility.yul\":4721:4843   */\n    tag_180:\n        /* \"#utility.yul\":4794:4818   */\n      tag_288\n        /* \"#utility.yul\":4812:4817   */\n      dup2\n        /* \"#utility.yul\":4794:4818   */\n      tag_179\n      jump\t// in\n    tag_288:\n        /* \"#utility.yul\":4787:4792   */\n      dup2\n        /* \"#utility.yul\":4784:4819   */\n      eq\n        /* \"#utility.yul\":4774:4837   */\n      tag_289\n      jumpi\n        /* \"#utility.yul\":4833:4834   */\n      0x00\n        /* \"#utility.yul\":4830:4831   */\n      0x00\n        /* \"#utility.yul\":4823:4835   */\n      revert\n        /* \"#utility.yul\":4774:4837   */\n    tag_289:\n        /* \"#utility.yul\":4721:4843   */\n      pop\n      jump\t// out\n        /* \"#utility.yul\":4849:4988   */\n    tag_181:\n        /* \"#utility.yul\":4895:4900   */\n      0x00\n        /* \"#utility.yul\":4933:4939   */\n      dup2\n        /* \"#utility.yul\":4920:4940   */\n      calldataload\n        /* \"#utility.yul\":4911:4940   */\n      swap1\n      pop\n        /* \"#utility.yul\":4949:4982   */\n      tag_291\n        /* \"#utility.yul\":4976:4981   */\n      dup2\n        /* \"#utility.yul\":4949:4982   */\n      tag_180\n      jump\t// in\n    tag_291:\n        /* \"#utility.yul\":4849:4988   */\n      swap3\n      swap2\n      pop\n      pop\n      jump\t// out\n        /* \"#utility.yul\":4994:5095   */\n    tag_182:\n        /* \"#utility.yul\":5030:5037   */\n      0x00\n        /* \"#utility.yul\":5070:5088   */\n      0xffffffffffffffff\n        /* \"#utility.yul\":5063:5068   */\n      dup3\n        /* \"#utility.yul\":5059:5089   */\n      and\n        /* \"#utility.yul\":5048:5089   */\n      swap1\n      pop\n        /* \"#utility.yul\":4994:5095   */\n      swap2\n      swap1\n      pop\n      jump\t// out\n        /* \"#utility.yul\":5101:5221   */\n    tag_183:\n        /* \"#utility.yul\":5173:5196   */\n      tag_294\n        /* \"#utility.yul\":5190:5195   */\n      dup2\n        /* \"#utility.yul\":5173:5196   */\n      tag_182\n      jump\t// in\n    tag_294:\n        /* \"#utility.yul\":5166:5171   */\n      dup2\n        /* \"#utility.yul\":5163:5197   */\n      eq\n        /* \"#utility.yul\":5153:5215   */\n      tag_295\n      jumpi\n        /* \"#utility.yul\":5211:5212   */\n      0x00\n        /* \"#utility.yul\":5208:5209   */\n      0x00\n        /* \"#utility.yul\":5201:5213   */\n      revert\n        /* \"#utility.yul\":5153:5215   */\n    tag_295:\n        /* \"#utility.yul\":5101:5221   */\n      pop\n      jump\t// out\n        /* \"#utility.yul\":5227:5364   */\n    tag_184:\n        /* \"#utility.yul\":5272:5277   */\n      0x00\n        /* \"#utility.yul\":5310:5316   */\n      dup2\n        /* \"#utility.yul\":5297:5317   */\n      calldataload\n        /* \"#utility.yul\":5288:5317   */\n      swap1\n      pop\n        /* \"#utility.yul\":5326:5358   */\n      tag_297\n        /* \"#utility.yul\":5352:5357   */\n      dup2\n        /* \"#utility.yul\":5326:5358   */\n      tag_183\n      jump\t// in\n    tag_297:\n        /* \"#utility.yul\":5227:5364   */\n      swap3\n      swap2\n      pop\n      pop\n      jump\t// out\n        /* \"#utility.yul\":5370:5487   */\n    tag_185:\n        /* \"#utility.yul\":5479:5480   */\n      0x00\n        /* \"#utility.yul\":5476:5477   */\n      0x00\n        /* \"#utility.yul\":5469:5481   */\n      revert\n        /* \"#utility.yul\":5493:5610   */\n    tag_186:\n        /* \"#utility.yul\":5602:5603   */\n      0x00\n        /* \"#utility.yul\":5599:5600   */\n      0x00\n        /* \"#utility.yul\":5592:5604   */\n      revert\n        /* \"#utility.yul\":5616:5923   */\n    tag_187:\n        /* \"#utility.yul\":5677:5681   */\n      0x00\n        /* \"#utility.yul\":5767:5785   */\n      0xffffffffffffffff\n        /* \"#utility.yul\":5759:5765   */\n      dup3\n        /* \"#utility.yul\":5756:5786   */\n      gt\n        /* \"#utility.yul\":5753:5809   */\n      iszero\n      tag_301\n      jumpi\n        /* \"#utility.yul\":5789:5807   */\n      tag_302\n      tag_175\n      jump\t// in\n    tag_302:\n        /* \"#utility.yul\":5753:5809   */\n    tag_301:\n        /* \"#utility.yul\":5827:5856   */\n      tag_303\n        /* \"#utility.yul\":5849:5855   */\n      dup3\n        /* \"#utility.yul\":5827:5856   */\n      tag_174\n      jump\t// in\n    tag_303:\n        /* \"#utility.yul\":5819:5856   */\n      swap1\n      pop\n        /* \"#utility.yul\":5911:5915   */\n      0x20\n        /* \"#utility.yul\":5905:5909   */\n      dup2\n        /* \"#utility.yul\":5901:5916   */\n      add\n        /* \"#utility.yul\":5893:5916   */\n      swap1\n      pop\n        /* \"#utility.yul\":5616:5923   */\n      swap2\n      swap1\n      pop\n      jump\t// out\n        /* \"#utility.yul\":5929:6077   */\n    tag_188:\n        /* \"#utility.yul\":6027:6033   */\n      dup3\n        /* \"#utility.yul\":6022:6025   */\n      dup2\n        /* \"#utility.yul\":6017:6020   */\n      dup4\n        /* \"#utility.yul\":6004:6034   */\n      calldatacopy\n        /* \"#utility.yul\":6068:6069   */\n      0x00\n        /* \"#utility.yul\":6059:6065   */\n      dup4\n        /* \"#utility.yul\":6054:6057   */\n      dup4\n        /* \"#utility.yul\":6050:6066   */\n      add\n        /* \"#utility.yul\":6043:6070   */\n      mstore\n        /* \"#utility.yul\":5929:6077   */\n      pop\n      pop\n      pop\n      jump\t// out\n        /* \"#utility.yul\":6083:6506   */\n    tag_189:\n        /* \"#utility.yul\":6160:6165   */\n      0x00\n        /* \"#utility.yul\":6185:6250   */\n      tag_306\n        /* \"#utility.yul\":6201:6249   */\n      tag_307\n        /* \"#utility.yul\":6242:6248   */\n      dup5\n        /* \"#utility.yul\":6201:6249   */\n      tag_187\n      jump\t// in\n    tag_307:\n        /* \"#utility.yul\":6185:6250   */\n      tag_177\n      jump\t// in\n    tag_306:\n        /* \"#utility.yul\":6176:6250   */\n      swap1\n      pop\n        /* \"#utility.yul\":6273:6279   */\n      dup3\n        /* \"#utility.yul\":6266:6271   */\n      dup2\n        /* \"#utility.yul\":6259:6280   */\n      mstore\n        /* \"#utility.yul\":6311:6315   */\n      0x20\n        /* \"#utility.yul\":6304:6309   */\n      dup2\n        /* \"#utility.yul\":6300:6316   */\n      add\n        /* \"#utility.yul\":6349:6352   */\n      dup5\n        /* \"#utility.yul\":6340:6346   */\n      dup5\n        /* \"#utility.yul\":6335:6338   */\n      dup5\n        /* \"#utility.yul\":6331:6347   */\n      add\n        /* \"#utility.yul\":6328:6353   */\n      gt\n        /* \"#utility.yul\":6325:6437   */\n      iszero\n      tag_308\n      jumpi\n        /* \"#utility.yul\":6356:6435   */\n      tag_309\n      tag_186\n      jump\t// in\n    tag_309:\n        /* \"#utility.yul\":6325:6437   */\n    tag_308:\n        /* \"#utility.yul\":6446:6500   */\n      tag_310\n        /* \"#utility.yul\":6493:6499   */\n      dup5\n        /* \"#utility.yul\":6488:6491   */\n      dup3\n        /* \"#utility.yul\":6483:6486   */\n      dup6\n        /* \"#utility.yul\":6446:6500   */\n      tag_188\n      jump\t// in\n    tag_310:\n        /* \"#utility.yul\":6166:6506   */\n      pop\n        /* \"#utility.yul\":6083:6506   */\n      swap4\n      swap3\n      pop\n      pop\n      pop\n      jump\t// out\n        /* \"#utility.yul\":6525:6863   */\n    tag_190:\n        /* \"#utility.yul\":6580:6585   */\n      0x00\n        /* \"#utility.yul\":6629:6632   */\n      dup3\n        /* \"#utility.yul\":6622:6626   */\n      0x1f\n        /* \"#utility.yul\":6614:6620   */\n      dup4\n        /* \"#utility.yul\":6610:6627   */\n      add\n        /* \"#utility.yul\":6606:6633   */\n      slt\n        /* \"#utility.yul\":6596:6718   */\n      tag_312\n      jumpi\n        /* \"#utility.yul\":6637:6716   */\n      tag_313\n      tag_185\n      jump\t// in\n    tag_313:\n        /* \"#utility.yul\":6596:6718   */\n    tag_312:\n        /* \"#utility.yul\":6754:6760   */\n      dup2\n        /* \"#utility.yul\":6741:6761   */\n      calldataload\n        /* \"#utility.yul\":6779:6857   */\n      tag_314\n        /* \"#utility.yul\":6853:6856   */\n      dup5\n        /* \"#utility.yul\":6845:6851   */\n      dup3\n        /* \"#utility.yul\":6838:6842   */\n      0x20\n        /* \"#utility.yul\":6830:6836   */\n      dup7\n        /* \"#utility.yul\":6826:6843   */\n      add\n        /* \"#utility.yul\":6779:6857   */\n      tag_189\n      jump\t// in\n    tag_314:\n        /* \"#utility.yul\":6770:6857   */\n      swap2\n      pop\n        /* \"#utility.yul\":6586:6863   */\n      pop\n        /* \"#utility.yul\":6525:6863   */\n      swap3\n      swap2\n      pop\n      pop\n      jump\t// out\n        /* \"#utility.yul\":6869:7211   */\n    tag_191:\n        /* \"#utility.yul\":6977:6981   */\n      0x00\n        /* \"#utility.yul\":7067:7085   */\n      0xffffffffffffffff\n        /* \"#utility.yul\":7059:7065   */\n      dup3\n        /* \"#utility.yul\":7056:7086   */\n      gt\n        /* \"#utility.yul\":7053:7109   */\n      iszero\n      tag_316\n      jumpi\n        /* \"#utility.yul\":7089:7107   */\n      tag_317\n      tag_175\n      jump\t// in\n    tag_317:\n        /* \"#utility.yul\":7053:7109   */\n    tag_316:\n        /* \"#utility.yul\":7139:7143   */\n      0x20\n        /* \"#utility.yul\":7131:7137   */\n      dup3\n        /* \"#utility.yul\":7127:7144   */\n      mul\n        /* \"#utility.yul\":7119:7144   */\n      swap1\n      pop\n        /* \"#utility.yul\":7199:7203   */\n      0x20\n        /* \"#utility.yul\":7193:7197   */\n      dup2\n        /* \"#utility.yul\":7189:7204   */\n      add\n        /* \"#utility.yul\":7181:7204   */\n      swap1\n      pop\n        /* \"#utility.yul\":6869:7211   */\n      swap2\n      swap1\n      pop\n      jump\t// out\n        /* \"#utility.yul\":7217:7334   */\n    tag_192:\n        /* \"#utility.yul\":7326:7327   */\n      0x00\n        /* \"#utility.yul\":7323:7324   */\n      0x00\n        /* \"#utility.yul\":7316:7328   */\n      revert\n        /* \"#utility.yul\":7340:7417   */\n    tag_193:\n        /* \"#utility.yul\":7377:7384   */\n      0x00\n        /* \"#utility.yul\":7406:7411   */\n      dup2\n        /* \"#utility.yul\":7395:7411   */\n      swap1\n      pop\n        /* \"#utility.yul\":7340:7417   */\n      swap2\n      swap1\n      pop\n      jump\t// out\n        /* \"#utility.yul\":7423:7545   */\n    tag_194:\n        /* \"#utility.yul\":7496:7520   */\n      tag_321\n        /* \"#utility.yul\":7514:7519   */\n      dup2\n        /* \"#utility.yul\":7496:7520   */\n      tag_193\n      jump\t// in\n    tag_321:\n        /* \"#utility.yul\":7489:7494   */\n      dup2\n        /* \"#utility.yul\":7486:7521   */\n      eq\n        /* \"#utility.yul\":7476:7539   */\n      tag_322\n      jumpi\n        /* \"#utility.yul\":7535:7536   */\n      0x00\n        /* \"#utility.yul\":7532:7533   */\n      0x00\n        /* \"#utility.yul\":7525:7537   */\n      revert\n        /* \"#utility.yul\":7476:7539   */\n    tag_322:\n        /* \"#utility.yul\":7423:7545   */\n      pop\n      jump\t// out\n        /* \"#utility.yul\":7551:7690   */\n    tag_195:\n        /* \"#utility.yul\":7597:7602   */\n      0x00\n        /* \"#utility.yul\":7635:7641   */\n      dup2\n        /* \"#utility.yul\":7622:7642   */\n      calldataload\n        /* \"#utility.yul\":7613:7642   */\n      swap1\n      pop\n        /* \"#utility.yul\":7651:7684   */\n      tag_324\n        /* \"#utility.yul\":7678:7683   */\n      dup2\n        /* \"#utility.yul\":7651:7684   */\n      tag_194\n      jump\t// in\n    tag_324:\n        /* \"#utility.yul\":7551:7690   */\n      swap3\n      swap2\n      pop\n      pop\n      jump\t// out\n        /* \"#utility.yul\":7732:8315   */\n    tag_196:\n        /* \"#utility.yul\":7812:7817   */\n      0x00\n        /* \"#utility.yul\":7856:7860   */\n      0x40\n        /* \"#utility.yul\":7844:7853   */\n      dup3\n        /* \"#utility.yul\":7839:7842   */\n      dup5\n        /* \"#utility.yul\":7835:7854   */\n      sub\n        /* \"#utility.yul\":7831:7861   */\n      slt\n        /* \"#utility.yul\":7828:7945   */\n      iszero\n      tag_326\n      jumpi\n        /* \"#utility.yul\":7864:7943   */\n      tag_327\n      tag_173\n      jump\t// in\n    tag_327:\n        /* \"#utility.yul\":7828:7945   */\n    tag_326:\n        /* \"#utility.yul\":7963:7984   */\n      tag_328\n        /* \"#utility.yul\":7979:7983   */\n      0x40\n        /* \"#utility.yul\":7963:7984   */\n      tag_177\n      jump\t// in\n    tag_328:\n        /* \"#utility.yul\":7954:7984   */\n      swap1\n      pop\n        /* \"#utility.yul\":8044:8045   */\n      0x00\n        /* \"#utility.yul\":8084:8133   */\n      tag_329\n        /* \"#utility.yul\":8129:8132   */\n      dup5\n        /* \"#utility.yul\":8120:8126   */\n      dup3\n        /* \"#utility.yul\":8109:8118   */\n      dup6\n        /* \"#utility.yul\":8105:8127   */\n      add\n        /* \"#utility.yul\":8084:8133   */\n      tag_171\n      jump\t// in\n    tag_329:\n        /* \"#utility.yul\":8077:8081   */\n      0x00\n        /* \"#utility.yul\":8070:8075   */\n      dup4\n        /* \"#utility.yul\":8066:8082   */\n      add\n        /* \"#utility.yul\":8059:8134   */\n      mstore\n        /* \"#utility.yul\":7994:8145   */\n      pop\n        /* \"#utility.yul\":8206:8208   */\n      0x20\n        /* \"#utility.yul\":8247:8296   */\n      tag_330\n        /* \"#utility.yul\":8292:8295   */\n      dup5\n        /* \"#utility.yul\":8283:8289   */\n      dup3\n        /* \"#utility.yul\":8272:8281   */\n      dup6\n        /* \"#utility.yul\":8268:8290   */\n      add\n        /* \"#utility.yul\":8247:8296   */\n      tag_195\n      jump\t// in\n    tag_330:\n        /* \"#utility.yul\":8240:8244   */\n      0x20\n        /* \"#utility.yul\":8233:8238   */\n      dup4\n        /* \"#utility.yul\":8229:8245   */\n      add\n        /* \"#utility.yul\":8222:8297   */\n      mstore\n        /* \"#utility.yul\":8155:8308   */\n      pop\n        /* \"#utility.yul\":7732:8315   */\n      swap3\n      swap2\n      pop\n      pop\n      jump\t// out\n        /* \"#utility.yul\":8359:9162   */\n    tag_197:\n        /* \"#utility.yul\":8486:8491   */\n      0x00\n        /* \"#utility.yul\":8511:8623   */\n      tag_332\n        /* \"#utility.yul\":8527:8622   */\n      tag_333\n        /* \"#utility.yul\":8615:8621   */\n      dup5\n        /* \"#utility.yul\":8527:8622   */\n      tag_191\n      jump\t// in\n    tag_333:\n        /* \"#utility.yul\":8511:8623   */\n      tag_177\n      jump\t// in\n    tag_332:\n        /* \"#utility.yul\":8502:8623   */\n      swap1\n      pop\n        /* \"#utility.yul\":8643:8648   */\n      dup1\n        /* \"#utility.yul\":8672:8678   */\n      dup4\n        /* \"#utility.yul\":8665:8670   */\n      dup3\n        /* \"#utility.yul\":8658:8679   */\n      mstore\n        /* \"#utility.yul\":8706:8710   */\n      0x20\n        /* \"#utility.yul\":8699:8704   */\n      dup3\n        /* \"#utility.yul\":8695:8711   */\n      add\n        /* \"#utility.yul\":8688:8711   */\n      swap1\n      pop\n        /* \"#utility.yul\":8759:8763   */\n      0x40\n        /* \"#utility.yul\":8751:8757   */\n      dup5\n        /* \"#utility.yul\":8747:8764   */\n      mul\n        /* \"#utility.yul\":8739:8745   */\n      dup4\n        /* \"#utility.yul\":8735:8765   */\n      add\n        /* \"#utility.yul\":8788:8791   */\n      dup6\n        /* \"#utility.yul\":8780:8786   */\n      dup2\n        /* \"#utility.yul\":8777:8792   */\n      gt\n        /* \"#utility.yul\":8774:8896   */\n      iszero\n      tag_334\n      jumpi\n        /* \"#utility.yul\":8807:8886   */\n      tag_335\n      tag_192\n      jump\t// in\n    tag_335:\n        /* \"#utility.yul\":8774:8896   */\n    tag_334:\n        /* \"#utility.yul\":8922:8928   */\n      dup4\n        /* \"#utility.yul\":8905:9156   */\n    tag_336:\n        /* \"#utility.yul\":8939:8945   */\n      dup2\n        /* \"#utility.yul\":8934:8937   */\n      dup2\n        /* \"#utility.yul\":8931:8946   */\n      lt\n        /* \"#utility.yul\":8905:9156   */\n      iszero\n      tag_338\n      jumpi\n        /* \"#utility.yul\":9014:9017   */\n      dup1\n        /* \"#utility.yul\":9043:9111   */\n      tag_339\n        /* \"#utility.yul\":9107:9110   */\n      dup9\n        /* \"#utility.yul\":9095:9105   */\n      dup3\n        /* \"#utility.yul\":9043:9111   */\n      tag_196\n      jump\t// in\n    tag_339:\n        /* \"#utility.yul\":9038:9041   */\n      dup5\n        /* \"#utility.yul\":9031:9112   */\n      mstore\n        /* \"#utility.yul\":9141:9145   */\n      0x20\n        /* \"#utility.yul\":9136:9139   */\n      dup5\n        /* \"#utility.yul\":9132:9146   */\n      add\n        /* \"#utility.yul\":9125:9146   */\n      swap4\n      pop\n        /* \"#utility.yul\":8981:9156   */\n      pop\n        /* \"#utility.yul\":8965:8969   */\n      0x40\n        /* \"#utility.yul\":8960:8963   */\n      dup2\n        /* \"#utility.yul\":8956:8970   */\n      add\n        /* \"#utility.yul\":8949:8970   */\n      swap1\n      pop\n        /* \"#utility.yul\":8905:9156   */\n      jump(tag_336)\n    tag_338:\n        /* \"#utility.yul\":8909:8930   */\n      pop\n        /* \"#utility.yul\":8492:9162   */\n      pop\n      pop\n        /* \"#utility.yul\":8359:9162   */\n      swap4\n      swap3\n      pop\n      pop\n      pop\n      jump\t// out\n        /* \"#utility.yul\":9206:9638   */\n    tag_198:\n        /* \"#utility.yul\":9308:9313   */\n      0x00\n        /* \"#utility.yul\":9357:9360   */\n      dup3\n        /* \"#utility.yul\":9350:9354   */\n      0x1f\n        /* \"#utility.yul\":9342:9348   */\n      dup4\n        /* \"#utility.yul\":9338:9355   */\n      add\n        /* \"#utility.yul\":9334:9361   */\n      slt\n        /* \"#utility.yul\":9324:9446   */\n      tag_341\n      jumpi\n        /* \"#utility.yul\":9365:9444   */\n      tag_342\n      tag_185\n      jump\t// in\n    tag_342:\n        /* \"#utility.yul\":9324:9446   */\n    tag_341:\n        /* \"#utility.yul\":9482:9488   */\n      dup2\n        /* \"#utility.yul\":9469:9489   */\n      calldataload\n        /* \"#utility.yul\":9507:9632   */\n      tag_343\n        /* \"#utility.yul\":9628:9631   */\n      dup5\n        /* \"#utility.yul\":9620:9626   */\n      dup3\n        /* \"#utility.yul\":9613:9617   */\n      0x20\n        /* \"#utility.yul\":9605:9611   */\n      dup7\n        /* \"#utility.yul\":9601:9618   */\n      add\n        /* \"#utility.yul\":9507:9632   */\n      tag_197\n      jump\t// in\n    tag_343:\n        /* \"#utility.yul\":9498:9632   */\n      swap2\n      pop\n        /* \"#utility.yul\":9314:9638   */\n      pop\n        /* \"#utility.yul\":9206:9638   */\n      swap3\n      swap2\n      pop\n      pop\n      jump\t// out\n        /* \"#utility.yul\":9680:11331   */\n    tag_199:\n        /* \"#utility.yul\":9760:9765   */\n      0x00\n        /* \"#utility.yul\":9804:9808   */\n      0xa0\n        /* \"#utility.yul\":9792:9801   */\n      dup3\n        /* \"#utility.yul\":9787:9790   */\n      dup5\n        /* \"#utility.yul\":9783:9802   */\n      sub\n        /* \"#utility.yul\":9779:9809   */\n      slt\n        /* \"#utility.yul\":9776:9893   */\n      iszero\n      tag_345\n      jumpi\n        /* \"#utility.yul\":9812:9891   */\n      tag_346\n      tag_173\n      jump\t// in\n    tag_346:\n        /* \"#utility.yul\":9776:9893   */\n    tag_345:\n        /* \"#utility.yul\":9911:9932   */\n      tag_347\n        /* \"#utility.yul\":9927:9931   */\n      0xa0\n        /* \"#utility.yul\":9911:9932   */\n      tag_177\n      jump\t// in\n    tag_347:\n        /* \"#utility.yul\":9902:9932   */\n      swap1\n      pop\n        /* \"#utility.yul\":9996:9997   */\n      0x00\n        /* \"#utility.yul\":10036:10085   */\n      tag_348\n        /* \"#utility.yul\":10081:10084   */\n      dup5\n        /* \"#utility.yul\":10072:10078   */\n      dup3\n        /* \"#utility.yul\":10061:10070   */\n      dup6\n        /* \"#utility.yul\":10057:10079   */\n      add\n        /* \"#utility.yul\":10036:10085   */\n      tag_181\n      jump\t// in\n    tag_348:\n        /* \"#utility.yul\":10029:10033   */\n      0x00\n        /* \"#utility.yul\":10022:10027   */\n      dup4\n        /* \"#utility.yul\":10018:10034   */\n      add\n        /* \"#utility.yul\":10011:10086   */\n      mstore\n        /* \"#utility.yul\":9942:10097   */\n      pop\n        /* \"#utility.yul\":10171:10173   */\n      0x20\n        /* \"#utility.yul\":10212:10260   */\n      tag_349\n        /* \"#utility.yul\":10256:10259   */\n      dup5\n        /* \"#utility.yul\":10247:10253   */\n      dup3\n        /* \"#utility.yul\":10236:10245   */\n      dup6\n        /* \"#utility.yul\":10232:10254   */\n      add\n        /* \"#utility.yul\":10212:10260   */\n      tag_184\n      jump\t// in\n    tag_349:\n        /* \"#utility.yul\":10205:10209   */\n      0x20\n        /* \"#utility.yul\":10198:10203   */\n      dup4\n        /* \"#utility.yul\":10194:10210   */\n      add\n        /* \"#utility.yul\":10187:10261   */\n      mstore\n        /* \"#utility.yul\":10107:10272   */\n      pop\n        /* \"#utility.yul\":10361:10363   */\n      0x40\n        /* \"#utility.yul\":10350:10359   */\n      dup3\n        /* \"#utility.yul\":10346:10364   */\n      add\n        /* \"#utility.yul\":10333:10365   */\n      calldataload\n        /* \"#utility.yul\":10392:10410   */\n      0xffffffffffffffff\n        /* \"#utility.yul\":10384:10390   */\n      dup2\n        /* \"#utility.yul\":10381:10411   */\n      gt\n        /* \"#utility.yul\":10378:10495   */\n      iszero\n      tag_350\n      jumpi\n        /* \"#utility.yul\":10414:10493   */\n      tag_351\n      tag_178\n      jump\t// in\n    tag_351:\n        /* \"#utility.yul\":10378:10495   */\n    tag_350:\n        /* \"#utility.yul\":10534:10592   */\n      tag_352\n        /* \"#utility.yul\":10588:10591   */\n      dup5\n        /* \"#utility.yul\":10579:10585   */\n      dup3\n        /* \"#utility.yul\":10568:10577   */\n      dup6\n        /* \"#utility.yul\":10564:10586   */\n      add\n        /* \"#utility.yul\":10534:10592   */\n      tag_190\n      jump\t// in\n    tag_352:\n        /* \"#utility.yul\":10527:10531   */\n      0x40\n        /* \"#utility.yul\":10520:10525   */\n      dup4\n        /* \"#utility.yul\":10516:10532   */\n      add\n        /* \"#utility.yul\":10509:10593   */\n      mstore\n        /* \"#utility.yul\":10282:10604   */\n      pop\n        /* \"#utility.yul\":10691:10693   */\n      0x60\n        /* \"#utility.yul\":10680:10689   */\n      dup3\n        /* \"#utility.yul\":10676:10694   */\n      add\n        /* \"#utility.yul\":10663:10695   */\n      calldataload\n        /* \"#utility.yul\":10722:10740   */\n      0xffffffffffffffff\n        /* \"#utility.yul\":10714:10720   */\n      dup2\n        /* \"#utility.yul\":10711:10741   */\n      gt\n        /* \"#utility.yul\":10708:10825   */\n      iszero\n      tag_353\n      jumpi\n        /* \"#utility.yul\":10744:10823   */\n      tag_354\n      tag_178\n      jump\t// in\n    tag_354:\n        /* \"#utility.yul\":10708:10825   */\n    tag_353:\n        /* \"#utility.yul\":10864:10922   */\n      tag_355\n        /* \"#utility.yul\":10918:10921   */\n      dup5\n        /* \"#utility.yul\":10909:10915   */\n      dup3\n        /* \"#utility.yul\":10898:10907   */\n      dup6\n        /* \"#utility.yul\":10894:10916   */\n      add\n        /* \"#utility.yul\":10864:10922   */\n      tag_190\n      jump\t// in\n    tag_355:\n        /* \"#utility.yul\":10857:10861   */\n      0x60\n        /* \"#utility.yul\":10850:10855   */\n      dup4\n        /* \"#utility.yul\":10846:10862   */\n      add\n        /* \"#utility.yul\":10839:10923   */\n      mstore\n        /* \"#utility.yul\":10614:10934   */\n      pop\n        /* \"#utility.yul\":11033:11036   */\n      0x80\n        /* \"#utility.yul\":11022:11031   */\n      dup3\n        /* \"#utility.yul\":11018:11037   */\n      add\n        /* \"#utility.yul\":11005:11038   */\n      calldataload\n        /* \"#utility.yul\":11065:11083   */\n      0xffffffffffffffff\n        /* \"#utility.yul\":11057:11063   */\n      dup2\n        /* \"#utility.yul\":11054:11084   */\n      gt\n        /* \"#utility.yul\":11051:11168   */\n      iszero\n      tag_356\n      jumpi\n        /* \"#utility.yul\":11087:11166   */\n      tag_357\n      tag_178\n      jump\t// in\n    tag_357:\n        /* \"#utility.yul\":11051:11168   */\n    tag_356:\n        /* \"#utility.yul\":11207:11312   */\n      tag_358\n        /* \"#utility.yul\":11308:11311   */\n      dup5\n        /* \"#utility.yul\":11299:11305   */\n      dup3\n        /* \"#utility.yul\":11288:11297   */\n      dup6\n        /* \"#utility.yul\":11284:11306   */\n      add\n        /* \"#utility.yul\":11207:11312   */\n      tag_198\n      jump\t// in\n    tag_358:\n        /* \"#utility.yul\":11200:11204   */\n      0x80\n        /* \"#utility.yul\":11193:11198   */\n      dup4\n        /* \"#utility.yul\":11189:11205   */\n      add\n        /* \"#utility.yul\":11182:11313   */\n      mstore\n        /* \"#utility.yul\":10944:11324   */\n      pop\n        /* \"#utility.yul\":9680:11331   */\n      swap3\n      swap2\n      pop\n      pop\n      jump\t// out\n        /* \"#utility.yul\":11337:11566   */\n    tag_56:\n        /* \"#utility.yul\":11451:11460   */\n      0x00\n        /* \"#utility.yul\":11485:11559   */\n      tag_360\n        /* \"#utility.yul\":11544:11558   */\n      calldatasize\n        /* \"#utility.yul\":11537:11542   */\n      dup4\n        /* \"#utility.yul\":11485:11559   */\n      tag_199\n      jump\t// in\n    tag_360:\n        /* \"#utility.yul\":11472:11559   */\n      swap1\n      pop\n        /* \"#utility.yul\":11337:11566   */\n      swap2\n      swap1\n      pop\n      jump\t// out\n        /* \"#utility.yul\":11572:11715   */\n    tag_200:\n        /* \"#utility.yul\":11629:11634   */\n      0x00\n        /* \"#utility.yul\":11660:11666   */\n      dup2\n        /* \"#utility.yul\":11654:11667   */\n      mload\n        /* \"#utility.yul\":11645:11667   */\n      swap1\n      pop\n        /* \"#utility.yul\":11676:11709   */\n      tag_362\n        /* \"#utility.yul\":11703:11708   */\n      dup2\n        /* \"#utility.yul\":11676:11709   */\n      tag_194\n      jump\t// in\n    tag_362:\n        /* \"#utility.yul\":11572:11715   */\n      swap3\n      swap2\n      pop\n      pop\n      jump\t// out\n        /* \"#utility.yul\":11721:12072   */\n    tag_65:\n        /* \"#utility.yul\":11791:11797   */\n      0x00\n        /* \"#utility.yul\":11840:11842   */\n      0x20\n        /* \"#utility.yul\":11828:11837   */\n      dup3\n        /* \"#utility.yul\":11819:11826   */\n      dup5\n        /* \"#utility.yul\":11815:11838   */\n      sub\n        /* \"#utility.yul\":11811:11843   */\n      slt\n        /* \"#utility.yul\":11808:11927   */\n      iszero\n      tag_364\n      jumpi\n        /* \"#utility.yul\":11846:11925   */\n      tag_365\n      tag_159\n      jump\t// in\n    tag_365:\n        /* \"#utility.yul\":11808:11927   */\n    tag_364:\n        /* \"#utility.yul\":11966:11967   */\n      0x00\n        /* \"#utility.yul\":11991:12055   */\n      tag_366\n        /* \"#utility.yul\":12047:12054   */\n      dup5\n        /* \"#utility.yul\":12038:12044   */\n      dup3\n        /* \"#utility.yul\":12027:12036   */\n      dup6\n        /* \"#utility.yul\":12023:12045   */\n      add\n        /* \"#utility.yul\":11991:12055   */\n      tag_200\n      jump\t// in\n    tag_366:\n        /* \"#utility.yul\":11981:12055   */\n      swap2\n      pop\n        /* \"#utility.yul\":11937:12065   */\n      pop\n        /* \"#utility.yul\":11721:12072   */\n      swap3\n      swap2\n      pop\n      pop\n      jump\t// out\n        /* \"#utility.yul\":12078:12182   */\n    tag_201:\n        /* \"#utility.yul\":12123:12130   */\n      0x00\n        /* \"#utility.yul\":12152:12176   */\n      tag_368\n        /* \"#utility.yul\":12170:12175   */\n      dup3\n        /* \"#utility.yul\":12152:12176   */\n      tag_168\n      jump\t// in\n    tag_368:\n        /* \"#utility.yul\":12141:12176   */\n      swap1\n      pop\n        /* \"#utility.yul\":12078:12182   */\n      swap2\n      swap1\n      pop\n      jump\t// out\n        /* \"#utility.yul\":12188:12326   */\n    tag_202:\n        /* \"#utility.yul\":12269:12301   */\n      tag_370\n        /* \"#utility.yul\":12295:12300   */\n      dup2\n        /* \"#utility.yul\":12269:12301   */\n      tag_201\n      jump\t// in\n    tag_370:\n        /* \"#utility.yul\":12262:12267   */\n      dup2\n        /* \"#utility.yul\":12259:12302   */\n      eq\n        /* \"#utility.yul\":12249:12320   */\n      tag_371\n      jumpi\n        /* \"#utility.yul\":12316:12317   */\n      0x00\n        /* \"#utility.yul\":12313:12314   */\n      0x00\n        /* \"#utility.yul\":12306:12318   */\n      revert\n        /* \"#utility.yul\":12249:12320   */\n    tag_371:\n        /* \"#utility.yul\":12188:12326   */\n      pop\n      jump\t// out\n        /* \"#utility.yul\":12332:12491   */\n    tag_203:\n        /* \"#utility.yul\":12397:12402   */\n      0x00\n        /* \"#utility.yul\":12428:12434   */\n      dup2\n        /* \"#utility.yul\":12422:12435   */\n      mload\n        /* \"#utility.yul\":12413:12435   */\n      swap1\n      pop\n        /* \"#utility.yul\":12444:12485   */\n      tag_373\n        /* \"#utility.yul\":12479:12484   */\n      dup2\n        /* \"#utility.yul\":12444:12485   */\n      tag_202\n      jump\t// in\n    tag_373:\n        /* \"#utility.yul\":12332:12491   */\n      swap3\n      swap2\n      pop\n      pop\n      jump\t// out\n        /* \"#utility.yul\":12497:12864   */\n    tag_89:\n        /* \"#utility.yul\":12575:12581   */\n      0x00\n        /* \"#utility.yul\":12624:12626   */\n      0x20\n        /* \"#utility.yul\":12612:12621   */\n      dup3\n        /* \"#utility.yul\":12603:12610   */\n      dup5\n        /* \"#utility.yul\":12599:12622   */\n      sub\n        /* \"#utility.yul\":12595:12627   */\n      slt\n        /* \"#utility.yul\":12592:12711   */\n      iszero\n      tag_375\n      jumpi\n        /* \"#utility.yul\":12630:12709   */\n      tag_376\n      tag_159\n      jump\t// in\n    tag_376:\n        /* \"#utility.yul\":12592:12711   */\n    tag_375:\n        /* \"#utility.yul\":12750:12751   */\n      0x00\n        /* \"#utility.yul\":12775:12847   */\n      tag_377\n        /* \"#utility.yul\":12839:12846   */\n      dup5\n        /* \"#utility.yul\":12830:12836   */\n      dup3\n        /* \"#utility.yul\":12819:12828   */\n      dup6\n        /* \"#utility.yul\":12815:12837   */\n      add\n        /* \"#utility.yul\":12775:12847   */\n      tag_203\n      jump\t// in\n    tag_377:\n        /* \"#utility.yul\":12765:12847   */\n      swap2\n      pop\n        /* \"#utility.yul\":12721:12857   */\n      pop\n        /* \"#utility.yul\":12497:12864   */\n      swap3\n      swap2\n      pop\n      pop\n      jump\t// out\n        /* \"#utility.yul\":12870:12985   */\n    tag_204:\n        /* \"#utility.yul\":12955:12978   */\n      tag_379\n        /* \"#utility.yul\":12972:12977   */\n      dup2\n        /* \"#utility.yul\":12955:12978   */\n      tag_182\n      jump\t// in\n    tag_379:\n        /* \"#utility.yul\":12950:12953   */\n      dup3\n        /* \"#utility.yul\":12943:12979   */\n      mstore\n        /* \"#utility.yul\":12870:12985   */\n      pop\n      pop\n      jump\t// out\n        /* \"#utility.yul\":12991:13319   */\n    tag_95:\n        /* \"#utility.yul\":13110:13114   */\n      0x00\n        /* \"#utility.yul\":13148:13150   */\n      0x40\n        /* \"#utility.yul\":13137:13146   */\n      dup3\n        /* \"#utility.yul\":13133:13151   */\n      add\n        /* \"#utility.yul\":13125:13151   */\n      swap1\n      pop\n        /* \"#utility.yul\":13161:13230   */\n      tag_381\n        /* \"#utility.yul\":13227:13228   */\n      0x00\n        /* \"#utility.yul\":13216:13225   */\n      dup4\n        /* \"#utility.yul\":13212:13229   */\n      add\n        /* \"#utility.yul\":13203:13209   */\n      dup6\n        /* \"#utility.yul\":13161:13230   */\n      tag_204\n      jump\t// in\n    tag_381:\n        /* \"#utility.yul\":13240:13312   */\n      tag_382\n        /* \"#utility.yul\":13308:13310   */\n      0x20\n        /* \"#utility.yul\":13297:13306   */\n      dup4\n        /* \"#utility.yul\":13293:13311   */\n      add\n        /* \"#utility.yul\":13284:13290   */\n      dup5\n        /* \"#utility.yul\":13240:13312   */\n      tag_172\n      jump\t// in\n    tag_382:\n        /* \"#utility.yul\":12991:13319   */\n      swap4\n      swap3\n      pop\n      pop\n      pop\n      jump\t// out\n        /* \"#utility.yul\":13325:13464   */\n    tag_205:\n        /* \"#utility.yul\":13414:13420   */\n      dup3\n        /* \"#utility.yul\":13409:13412   */\n      dup2\n        /* \"#utility.yul\":13404:13407   */\n      dup4\n        /* \"#utility.yul\":13398:13421   */\n      mcopy\n        /* \"#utility.yul\":13455:13456   */\n      0x00\n        /* \"#utility.yul\":13446:13452   */\n      dup4\n        /* \"#utility.yul\":13441:13444   */\n      dup4\n        /* \"#utility.yul\":13437:13453   */\n      add\n        /* \"#utility.yul\":13430:13457   */\n      mstore\n        /* \"#utility.yul\":13325:13464   */\n      pop\n      pop\n      pop\n      jump\t// out\n        /* \"#utility.yul\":13470:13902   */\n    tag_206:\n        /* \"#utility.yul\":13558:13563   */\n      0x00\n        /* \"#utility.yul\":13583:13648   */\n      tag_385\n        /* \"#utility.yul\":13599:13647   */\n      tag_386\n        /* \"#utility.yul\":13640:13646   */\n      dup5\n        /* \"#utility.yul\":13599:13647   */\n      tag_187\n      jump\t// in\n    tag_386:\n        /* \"#utility.yul\":13583:13648   */\n      tag_177\n      jump\t// in\n    tag_385:\n        /* \"#utility.yul\":13574:13648   */\n      swap1\n      pop\n        /* \"#utility.yul\":13671:13677   */\n      dup3\n        /* \"#utility.yul\":13664:13669   */\n      dup2\n        /* \"#utility.yul\":13657:13678   */\n      mstore\n        /* \"#utility.yul\":13709:13713   */\n      0x20\n        /* \"#utility.yul\":13702:13707   */\n      dup2\n        /* \"#utility.yul\":13698:13714   */\n      add\n        /* \"#utility.yul\":13747:13750   */\n      dup5\n        /* \"#utility.yul\":13738:13744   */\n      dup5\n        /* \"#utility.yul\":13733:13736   */\n      dup5\n        /* \"#utility.yul\":13729:13745   */\n      add\n        /* \"#utility.yul\":13726:13751   */\n      gt\n        /* \"#utility.yul\":13723:13835   */\n      iszero\n      tag_387\n      jumpi\n        /* \"#utility.yul\":13754:13833   */\n      tag_388\n      tag_186\n      jump\t// in\n    tag_388:\n        /* \"#utility.yul\":13723:13835   */\n    tag_387:\n        /* \"#utility.yul\":13844:13896   */\n      tag_389\n        /* \"#utility.yul\":13889:13895   */\n      dup5\n        /* \"#utility.yul\":13884:13887   */\n      dup3\n        /* \"#utility.yul\":13879:13882   */\n      dup6\n        /* \"#utility.yul\":13844:13896   */\n      tag_205\n      jump\t// in\n    tag_389:\n        /* \"#utility.yul\":13564:13902   */\n      pop\n        /* \"#utility.yul\":13470:13902   */\n      swap4\n      swap3\n      pop\n      pop\n      pop\n      jump\t// out\n        /* \"#utility.yul\":13921:14274   */\n    tag_207:\n        /* \"#utility.yul\":13987:13992   */\n      0x00\n        /* \"#utility.yul\":14036:14039   */\n      dup3\n        /* \"#utility.yul\":14029:14033   */\n      0x1f\n        /* \"#utility.yul\":14021:14027   */\n      dup4\n        /* \"#utility.yul\":14017:14034   */\n      add\n        /* \"#utility.yul\":14013:14040   */\n      slt\n        /* \"#utility.yul\":14003:14125   */\n      tag_391\n      jumpi\n        /* \"#utility.yul\":14044:14123   */\n      tag_392\n      tag_185\n      jump\t// in\n    tag_392:\n        /* \"#utility.yul\":14003:14125   */\n    tag_391:\n        /* \"#utility.yul\":14154:14160   */\n      dup2\n        /* \"#utility.yul\":14148:14161   */\n      mload\n        /* \"#utility.yul\":14179:14268   */\n      tag_393\n        /* \"#utility.yul\":14264:14267   */\n      dup5\n        /* \"#utility.yul\":14256:14262   */\n      dup3\n        /* \"#utility.yul\":14249:14253   */\n      0x20\n        /* \"#utility.yul\":14241:14247   */\n      dup7\n        /* \"#utility.yul\":14237:14254   */\n      add\n        /* \"#utility.yul\":14179:14268   */\n      tag_206\n      jump\t// in\n    tag_393:\n        /* \"#utility.yul\":14170:14268   */\n      swap2\n      pop\n        /* \"#utility.yul\":13993:14274   */\n      pop\n        /* \"#utility.yul\":13921:14274   */\n      swap3\n      swap2\n      pop\n      pop\n      jump\t// out\n        /* \"#utility.yul\":14280:14974   */\n    tag_98:\n        /* \"#utility.yul\":14376:14382   */\n      0x00\n        /* \"#utility.yul\":14384:14390   */\n      0x00\n        /* \"#utility.yul\":14433:14435   */\n      0x40\n        /* \"#utility.yul\":14421:14430   */\n      dup4\n        /* \"#utility.yul\":14412:14419   */\n      dup6\n        /* \"#utility.yul\":14408:14431   */\n      sub\n        /* \"#utility.yul\":14404:14436   */\n      slt\n        /* \"#utility.yul\":14401:14520   */\n      iszero\n      tag_395\n      jumpi\n        /* \"#utility.yul\":14439:14518   */\n      tag_396\n      tag_159\n      jump\t// in\n    tag_396:\n        /* \"#utility.yul\":14401:14520   */\n    tag_395:\n        /* \"#utility.yul\":14559:14560   */\n      0x00\n        /* \"#utility.yul\":14584:14656   */\n      tag_397\n        /* \"#utility.yul\":14648:14655   */\n      dup6\n        /* \"#utility.yul\":14639:14645   */\n      dup3\n        /* \"#utility.yul\":14628:14637   */\n      dup7\n        /* \"#utility.yul\":14624:14646   */\n      add\n        /* \"#utility.yul\":14584:14656   */\n      tag_203\n      jump\t// in\n    tag_397:\n        /* \"#utility.yul\":14574:14656   */\n      swap3\n      pop\n        /* \"#utility.yul\":14530:14666   */\n      pop\n        /* \"#utility.yul\":14726:14728   */\n      0x20\n        /* \"#utility.yul\":14715:14724   */\n      dup4\n        /* \"#utility.yul\":14711:14729   */\n      add\n        /* \"#utility.yul\":14705:14730   */\n      mload\n        /* \"#utility.yul\":14757:14775   */\n      0xffffffffffffffff\n        /* \"#utility.yul\":14749:14755   */\n      dup2\n        /* \"#utility.yul\":14746:14776   */\n      gt\n        /* \"#utility.yul\":14743:14860   */\n      iszero\n      tag_398\n      jumpi\n        /* \"#utility.yul\":14779:14858   */\n      tag_399\n      tag_160\n      jump\t// in\n    tag_399:\n        /* \"#utility.yul\":14743:14860   */\n    tag_398:\n        /* \"#utility.yul\":14884:14957   */\n      tag_400\n        /* \"#utility.yul\":14949:14956   */\n      dup6\n        /* \"#utility.yul\":14940:14946   */\n      dup3\n        /* \"#utility.yul\":14929:14938   */\n      dup7\n        /* \"#utility.yul\":14925:14947   */\n      add\n        /* \"#utility.yul\":14884:14957   */\n      tag_207\n      jump\t// in\n    tag_400:\n        /* \"#utility.yul\":14874:14957   */\n      swap2\n      pop\n        /* \"#utility.yul\":14676:14967   */\n      pop\n        /* \"#utility.yul\":14280:14974   */\n      swap3\n      pop\n      swap3\n      swap1\n      pop\n      jump\t// out\n        /* \"#utility.yul\":14980:15078   */\n    tag_208:\n        /* \"#utility.yul\":15031:15037   */\n      0x00\n        /* \"#utility.yul\":15065:15070   */\n      dup2\n        /* \"#utility.yul\":15059:15071   */\n      mload\n        /* \"#utility.yul\":15049:15071   */\n      swap1\n      pop\n        /* \"#utility.yul\":14980:15078   */\n      swap2\n      swap1\n      pop\n      jump\t// out\n        /* \"#utility.yul\":15084:15231   */\n    tag_209:\n        /* \"#utility.yul\":15185:15196   */\n      0x00\n        /* \"#utility.yul\":15222:15225   */\n      dup2\n        /* \"#utility.yul\":15207:15225   */\n      swap1\n      pop\n        /* \"#utility.yul\":15084:15231   */\n      swap3\n      swap2\n      pop\n      pop\n      jump\t// out\n        /* \"#utility.yul\":15237:15623   */\n    tag_210:\n        /* \"#utility.yul\":15341:15344   */\n      0x00\n        /* \"#utility.yul\":15369:15407   */\n      tag_404\n        /* \"#utility.yul\":15401:15406   */\n      dup3\n        /* \"#utility.yul\":15369:15407   */\n      tag_208\n      jump\t// in\n    tag_404:\n        /* \"#utility.yul\":15423:15511   */\n      tag_405\n        /* \"#utility.yul\":15504:15510   */\n      dup2\n        /* \"#utility.yul\":15499:15502   */\n      dup6\n        /* \"#utility.yul\":15423:15511   */\n      tag_209\n      jump\t// in\n    tag_405:\n        /* \"#utility.yul\":15416:15511   */\n      swap4\n      pop\n        /* \"#utility.yul\":15520:15585   */\n      tag_406\n        /* \"#utility.yul\":15578:15584   */\n      dup2\n        /* \"#utility.yul\":15573:15576   */\n      dup6\n        /* \"#utility.yul\":15566:15570   */\n      0x20\n        /* \"#utility.yul\":15559:15564   */\n      dup7\n        /* \"#utility.yul\":15555:15571   */\n      add\n        /* \"#utility.yul\":15520:15585   */\n      tag_205\n      jump\t// in\n    tag_406:\n        /* \"#utility.yul\":15610:15616   */\n      dup1\n        /* \"#utility.yul\":15605:15608   */\n      dup5\n        /* \"#utility.yul\":15601:15617   */\n      add\n        /* \"#utility.yul\":15594:15617   */\n      swap2\n      pop\n        /* \"#utility.yul\":15345:15623   */\n      pop\n        /* \"#utility.yul\":15237:15623   */\n      swap3\n      swap2\n      pop\n      pop\n      jump\t// out\n        /* \"#utility.yul\":15629:15900   */\n    tag_100:\n        /* \"#utility.yul\":15759:15762   */\n      0x00\n        /* \"#utility.yul\":15781:15874   */\n      tag_408\n        /* \"#utility.yul\":15870:15873   */\n      dup3\n        /* \"#utility.yul\":15861:15867   */\n      dup5\n        /* \"#utility.yul\":15781:15874   */\n      tag_210\n      jump\t// in\n    tag_408:\n        /* \"#utility.yul\":15774:15874   */\n      swap2\n      pop\n        /* \"#utility.yul\":15891:15894   */\n      dup2\n        /* \"#utility.yul\":15884:15894   */\n      swap1\n      pop\n        /* \"#utility.yul\":15629:15900   */\n      swap3\n      swap2\n      pop\n      pop\n      jump\t// out\n        /* \"#utility.yul\":15906:16086   */\n    tag_108:\n        /* \"#utility.yul\":15954:16031   */\n      0x4e487b7100000000000000000000000000000000000000000000000000000000\n        /* \"#utility.yul\":15951:15952   */\n      0x00\n        /* \"#utility.yul\":15944:16032   */\n      mstore\n        /* \"#utility.yul\":16051:16055   */\n      0x32\n        /* \"#utility.yul\":16048:16049   */\n      0x04\n        /* \"#utility.yul\":16041:16056   */\n      mstore\n        /* \"#utility.yul\":16075:16079   */\n      0x24\n        /* \"#utility.yul\":16072:16073   */\n      0x00\n        /* \"#utility.yul\":16065:16080   */\n      revert\n        /* \"#utility.yul\":16092:16152   */\n    tag_211:\n        /* \"#utility.yul\":16120:16123   */\n      0x00\n        /* \"#utility.yul\":16141:16146   */\n      dup2\n        /* \"#utility.yul\":16134:16146   */\n      swap1\n      pop\n        /* \"#utility.yul\":16092:16152   */\n      swap2\n      swap1\n      pop\n      jump\t// out\n        /* \"#utility.yul\":16158:16300   */\n    tag_212:\n        /* \"#utility.yul\":16208:16217   */\n      0x00\n        /* \"#utility.yul\":16241:16294   */\n      tag_412\n        /* \"#utility.yul\":16259:16293   */\n      tag_413\n        /* \"#utility.yul\":16268:16292   */\n      tag_414\n        /* \"#utility.yul\":16286:16291   */\n      dup5\n        /* \"#utility.yul\":16268:16292   */\n      tag_168\n      jump\t// in\n    tag_414:\n        /* \"#utility.yul\":16259:16293   */\n      tag_211\n      jump\t// in\n    tag_413:\n        /* \"#utility.yul\":16241:16294   */\n      tag_168\n      jump\t// in\n    tag_412:\n        /* \"#utility.yul\":16228:16294   */\n      swap1\n      pop\n        /* \"#utility.yul\":16158:16300   */\n      swap2\n      swap1\n      pop\n      jump\t// out\n        /* \"#utility.yul\":16306:16432   */\n    tag_213:\n        /* \"#utility.yul\":16356:16365   */\n      0x00\n        /* \"#utility.yul\":16389:16426   */\n      tag_416\n        /* \"#utility.yul\":16420:16425   */\n      dup3\n        /* \"#utility.yul\":16389:16426   */\n      tag_212\n      jump\t// in\n    tag_416:\n        /* \"#utility.yul\":16376:16426   */\n      swap1\n      pop\n        /* \"#utility.yul\":16306:16432   */\n      swap2\n      swap1\n      pop\n      jump\t// out\n        /* \"#utility.yul\":16438:16572   */\n    tag_214:\n        /* \"#utility.yul\":16496:16505   */\n      0x00\n        /* \"#utility.yul\":16529:16566   */\n      tag_418\n        /* \"#utility.yul\":16560:16565   */\n      dup3\n        /* \"#utility.yul\":16529:16566   */\n      tag_213\n      jump\t// in\n    tag_418:\n        /* \"#utility.yul\":16516:16566   */\n      swap1\n      pop\n        /* \"#utility.yul\":16438:16572   */\n      swap2\n      swap1\n      pop\n      jump\t// out\n        /* \"#utility.yul\":16578:16725   */\n    tag_215:\n        /* \"#utility.yul\":16673:16718   */\n      tag_420\n        /* \"#utility.yul\":16712:16717   */\n      dup2\n        /* \"#utility.yul\":16673:16718   */\n      tag_214\n      jump\t// in\n    tag_420:\n        /* \"#utility.yul\":16668:16671   */\n      dup3\n        /* \"#utility.yul\":16661:16719   */\n      mstore\n        /* \"#utility.yul\":16578:16725   */\n      pop\n      pop\n      jump\t// out\n        /* \"#utility.yul\":16731:16899   */\n    tag_216:\n        /* \"#utility.yul\":16814:16825   */\n      0x00\n        /* \"#utility.yul\":16848:16854   */\n      dup3\n        /* \"#utility.yul\":16843:16846   */\n      dup3\n        /* \"#utility.yul\":16836:16855   */\n      mstore\n        /* \"#utility.yul\":16888:16892   */\n      0x20\n        /* \"#utility.yul\":16883:16886   */\n      dup3\n        /* \"#utility.yul\":16879:16893   */\n      add\n        /* \"#utility.yul\":16864:16893   */\n      swap1\n      pop\n        /* \"#utility.yul\":16731:16899   */\n      swap3\n      swap2\n      pop\n      pop\n      jump\t// out\n        /* \"#utility.yul\":16905:17278   */\n    tag_217:\n        /* \"#utility.yul\":16991:16994   */\n      0x00\n        /* \"#utility.yul\":17019:17057   */\n      tag_423\n        /* \"#utility.yul\":17051:17056   */\n      dup3\n        /* \"#utility.yul\":17019:17057   */\n      tag_208\n      jump\t// in\n    tag_423:\n        /* \"#utility.yul\":17073:17143   */\n      tag_424\n        /* \"#utility.yul\":17136:17142   */\n      dup2\n        /* \"#utility.yul\":17131:17134   */\n      dup6\n        /* \"#utility.yul\":17073:17143   */\n      tag_216\n      jump\t// in\n    tag_424:\n        /* \"#utility.yul\":17066:17143   */\n      swap4\n      pop\n        /* \"#utility.yul\":17152:17217   */\n      tag_425\n        /* \"#utility.yul\":17210:17216   */\n      dup2\n        /* \"#utility.yul\":17205:17208   */\n      dup6\n        /* \"#utility.yul\":17198:17202   */\n      0x20\n        /* \"#utility.yul\":17191:17196   */\n      dup7\n        /* \"#utility.yul\":17187:17203   */\n      add\n        /* \"#utility.yul\":17152:17217   */\n      tag_205\n      jump\t// in\n    tag_425:\n        /* \"#utility.yul\":17242:17271   */\n      tag_426\n        /* \"#utility.yul\":17264:17270   */\n      dup2\n        /* \"#utility.yul\":17242:17271   */\n      tag_174\n      jump\t// in\n    tag_426:\n        /* \"#utility.yul\":17237:17240   */\n      dup5\n        /* \"#utility.yul\":17233:17272   */\n      add\n        /* \"#utility.yul\":17226:17272   */\n      swap2\n      pop\n        /* \"#utility.yul\":16995:17278   */\n      pop\n        /* \"#utility.yul\":16905:17278   */\n      swap3\n      swap2\n      pop\n      pop\n      jump\t// out\n        /* \"#utility.yul\":17284:17402   */\n    tag_218:\n        /* \"#utility.yul\":17371:17395   */\n      tag_428\n        /* \"#utility.yul\":17389:17394   */\n      dup2\n        /* \"#utility.yul\":17371:17395   */\n      tag_193\n      jump\t// in\n    tag_428:\n        /* \"#utility.yul\":17366:17369   */\n      dup3\n        /* \"#utility.yul\":17359:17396   */\n      mstore\n        /* \"#utility.yul\":17284:17402   */\n      pop\n      pop\n      jump\t// out\n        /* \"#utility.yul\":17408:18064   */\n    tag_112:\n        /* \"#utility.yul\":17611:17615   */\n      0x00\n        /* \"#utility.yul\":17649:17652   */\n      0x80\n        /* \"#utility.yul\":17638:17647   */\n      dup3\n        /* \"#utility.yul\":17634:17653   */\n      add\n        /* \"#utility.yul\":17626:17653   */\n      swap1\n      pop\n        /* \"#utility.yul\":17663:17742   */\n      tag_430\n        /* \"#utility.yul\":17739:17740   */\n      0x00\n        /* \"#utility.yul\":17728:17737   */\n      dup4\n        /* \"#utility.yul\":17724:17741   */\n      add\n        /* \"#utility.yul\":17715:17721   */\n      dup8\n        /* \"#utility.yul\":17663:17742   */\n      tag_215\n      jump\t// in\n    tag_430:\n        /* \"#utility.yul\":17789:17798   */\n      dup2\n        /* \"#utility.yul\":17783:17787   */\n      dup2\n        /* \"#utility.yul\":17779:17799   */\n      sub\n        /* \"#utility.yul\":17774:17776   */\n      0x20\n        /* \"#utility.yul\":17763:17772   */\n      dup4\n        /* \"#utility.yul\":17759:17777   */\n      add\n        /* \"#utility.yul\":17752:17800   */\n      mstore\n        /* \"#utility.yul\":17817:17893   */\n      tag_431\n        /* \"#utility.yul\":17888:17892   */\n      dup2\n        /* \"#utility.yul\":17879:17885   */\n      dup7\n        /* \"#utility.yul\":17817:17893   */\n      tag_217\n      jump\t// in\n    tag_431:\n        /* \"#utility.yul\":17809:17893   */\n      swap1\n      pop\n        /* \"#utility.yul\":17903:17975   */\n      tag_432\n        /* \"#utility.yul\":17971:17973   */\n      0x40\n        /* \"#utility.yul\":17960:17969   */\n      dup4\n        /* \"#utility.yul\":17956:17974   */\n      add\n        /* \"#utility.yul\":17947:17953   */\n      dup6\n        /* \"#utility.yul\":17903:17975   */\n      tag_172\n      jump\t// in\n    tag_432:\n        /* \"#utility.yul\":17985:18057   */\n      tag_433\n        /* \"#utility.yul\":18053:18055   */\n      0x60\n        /* \"#utility.yul\":18042:18051   */\n      dup4\n        /* \"#utility.yul\":18038:18056   */\n      add\n        /* \"#utility.yul\":18029:18035   */\n      dup5\n        /* \"#utility.yul\":17985:18057   */\n      tag_218\n      jump\t// in\n    tag_433:\n        /* \"#utility.yul\":17408:18064   */\n      swap6\n      swap5\n      pop\n      pop\n      pop\n      pop\n      pop\n      jump\t// out\n        /* \"#utility.yul\":18070:18402   */\n    tag_116:\n        /* \"#utility.yul\":18191:18195   */\n      0x00\n        /* \"#utility.yul\":18229:18231   */\n      0x40\n        /* \"#utility.yul\":18218:18227   */\n      dup3\n        /* \"#utility.yul\":18214:18232   */\n      add\n        /* \"#utility.yul\":18206:18232   */\n      swap1\n      pop\n        /* \"#utility.yul\":18242:18313   */\n      tag_435\n        /* \"#utility.yul\":18310:18311   */\n      0x00\n        /* \"#utility.yul\":18299:18308   */\n      dup4\n        /* \"#utility.yul\":18295:18312   */\n      add\n        /* \"#utility.yul\":18286:18292   */\n      dup6\n        /* \"#utility.yul\":18242:18313   */\n      tag_172\n      jump\t// in\n    tag_435:\n        /* \"#utility.yul\":18323:18395   */\n      tag_436\n        /* \"#utility.yul\":18391:18393   */\n      0x20\n        /* \"#utility.yul\":18380:18389   */\n      dup4\n        /* \"#utility.yul\":18376:18394   */\n      add\n        /* \"#utility.yul\":18367:18373   */\n      dup5\n        /* \"#utility.yul\":18323:18395   */\n      tag_218\n      jump\t// in\n    tag_436:\n        /* \"#utility.yul\":18070:18402   */\n      swap4\n      swap3\n      pop\n      pop\n      pop\n      jump\t// out\n        /* \"#utility.yul\":18408:18524   */\n    tag_219:\n        /* \"#utility.yul\":18478:18499   */\n      tag_438\n        /* \"#utility.yul\":18493:18498   */\n      dup2\n        /* \"#utility.yul\":18478:18499   */\n      tag_164\n      jump\t// in\n    tag_438:\n        /* \"#utility.yul\":18471:18476   */\n      dup2\n        /* \"#utility.yul\":18468:18500   */\n      eq\n        /* \"#utility.yul\":18458:18518   */\n      tag_439\n      jumpi\n        /* \"#utility.yul\":18514:18515   */\n      0x00\n        /* \"#utility.yul\":18511:18512   */\n      0x00\n        /* \"#utility.yul\":18504:18516   */\n      revert\n        /* \"#utility.yul\":18458:18518   */\n    tag_439:\n        /* \"#utility.yul\":18408:18524   */\n      pop\n      jump\t// out\n        /* \"#utility.yul\":18530:18667   */\n    tag_220:\n        /* \"#utility.yul\":18584:18589   */\n      0x00\n        /* \"#utility.yul\":18615:18621   */\n      dup2\n        /* \"#utility.yul\":18609:18622   */\n      mload\n        /* \"#utility.yul\":18600:18622   */\n      swap1\n      pop\n        /* \"#utility.yul\":18631:18661   */\n      tag_441\n        /* \"#utility.yul\":18655:18660   */\n      dup2\n        /* \"#utility.yul\":18631:18661   */\n      tag_219\n      jump\t// in\n    tag_441:\n        /* \"#utility.yul\":18530:18667   */\n      swap3\n      swap2\n      pop\n      pop\n      jump\t// out\n        /* \"#utility.yul\":18673:19018   */\n    tag_124:\n        /* \"#utility.yul\":18740:18746   */\n      0x00\n        /* \"#utility.yul\":18789:18791   */\n      0x20\n        /* \"#utility.yul\":18777:18786   */\n      dup3\n        /* \"#utility.yul\":18768:18775   */\n      dup5\n        /* \"#utility.yul\":18764:18787   */\n      sub\n        /* \"#utility.yul\":18760:18792   */\n      slt\n        /* \"#utility.yul\":18757:18876   */\n      iszero\n      tag_443\n      jumpi\n        /* \"#utility.yul\":18795:18874   */\n      tag_444\n      tag_159\n      jump\t// in\n    tag_444:\n        /* \"#utility.yul\":18757:18876   */\n    tag_443:\n        /* \"#utility.yul\":18915:18916   */\n      0x00\n        /* \"#utility.yul\":18940:19001   */\n      tag_445\n        /* \"#utility.yul\":18993:19000   */\n      dup5\n        /* \"#utility.yul\":18984:18990   */\n      dup3\n        /* \"#utility.yul\":18973:18982   */\n      dup6\n        /* \"#utility.yul\":18969:18991   */\n      add\n        /* \"#utility.yul\":18940:19001   */\n      tag_220\n      jump\t// in\n    tag_445:\n        /* \"#utility.yul\":18930:19001   */\n      swap2\n      pop\n        /* \"#utility.yul\":18886:19011   */\n      pop\n        /* \"#utility.yul\":18673:19018   */\n      swap3\n      swap2\n      pop\n      pop\n      jump\t// out\n        /* \"#utility.yul\":19024:19193   */\n    tag_221:\n        /* \"#utility.yul\":19108:19119   */\n      0x00\n        /* \"#utility.yul\":19142:19148   */\n      dup3\n        /* \"#utility.yul\":19137:19140   */\n      dup3\n        /* \"#utility.yul\":19130:19149   */\n      mstore\n        /* \"#utility.yul\":19182:19186   */\n      0x20\n        /* \"#utility.yul\":19177:19180   */\n      dup3\n        /* \"#utility.yul\":19173:19187   */\n      add\n        /* \"#utility.yul\":19158:19187   */\n      swap1\n      pop\n        /* \"#utility.yul\":19024:19193   */\n      swap3\n      swap2\n      pop\n      pop\n      jump\t// out\n        /* \"#utility.yul\":19199:19428   */\n    tag_222:\n        /* \"#utility.yul\":19339:19373   */\n      0x5361666545524332303a204552433230206f7065726174696f6e20646964206e\n        /* \"#utility.yul\":19335:19336   */\n      0x00\n        /* \"#utility.yul\":19327:19333   */\n      dup3\n        /* \"#utility.yul\":19323:19337   */\n      add\n        /* \"#utility.yul\":19316:19374   */\n      mstore\n        /* \"#utility.yul\":19408:19420   */\n      0x6f74207375636365656400000000000000000000000000000000000000000000\n        /* \"#utility.yul\":19403:19405   */\n      0x20\n        /* \"#utility.yul\":19395:19401   */\n      dup3\n        /* \"#utility.yul\":19391:19406   */\n      add\n        /* \"#utility.yul\":19384:19421   */\n      mstore\n        /* \"#utility.yul\":19199:19428   */\n      pop\n      jump\t// out\n        /* \"#utility.yul\":19434:19800   */\n    tag_223:\n        /* \"#utility.yul\":19576:19579   */\n      0x00\n        /* \"#utility.yul\":19597:19664   */\n      tag_449\n        /* \"#utility.yul\":19661:19663   */\n      0x2a\n        /* \"#utility.yul\":19656:19659   */\n      dup4\n        /* \"#utility.yul\":19597:19664   */\n      tag_221\n      jump\t// in\n    tag_449:\n        /* \"#utility.yul\":19590:19664   */\n      swap2\n      pop\n        /* \"#utility.yul\":19673:19766   */\n      tag_450\n        /* \"#utility.yul\":19762:19765   */\n      dup3\n        /* \"#utility.yul\":19673:19766   */\n      tag_222\n      jump\t// in\n    tag_450:\n        /* \"#utility.yul\":19791:19793   */\n      0x40\n        /* \"#utility.yul\":19786:19789   */\n      dup3\n        /* \"#utility.yul\":19782:19794   */\n      add\n        /* \"#utility.yul\":19775:19794   */\n      swap1\n      pop\n        /* \"#utility.yul\":19434:19800   */\n      swap2\n      swap1\n      pop\n      jump\t// out\n        /* \"#utility.yul\":19806:20225   */\n    tag_127:\n        /* \"#utility.yul\":19972:19976   */\n      0x00\n        /* \"#utility.yul\":20010:20012   */\n      0x20\n        /* \"#utility.yul\":19999:20008   */\n      dup3\n        /* \"#utility.yul\":19995:20013   */\n      add\n        /* \"#utility.yul\":19987:20013   */\n      swap1\n      pop\n        /* \"#utility.yul\":20059:20068   */\n      dup2\n        /* \"#utility.yul\":20053:20057   */\n      dup2\n        /* \"#utility.yul\":20049:20069   */\n      sub\n        /* \"#utility.yul\":20045:20046   */\n      0x00\n        /* \"#utility.yul\":20034:20043   */\n      dup4\n        /* \"#utility.yul\":20030:20047   */\n      add\n        /* \"#utility.yul\":20023:20070   */\n      mstore\n        /* \"#utility.yul\":20087:20218   */\n      tag_452\n        /* \"#utility.yul\":20213:20217   */\n      dup2\n        /* \"#utility.yul\":20087:20218   */\n      tag_223\n      jump\t// in\n    tag_452:\n        /* \"#utility.yul\":20079:20218   */\n      swap1\n      pop\n        /* \"#utility.yul\":19806:20225   */\n      swap2\n      swap1\n      pop\n      jump\t// out\n        /* \"#utility.yul\":20231:20456   */\n    tag_224:\n        /* \"#utility.yul\":20371:20405   */\n      0x416464726573733a20696e73756666696369656e742062616c616e636520666f\n        /* \"#utility.yul\":20367:20368   */\n      0x00\n        /* \"#utility.yul\":20359:20365   */\n      dup3\n        /* \"#utility.yul\":20355:20369   */\n      add\n        /* \"#utility.yul\":20348:20406   */\n      mstore\n        /* \"#utility.yul\":20440:20448   */\n      0x722063616c6c0000000000000000000000000000000000000000000000000000\n        /* \"#utility.yul\":20435:20437   */\n      0x20\n        /* \"#utility.yul\":20427:20433   */\n      dup3\n        /* \"#utility.yul\":20423:20438   */\n      add\n        /* \"#utility.yul\":20416:20449   */\n      mstore\n        /* \"#utility.yul\":20231:20456   */\n      pop\n      jump\t// out\n        /* \"#utility.yul\":20462:20828   */\n    tag_225:\n        /* \"#utility.yul\":20604:20607   */\n      0x00\n        /* \"#utility.yul\":20625:20692   */\n      tag_455\n        /* \"#utility.yul\":20689:20691   */\n      0x26\n        /* \"#utility.yul\":20684:20687   */\n      dup4\n        /* \"#utility.yul\":20625:20692   */\n      tag_221\n      jump\t// in\n    tag_455:\n        /* \"#utility.yul\":20618:20692   */\n      swap2\n      pop\n        /* \"#utility.yul\":20701:20794   */\n      tag_456\n        /* \"#utility.yul\":20790:20793   */\n      dup3\n        /* \"#utility.yul\":20701:20794   */\n      tag_224\n      jump\t// in\n    tag_456:\n        /* \"#utility.yul\":20819:20821   */\n      0x40\n        /* \"#utility.yul\":20814:20817   */\n      dup3\n        /* \"#utility.yul\":20810:20822   */\n      add\n        /* \"#utility.yul\":20803:20822   */\n      swap1\n      pop\n        /* \"#utility.yul\":20462:20828   */\n      swap2\n      swap1\n      pop\n      jump\t// out\n        /* \"#utility.yul\":20834:21253   */\n    tag_134:\n        /* \"#utility.yul\":21000:21004   */\n      0x00\n        /* \"#utility.yul\":21038:21040   */\n      0x20\n        /* \"#utility.yul\":21027:21036   */\n      dup3\n        /* \"#utility.yul\":21023:21041   */\n      add\n        /* \"#utility.yul\":21015:21041   */\n      swap1\n      pop\n        /* \"#utility.yul\":21087:21096   */\n      dup2\n        /* \"#utility.yul\":21081:21085   */\n      dup2\n        /* \"#utility.yul\":21077:21097   */\n      sub\n        /* \"#utility.yul\":21073:21074   */\n      0x00\n        /* \"#utility.yul\":21062:21071   */\n      dup4\n        /* \"#utility.yul\":21058:21075   */\n      add\n        /* \"#utility.yul\":21051:21098   */\n      mstore\n        /* \"#utility.yul\":21115:21246   */\n      tag_458\n        /* \"#utility.yul\":21241:21245   */\n      dup2\n        /* \"#utility.yul\":21115:21246   */\n      tag_225\n      jump\t// in\n    tag_458:\n        /* \"#utility.yul\":21107:21246   */\n      swap1\n      pop\n        /* \"#utility.yul\":20834:21253   */\n      swap2\n      swap1\n      pop\n      jump\t// out\n        /* \"#utility.yul\":21259:21438   */\n    tag_226:\n        /* \"#utility.yul\":21399:21430   */\n      0x416464726573733a2063616c6c20746f206e6f6e2d636f6e7472616374000000\n        /* \"#utility.yul\":21395:21396   */\n      0x00\n        /* \"#utility.yul\":21387:21393   */\n      dup3\n        /* \"#utility.yul\":21383:21397   */\n      add\n        /* \"#utility.yul\":21376:21431   */\n      mstore\n        /* \"#utility.yul\":21259:21438   */\n      pop\n      jump\t// out\n        /* \"#utility.yul\":21444:21810   */\n    tag_227:\n        /* \"#utility.yul\":21586:21589   */\n      0x00\n        /* \"#utility.yul\":21607:21674   */\n      tag_461\n        /* \"#utility.yul\":21671:21673   */\n      0x1d\n        /* \"#utility.yul\":21666:21669   */\n      dup4\n        /* \"#utility.yul\":21607:21674   */\n      tag_221\n      jump\t// in\n    tag_461:\n        /* \"#utility.yul\":21600:21674   */\n      swap2\n      pop\n        /* \"#utility.yul\":21683:21776   */\n      tag_462\n        /* \"#utility.yul\":21772:21775   */\n      dup3\n        /* \"#utility.yul\":21683:21776   */\n      tag_226\n      jump\t// in\n    tag_462:\n        /* \"#utility.yul\":21801:21803   */\n      0x20\n        /* \"#utility.yul\":21796:21799   */\n      dup3\n        /* \"#utility.yul\":21792:21804   */\n      add\n        /* \"#utility.yul\":21785:21804   */\n      swap1\n      pop\n        /* \"#utility.yul\":21444:21810   */\n      swap2\n      swap1\n      pop\n      jump\t// out\n        /* \"#utility.yul\":21816:22235   */\n    tag_148:\n        /* \"#utility.yul\":21982:21986   */\n      0x00\n        /* \"#utility.yul\":22020:22022   */\n      0x20\n        /* \"#utility.yul\":22009:22018   */\n      dup3\n        /* \"#utility.yul\":22005:22023   */\n      add\n        /* \"#utility.yul\":21997:22023   */\n      swap1\n      pop\n        /* \"#utility.yul\":22069:22078   */\n      dup2\n        /* \"#utility.yul\":22063:22067   */\n      dup2\n        /* \"#utility.yul\":22059:22079   */\n      sub\n        /* \"#utility.yul\":22055:22056   */\n      0x00\n        /* \"#utility.yul\":22044:22053   */\n      dup4\n        /* \"#utility.yul\":22040:22057   */\n      add\n        /* \"#utility.yul\":22033:22080   */\n      mstore\n        /* \"#utility.yul\":22097:22228   */\n      tag_464\n        /* \"#utility.yul\":22223:22227   */\n      dup2\n        /* \"#utility.yul\":22097:22228   */\n      tag_227\n      jump\t// in\n    tag_464:\n        /* \"#utility.yul\":22089:22228   */\n      swap1\n      pop\n        /* \"#utility.yul\":21816:22235   */\n      swap2\n      swap1\n      pop\n      jump\t// out\n        /* \"#utility.yul\":22241:22340   */\n    tag_228:\n        /* \"#utility.yul\":22293:22299   */\n      0x00\n        /* \"#utility.yul\":22327:22332   */\n      dup2\n        /* \"#utility.yul\":22321:22333   */\n      mload\n        /* \"#utility.yul\":22311:22333   */\n      swap1\n      pop\n        /* \"#utility.yul\":22241:22340   */\n      swap2\n      swap1\n      pop\n      jump\t// out\n        /* \"#utility.yul\":22346:22723   */\n    tag_229:\n        /* \"#utility.yul\":22434:22437   */\n      0x00\n        /* \"#utility.yul\":22462:22501   */\n      tag_467\n        /* \"#utility.yul\":22495:22500   */\n      dup3\n        /* \"#utility.yul\":22462:22501   */\n      tag_228\n      jump\t// in\n    tag_467:\n        /* \"#utility.yul\":22517:22588   */\n      tag_468\n        /* \"#utility.yul\":22581:22587   */\n      dup2\n        /* \"#utility.yul\":22576:22579   */\n      dup6\n        /* \"#utility.yul\":22517:22588   */\n      tag_221\n      jump\t// in\n    tag_468:\n        /* \"#utility.yul\":22510:22588   */\n      swap4\n      pop\n        /* \"#utility.yul\":22597:22662   */\n      tag_469\n        /* \"#utility.yul\":22655:22661   */\n      dup2\n        /* \"#utility.yul\":22650:22653   */\n      dup6\n        /* \"#utility.yul\":22643:22647   */\n      0x20\n        /* \"#utility.yul\":22636:22641   */\n      dup7\n        /* \"#utility.yul\":22632:22648   */\n      add\n        /* \"#utility.yul\":22597:22662   */\n      tag_205\n      jump\t// in\n    tag_469:\n        /* \"#utility.yul\":22687:22716   */\n      tag_470\n        /* \"#utility.yul\":22709:22715   */\n      dup2\n        /* \"#utility.yul\":22687:22716   */\n      tag_174\n      jump\t// in\n    tag_470:\n        /* \"#utility.yul\":22682:22685   */\n      dup5\n        /* \"#utility.yul\":22678:22717   */\n      add\n        /* \"#utility.yul\":22671:22717   */\n      swap2\n      pop\n        /* \"#utility.yul\":22438:22723   */\n      pop\n        /* \"#utility.yul\":22346:22723   */\n      swap3\n      swap2\n      pop\n      pop\n      jump\t// out\n        /* \"#utility.yul\":22729:23042   */\n    tag_157:\n        /* \"#utility.yul\":22842:22846   */\n      0x00\n        /* \"#utility.yul\":22880:22882   */\n      0x20\n        /* \"#utility.yul\":22869:22878   */\n      dup3\n        /* \"#utility.yul\":22865:22883   */\n      add\n        /* \"#utility.yul\":22857:22883   */\n      swap1\n      pop\n        /* \"#utility.yul\":22929:22938   */\n      dup2\n        /* \"#utility.yul\":22923:22927   */\n      dup2\n        /* \"#utility.yul\":22919:22939   */\n      sub\n        /* \"#utility.yul\":22915:22916   */\n      0x00\n        /* \"#utility.yul\":22904:22913   */\n      dup4\n        /* \"#utility.yul\":22900:22917   */\n      add\n        /* \"#utility.yul\":22893:22940   */\n      mstore\n        /* \"#utility.yul\":22957:23035   */\n      tag_472\n        /* \"#utility.yul\":23030:23034   */\n      dup2\n        /* \"#utility.yul\":23021:23027   */\n      dup5\n        /* \"#utility.yul\":22957:23035   */\n      tag_229\n      jump\t// in\n    tag_472:\n        /* \"#utility.yul\":22949:23035   */\n      swap1\n      pop\n        /* \"#utility.yul\":22729:23042   */\n      swap3\n      swap2\n      pop\n      pop\n      jump\t// out\n\n    auxdata: 0xa2646970667358221220b4c22efcb5753381f558ae27807fd3e0b5218b18e9cea7eb135967d13e2c69b164736f6c63430008210033\n}\n",
				"bytecode": {
					"linkReferences": {},
					"object": "60a060405234801561000f575f5ffd5b503373d3b06cebf099ce7da4accf578aaebfdbd6e88a935f73ffffffffffffffffffffffffffffffffffffffff168173ffffffffffffffffffffffffffffffffffffffff1603610096575f6040517fd7f7333400000000000000000000000000000000000000000000000000000000815260040161008d9190610250565b60405180910390fd5b8073ffffffffffffffffffffffffffffffffffffffff1660808173ffffffffffffffffffffffffffffffffffffffff1681525050505f73ffffffffffffffffffffffffffffffffffffffff168173ffffffffffffffffffffffffffffffffffffffff160361013b575f6040517f1e4fbdf70000000000000000000000000000000000000000000000000000000081526004016101329190610250565b60405180910390fd5b61014a8161015060201b60201c565b50610269565b5f5f5f9054906101000a900473ffffffffffffffffffffffffffffffffffffffff169050815f5f6101000a81548173ffffffffffffffffffffffffffffffffffffffff021916908373ffffffffffffffffffffffffffffffffffffffff1602179055508173ffffffffffffffffffffffffffffffffffffffff168173ffffffffffffffffffffffffffffffffffffffff167f8be0079c531659141344cd1fd0a4f28419497f9722a3daafe3b4186f6b6457e060405160405180910390a35050565b5f73ffffffffffffffffffffffffffffffffffffffff82169050919050565b5f61023a82610211565b9050919050565b61024a81610230565b82525050565b5f6020820190506102635f830184610241565b92915050565b6080516117b66102815f395f6103f501526117b65ff3fe608060405234801561000f575f5ffd5b5060043610610086575f3560e01c80638da5cb5b116100595780638da5cb5b146100fc578063b0f479a11461011a578063ced32b0c14610138578063f2fde38b1461015457610086565b806301ffc9a71461008a578063715018a6146100ba57806385572ffb146100c457806389476069146100e0575b5f5ffd5b6100a4600480360381019061009f9190610c7f565b610170565b6040516100b19190610cc4565b60405180910390f35b6100c2610241565b005b6100de60048036038101906100d99190610cff565b610254565b005b6100fa60048036038101906100f59190610da0565b6102e0565b005b6101046103cb565b6040516101119190610dda565b60405180910390f35b6101226103f2565b60405161012f9190610dda565b60405180910390f35b610152600480360381019061014d9190610da0565b610419565b005b61016e60048036038101906101699190610da0565b610464565b005b5f7f85572ffb000000000000000000000000000000000000000000000000000000007bffffffffffffffffffffffffffffffffffffffffffffffffffffffff1916827bffffffffffffffffffffffffffffffffffffffffffffffffffffffff1916148061023a57507f01ffc9a7000000000000000000000000000000000000000000000000000000007bffffffffffffffffffffffffffffffffffffffffffffffffffffffff1916827bffffffffffffffffffffffffffffffffffffffffffffffffffffffff1916145b9050919050565b6102496104e8565b6102525f61056f565b565b61025c6103f2565b73ffffffffffffffffffffffffffffffffffffffff163373ffffffffffffffffffffffffffffffffffffffff16146102cb57336040517fd7f733340000000000000000000000000000000000000000000000000000000081526004016102c29190610dda565b60405180910390fd5b6102dd816102d8906111c8565b610630565b50565b6102e86104e8565b5f8173ffffffffffffffffffffffffffffffffffffffff166370a08231306040518263ffffffff1660e01b81526004016103229190610dda565b602060405180830381865afa15801561033d573d5f5f3e3d5ffd5b505050506040513d601f19601f8201168201806040525081019061036191906111ee565b90505f810361039c576040517fbbefb2e900000000000000000000000000000000000000000000000000000000815260040160405180910390fd5b6103c733828473ffffffffffffffffffffffffffffffffffffffff166109029092919063ffffffff16565b5050565b5f5f5f9054906101000a900473ffffffffffffffffffffffffffffffffffffffff16905090565b5f7f0000000000000000000000000000000000000000000000000000000000000000905090565b6104216104e8565b8060015f6101000a81548173ffffffffffffffffffffffffffffffffffffffff021916908373ffffffffffffffffffffffffffffffffffffffff16021790555050565b61046c6104e8565b5f73ffffffffffffffffffffffffffffffffffffffff168173ffffffffffffffffffffffffffffffffffffffff16036104dc575f6040517f1e4fbdf70000000000000000000000000000000000000000000000000000000081526004016104d39190610dda565b60405180910390fd5b6104e58161056f565b50565b6104f0610988565b73ffffffffffffffffffffffffffffffffffffffff1661050e6103cb565b73ffffffffffffffffffffffffffffffffffffffff161461056d57610531610988565b6040517f118cdaa70000000000000000000000000000000000000000000000000000000081526004016105649190610dda565b60405180910390fd5b565b5f5f5f9054906101000a900473ffffffffffffffffffffffffffffffffffffffff169050815f5f6101000a81548173ffffffffffffffffffffffffffffffffffffffff021916908373ffffffffffffffffffffffffffffffffffffffff1602179055508173ffffffffffffffffffffffffffffffffffffffff168173ffffffffffffffffffffffffffffffffffffffff167f8be0079c531659141344cd1fd0a4f28419497f9722a3daafe3b4186f6b6457e060405160405180910390a35050565b8060200151816040015180602001905181019061064d9190611254565b5f73ffffffffffffffffffffffffffffffffffffffff1660015f9054906101000a900473ffffffffffffffffffffffffffffffffffffffff1673ffffffffffffffffffffffffffffffffffffffff16036106d3576040517f271040b300000000000000000000000000000000000000000000000000000000815260040160405180910390fd5b67de41ba4fc9d91ad967ffffffffffffffff168267ffffffffffffffff1614158061074b575060015f9054906101000a900473ffffffffffffffffffffffffffffffffffffffff1673ffffffffffffffffffffffffffffffffffffffff168173ffffffffffffffffffffffffffffffffffffffff1614155b1561078f5781816040517ff607742500000000000000000000000000000000000000000000000000000000815260040161078692919061128e565b60405180910390fd5b5f5f84606001518060200190518101906107a99190611331565b915091505f8273ffffffffffffffffffffffffffffffffffffffff16826040516107d391906113cf565b5f604051808303815f865af19150503d805f811461080c576040519150601f19603f3d011682016040523d82523d5f602084013e610811565b606091505b505090508061084c576040517f08af6b3700000000000000000000000000000000000000000000000000000000815260040160405180910390fd5b856020015167ffffffffffffffff16865f01517fefd22b16d02120210ec8687e3528d040d94b6509ca1a54ecc33b9e6790abfe2488604001518060200190518101906108989190611254565b89606001518a608001515f815181106108b4576108b36113e5565b5b60200260200101515f01518b608001515f815181106108d6576108d56113e5565b5b6020026020010151602001516040516108f294939291906114c4565b60405180910390a3505050505050565b6109838363a9059cbb60e01b848460405160240161092192919061150e565b604051602081830303815290604052907bffffffffffffffffffffffffffffffffffffffffffffffffffffffff19166020820180517bffffffffffffffffffffffffffffffffffffffffffffffffffffffff838183161783525050505061098f565b505050565b5f33905090565b5f6109f0826040518060400160405280602081526020017f5361666545524332303a206c6f772d6c6576656c2063616c6c206661696c65648152508573ffffffffffffffffffffffffffffffffffffffff16610a549092919063ffffffff16565b90505f81511115610a4f5780806020019051810190610a0f919061155f565b610a4e576040517f08c379a0000000000000000000000000000000000000000000000000000000008152600401610a459061160a565b60405180910390fd5b5b505050565b6060610a6284845f85610a6b565b90509392505050565b606082471015610ab0576040517f08c379a0000000000000000000000000000000000000000000000000000000008152600401610aa790611698565b60405180910390fd5b5f5f8673ffffffffffffffffffffffffffffffffffffffff168587604051610ad891906113cf565b5f6040518083038185875af1925050503d805f8114610b12576040519150601f19603f3d011682016040523d82523d5f602084013e610b17565b606091505b5091509150610b2887838387610b34565b92505050949350505050565b60608315610b95575f835103610b8d57610b4d85610ba8565b610b8c576040517f08c379a0000000000000000000000000000000000000000000000000000000008152600401610b8390611700565b60405180910390fd5b5b829050610ba0565b610b9f8383610bca565b5b949350505050565b5f5f8273ffffffffffffffffffffffffffffffffffffffff163b119050919050565b5f82511115610bdc5781518083602001fd5b806040517f08c379a0000000000000000000000000000000000000000000000000000000008152600401610c109190611760565b60405180910390fd5b5f604051905090565b5f5ffd5b5f5ffd5b5f7fffffffff0000000000000000000000000000000000000000000000000000000082169050919050565b610c5e81610c2a565b8114610c68575f5ffd5b50565b5f81359050610c7981610c55565b92915050565b5f60208284031215610c9457610c93610c22565b5b5f610ca184828501610c6b565b91505092915050565b5f8115159050919050565b610cbe81610caa565b82525050565b5f602082019050610cd75f830184610cb5565b92915050565b5f5ffd5b5f60a08284031215610cf657610cf5610cdd565b5b81905092915050565b5f60208284031215610d1457610d13610c22565b5b5f82013567ffffffffffffffff811115610d3157610d30610c26565b5b610d3d84828501610ce1565b91505092915050565b5f73ffffffffffffffffffffffffffffffffffffffff82169050919050565b5f610d6f82610d46565b9050919050565b610d7f81610d65565b8114610d89575f5ffd5b50565b5f81359050610d9a81610d76565b92915050565b5f60208284031215610db557610db4610c22565b5b5f610dc284828501610d8c565b91505092915050565b610dd481610d65565b82525050565b5f602082019050610ded5f830184610dcb565b92915050565b5f5ffd5b5f601f19601f8301169050919050565b7f4e487b71000000000000000000000000000000000000000000000000000000005f52604160045260245ffd5b610e3d82610df7565b810181811067ffffffffffffffff82111715610e5c57610e5b610e07565b5b80604052505050565b5f610e6e610c19565b9050610e7a8282610e34565b919050565b5f5ffd5b5f819050919050565b610e9581610e83565b8114610e9f575f5ffd5b50565b5f81359050610eb081610e8c565b92915050565b5f67ffffffffffffffff82169050919050565b610ed281610eb6565b8114610edc575f5ffd5b50565b5f81359050610eed81610ec9565b92915050565b5f5ffd5b5f5ffd5b5f67ffffffffffffffff821115610f1557610f14610e07565b5b610f1e82610df7565b9050602081019050919050565b828183375f83830152505050565b5f610f4b610f4684610efb565b610e65565b905082815260208101848484011115610f6757610f66610ef7565b5b610f72848285610f2b565b509392505050565b5f82601f830112610f8e57610f8d610ef3565b5b8135610f9e848260208601610f39565b91505092915050565b5f67ffffffffffffffff821115610fc157610fc0610e07565b5b602082029050602081019050919050565b5f5ffd5b5f819050919050565b610fe881610fd6565b8114610ff2575f5ffd5b50565b5f8135905061100381610fdf565b92915050565b5f6040828403121561101e5761101d610df3565b5b6110286040610e65565b90505f61103784828501610d8c565b5f83015250602061104a84828501610ff5565b60208301525092915050565b5f61106861106384610fa7565b610e65565b9050808382526020820190506040840283018581111561108b5761108a610fd2565b5b835b818110156110b457806110a08882611009565b84526020840193505060408101905061108d565b5050509392505050565b5f82601f8301126110d2576110d1610ef3565b5b81356110e2848260208601611056565b91505092915050565b5f60a08284031215611100576110ff610df3565b5b61110a60a0610e65565b90505f61111984828501610ea2565b5f83015250602061112c84828501610edf565b602083015250604082013567ffffffffffffffff8111156111505761114f610e7f565b5b61115c84828501610f7a565b604083015250606082013567ffffffffffffffff8111156111805761117f610e7f565b5b61118c84828501610f7a565b606083015250608082013567ffffffffffffffff8111156111b0576111af610e7f565b5b6111bc848285016110be565b60808301525092915050565b5f6111d336836110eb565b9050919050565b5f815190506111e881610fdf565b92915050565b5f6020828403121561120357611202610c22565b5b5f611210848285016111da565b91505092915050565b5f61122382610d46565b9050919050565b61123381611219565b811461123d575f5ffd5b50565b5f8151905061124e8161122a565b92915050565b5f6020828403121561126957611268610c22565b5b5f61127684828501611240565b91505092915050565b61128881610eb6565b82525050565b5f6040820190506112a15f83018561127f565b6112ae6020830184610dcb565b9392505050565b8281835e5f83830152505050565b5f6112d56112d084610efb565b610e65565b9050828152602081018484840111156112f1576112f0610ef7565b5b6112fc8482856112b5565b509392505050565b5f82601f83011261131857611317610ef3565b5b81516113288482602086016112c3565b91505092915050565b5f5f6040838503121561134757611346610c22565b5b5f61135485828601611240565b925050602083015167ffffffffffffffff81111561137557611374610c26565b5b61138185828601611304565b9150509250929050565b5f81519050919050565b5f81905092915050565b5f6113a98261138b565b6113b38185611395565b93506113c38185602086016112b5565b80840191505092915050565b5f6113da828461139f565b915081905092915050565b7f4e487b71000000000000000000000000000000000000000000000000000000005f52603260045260245ffd5b5f819050919050565b5f61143561143061142b84610d46565b611412565b610d46565b9050919050565b5f6114468261141b565b9050919050565b5f6114578261143c565b9050919050565b6114678161144d565b82525050565b5f82825260208201905092915050565b5f6114878261138b565b611491818561146d565b93506114a18185602086016112b5565b6114aa81610df7565b840191505092915050565b6114be81610fd6565b82525050565b5f6080820190506114d75f83018761145e565b81810360208301526114e9818661147d565b90506114f86040830185610dcb565b61150560608301846114b5565b95945050505050565b5f6040820190506115215f830185610dcb565b61152e60208301846114b5565b9392505050565b61153e81610caa565b8114611548575f5ffd5b50565b5f8151905061155981611535565b92915050565b5f6020828403121561157457611573610c22565b5b5f6115818482850161154b565b91505092915050565b5f82825260208201905092915050565b7f5361666545524332303a204552433230206f7065726174696f6e20646964206e5f8201527f6f74207375636365656400000000000000000000000000000000000000000000602082015250565b5f6115f4602a8361158a565b91506115ff8261159a565b604082019050919050565b5f6020820190508181035f830152611621816115e8565b9050919050565b7f416464726573733a20696e73756666696369656e742062616c616e636520666f5f8201527f722063616c6c0000000000000000000000000000000000000000000000000000602082015250565b5f61168260268361158a565b915061168d82611628565b604082019050919050565b5f6020820190508181035f8301526116af81611676565b9050919050565b7f416464726573733a2063616c6c20746f206e6f6e2d636f6e74726163740000005f82015250565b5f6116ea601d8361158a565b91506116f5826116b6565b602082019050919050565b5f6020820190508181035f830152611717816116de565b9050919050565b5f81519050919050565b5f6117328261171e565b61173c818561158a565b935061174c8185602086016112b5565b61175581610df7565b840191505092915050565b5f6020820190508181035f8301526117788184611728565b90509291505056fea2646970667358221220b4c22efcb5753381f558ae27807fd3e0b5218b18e9cea7eb135967d13e2c69b164736f6c63430008210033",
					"opcodes": "PUSH1 0xA0 PUSH1 0x40 MSTORE CALLVALUE DUP1 ISZERO PUSH2 0xF JUMPI PUSH0 PUSH0 REVERT JUMPDEST POP CALLER PUSH20 0xD3B06CEBF099CE7DA4ACCF578AAEBFDBD6E88A93 PUSH0 PUSH20 0xFFFFFFFFFFFFFFFFFFFFFFFFFFFFFFFFFFFFFFFF AND DUP2 PUSH20 0xFFFFFFFFFFFFFFFFFFFFFFFFFFFFFFFFFFFFFFFF AND SUB PUSH2 0x96 JUMPI PUSH0 PUSH1 0x40 MLOAD PUSH32 0xD7F7333400000000000000000000000000000000000000000000000000000000 DUP2 MSTORE PUSH1 0x4 ADD PUSH2 0x8D SWAP2 SWAP1 PUSH2 0x250 JUMP JUMPDEST PUSH1 0x40 MLOAD DUP1 SWAP2 SUB SWAP1 REVERT JUMPDEST DUP1 PUSH20 0xFFFFFFFFFFFFFFFFFFFFFFFFFFFFFFFFFFFFFFFF AND PUSH1 0x80 DUP2 PUSH20 0xFFFFFFFFFFFFFFFFFFFFFFFFFFFFFFFFFFFFFFFF AND DUP2 MSTORE POP POP POP PUSH0 PUSH20 0xFFFFFFFFFFFFFFFFFFFFFFFFFFFFFFFFFFFFFFFF AND DUP2 PUSH20 0xFFFFFFFFFFFFFFFFFFFFFFFFFFFFFFFFFFFFFFFF AND SUB PUSH2 0x13B JUMPI PUSH0 PUSH1 0x40 MLOAD PUSH32 0x1E4FBDF700000000000000000000000000000000000000000000000000000000 DUP2 MSTORE PUSH1 0x4 ADD PUSH2 0x132 SWAP2 SWAP1 PUSH2 0x250 JUMP JUMPDEST PUSH1 0x40 MLOAD DUP1 SWAP2 SUB SWAP1 REVERT JUMPDEST PUSH2 0x14A DUP2 PUSH2 0x150 PUSH1 0x20 SHL PUSH1 0x20 SHR JUMP JUMPDEST POP PUSH2 0x269 JUMP JUMPDEST PUSH0 PUSH0 PUSH0 SWAP1 SLOAD SWAP1 PUSH2 0x100 EXP SWAP1 DIV PUSH20 0xFFFFFFFFFFFFFFFFFFFFFFFFFFFFFFFFFFFFFFFF AND SWAP1 POP DUP2 PUSH0 PUSH0 PUSH2 0x100 EXP DUP2 SLOAD DUP2 PUSH20 0xFFFFFFFFFFFFFFFFFFFFFFFFFFFFFFFFFFFFFFFF MUL NOT AND SWAP1 DUP4 PUSH20 0xFFFFFFFFFFFFFFFFFFFFFFFFFFFFFFFFFFFFFFFF AND MUL OR SWAP1 SSTORE POP DUP2 PUSH20 0xFFFFFFFFFFFFFFFFFFFFFFFFFFFFFFFFFFFFFFFF AND DUP2 PUSH20 0xFFFFFFFFFFFFFFFFFFFFFFFFFFFFFFFFFFFFFFFF AND PUSH32 0x8BE0079C531659141344CD1FD0A4F28419497F9722A3DAAFE3B4186F6B6457E0 PUSH1 0x40 MLOAD PUSH1 0x40 MLOAD DUP1 SWAP2 SUB SWAP1 LOG3 POP POP JUMP JUMPDEST PUSH0 PUSH20 0xFFFFFFFFFFFFFFFFFFFFFFFFFFFFFFFFFFFFFFFF DUP3 AND SWAP1 POP SWAP2 SWAP1 POP JUMP JUMPDEST PUSH0 PUSH2 0x23A DUP3 PUSH2 0x211 JUMP JUMPDEST SWAP1 POP SWAP2 SWAP1 POP JUMP JUMPDEST PUSH2 0x24A DUP2 PUSH2 0x230 JUMP JUMPDEST DUP3 MSTORE POP POP JUMP JUMPDEST PUSH0 PUSH1 0x20 DUP3 ADD SWAP1 POP PUSH2 0x263 PUSH0 DUP4 ADD DUP5 PUSH2 0x241 JUMP JUMPDEST SWAP3 SWAP2 POP POP JUMP JUMPDEST PUSH1 0x80 MLOAD PUSH2 0x17B6 PUSH2 0x281 PUSH0 CODECOPY PUSH0 PUSH2 0x3F5 ADD MSTORE PUSH2 0x17B6 PUSH0 RETURN INVALID PUSH1 0x80 PUSH1 0x40 MSTORE CALLVALUE DUP1 ISZERO PUSH2 0xF JUMPI PUSH0 PUSH0 REVERT JUMPDEST POP PUSH1 0x4 CALLDATASIZE LT PUSH2 0x86 JUMPI PUSH0 CALLDATALOAD PUSH1 0xE0 SHR DUP1 PUSH4 0x8DA5CB5B GT PUSH2 0x59 JUMPI DUP1 PUSH4 0x8DA5CB5B EQ PUSH2 0xFC JUMPI DUP1 PUSH4 0xB0F479A1 EQ PUSH2 0x11A JUMPI DUP1 PUSH4 0xCED32B0C EQ PUSH2 0x138 JUMPI DUP1 PUSH4 0xF2FDE38B EQ PUSH2 0x154 JUMPI PUSH2 0x86 JUMP JUMPDEST DUP1 PUSH4 0x1FFC9A7 EQ PUSH2 0x8A JUMPI DUP1 PUSH4 0x715018A6 EQ PUSH2 0xBA JUMPI DUP1 PUSH4 0x85572FFB EQ PUSH2 0xC4 JUMPI DUP1 PUSH4 0x89476069 EQ PUSH2 0xE0 JUMPI JUMPDEST PUSH0 PUSH0 REVERT JUMPDEST PUSH2 0xA4 PUSH1 0x4 DUP1 CALLDATASIZE SUB DUP2 ADD SWAP1 PUSH2 0x9F SWAP2 SWAP1 PUSH2 0xC7F JUMP JUMPDEST PUSH2 0x170 JUMP JUMPDEST PUSH1 0x40 MLOAD PUSH2 0xB1 SWAP2 SWAP1 PUSH2 0xCC4 JUMP JUMPDEST PUSH1 0x40 MLOAD DUP1 SWAP2 SUB SWAP1 RETURN JUMPDEST PUSH2 0xC2 PUSH2 0x241 JUMP JUMPDEST STOP JUMPDEST PUSH2 0xDE PUSH1 0x4 DUP1 CALLDATASIZE SUB DUP2 ADD SWAP1 PUSH2 0xD9 SWAP2 SWAP1 PUSH2 0xCFF JUMP JUMPDEST PUSH2 0x254 JUMP JUMPDEST STOP JUMPDEST PUSH2 0xFA PUSH1 0x4 DUP1 CALLDATASIZE SUB DUP2 ADD SWAP1 PUSH2 0xF5 SWAP2 SWAP1 PUSH2 0xDA0 JUMP JUMPDEST PUSH2 0x2E0 JUMP JUMPDEST STOP JUMPDEST PUSH2 0x104 PUSH2 0x3CB JUMP JUMPDEST PUSH1 0x40 MLOAD PUSH2 0x111 SWAP2 SWAP1 PUSH2 0xDDA JUMP JUMPDEST PUSH1 0x40 MLOAD DUP1 SWAP2 SUB SWAP1 RETURN JUMPDEST PUSH2 0x122 PUSH2 0x3F2 JUMP JUMPDEST PUSH1 0x40 MLOAD PUSH2 0x12F SWAP2 SWAP1 PUSH2 0xDDA JUMP JUMPDEST PUSH1 0x40 MLOAD DUP1 SWAP2 SUB SWAP1 RETURN JUMPDEST PUSH2 0x152 PUSH1 0x4 DUP1 CALLDATASIZE SUB DUP2 ADD SWAP1 PUSH2 0x14D SWAP2 SWAP1 PUSH2 0xDA0 JUMP JUMPDEST PUSH2 0x419 JUMP JUMPDEST STOP JUMPDEST PUSH2 0x16E PUSH1 0x4 DUP1 CALLDATASIZE SUB DUP2 ADD SWAP1 PUSH2 0x169 SWAP2 SWAP1 PUSH2 0xDA0 JUMP JUMPDEST PUSH2 0x464 JUMP JUMPDEST STOP JUMPDEST PUSH0 PUSH32 0x85572FFB00000000000000000000000000000000000000000000000000000000 PUSH28 0xFFFFFFFFFFFFFFFFFFFFFFFFFFFFFFFFFFFFFFFFFFFFFFFFFFFFFFFF NOT AND DUP3 PUSH28 0xFFFFFFFFFFFFFFFFFFFFFFFFFFFFFFFFFFFFFFFFFFFFFFFFFFFFFFFF NOT AND EQ DUP1 PUSH2 0x23A JUMPI POP PUSH32 0x1FFC9A700000000000000000000000000000000000000000000000000000000 PUSH28 0xFFFFFFFFFFFFFFFFFFFFFFFFFFFFFFFFFFFFFFFFFFFFFFFFFFFFFFFF NOT AND DUP3 PUSH28 0xFFFFFFFFFFFFFFFFFFFFFFFFFFFFFFFFFFFFFFFFFFFFFFFFFFFFFFFF NOT AND EQ JUMPDEST SWAP1 POP SWAP2 SWAP1 POP JUMP JUMPDEST PUSH2 0x249 PUSH2 0x4E8 JUMP JUMPDEST PUSH2 0x252 PUSH0 PUSH2 0x56F JUMP JUMPDEST JUMP JUMPDEST PUSH2 0x25C PUSH2 0x3F2 JUMP JUMPDEST PUSH20 0xFFFFFFFFFFFFFFFFFFFFFFFFFFFFFFFFFFFFFFFF AND CALLER PUSH20 0xFFFFFFFFFFFFFFFFFFFFFFFFFFFFFFFFFFFFFFFF AND EQ PUSH2 0x2CB JUMPI CALLER PUSH1 0x40 MLOAD PUSH32 0xD7F7333400000000000000000000000000000000000000000000000000000000 DUP2 MSTORE PUSH1 0x4 ADD PUSH2 0x2C2 SWAP2 SWAP1 PUSH2 0xDDA JUMP JUMPDEST PUSH1 0x40 MLOAD DUP1 SWAP2 SUB SWAP1 REVERT JUMPDEST PUSH2 0x2DD DUP2 PUSH2 0x2D8 SWAP1 PUSH2 0x11C8 JUMP JUMPDEST PUSH2 0x630 JUMP JUMPDEST POP JUMP JUMPDEST PUSH2 0x2E8 PUSH2 0x4E8 JUMP JUMPDEST PUSH0 DUP2 PUSH20 0xFFFFFFFFFFFFFFFFFFFFFFFFFFFFFFFFFFFFFFFF AND PUSH4 0x70A08231 ADDRESS PUSH1 0x40 MLOAD DUP3 PUSH4 0xFFFFFFFF AND PUSH1 0xE0 SHL DUP2 MSTORE PUSH1 0x4 ADD PUSH2 0x322 SWAP2 SWAP1 PUSH2 0xDDA JUMP JUMPDEST PUSH1 0x20 PUSH1 0x40 MLOAD DUP1 DUP4 SUB DUP2 DUP7 GAS STATICCALL ISZERO DUP1 ISZERO PUSH2 0x33D JUMPI RETURNDATASIZE PUSH0 PUSH0 RETURNDATACOPY RETURNDATASIZE PUSH0 REVERT JUMPDEST POP POP POP POP PUSH1 0x40 MLOAD RETURNDATASIZE PUSH1 0x1F NOT PUSH1 0x1F DUP3 ADD AND DUP3 ADD DUP1 PUSH1 0x40 MSTORE POP DUP2 ADD SWAP1 PUSH2 0x361 SWAP2 SWAP1 PUSH2 0x11EE JUMP JUMPDEST SWAP1 POP PUSH0 DUP2 SUB PUSH2 0x39C JUMPI PUSH1 0x40 MLOAD PUSH32 0xBBEFB2E900000000000000000000000000000000000000000000000000000000 DUP2 MSTORE PUSH1 0x4 ADD PUSH1 0x40 MLOAD DUP1 SWAP2 SUB SWAP1 REVERT JUMPDEST PUSH2 0x3C7 CALLER DUP3 DUP5 PUSH20 0xFFFFFFFFFFFFFFFFFFFFFFFFFFFFFFFFFFFFFFFF AND PUSH2 0x902 SWAP1 SWAP3 SWAP2 SWAP1 PUSH4 0xFFFFFFFF AND JUMP JUMPDEST POP POP JUMP JUMPDEST PUSH0 PUSH0 PUSH0 SWAP1 SLOAD SWAP1 PUSH2 0x100 EXP SWAP1 DIV PUSH20 0xFFFFFFFFFFFFFFFFFFFFFFFFFFFFFFFFFFFFFFFF AND SWAP1 POP SWAP1 JUMP JUMPDEST PUSH0 PUSH32 0x0 SWAP1 POP SWAP1 JUMP JUMPDEST PUSH2 0x421 PUSH2 0x4E8 JUMP JUMPDEST DUP1 PUSH1 0x1 PUSH0 PUSH2 0x100 EXP DUP2 SLOAD DUP2 PUSH20 0xFFFFFFFFFFFFFFFFFFFFFFFFFFFFFFFFFFFFFFFF MUL NOT AND SWAP1 DUP4 PUSH20 0xFFFFFFFFFFFFFFFFFFFFFFFFFFFFFFFFFFFFFFFF AND MUL OR SWAP1 SSTORE POP POP JUMP JUMPDEST PUSH2 0x46C PUSH2 0x4E8 JUMP JUMPDEST PUSH0 PUSH20 0xFFFFFFFFFFFFFFFFFFFFFFFFFFFFFFFFFFFFFFFF AND DUP2 PUSH20 0xFFFFFFFFFFFFFFFFFFFFFFFFFFFFFFFFFFFFFFFF AND SUB PUSH2 0x4DC JUMPI PUSH0 PUSH1 0x40 MLOAD PUSH32 0x1E4FBDF700000000000000000000000000000000000000000000000000000000 DUP2 MSTORE PUSH1 0x4 ADD PUSH2 0x4D3 SWAP2 SWAP1 PUSH2 0xDDA JUMP JUMPDEST PUSH1 0x40 MLOAD DUP1 SWAP2 SUB SWAP1 REVERT JUMPDEST PUSH2 0x4E5 DUP2 PUSH2 0x56F JUMP JUMPDEST POP JUMP JUMPDEST PUSH2 0x4F0 PUSH2 0x988 JUMP JUMPDEST PUSH20 0xFFFFFFFFFFFFFFFFFFFFFFFFFFFFFFFFFFFFFFFF AND PUSH2 0x50E PUSH2 0x3CB JUMP JUMPDEST PUSH20 0xFFFFFFFFFFFFFFFFFFFFFFFFFFFFFFFFFFFFFFFF AND EQ PUSH2 0x56D JUMPI PUSH2 0x531 PUSH2 0x988 JUMP JUMPDEST PUSH1 0x40 MLOAD PUSH32 0x118CDAA700000000000000000000000000000000000000000000000000000000 DUP2 MSTORE PUSH1 0x4 ADD PUSH2 0x564 SWAP2 SWAP1 PUSH2 0xDDA JUMP JUMPDEST PUSH1 0x40 MLOAD DUP1 SWAP2 SUB SWAP1 REVERT JUMPDEST JUMP JUMPDEST PUSH0 PUSH0 PUSH0 SWAP1 SLOAD SWAP1 PUSH2 0x100 EXP SWAP1 DIV PUSH20 0xFFFFFFFFFFFFFFFFFFFFFFFFFFFFFFFFFFFFFFFF AND SWAP1 POP DUP2 PUSH0 PUSH0 PUSH2 0x100 EXP DUP2 SLOAD DUP2 PUSH20 0xFFFFFFFFFFFFFFFFFFFFFFFFFFFFFFFFFFFFFFFF MUL NOT AND SWAP1 DUP4 PUSH20 0xFFFFFFFFFFFFFFFFFFFFFFFFFFFFFFFFFFFFFFFF AND MUL OR SWAP1 SSTORE POP DUP2 PUSH20 0xFFFFFFFFFFFFFFFFFFFFFFFFFFFFFFFFFFFFFFFF AND DUP2 PUSH20 0xFFFFFFFFFFFFFFFFFFFFFFFFFFFFFFFFFFFFFFFF AND PUSH32 0x8BE0079C531659141344CD1FD0A4F28419497F9722A3DAAFE3B4186F6B6457E0 PUSH1 0x40 MLOAD PUSH1 0x40 MLOAD DUP1 SWAP2 SUB SWAP1 LOG3 POP POP JUMP JUMPDEST DUP1 PUSH1 0x20 ADD MLOAD DUP2 PUSH1 0x40 ADD MLOAD DUP1 PUSH1 0x20 ADD SWAP1 MLOAD DUP2 ADD SWAP1 PUSH2 0x64D SWAP2 SWAP1 PUSH2 0x1254 JUMP JUMPDEST PUSH0 PUSH20 0xFFFFFFFFFFFFFFFFFFFFFFFFFFFFFFFFFFFFFFFF AND PUSH1 0x1 PUSH0 SWAP1 SLOAD SWAP1 PUSH2 0x100 EXP SWAP1 DIV PUSH20 0xFFFFFFFFFFFFFFFFFFFFFFFFFFFFFFFFFFFFFFFF AND PUSH20 0xFFFFFFFFFFFFFFFFFFFFFFFFFFFFFFFFFFFFFFFF AND SUB PUSH2 0x6D3 JUMPI PUSH1 0x40 MLOAD PUSH32 0x271040B300000000000000000000000000000000000000000000000000000000 DUP2 MSTORE PUSH1 0x4 ADD PUSH1 0x40 MLOAD DUP1 SWAP2 SUB SWAP1 REVERT JUMPDEST PUSH8 0xDE41BA4FC9D91AD9 PUSH8 0xFFFFFFFFFFFFFFFF AND DUP3 PUSH8 0xFFFFFFFFFFFFFFFF AND EQ ISZERO DUP1 PUSH2 0x74B JUMPI POP PUSH1 0x1 PUSH0 SWAP1 SLOAD SWAP1 PUSH2 0x100 EXP SWAP1 DIV PUSH20 0xFFFFFFFFFFFFFFFFFFFFFFFFFFFFFFFFFFFFFFFF AND PUSH20 0xFFFFFFFFFFFFFFFFFFFFFFFFFFFFFFFFFFFFFFFF AND DUP2 PUSH20 0xFFFFFFFFFFFFFFFFFFFFFFFFFFFFFFFFFFFFFFFF AND EQ ISZERO JUMPDEST ISZERO PUSH2 0x78F JUMPI DUP2 DUP2 PUSH1 0x40 MLOAD PUSH32 0xF607742500000000000000000000000000000000000000000000000000000000 DUP2 MSTORE PUSH1 0x4 ADD PUSH2 0x786 SWAP3 SWAP2 SWAP1 PUSH2 0x128E JUMP JUMPDEST PUSH1 0x40 MLOAD DUP1 SWAP2 SUB SWAP1 REVERT JUMPDEST PUSH0 PUSH0 DUP5 PUSH1 0x60 ADD MLOAD DUP1 PUSH1 0x20 ADD SWAP1 MLOAD DUP2 ADD SWAP1 PUSH2 0x7A9 SWAP2 SWAP1 PUSH2 0x1331 JUMP JUMPDEST SWAP2 POP SWAP2 POP PUSH0 DUP3 PUSH20 0xFFFFFFFFFFFFFFFFFFFFFFFFFFFFFFFFFFFFFFFF AND DUP3 PUSH1 0x40 MLOAD PUSH2 0x7D3 SWAP2 SWAP1 PUSH2 0x13CF JUMP JUMPDEST PUSH0 PUSH1 0x40 MLOAD DUP1 DUP4 SUB DUP2 PUSH0 DUP7 GAS CALL SWAP2 POP POP RETURNDATASIZE DUP1 PUSH0 DUP2 EQ PUSH2 0x80C JUMPI PUSH1 0x40 MLOAD SWAP2 POP PUSH1 0x1F NOT PUSH1 0x3F RETURNDATASIZE ADD AND DUP3 ADD PUSH1 0x40 MSTORE RETURNDATASIZE DUP3 MSTORE RETURNDATASIZE PUSH0 PUSH1 0x20 DUP5 ADD RETURNDATACOPY PUSH2 0x811 JUMP JUMPDEST PUSH1 0x60 SWAP2 POP JUMPDEST POP POP SWAP1 POP DUP1 PUSH2 0x84C JUMPI PUSH1 0x40 MLOAD PUSH32 0x8AF6B3700000000000000000000000000000000000000000000000000000000 DUP2 MSTORE PUSH1 0x4 ADD PUSH1 0x40 MLOAD DUP1 SWAP2 SUB SWAP1 REVERT JUMPDEST DUP6 PUSH1 0x20 ADD MLOAD PUSH8 0xFFFFFFFFFFFFFFFF AND DUP7 PUSH0 ADD MLOAD PUSH32 0xEFD22B16D02120210EC8687E3528D040D94B6509CA1A54ECC33B9E6790ABFE24 DUP9 PUSH1 0x40 ADD MLOAD DUP1 PUSH1 0x20 ADD SWAP1 MLOAD DUP2 ADD SWAP1 PUSH2 0x898 SWAP2 SWAP1 PUSH2 0x1254 JUMP JUMPDEST DUP10 PUSH1 0x60 ADD MLOAD DUP11 PUSH1 0x80 ADD MLOAD PUSH0 DUP2 MLOAD DUP2 LT PUSH2 0x8B4 JUMPI PUSH2 0x8B3 PUSH2 0x13E5 JUMP JUMPDEST JUMPDEST PUSH1 0x20 MUL PUSH1 0x20 ADD ADD MLOAD PUSH0 ADD MLOAD DUP12 PUSH1 0x80 ADD MLOAD PUSH0 DUP2 MLOAD DUP2 LT PUSH2 0x8D6 JUMPI PUSH2 0x8D5 PUSH2 0x13E5 JUMP JUMPDEST JUMPDEST PUSH1 0x20 MUL PUSH1 0x20 ADD ADD MLOAD PUSH1 0x20 ADD MLOAD PUSH1 0x40 MLOAD PUSH2 0x8F2 SWAP5 SWAP4 SWAP3 SWAP2 SWAP1 PUSH2 0x14C4 JUMP JUMPDEST PUSH1 0x40 MLOAD DUP1 SWAP2 SUB SWAP1 LOG3 POP POP POP POP POP POP JUMP JUMPDEST PUSH2 0x983 DUP4 PUSH4 0xA9059CBB PUSH1 0xE0 SHL DUP5 DUP5 PUSH1 0x40 MLOAD PUSH1 0x24 ADD PUSH2 0x921 SWAP3 SWAP2 SWAP1 PUSH2 0x150E JUMP JUMPDEST PUSH1 0x40 MLOAD PUSH1 0x20 DUP2 DUP4 SUB SUB DUP2 MSTORE SWAP1 PUSH1 0x40 MSTORE SWAP1 PUSH28 0xFFFFFFFFFFFFFFFFFFFFFFFFFFFFFFFFFFFFFFFFFFFFFFFFFFFFFFFF NOT AND PUSH1 0x20 DUP3 ADD DUP1 MLOAD PUSH28 0xFFFFFFFFFFFFFFFFFFFFFFFFFFFFFFFFFFFFFFFFFFFFFFFFFFFFFFFF DUP4 DUP2 DUP4 AND OR DUP4 MSTORE POP POP POP POP PUSH2 0x98F JUMP JUMPDEST POP POP POP JUMP JUMPDEST PUSH0 CALLER SWAP1 POP SWAP1 JUMP JUMPDEST PUSH0 PUSH2 0x9F0 DUP3 PUSH1 0x40 MLOAD DUP1 PUSH1 0x40 ADD PUSH1 0x40 MSTORE DUP1 PUSH1 0x20 DUP2 MSTORE PUSH1 0x20 ADD PUSH32 0x5361666545524332303A206C6F772D6C6576656C2063616C6C206661696C6564 DUP2 MSTORE POP DUP6 PUSH20 0xFFFFFFFFFFFFFFFFFFFFFFFFFFFFFFFFFFFFFFFF AND PUSH2 0xA54 SWAP1 SWAP3 SWAP2 SWAP1 PUSH4 0xFFFFFFFF AND JUMP JUMPDEST SWAP1 POP PUSH0 DUP2 MLOAD GT ISZERO PUSH2 0xA4F JUMPI DUP1 DUP1 PUSH1 0x20 ADD SWAP1 MLOAD DUP2 ADD SWAP1 PUSH2 0xA0F SWAP2 SWAP1 PUSH2 0x155F JUMP JUMPDEST PUSH2 0xA4E JUMPI PUSH1 0x40 MLOAD PUSH32 0x8C379A000000000000000000000000000000000000000000000000000000000 DUP2 MSTORE PUSH1 0x4 ADD PUSH2 0xA45 SWAP1 PUSH2 0x160A JUMP JUMPDEST PUSH1 0x40 MLOAD DUP1 SWAP2 SUB SWAP1 REVERT JUMPDEST JUMPDEST POP POP POP JUMP JUMPDEST PUSH1 0x60 PUSH2 0xA62 DUP5 DUP5 PUSH0 DUP6 PUSH2 0xA6B JUMP JUMPDEST SWAP1 POP SWAP4 SWAP3 POP POP POP JUMP JUMPDEST PUSH1 0x60 DUP3 SELFBALANCE LT ISZERO PUSH2 0xAB0 JUMPI PUSH1 0x40 MLOAD PUSH32 0x8C379A000000000000000000000000000000000000000000000000000000000 DUP2 MSTORE PUSH1 0x4 ADD PUSH2 0xAA7 SWAP1 PUSH2 0x1698 JUMP JUMPDEST PUSH1 0x40 MLOAD DUP1 SWAP2 SUB SWAP1 REVERT JUMPDEST PUSH0 PUSH0 DUP7 PUSH20 0xFFFFFFFFFFFFFFFFFFFFFFFFFFFFFFFFFFFFFFFF AND DUP6 DUP8 PUSH1 0x40 MLOAD PUSH2 0xAD8 SWAP2 SWAP1 PUSH2 0x13CF JUMP JUMPDEST PUSH0 PUSH1 0x40 MLOAD DUP1 DUP4 SUB DUP2 DUP6 DUP8 GAS CALL SWAP3 POP POP POP RETURNDATASIZE DUP1 PUSH0 DUP2 EQ PUSH2 0xB12 JUMPI PUSH1 0x40 MLOAD SWAP2 POP PUSH1 0x1F NOT PUSH1 0x3F RETURNDATASIZE ADD AND DUP3 ADD PUSH1 0x40 MSTORE RETURNDATASIZE DUP3 MSTORE RETURNDATASIZE PUSH0 PUSH1 0x20 DUP5 ADD RETURNDATACOPY PUSH2 0xB17 JUMP JUMPDEST PUSH1 0x60 SWAP2 POP JUMPDEST POP SWAP2 POP SWAP2 POP PUSH2 0xB28 DUP8 DUP4 DUP4 DUP8 PUSH2 0xB34 JUMP JUMPDEST SWAP3 POP POP POP SWAP5 SWAP4 POP POP POP POP JUMP JUMPDEST PUSH1 0x60 DUP4 ISZERO PUSH2 0xB95 JUMPI PUSH0 DUP4 MLOAD SUB PUSH2 0xB8D JUMPI PUSH2 0xB4D DUP6 PUSH2 0xBA8 JUMP JUMPDEST PUSH2 0xB8C JUMPI PUSH1 0x40 MLOAD PUSH32 0x8C379A000000000000000000000000000000000000000000000000000000000 DUP2 MSTORE PUSH1 0x4 ADD PUSH2 0xB83 SWAP1 PUSH2 0x1700 JUMP JUMPDEST PUSH1 0x40 MLOAD DUP1 SWAP2 SUB SWAP1 REVERT JUMPDEST JUMPDEST DUP3 SWAP1 POP PUSH2 0xBA0 JUMP JUMPDEST PUSH2 0xB9F DUP4 DUP4 PUSH2 0xBCA JUMP JUMPDEST JUMPDEST SWAP5 SWAP4 POP POP POP POP JUMP JUMPDEST PUSH0 PUSH0 DUP3 PUSH20 0xFFFFFFFFFFFFFFFFFFFFFFFFFFFFFFFFFFFFFFFF AND EXTCODESIZE GT SWAP1 POP SWAP2 SWAP1 POP JUMP JUMPDEST PUSH0 DUP3 MLOAD GT ISZERO PUSH2 0xBDC JUMPI DUP2 MLOAD DUP1 DUP4 PUSH1 0x20 ADD REVERT JUMPDEST DUP1 PUSH1 0x40 MLOAD PUSH32 0x8C379A000000000000000000000000000000000000000000000000000000000 DUP2 MSTORE PUSH1 0x4 ADD PUSH2 0xC10 SWAP2 SWAP1 PUSH2 0x1760 JUMP JUMPDEST PUSH1 0x40 MLOAD DUP1 SWAP2 SUB SWAP1 REVERT JUMPDEST PUSH0 PUSH1 0x40 MLOAD SWAP1 POP SWAP1 JUMP JUMPDEST PUSH0 PUSH0 REVERT JUMPDEST PUSH0 PUSH0 REVERT JUMPDEST PUSH0 PUSH32 0xFFFFFFFF00000000000000000000000000000000000000000000000000000000 DUP3 AND SWAP1 POP SWAP2 SWAP1 POP JUMP JUMPDEST PUSH2 0xC5E DUP2 PUSH2 0xC2A JUMP JUMPDEST DUP2 EQ PUSH2 0xC68 JUMPI PUSH0 PUSH0 REVERT JUMPDEST POP JUMP JUMPDEST PUSH0 DUP2 CALLDATALOAD SWAP1 POP PUSH2 0xC79 DUP2 PUSH2 0xC55 JUMP JUMPDEST SWAP3 SWAP2 POP POP JUMP JUMPDEST PUSH0 PUSH1 0x20 DUP3 DUP5 SUB SLT ISZERO PUSH2 0xC94 JUMPI PUSH2 0xC93 PUSH2 0xC22 JUMP JUMPDEST JUMPDEST PUSH0 PUSH2 0xCA1 DUP5 DUP3 DUP6 ADD PUSH2 0xC6B JUMP JUMPDEST SWAP2 POP POP SWAP3 SWAP2 POP POP JUMP JUMPDEST PUSH0 DUP2 ISZERO ISZERO SWAP1 POP SWAP2 SWAP1 POP JUMP JUMPDEST PUSH2 0xCBE DUP2 PUSH2 0xCAA JUMP JUMPDEST DUP3 MSTORE POP POP JUMP JUMPDEST PUSH0 PUSH1 0x20 DUP3 ADD SWAP1 POP PUSH2 0xCD7 PUSH0 DUP4 ADD DUP5 PUSH2 0xCB5 JUMP JUMPDEST SWAP3 SWAP2 POP POP JUMP JUMPDEST PUSH0 PUSH0 REVERT JUMPDEST PUSH0 PUSH1 0xA0 DUP3 DUP5 SUB SLT ISZERO PUSH2 0xCF6 JUMPI PUSH2 0xCF5 PUSH2 0xCDD JUMP JUMPDEST JUMPDEST DUP2 SWAP1 POP SWAP3 SWAP2 POP POP JUMP JUMPDEST PUSH0 PUSH1 0x20 DUP3 DUP5 SUB SLT ISZERO PUSH2 0xD14 JUMPI PUSH2 0xD13 PUSH2 0xC22 JUMP JUMPDEST JUMPDEST PUSH0 DUP3 ADD CALLDATALOAD PUSH8 0xFFFFFFFFFFFFFFFF DUP2 GT ISZERO PUSH2 0xD31 JUMPI PUSH2 0xD30 PUSH2 0xC26 JUMP JUMPDEST JUMPDEST PUSH2 0xD3D DUP5 DUP3 DUP6 ADD PUSH2 0xCE1 JUMP JUMPDEST SWAP2 POP POP SWAP3 SWAP2 POP POP JUMP JUMPDEST PUSH0 PUSH20 0xFFFFFFFFFFFFFFFFFFFFFFFFFFFFFFFFFFFFFFFF DUP3 AND SWAP1 POP SWAP2 SWAP1 POP JUMP JUMPDEST PUSH0 PUSH2 0xD6F DUP3 PUSH2 0xD46 JUMP JUMPDEST SWAP1 POP SWAP2 SWAP1 POP JUMP JUMPDEST PUSH2 0xD7F DUP2 PUSH2 0xD65 JUMP JUMPDEST DUP2 EQ PUSH2 0xD89 JUMPI PUSH0 PUSH0 REVERT JUMPDEST POP JUMP JUMPDEST PUSH0 DUP2 CALLDATALOAD SWAP1 POP PUSH2 0xD9A DUP2 PUSH2 0xD76 JUMP JUMPDEST SWAP3 SWAP2 POP POP JUMP JUMPDEST PUSH0 PUSH1 0x20 DUP3 DUP5 SUB SLT ISZERO PUSH2 0xDB5 JUMPI PUSH2 0xDB4 PUSH2 0xC22 JUMP JUMPDEST JUMPDEST PUSH0 PUSH2 0xDC2 DUP5 DUP3 DUP6 ADD PUSH2 0xD8C JUMP JUMPDEST SWAP2 POP POP SWAP3 SWAP2 POP POP JUMP JUMPDEST PUSH2 0xDD4 DUP2 PUSH2 0xD65 JUMP JUMPDEST DUP3 MSTORE POP POP JUMP JUMPDEST PUSH0 PUSH1 0x20 DUP3 ADD SWAP1 POP PUSH2 0xDED PUSH0 DUP4 ADD DUP5 PUSH2 0xDCB JUMP JUMPDEST SWAP3 SWAP2 POP POP JUMP JUMPDEST PUSH0 PUSH0 REVERT JUMPDEST PUSH0 PUSH1 0x1F NOT PUSH1 0x1F DUP4 ADD AND SWAP1 POP SWAP2 SWAP1 POP JUMP JUMPDEST PUSH32 0x4E487B7100000000000000000000000000000000000000000000000000000000 PUSH0 MSTORE PUSH1 0x41 PUSH1 0x4 MSTORE PUSH1 0x24 PUSH0 REVERT JUMPDEST PUSH2 0xE3D DUP3 PUSH2 0xDF7 JUMP JUMPDEST DUP2 ADD DUP2 DUP2 LT PUSH8 0xFFFFFFFFFFFFFFFF DUP3 GT OR ISZERO PUSH2 0xE5C JUMPI PUSH2 0xE5B PUSH2 0xE07 JUMP JUMPDEST JUMPDEST DUP1 PUSH1 0x40 MSTORE POP POP POP JUMP JUMPDEST PUSH0 PUSH2 0xE6E PUSH2 0xC19 JUMP JUMPDEST SWAP1 POP PUSH2 0xE7A DUP3 DUP3 PUSH2 0xE34 JUMP JUMPDEST SWAP2 SWAP1 POP JUMP JUMPDEST PUSH0 PUSH0 REVERT JUMPDEST PUSH0 DUP2 SWAP1 POP SWAP2 SWAP1 POP JUMP JUMPDEST PUSH2 0xE95 DUP2 PUSH2 0xE83 JUMP JUMPDEST DUP2 EQ PUSH2 0xE9F JUMPI PUSH0 PUSH0 REVERT JUMPDEST POP JUMP JUMPDEST PUSH0 DUP2 CALLDATALOAD SWAP1 POP PUSH2 0xEB0 DUP2 PUSH2 0xE8C JUMP JUMPDEST SWAP3 SWAP2 POP POP JUMP JUMPDEST PUSH0 PUSH8 0xFFFFFFFFFFFFFFFF DUP3 AND SWAP1 POP SWAP2 SWAP1 POP JUMP JUMPDEST PUSH2 0xED2 DUP2 PUSH2 0xEB6 JUMP JUMPDEST DUP2 EQ PUSH2 0xEDC JUMPI PUSH0 PUSH0 REVERT JUMPDEST POP JUMP JUMPDEST PUSH0 DUP2 CALLDATALOAD SWAP1 POP PUSH2 0xEED DUP2 PUSH2 0xEC9 JUMP JUMPDEST SWAP3 SWAP2 POP POP JUMP JUMPDEST PUSH0 PUSH0 REVERT JUMPDEST PUSH0 PUSH0 REVERT JUMPDEST PUSH0 PUSH8 0xFFFFFFFFFFFFFFFF DUP3 GT ISZERO PUSH2 0xF15 JUMPI PUSH2 0xF14 PUSH2 0xE07 JUMP JUMPDEST JUMPDEST PUSH2 0xF1E DUP3 PUSH2 0xDF7 JUMP JUMPDEST SWAP1 POP PUSH1 0x20 DUP2 ADD SWAP1 POP SWAP2 SWAP1 POP JUMP JUMPDEST DUP3 DUP2 DUP4 CALLDATACOPY PUSH0 DUP4 DUP4 ADD MSTORE POP POP POP JUMP JUMPDEST PUSH0 PUSH2 0xF4B PUSH2 0xF46 DUP5 PUSH2 0xEFB JUMP JUMPDEST PUSH2 0xE65 JUMP JUMPDEST SWAP1 POP DUP3 DUP2 MSTORE PUSH1 0x20 DUP2 ADD DUP5 DUP5 DUP5 ADD GT ISZERO PUSH2 0xF67 JUMPI PUSH2 0xF66 PUSH2 0xEF7 JUMP JUMPDEST JUMPDEST PUSH2 0xF72 DUP5 DUP3 DUP6 PUSH2 0xF2B JUMP JUMPDEST POP SWAP4 SWAP3 POP POP POP JUMP JUMPDEST PUSH0 DUP3 PUSH1 0x1F DUP4 ADD SLT PUSH2 0xF8E JUMPI PUSH2 0xF8D PUSH2 0xEF3 JUMP JUMPDEST JUMPDEST DUP2 CALLDATALOAD PUSH2 0xF9E DUP5 DUP3 PUSH1 0x20 DUP7 ADD PUSH2 0xF39 JUMP JUMPDEST SWAP2 POP POP SWAP3 SWAP2 POP POP JUMP JUMPDEST PUSH0 PUSH8 0xFFFFFFFFFFFFFFFF DUP3 GT ISZERO PUSH2 0xFC1 JUMPI PUSH2 0xFC0 PUSH2 0xE07 JUMP JUMPDEST JUMPDEST PUSH1 0x20 DUP3 MUL SWAP1 POP PUSH1 0x20 DUP2 ADD SWAP1 POP SWAP2 SWAP1 POP JUMP JUMPDEST PUSH0 PUSH0 REVERT JUMPDEST PUSH0 DUP2 SWAP1 POP SWAP2 SWAP1 POP JUMP JUMPDEST PUSH2 0xFE8 DUP2 PUSH2 0xFD6 JUMP JUMPDEST DUP2 EQ PUSH2 0xFF2 JUMPI PUSH0 PUSH0 REVERT JUMPDEST POP JUMP JUMPDEST PUSH0 DUP2 CALLDATALOAD SWAP1 POP PUSH2 0x1003 DUP2 PUSH2 0xFDF JUMP JUMPDEST SWAP3 SWAP2 POP POP JUMP JUMPDEST PUSH0 PUSH1 0x40 DUP3 DUP5 SUB SLT ISZERO PUSH2 0x101E JUMPI PUSH2 0x101D PUSH2 0xDF3 JUMP JUMPDEST JUMPDEST PUSH2 0x1028 PUSH1 0x40 PUSH2 0xE65 JUMP JUMPDEST SWAP1 POP PUSH0 PUSH2 0x1037 DUP5 DUP3 DUP6 ADD PUSH2 0xD8C JUMP JUMPDEST PUSH0 DUP4 ADD MSTORE POP PUSH1 0x20 PUSH2 0x104A DUP5 DUP3 DUP6 ADD PUSH2 0xFF5 JUMP JUMPDEST PUSH1 0x20 DUP4 ADD MSTORE POP SWAP3 SWAP2 POP POP JUMP JUMPDEST PUSH0 PUSH2 0x1068 PUSH2 0x1063 DUP5 PUSH2 0xFA7 JUMP JUMPDEST PUSH2 0xE65 JUMP JUMPDEST SWAP1 POP DUP1 DUP4 DUP3 MSTORE PUSH1 0x20 DUP3 ADD SWAP1 POP PUSH1 0x40 DUP5 MUL DUP4 ADD DUP6 DUP2 GT ISZERO PUSH2 0x108B JUMPI PUSH2 0x108A PUSH2 0xFD2 JUMP JUMPDEST JUMPDEST DUP4 JUMPDEST DUP2 DUP2 LT ISZERO PUSH2 0x10B4 JUMPI DUP1 PUSH2 0x10A0 DUP9 DUP3 PUSH2 0x1009 JUMP JUMPDEST DUP5 MSTORE PUSH1 0x20 DUP5 ADD SWAP4 POP POP PUSH1 0x40 DUP2 ADD SWAP1 POP PUSH2 0x108D JUMP JUMPDEST POP POP POP SWAP4 SWAP3 POP POP POP JUMP JUMPDEST PUSH0 DUP3 PUSH1 0x1F DUP4 ADD SLT PUSH2 0x10D2 JUMPI PUSH2 0x10D1 PUSH2 0xEF3 JUMP JUMPDEST JUMPDEST DUP2 CALLDATALOAD PUSH2 0x10E2 DUP5 DUP3 PUSH1 0x20 DUP7 ADD PUSH2 0x1056 JUMP JUMPDEST SWAP2 POP POP SWAP3 SWAP2 POP POP JUMP JUMPDEST PUSH0 PUSH1 0xA0 DUP3 DUP5 SUB SLT ISZERO PUSH2 0x1100 JUMPI PUSH2 0x10FF PUSH2 0xDF3 JUMP JUMPDEST JUMPDEST PUSH2 0x110A PUSH1 0xA0 PUSH2 0xE65 JUMP JUMPDEST SWAP1 POP PUSH0 PUSH2 0x1119 DUP5 DUP3 DUP6 ADD PUSH2 0xEA2 JUMP JUMPDEST PUSH0 DUP4 ADD MSTORE POP PUSH1 0x20 PUSH2 0x112C DUP5 DUP3 DUP6 ADD PUSH2 0xEDF JUMP JUMPDEST PUSH1 0x20 DUP4 ADD MSTORE POP PUSH1 0x40 DUP3 ADD CALLDATALOAD PUSH8 0xFFFFFFFFFFFFFFFF DUP2 GT ISZERO PUSH2 0x1150 JUMPI PUSH2 0x114F PUSH2 0xE7F JUMP JUMPDEST JUMPDEST PUSH2 0x115C DUP5 DUP3 DUP6 ADD PUSH2 0xF7A JUMP JUMPDEST PUSH1 0x40 DUP4 ADD MSTORE POP PUSH1 0x60 DUP3 ADD CALLDATALOAD PUSH8 0xFFFFFFFFFFFFFFFF DUP2 GT ISZERO PUSH2 0x1180 JUMPI PUSH2 0x117F PUSH2 0xE7F JUMP JUMPDEST JUMPDEST PUSH2 0x118C DUP5 DUP3 DUP6 ADD PUSH2 0xF7A JUMP JUMPDEST PUSH1 0x60 DUP4 ADD MSTORE POP PUSH1 0x80 DUP3 ADD CALLDATALOAD PUSH8 0xFFFFFFFFFFFFFFFF DUP2 GT ISZERO PUSH2 0x11B0 JUMPI PUSH2 0x11AF PUSH2 0xE7F JUMP JUMPDEST JUMPDEST PUSH2 0x11BC DUP5 DUP3 DUP6 ADD PUSH2 0x10BE JUMP JUMPDEST PUSH1 0x80 DUP4 ADD MSTORE POP SWAP3 SWAP2 POP POP JUMP JUMPDEST PUSH0 PUSH2 0x11D3 CALLDATASIZE DUP4 PUSH2 0x10EB JUMP JUMPDEST SWAP1 POP SWAP2 SWAP1 POP JUMP JUMPDEST PUSH0 DUP2 MLOAD SWAP1 POP PUSH2 0x11E8 DUP2 PUSH2 0xFDF JUMP JUMPDEST SWAP3 SWAP2 POP POP JUMP JUMPDEST PUSH0 PUSH1 0x20 DUP3 DUP5 SUB SLT ISZERO PUSH2 0x1203 JUMPI PUSH2 0x1202 PUSH2 0xC22 JUMP JUMPDEST JUMPDEST PUSH0 PUSH2 0x1210 DUP5 DUP3 DUP6 ADD PUSH2 0x11DA JUMP JUMPDEST SWAP2 POP POP SWAP3 SWAP2 POP POP JUMP JUMPDEST PUSH0 PUSH2 0x1223 DUP3 PUSH2 0xD46 JUMP JUMPDEST SWAP1 POP SWAP2 SWAP1 POP JUMP JUMPDEST PUSH2 0x1233 DUP2 PUSH2 0x1219 JUMP JUMPDEST DUP2 EQ PUSH2 0x123D JUMPI PUSH0 PUSH0 REVERT JUMPDEST POP JUMP JUMPDEST PUSH0 DUP2 MLOAD SWAP1 POP PUSH2 0x124E DUP2 PUSH2 0x122A JUMP JUMPDEST SWAP3 SWAP2 POP POP JUMP JUMPDEST PUSH0 PUSH1 0x20 DUP3 DUP5 SUB SLT ISZERO PUSH2 0x1269 JUMPI PUSH2 0x1268 PUSH2 0xC22 JUMP JUMPDEST JUMPDEST PUSH0 PUSH2 0x1276 DUP5 DUP3 DUP6 ADD PUSH2 0x1240 JUMP JUMPDEST SWAP2 POP POP SWAP3 SWAP2 POP POP JUMP JUMPDEST PUSH2 0x1288 DUP2 PUSH2 0xEB6 JUMP JUMPDEST DUP3 MSTORE POP POP JUMP JUMPDEST PUSH0 PUSH1 0x40 DUP3 ADD SWAP1 POP PUSH2 0x12A1 PUSH0 DUP4 ADD DUP6 PUSH2 0x127F JUMP JUMPDEST PUSH2 0x12AE PUSH1 0x20 DUP4 ADD DUP5 PUSH2 0xDCB JUMP JUMPDEST SWAP4 SWAP3 POP POP POP JUMP JUMPDEST DUP3 DUP2 DUP4 MCOPY PUSH0 DUP4 DUP4 ADD MSTORE POP POP POP JUMP JUMPDEST PUSH0 PUSH2 0x12D5 PUSH2 0x12D0 DUP5 PUSH2 0xEFB JUMP JUMPDEST PUSH2 0xE65 JUMP JUMPDEST SWAP1 POP DUP3 DUP2 MSTORE PUSH1 0x20 DUP2 ADD DUP5 DUP5 DUP5 ADD GT ISZERO PUSH2 0x12F1 JUMPI PUSH2 0x12F0 PUSH2 0xEF7 JUMP JUMPDEST JUMPDEST PUSH2 0x12FC DUP5 DUP3 DUP6 PUSH2 0x12B5 JUMP JUMPDEST POP SWAP4 SWAP3 POP POP POP JUMP JUMPDEST PUSH0 DUP3 PUSH1 0x1F DUP4 ADD SLT PUSH2 0x1318 JUMPI PUSH2 0x1317 PUSH2 0xEF3 JUMP JUMPDEST JUMPDEST DUP2 MLOAD PUSH2 0x1328 DUP5 DUP3 PUSH1 0x20 DUP7 ADD PUSH2 0x12C3 JUMP JUMPDEST SWAP2 POP POP SWAP3 SWAP2 POP POP JUMP JUMPDEST PUSH0 PUSH0 PUSH1 0x40 DUP4 DUP6 SUB SLT ISZERO PUSH2 0x1347 JUMPI PUSH2 0x1346 PUSH2 0xC22 JUMP JUMPDEST JUMPDEST PUSH0 PUSH2 0x1354 DUP6 DUP3 DUP7 ADD PUSH2 0x1240 JUMP JUMPDEST SWAP3 POP POP PUSH1 0x20 DUP4 ADD MLOAD PUSH8 0xFFFFFFFFFFFFFFFF DUP2 GT ISZERO PUSH2 0x1375 JUMPI PUSH2 0x1374 PUSH2 0xC26 JUMP JUMPDEST JUMPDEST PUSH2 0x1381 DUP6 DUP3 DUP7 ADD PUSH2 0x1304 JUMP JUMPDEST SWAP2 POP POP SWAP3 POP SWAP3 SWAP1 POP JUMP JUMPDEST PUSH0 DUP2 MLOAD SWAP1 POP SWAP2 SWAP1 POP JUMP JUMPDEST PUSH0 DUP2 SWAP1 POP SWAP3 SWAP2 POP POP JUMP JUMPDEST PUSH0 PUSH2 0x13A9 DUP3 PUSH2 0x138B JUMP JUMPDEST PUSH2 0x13B3 DUP2 DUP6 PUSH2 0x1395 JUMP JUMPDEST SWAP4 POP PUSH2 0x13C3 DUP2 DUP6 PUSH1 0x20 DUP7 ADD PUSH2 0x12B5 JUMP JUMPDEST DUP1 DUP5 ADD SWAP2 POP POP SWAP3 SWAP2 POP POP JUMP JUMPDEST PUSH0 PUSH2 0x13DA DUP3 DUP5 PUSH2 0x139F JUMP JUMPDEST SWAP2 POP DUP2 SWAP1 POP SWAP3 SWAP2 POP POP JUMP JUMPDEST PUSH32 0x4E487B7100000000000000000000000000000000000000000000000000000000 PUSH0 MSTORE PUSH1 0x32 PUSH1 0x4 MSTORE PUSH1 0x24 PUSH0 REVERT JUMPDEST PUSH0 DUP2 SWAP1 POP SWAP2 SWAP1 POP JUMP JUMPDEST PUSH0 PUSH2 0x1435 PUSH2 0x1430 PUSH2 0x142B DUP5 PUSH2 0xD46 JUMP JUMPDEST PUSH2 0x1412 JUMP JUMPDEST PUSH2 0xD46 JUMP JUMPDEST SWAP1 POP SWAP2 SWAP1 POP JUMP JUMPDEST PUSH0 PUSH2 0x1446 DUP3 PUSH2 0x141B JUMP JUMPDEST SWAP1 POP SWAP2 SWAP1 POP JUMP JUMPDEST PUSH0 PUSH2 0x1457 DUP3 PUSH2 0x143C JUMP JUMPDEST SWAP1 POP SWAP2 SWAP1 POP JUMP JUMPDEST PUSH2 0x1467 DUP2 PUSH2 0x144D JUMP JUMPDEST DUP3 MSTORE POP POP JUMP JUMPDEST PUSH0 DUP3 DUP3 MSTORE PUSH1 0x20 DUP3 ADD SWAP1 POP SWAP3 SWAP2 POP POP JUMP JUMPDEST PUSH0 PUSH2 0x1487 DUP3 PUSH2 0x138B JUMP JUMPDEST PUSH2 0x1491 DUP2 DUP6 PUSH2 0x146D JUMP JUMPDEST SWAP4 POP PUSH2 0x14A1 DUP2 DUP6 PUSH1 0x20 DUP7 ADD PUSH2 0x12B5 JUMP JUMPDEST PUSH2 0x14AA DUP2 PUSH2 0xDF7 JUMP JUMPDEST DUP5 ADD SWAP2 POP POP SWAP3 SWAP2 POP POP JUMP JUMPDEST PUSH2 0x14BE DUP2 PUSH2 0xFD6 JUMP JUMPDEST DUP3 MSTORE POP POP JUMP JUMPDEST PUSH0 PUSH1 0x80 DUP3 ADD SWAP1 POP PUSH2 0x14D7 PUSH0 DUP4 ADD DUP8 PUSH2 0x145E JUMP JUMPDEST DUP2 DUP2 SUB PUSH1 0x20 DUP4 ADD MSTORE PUSH2 0x14E9 DUP2 DUP7 PUSH2 0x147D JUMP JUMPDEST SWAP1 POP PUSH2 0x14F8 PUSH1 0x40 DUP4 ADD DUP6 PUSH2 0xDCB JUMP JUMPDEST PUSH2 0x1505 PUSH1 0x60 DUP4 ADD DUP5 PUSH2 0x14B5 JUMP JUMPDEST SWAP6 SWAP5 POP POP POP POP POP JUMP JUMPDEST PUSH0 PUSH1 0x40 DUP3 ADD SWAP1 POP PUSH2 0x1521 PUSH0 DUP4 ADD DUP6 PUSH2 0xDCB JUMP JUMPDEST PUSH2 0x152E PUSH1 0x20 DUP4 ADD DUP5 PUSH2 0x14B5 JUMP JUMPDEST SWAP4 SWAP3 POP POP POP JUMP JUMPDEST PUSH2 0x153E DUP2 PUSH2 0xCAA JUMP JUMPDEST DUP2 EQ PUSH2 0x1548 JUMPI PUSH0 PUSH0 REVERT JUMPDEST POP JUMP JUMPDEST PUSH0 DUP2 MLOAD SWAP1 POP PUSH2 0x1559 DUP2 PUSH2 0x1535 JUMP JUMPDEST SWAP3 SWAP2 POP POP JUMP JUMPDEST PUSH0 PUSH1 0x20 DUP3 DUP5 SUB SLT ISZERO PUSH2 0x1574 JUMPI PUSH2 0x1573 PUSH2 0xC22 JUMP JUMPDEST JUMPDEST PUSH0 PUSH2 0x1581 DUP5 DUP3 DUP6 ADD PUSH2 0x154B JUMP JUMPDEST SWAP2 POP POP SWAP3 SWAP2 POP POP JUMP JUMPDEST PUSH0 DUP3 DUP3 MSTORE PUSH1 0x20 DUP3 ADD SWAP1 POP SWAP3 SWAP2 POP POP JUMP JUMPDEST PUSH32 0x5361666545524332303A204552433230206F7065726174696F6E20646964206E PUSH0 DUP3 ADD MSTORE PUSH32 0x6F74207375636365656400000000000000000000000000000000000000000000 PUSH1 0x20 DUP3 ADD MSTORE POP JUMP JUMPDEST PUSH0 PUSH2 0x15F4 PUSH1 0x2A DUP4 PUSH2 0x158A JUMP JUMPDEST SWAP2 POP PUSH2 0x15FF DUP3 PUSH2 0x159A JUMP JUMPDEST PUSH1 0x40 DUP3 ADD SWAP1 POP SWAP2 SWAP1 POP JUMP JUMPDEST PUSH0 PUSH1 0x20 DUP3 ADD SWAP1 POP DUP2 DUP2 SUB PUSH0 DUP4 ADD MSTORE PUSH2 0x1621 DUP2 PUSH2 0x15E8 JUMP JUMPDEST SWAP1 POP SWAP2 SWAP1 POP JUMP JUMPDEST PUSH32 0x416464726573733A20696E73756666696369656E742062616C616E636520666F PUSH0 DUP3 ADD MSTORE PUSH32 0x722063616C6C0000000000000000000000000000000000000000000000000000 PUSH1 0x20 DUP3 ADD MSTORE POP JUMP JUMPDEST PUSH0 PUSH2 0x1682 PUSH1 0x26 DUP4 PUSH2 0x158A JUMP JUMPDEST SWAP2 POP PUSH2 0x168D DUP3 PUSH2 0x1628 JUMP JUMPDEST PUSH1 0x40 DUP3 ADD SWAP1 POP SWAP2 SWAP1 POP JUMP JUMPDEST PUSH0 PUSH1 0x20 DUP3 ADD SWAP1 POP DUP2 DUP2 SUB PUSH0 DUP4 ADD MSTORE PUSH2 0x16AF DUP2 PUSH2 0x1676 JUMP JUMPDEST SWAP1 POP SWAP2 SWAP1 POP JUMP JUMPDEST PUSH32 0x416464726573733A2063616C6C20746F206E6F6E2D636F6E7472616374000000 PUSH0 DUP3 ADD MSTORE POP JUMP JUMPDEST PUSH0 PUSH2 0x16EA PUSH1 0x1D DUP4 PUSH2 0x158A JUMP JUMPDEST SWAP2 POP PUSH2 0x16F5 DUP3 PUSH2 0x16B6 JUMP JUMPDEST PUSH1 0x20 DUP3 ADD SWAP1 POP SWAP2 SWAP1 POP JUMP JUMPDEST PUSH0 PUSH1 0x20 DUP3 ADD SWAP1 POP DUP2 DUP2 SUB PUSH0 DUP4 ADD MSTORE PUSH2 0x1717 DUP2 PUSH2 0x16DE JUMP JUMPDEST SWAP1 POP SWAP2 SWAP1 POP JUMP JUMPDEST PUSH0 DUP2 MLOAD SWAP1 POP SWAP2 SWAP1 POP JUMP JUMPDEST PUSH0 PUSH2 0x1732 DUP3 PUSH2 0x171E JUMP JUMPDEST PUSH2 0x173C DUP2 DUP6 PUSH2 0x158A JUMP JUMPDEST SWAP4 POP PUSH2 0x174C DUP2 DUP6 PUSH1 0x20 DUP7 ADD PUSH2 0x12B5 JUMP JUMPDEST PUSH2 0x1755 DUP2 PUSH2 0xDF7 JUMP JUMPDEST DUP5 ADD SWAP2 POP POP SWAP3 SWAP2 POP POP JUMP JUMPDEST PUSH0 PUSH1 0x20 DUP3 ADD SWAP1 POP DUP2 DUP2 SUB PUSH0 DUP4 ADD MSTORE PUSH2 0x1778 DUP2 DUP5 PUSH2 0x1728 JUMP JUMPDEST SWAP1 POP SWAP3 SWAP2 POP POP JUMP INVALID LOG2 PUSH5 0x6970667358 0x22 SLT KECCAK256 0xB4 0xC2 0x2E 0xFC 0xB5 PUSH22 0x3381F558AE27807FD3E0B5218B18E9CEA7EB135967D1 RETURNDATACOPY 0x2C PUSH10 0xB164736F6C6343000821 STOP CALLER "
				},
				"gasEstimates": {
					"creation": {
						"codeDepositCost": "1214000",
						"executionCost": "infinite",
						"totalCost": "infinite"
					},
					"external": {
						"ccipReceive((bytes32,uint64,bytes,bytes,(address,uint256)[]))": "infinite",
						"getRouter()": "infinite",
						"owner()": "2514",
						"renounceOwnership()": "infinite",
						"setSender(address)": "infinite",
						"supportsInterface(bytes4)": "676",
						"transferOwnership(address)": "infinite",
						"withdrawToken(address)": "infinite"
					},
					"internal": {
						"_ccipReceive(struct Client.Any2EVMMessage memory)": "infinite"
					}
				},
				"methodIdentifiers": {
					"ccipReceive((bytes32,uint64,bytes,bytes,(address,uint256)[]))": "85572ffb",
					"getRouter()": "b0f479a1",
					"owner()": "8da5cb5b",
					"renounceOwnership()": "715018a6",
					"setSender(address)": "ced32b0c",
					"supportsInterface(bytes4)": "01ffc9a7",
					"transferOwnership(address)": "f2fde38b",
					"withdrawToken(address)": "89476069"
				}
			},
			"storageLayout": {
				"storage": [
					{
						"astId": 999,
						"contract": "contracts/ccip/Receiver.sol:Receiver",
						"label": "_owner",
						"offset": 0,
						"slot": "0",
						"type": "t_address"
					},
					{
						"astId": 1207,
						"contract": "contracts/ccip/Receiver.sol:Receiver",
						"label": "s_sender",
						"offset": 0,
						"slot": "1",
						"type": "t_address"
					}
				],
				"types": {
					"t_address": {
						"encoding": "inplace",
						"label": "address",
						"numberOfBytes": "20"
					}
				}
			},
			"userdoc": {
				"kind": "user",
				"methods": {
					"ccipReceive((bytes32,uint64,bytes,bytes,(address,uint256)[]))": {
						"notice": "Called by the Router to deliver a message. If this reverts, any token transfers also revert. The message will move to a FAILED state and become available for manual execution."
					},
					"getRouter()": {
						"notice": "Return the current router"
					},
					"supportsInterface(bytes4)": {
						"notice": "IERC165 supports an interfaceId"
					}
				},
				"notice": "THIS IS AN EXAMPLE CONTRACT THAT USES HARDCODED VALUES FOR CLARITY. THIS IS AN EXAMPLE CONTRACT THAT USES UN-AUDITED CODE. DO NOT USE THIS CODE IN PRODUCTION.",
				"version": 1
			}
		}
	}
}