{
	"contracts/automation/CustomLogic_flattened.sol": {
		"CustomLogic": {
			"abi": [
				{
					"inputs": [
						{
							"internalType": "uint256",
							"name": "_updateInterval",
							"type": "uint256"
						}
					],
					"stateMutability": "nonpayable",
					"type": "constructor"
				},
				{
					"inputs": [
						{
							"internalType": "bytes",
							"name": "",
							"type": "bytes"
						}
					],
					"name": "checkUpkeep",
					"outputs": [
						{
							"internalType": "bool",
							"name": "upkeepNeeded",
							"type": "bool"
						},
						{
							"internalType": "bytes",
							"name": "performData",
							"type": "bytes"
						}
					],
					"stateMutability": "view",
					"type": "function"
				},
				{
					"inputs": [],
					"name": "counter",
					"outputs": [
						{
							"internalType": "uint256",
							"name": "",
							"type": "uint256"
						}
					],
					"stateMutability": "view",
					"type": "function"
				},
				{
					"inputs": [],
					"name": "i_updateInterval",
					"outputs": [
						{
							"internalType": "uint256",
							"name": "",
							"type": "uint256"
						}
					],
					"stateMutability": "view",
					"type": "function"
				},
				{
					"inputs": [],
					"name": "lastTimeStamp",
					"outputs": [
						{
							"internalType": "uint256",
							"name": "",
							"type": "uint256"
						}
					],
					"stateMutability": "view",
					"type": "function"
				},
				{
					"inputs": [
						{
							"internalType": "bytes",
							"name": "",
							"type": "bytes"
						}
					],
					"name": "performUpkeep",
					"outputs": [],
					"stateMutability": "nonpayable",
					"type": "function"
				}
			],
			"devdoc": {
				"kind": "dev",
				"methods": {},
				"version": 1
			},
			"evm": {
				"assembly": "    /* \"contracts/automation/CustomLogic_flattened.sol\":3446:4310  contract CustomLogic is AutomationCompatibleInterface {... */\n  mstore(0x40, 0xa0)\n    /* \"contracts/automation/CustomLogic_flattened.sol\":3621:3754  constructor(uint256 _updateInterval) {  ... */\n  callvalue\n  dup1\n  iszero\n  tag_1\n  jumpi\n  revert(0x00, 0x00)\ntag_1:\n  pop\n  mload(0x40)\n  sub(codesize, bytecodeSize)\n  dup1\n  bytecodeSize\n  dup4\n  codecopy\n  dup2\n  dup2\n  add\n  0x40\n  mstore\n  dup2\n  add\n  swap1\n  tag_2\n  swap2\n  swap1\n  tag_3\n  jump\t// in\ntag_2:\n    /* \"contracts/automation/CustomLogic_flattened.sol\":3689:3704  _updateInterval */\n  dup1\n    /* \"contracts/automation/CustomLogic_flattened.sol\":3670:3704  i_updateInterval = _updateInterval */\n  0x80\n  dup2\n  dup2\n  mstore\n  pop\n  pop\n    /* \"contracts/automation/CustomLogic_flattened.sol\":3732:3747  block.timestamp */\n  timestamp\n    /* \"contracts/automation/CustomLogic_flattened.sol\":3716:3729  lastTimeStamp */\n  0x01\n    /* \"contracts/automation/CustomLogic_flattened.sol\":3716:3747  lastTimeStamp = block.timestamp */\n  dup2\n  swap1\n  sstore\n  pop\n    /* \"contracts/automation/CustomLogic_flattened.sol\":3621:3754  constructor(uint256 _updateInterval) {  ... */\n  pop\n    /* \"contracts/automation/CustomLogic_flattened.sol\":3446:4310  contract CustomLogic is AutomationCompatibleInterface {... */\n  jump(tag_6)\n    /* \"#utility.yul\":88:205   */\ntag_8:\n    /* \"#utility.yul\":197:198   */\n  0x00\n    /* \"#utility.yul\":194:195   */\n  0x00\n    /* \"#utility.yul\":187:199   */\n  revert\n    /* \"#utility.yul\":334:411   */\ntag_10:\n    /* \"#utility.yul\":371:378   */\n  0x00\n    /* \"#utility.yul\":400:405   */\n  dup2\n    /* \"#utility.yul\":389:405   */\n  swap1\n  pop\n    /* \"#utility.yul\":334:411   */\n  swap2\n  swap1\n  pop\n  jump\t// out\n    /* \"#utility.yul\":417:539   */\ntag_11:\n    /* \"#utility.yul\":490:514   */\n  tag_19\n    /* \"#utility.yul\":508:513   */\n  dup2\n    /* \"#utility.yul\":490:514   */\n  tag_10\n  jump\t// in\ntag_19:\n    /* \"#utility.yul\":483:488   */\n  dup2\n    /* \"#utility.yul\":480:515   */\n  eq\n    /* \"#utility.yul\":470:533   */\n  tag_20\n  jumpi\n    /* \"#utility.yul\":529:530   */\n  0x00\n    /* \"#utility.yul\":526:527   */\n  0x00\n    /* \"#utility.yul\":519:531   */\n  revert\n    /* \"#utility.yul\":470:533   */\ntag_20:\n    /* \"#utility.yul\":417:539   */\n  pop\n  jump\t// out\n    /* \"#utility.yul\":545:688   */\ntag_12:\n    /* \"#utility.yul\":602:607   */\n  0x00\n    /* \"#utility.yul\":633:639   */\n  dup2\n    /* \"#utility.yul\":627:640   */\n  mload\n    /* \"#utility.yul\":618:640   */\n  swap1\n  pop\n    /* \"#utility.yul\":649:682   */\n  tag_22\n    /* \"#utility.yul\":676:681   */\n  dup2\n    /* \"#utility.yul\":649:682   */\n  tag_11\n  jump\t// in\ntag_22:\n    /* \"#utility.yul\":545:688   */\n  swap3\n  swap2\n  pop\n  pop\n  jump\t// out\n    /* \"#utility.yul\":694:1045   */\ntag_3:\n    /* \"#utility.yul\":764:770   */\n  0x00\n    /* \"#utility.yul\":813:815   */\n  0x20\n    /* \"#utility.yul\":801:810   */\n  dup3\n    /* \"#utility.yul\":792:799   */\n  dup5\n    /* \"#utility.yul\":788:811   */\n  sub\n    /* \"#utility.yul\":784:816   */\n  slt\n    /* \"#utility.yul\":781:900   */\n  iszero\n  tag_24\n  jumpi\n    /* \"#utility.yul\":819:898   */\n  tag_25\n  tag_8\n  jump\t// in\ntag_25:\n    /* \"#utility.yul\":781:900   */\ntag_24:\n    /* \"#utility.yul\":939:940   */\n  0x00\n    /* \"#utility.yul\":964:1028   */\n  tag_26\n    /* \"#utility.yul\":1020:1027   */\n  dup5\n    /* \"#utility.yul\":1011:1017   */\n  dup3\n    /* \"#utility.yul\":1000:1009   */\n  dup6\n    /* \"#utility.yul\":996:1018   */\n  add\n    /* \"#utility.yul\":964:1028   */\n  tag_12\n  jump\t// in\ntag_26:\n    /* \"#utility.yul\":954:1028   */\n  swap2\n  pop\n    /* \"#utility.yul\":910:1038   */\n  pop\n    /* \"#utility.yul\":694:1045   */\n  swap3\n  swap2\n  pop\n  pop\n  jump\t// out\n    /* \"contracts/automation/CustomLogic_flattened.sol\":3446:4310  contract CustomLogic is AutomationCompatibleInterface {... */\ntag_6:\n  mload(0x80)\n  codecopy(0x00, dataOffset(sub_0), dataSize(sub_0))\n  0x00\n  assignImmutable(\"0xcc143a676b82d5e07b2c9d57717b403ab3c58caa273a42cdb95b15980141a86c\")\n  return(0x00, dataSize(sub_0))\nstop\n\nsub_0: assembly {\n        /* \"contracts/automation/CustomLogic_flattened.sol\":3446:4310  contract CustomLogic is AutomationCompatibleInterface {... */\n      mstore(0x40, 0x80)\n      callvalue\n      dup1\n      iszero\n      tag_1\n      jumpi\n      revert(0x00, 0x00)\n    tag_1:\n      pop\n      jumpi(tag_2, lt(calldatasize, 0x04))\n      shr(0xe0, calldataload(0x00))\n      dup1\n      0x3f3b3b27\n      eq\n      tag_3\n      jumpi\n      dup1\n      0x4585e33b\n      eq\n      tag_4\n      jumpi\n      dup1\n      0x61bc221a\n      eq\n      tag_5\n      jumpi\n      dup1\n      0x6e04ff0d\n      eq\n      tag_6\n      jumpi\n      dup1\n      0x8fe595db\n      eq\n      tag_7\n      jumpi\n    tag_2:\n      revert(0x00, 0x00)\n        /* \"contracts/automation/CustomLogic_flattened.sol\":3586:3614  uint256 public lastTimeStamp */\n    tag_3:\n      tag_8\n      tag_9\n      jump\t// in\n    tag_8:\n      mload(0x40)\n      tag_10\n      swap2\n      swap1\n      tag_11\n      jump\t// in\n    tag_10:\n      mload(0x40)\n      dup1\n      swap2\n      sub\n      swap1\n      return\n        /* \"contracts/automation/CustomLogic_flattened.sol\":4074:4306  function performUpkeep(bytes calldata) external override {  ... */\n    tag_4:\n      tag_12\n      0x04\n      dup1\n      calldatasize\n      sub\n      dup2\n      add\n      swap1\n      tag_13\n      swap2\n      swap1\n      tag_14\n      jump\t// in\n    tag_13:\n      tag_15\n      jump\t// in\n    tag_12:\n      stop\n        /* \"contracts/automation/CustomLogic_flattened.sol\":3507:3529  uint256 public counter */\n    tag_5:\n      tag_16\n      tag_17\n      jump\t// in\n    tag_16:\n      mload(0x40)\n      tag_18\n      swap2\n      swap1\n      tag_11\n      jump\t// in\n    tag_18:\n      mload(0x40)\n      dup1\n      swap2\n      sub\n      swap1\n      return\n        /* \"contracts/automation/CustomLogic_flattened.sol\":3760:4068  function checkUpkeep(  ... */\n    tag_6:\n      tag_19\n      0x04\n      dup1\n      calldatasize\n      sub\n      dup2\n      add\n      swap1\n      tag_20\n      swap2\n      swap1\n      tag_14\n      jump\t// in\n    tag_20:\n      tag_21\n      jump\t// in\n    tag_19:\n      mload(0x40)\n      tag_22\n      swap3\n      swap2\n      swap1\n      tag_23\n      jump\t// in\n    tag_22:\n      mload(0x40)\n      dup1\n      swap2\n      sub\n      swap1\n      return\n        /* \"contracts/automation/CustomLogic_flattened.sol\":3537:3578  uint256 public immutable i_updateInterval */\n    tag_7:\n      tag_24\n      tag_25\n      jump\t// in\n    tag_24:\n      mload(0x40)\n      tag_26\n      swap2\n      swap1\n      tag_11\n      jump\t// in\n    tag_26:\n      mload(0x40)\n      dup1\n      swap2\n      sub\n      swap1\n      return\n        /* \"contracts/automation/CustomLogic_flattened.sol\":3586:3614  uint256 public lastTimeStamp */\n    tag_9:\n      sload(0x01)\n      dup2\n      jump\t// out\n        /* \"contracts/automation/CustomLogic_flattened.sol\":4074:4306  function performUpkeep(bytes calldata) external override {  ... */\n    tag_15:\n        /* \"contracts/automation/CustomLogic_flattened.sol\":4183:4199  i_updateInterval */\n      immutable(\"0xcc143a676b82d5e07b2c9d57717b403ab3c58caa273a42cdb95b15980141a86c\")\n        /* \"contracts/automation/CustomLogic_flattened.sol\":4166:4179  lastTimeStamp */\n      sload(0x01)\n        /* \"contracts/automation/CustomLogic_flattened.sol\":4148:4163  block.timestamp */\n      timestamp\n        /* \"contracts/automation/CustomLogic_flattened.sol\":4148:4179  block.timestamp - lastTimeStamp */\n      tag_28\n      swap2\n      swap1\n      tag_29\n      jump\t// in\n    tag_28:\n        /* \"contracts/automation/CustomLogic_flattened.sol\":4147:4199  (block.timestamp - lastTimeStamp) > i_updateInterval */\n      gt\n        /* \"contracts/automation/CustomLogic_flattened.sol\":4143:4298  if ((block.timestamp - lastTimeStamp) > i_updateInterval) {  ... */\n      iszero\n      tag_30\n      jumpi\n        /* \"contracts/automation/CustomLogic_flattened.sol\":4233:4248  block.timestamp */\n      timestamp\n        /* \"contracts/automation/CustomLogic_flattened.sol\":4217:4230  lastTimeStamp */\n      0x01\n        /* \"contracts/automation/CustomLogic_flattened.sol\":4217:4248  lastTimeStamp = block.timestamp */\n      dup2\n      swap1\n      sstore\n      pop\n        /* \"contracts/automation/CustomLogic_flattened.sol\":4284:4285  1 */\n      0x01\n        /* \"contracts/automation/CustomLogic_flattened.sol\":4274:4281  counter */\n      sload(0x00)\n        /* \"contracts/automation/CustomLogic_flattened.sol\":4274:4285  counter + 1 */\n      tag_31\n      swap2\n      swap1\n      tag_32\n      jump\t// in\n    tag_31:\n        /* \"contracts/automation/CustomLogic_flattened.sol\":4264:4271  counter */\n      0x00\n        /* \"contracts/automation/CustomLogic_flattened.sol\":4264:4285  counter = counter + 1 */\n      dup2\n      swap1\n      sstore\n      pop\n        /* \"contracts/automation/CustomLogic_flattened.sol\":4143:4298  if ((block.timestamp - lastTimeStamp) > i_updateInterval) {  ... */\n    tag_30:\n        /* \"contracts/automation/CustomLogic_flattened.sol\":4074:4306  function performUpkeep(bytes calldata) external override {  ... */\n      pop\n      pop\n      jump\t// out\n        /* \"contracts/automation/CustomLogic_flattened.sol\":3507:3529  uint256 public counter */\n    tag_17:\n      sload(0x00)\n      dup2\n      jump\t// out\n        /* \"contracts/automation/CustomLogic_flattened.sol\":3760:4068  function checkUpkeep(  ... */\n    tag_21:\n        /* \"contracts/automation/CustomLogic_flattened.sol\":3903:3920  bool upkeepNeeded */\n      0x00\n        /* \"contracts/automation/CustomLogic_flattened.sol\":3922:3946  bytes memory performData */\n      0x60\n        /* \"contracts/automation/CustomLogic_flattened.sol\":4017:4033  i_updateInterval */\n      immutable(\"0xcc143a676b82d5e07b2c9d57717b403ab3c58caa273a42cdb95b15980141a86c\")\n        /* \"contracts/automation/CustomLogic_flattened.sol\":4000:4013  lastTimeStamp */\n      sload(0x01)\n        /* \"contracts/automation/CustomLogic_flattened.sol\":3982:3997  block.timestamp */\n      timestamp\n        /* \"contracts/automation/CustomLogic_flattened.sol\":3982:4013  block.timestamp - lastTimeStamp */\n      tag_34\n      swap2\n      swap1\n      tag_29\n      jump\t// in\n    tag_34:\n        /* \"contracts/automation/CustomLogic_flattened.sol\":3981:4033  (block.timestamp - lastTimeStamp) > i_updateInterval */\n      gt\n        /* \"contracts/automation/CustomLogic_flattened.sol\":3966:4033  upkeepNeeded = (block.timestamp - lastTimeStamp) > i_updateInterval */\n      swap2\n      pop\n        /* \"contracts/automation/CustomLogic_flattened.sol\":4045:4061  performData = \"\" */\n      mload(0x40)\n      dup1\n      0x20\n      add\n      0x40\n      mstore\n      dup1\n      0x00\n      dup2\n      mstore\n      pop\n      swap1\n      pop\n        /* \"contracts/automation/CustomLogic_flattened.sol\":3760:4068  function checkUpkeep(  ... */\n      swap3\n      pop\n      swap3\n      swap1\n      pop\n      jump\t// out\n        /* \"contracts/automation/CustomLogic_flattened.sol\":3537:3578  uint256 public immutable i_updateInterval */\n    tag_25:\n      immutable(\"0xcc143a676b82d5e07b2c9d57717b403ab3c58caa273a42cdb95b15980141a86c\")\n      dup2\n      jump\t// out\n        /* \"#utility.yul\":7:84   */\n    tag_35:\n        /* \"#utility.yul\":44:51   */\n      0x00\n        /* \"#utility.yul\":73:78   */\n      dup2\n        /* \"#utility.yul\":62:78   */\n      swap1\n      pop\n        /* \"#utility.yul\":7:84   */\n      swap2\n      swap1\n      pop\n      jump\t// out\n        /* \"#utility.yul\":90:208   */\n    tag_36:\n        /* \"#utility.yul\":177:201   */\n      tag_55\n        /* \"#utility.yul\":195:200   */\n      dup2\n        /* \"#utility.yul\":177:201   */\n      tag_35\n      jump\t// in\n    tag_55:\n        /* \"#utility.yul\":172:175   */\n      dup3\n        /* \"#utility.yul\":165:202   */\n      mstore\n        /* \"#utility.yul\":90:208   */\n      pop\n      pop\n      jump\t// out\n        /* \"#utility.yul\":214:436   */\n    tag_11:\n        /* \"#utility.yul\":307:311   */\n      0x00\n        /* \"#utility.yul\":345:347   */\n      0x20\n        /* \"#utility.yul\":334:343   */\n      dup3\n        /* \"#utility.yul\":330:348   */\n      add\n        /* \"#utility.yul\":322:348   */\n      swap1\n      pop\n        /* \"#utility.yul\":358:429   */\n      tag_57\n        /* \"#utility.yul\":426:427   */\n      0x00\n        /* \"#utility.yul\":415:424   */\n      dup4\n        /* \"#utility.yul\":411:428   */\n      add\n        /* \"#utility.yul\":402:408   */\n      dup5\n        /* \"#utility.yul\":358:429   */\n      tag_36\n      jump\t// in\n    tag_57:\n        /* \"#utility.yul\":214:436   */\n      swap3\n      swap2\n      pop\n      pop\n      jump\t// out\n        /* \"#utility.yul\":523:640   */\n    tag_38:\n        /* \"#utility.yul\":632:633   */\n      0x00\n        /* \"#utility.yul\":629:630   */\n      0x00\n        /* \"#utility.yul\":622:634   */\n      revert\n        /* \"#utility.yul\":646:763   */\n    tag_39:\n        /* \"#utility.yul\":755:756   */\n      0x00\n        /* \"#utility.yul\":752:753   */\n      0x00\n        /* \"#utility.yul\":745:757   */\n      revert\n        /* \"#utility.yul\":769:886   */\n    tag_40:\n        /* \"#utility.yul\":878:879   */\n      0x00\n        /* \"#utility.yul\":875:876   */\n      0x00\n        /* \"#utility.yul\":868:880   */\n      revert\n        /* \"#utility.yul\":892:1009   */\n    tag_41:\n        /* \"#utility.yul\":1001:1002   */\n      0x00\n        /* \"#utility.yul\":998:999   */\n      0x00\n        /* \"#utility.yul\":991:1003   */\n      revert\n        /* \"#utility.yul\":1015:1132   */\n    tag_42:\n        /* \"#utility.yul\":1124:1125   */\n      0x00\n        /* \"#utility.yul\":1121:1122   */\n      0x00\n        /* \"#utility.yul\":1114:1126   */\n      revert\n        /* \"#utility.yul\":1151:1703   */\n    tag_43:\n        /* \"#utility.yul\":1208:1216   */\n      0x00\n        /* \"#utility.yul\":1218:1224   */\n      0x00\n        /* \"#utility.yul\":1268:1271   */\n      dup4\n        /* \"#utility.yul\":1261:1265   */\n      0x1f\n        /* \"#utility.yul\":1253:1259   */\n      dup5\n        /* \"#utility.yul\":1249:1266   */\n      add\n        /* \"#utility.yul\":1245:1272   */\n      slt\n        /* \"#utility.yul\":1235:1357   */\n      tag_65\n      jumpi\n        /* \"#utility.yul\":1276:1355   */\n      tag_66\n      tag_40\n      jump\t// in\n    tag_66:\n        /* \"#utility.yul\":1235:1357   */\n    tag_65:\n        /* \"#utility.yul\":1389:1395   */\n      dup3\n        /* \"#utility.yul\":1376:1396   */\n      calldataload\n        /* \"#utility.yul\":1366:1396   */\n      swap1\n      pop\n        /* \"#utility.yul\":1419:1437   */\n      0xffffffffffffffff\n        /* \"#utility.yul\":1411:1417   */\n      dup2\n        /* \"#utility.yul\":1408:1438   */\n      gt\n        /* \"#utility.yul\":1405:1522   */\n      iszero\n      tag_67\n      jumpi\n        /* \"#utility.yul\":1441:1520   */\n      tag_68\n      tag_41\n      jump\t// in\n    tag_68:\n        /* \"#utility.yul\":1405:1522   */\n    tag_67:\n        /* \"#utility.yul\":1555:1559   */\n      0x20\n        /* \"#utility.yul\":1547:1553   */\n      dup4\n        /* \"#utility.yul\":1543:1560   */\n      add\n        /* \"#utility.yul\":1531:1560   */\n      swap2\n      pop\n        /* \"#utility.yul\":1609:1612   */\n      dup4\n        /* \"#utility.yul\":1601:1605   */\n      0x01\n        /* \"#utility.yul\":1593:1599   */\n      dup3\n        /* \"#utility.yul\":1589:1606   */\n      mul\n        /* \"#utility.yul\":1579:1587   */\n      dup4\n        /* \"#utility.yul\":1575:1607   */\n      add\n        /* \"#utility.yul\":1572:1613   */\n      gt\n        /* \"#utility.yul\":1569:1697   */\n      iszero\n      tag_69\n      jumpi\n        /* \"#utility.yul\":1616:1695   */\n      tag_70\n      tag_42\n      jump\t// in\n    tag_70:\n        /* \"#utility.yul\":1569:1697   */\n    tag_69:\n        /* \"#utility.yul\":1151:1703   */\n      swap3\n      pop\n      swap3\n      swap1\n      pop\n      jump\t// out\n        /* \"#utility.yul\":1709:2236   */\n    tag_14:\n        /* \"#utility.yul\":1779:1785   */\n      0x00\n        /* \"#utility.yul\":1787:1793   */\n      0x00\n        /* \"#utility.yul\":1836:1838   */\n      0x20\n        /* \"#utility.yul\":1824:1833   */\n      dup4\n        /* \"#utility.yul\":1815:1822   */\n      dup6\n        /* \"#utility.yul\":1811:1834   */\n      sub\n        /* \"#utility.yul\":1807:1839   */\n      slt\n        /* \"#utility.yul\":1804:1923   */\n      iszero\n      tag_72\n      jumpi\n        /* \"#utility.yul\":1842:1921   */\n      tag_73\n      tag_38\n      jump\t// in\n    tag_73:\n        /* \"#utility.yul\":1804:1923   */\n    tag_72:\n        /* \"#utility.yul\":1990:1991   */\n      0x00\n        /* \"#utility.yul\":1979:1988   */\n      dup4\n        /* \"#utility.yul\":1975:1992   */\n      add\n        /* \"#utility.yul\":1962:1993   */\n      calldataload\n        /* \"#utility.yul\":2020:2038   */\n      0xffffffffffffffff\n        /* \"#utility.yul\":2012:2018   */\n      dup2\n        /* \"#utility.yul\":2009:2039   */\n      gt\n        /* \"#utility.yul\":2006:2123   */\n      iszero\n      tag_74\n      jumpi\n        /* \"#utility.yul\":2042:2121   */\n      tag_75\n      tag_39\n      jump\t// in\n    tag_75:\n        /* \"#utility.yul\":2006:2123   */\n    tag_74:\n        /* \"#utility.yul\":2155:2219   */\n      tag_76\n        /* \"#utility.yul\":2211:2218   */\n      dup6\n        /* \"#utility.yul\":2202:2208   */\n      dup3\n        /* \"#utility.yul\":2191:2200   */\n      dup7\n        /* \"#utility.yul\":2187:2209   */\n      add\n        /* \"#utility.yul\":2155:2219   */\n      tag_43\n      jump\t// in\n    tag_76:\n        /* \"#utility.yul\":2137:2219   */\n      swap3\n      pop\n      swap3\n      pop\n        /* \"#utility.yul\":1933:2229   */\n      pop\n        /* \"#utility.yul\":1709:2236   */\n      swap3\n      pop\n      swap3\n      swap1\n      pop\n      jump\t// out\n        /* \"#utility.yul\":2242:2332   */\n    tag_44:\n        /* \"#utility.yul\":2276:2283   */\n      0x00\n        /* \"#utility.yul\":2319:2324   */\n      dup2\n        /* \"#utility.yul\":2312:2325   */\n      iszero\n        /* \"#utility.yul\":2305:2326   */\n      iszero\n        /* \"#utility.yul\":2294:2326   */\n      swap1\n      pop\n        /* \"#utility.yul\":2242:2332   */\n      swap2\n      swap1\n      pop\n      jump\t// out\n        /* \"#utility.yul\":2338:2447   */\n    tag_45:\n        /* \"#utility.yul\":2419:2440   */\n      tag_79\n        /* \"#utility.yul\":2434:2439   */\n      dup2\n        /* \"#utility.yul\":2419:2440   */\n      tag_44\n      jump\t// in\n    tag_79:\n        /* \"#utility.yul\":2414:2417   */\n      dup3\n        /* \"#utility.yul\":2407:2441   */\n      mstore\n        /* \"#utility.yul\":2338:2447   */\n      pop\n      pop\n      jump\t// out\n        /* \"#utility.yul\":2453:2551   */\n    tag_46:\n        /* \"#utility.yul\":2504:2510   */\n      0x00\n        /* \"#utility.yul\":2538:2543   */\n      dup2\n        /* \"#utility.yul\":2532:2544   */\n      mload\n        /* \"#utility.yul\":2522:2544   */\n      swap1\n      pop\n        /* \"#utility.yul\":2453:2551   */\n      swap2\n      swap1\n      pop\n      jump\t// out\n        /* \"#utility.yul\":2557:2725   */\n    tag_47:\n        /* \"#utility.yul\":2640:2651   */\n      0x00\n        /* \"#utility.yul\":2674:2680   */\n      dup3\n        /* \"#utility.yul\":2669:2672   */\n      dup3\n        /* \"#utility.yul\":2662:2681   */\n      mstore\n        /* \"#utility.yul\":2714:2718   */\n      0x20\n        /* \"#utility.yul\":2709:2712   */\n      dup3\n        /* \"#utility.yul\":2705:2719   */\n      add\n        /* \"#utility.yul\":2690:2719   */\n      swap1\n      pop\n        /* \"#utility.yul\":2557:2725   */\n      swap3\n      swap2\n      pop\n      pop\n      jump\t// out\n        /* \"#utility.yul\":2731:2870   */\n    tag_48:\n        /* \"#utility.yul\":2820:2826   */\n      dup3\n        /* \"#utility.yul\":2815:2818   */\n      dup2\n        /* \"#utility.yul\":2810:2813   */\n      dup4\n        /* \"#utility.yul\":2804:2827   */\n      mcopy\n        /* \"#utility.yul\":2861:2862   */\n      0x00\n        /* \"#utility.yul\":2852:2858   */\n      dup4\n        /* \"#utility.yul\":2847:2850   */\n      dup4\n        /* \"#utility.yul\":2843:2859   */\n      add\n        /* \"#utility.yul\":2836:2863   */\n      mstore\n        /* \"#utility.yul\":2731:2870   */\n      pop\n      pop\n      pop\n      jump\t// out\n        /* \"#utility.yul\":2876:2978   */\n    tag_49:\n        /* \"#utility.yul\":2917:2923   */\n      0x00\n        /* \"#utility.yul\":2968:2970   */\n      0x1f\n        /* \"#utility.yul\":2964:2971   */\n      not\n        /* \"#utility.yul\":2959:2961   */\n      0x1f\n        /* \"#utility.yul\":2952:2957   */\n      dup4\n        /* \"#utility.yul\":2948:2962   */\n      add\n        /* \"#utility.yul\":2944:2972   */\n      and\n        /* \"#utility.yul\":2934:2972   */\n      swap1\n      pop\n        /* \"#utility.yul\":2876:2978   */\n      swap2\n      swap1\n      pop\n      jump\t// out\n        /* \"#utility.yul\":2984:3357   */\n    tag_50:\n        /* \"#utility.yul\":3070:3073   */\n      0x00\n        /* \"#utility.yul\":3098:3136   */\n      tag_85\n        /* \"#utility.yul\":3130:3135   */\n      dup3\n        /* \"#utility.yul\":3098:3136   */\n      tag_46\n      jump\t// in\n    tag_85:\n        /* \"#utility.yul\":3152:3222   */\n      tag_86\n        /* \"#utility.yul\":3215:3221   */\n      dup2\n        /* \"#utility.yul\":3210:3213   */\n      dup6\n        /* \"#utility.yul\":3152:3222   */\n      tag_47\n      jump\t// in\n    tag_86:\n        /* \"#utility.yul\":3145:3222   */\n      swap4\n      pop\n        /* \"#utility.yul\":3231:3296   */\n      tag_87\n        /* \"#utility.yul\":3289:3295   */\n      dup2\n        /* \"#utility.yul\":3284:3287   */\n      dup6\n        /* \"#utility.yul\":3277:3281   */\n      0x20\n        /* \"#utility.yul\":3270:3275   */\n      dup7\n        /* \"#utility.yul\":3266:3282   */\n      add\n        /* \"#utility.yul\":3231:3296   */\n      tag_48\n      jump\t// in\n    tag_87:\n        /* \"#utility.yul\":3321:3350   */\n      tag_88\n        /* \"#utility.yul\":3343:3349   */\n      dup2\n        /* \"#utility.yul\":3321:3350   */\n      tag_49\n      jump\t// in\n    tag_88:\n        /* \"#utility.yul\":3316:3319   */\n      dup5\n        /* \"#utility.yul\":3312:3351   */\n      add\n        /* \"#utility.yul\":3305:3351   */\n      swap2\n      pop\n        /* \"#utility.yul\":3074:3357   */\n      pop\n        /* \"#utility.yul\":2984:3357   */\n      swap3\n      swap2\n      pop\n      pop\n      jump\t// out\n        /* \"#utility.yul\":3363:3770   */\n    tag_23:\n        /* \"#utility.yul\":3496:3500   */\n      0x00\n        /* \"#utility.yul\":3534:3536   */\n      0x40\n        /* \"#utility.yul\":3523:3532   */\n      dup3\n        /* \"#utility.yul\":3519:3537   */\n      add\n        /* \"#utility.yul\":3511:3537   */\n      swap1\n      pop\n        /* \"#utility.yul\":3547:3612   */\n      tag_90\n        /* \"#utility.yul\":3609:3610   */\n      0x00\n        /* \"#utility.yul\":3598:3607   */\n      dup4\n        /* \"#utility.yul\":3594:3611   */\n      add\n        /* \"#utility.yul\":3585:3591   */\n      dup6\n        /* \"#utility.yul\":3547:3612   */\n      tag_45\n      jump\t// in\n    tag_90:\n        /* \"#utility.yul\":3659:3668   */\n      dup2\n        /* \"#utility.yul\":3653:3657   */\n      dup2\n        /* \"#utility.yul\":3649:3669   */\n      sub\n        /* \"#utility.yul\":3644:3646   */\n      0x20\n        /* \"#utility.yul\":3633:3642   */\n      dup4\n        /* \"#utility.yul\":3629:3647   */\n      add\n        /* \"#utility.yul\":3622:3670   */\n      mstore\n        /* \"#utility.yul\":3687:3763   */\n      tag_91\n        /* \"#utility.yul\":3758:3762   */\n      dup2\n        /* \"#utility.yul\":3749:3755   */\n      dup5\n        /* \"#utility.yul\":3687:3763   */\n      tag_50\n      jump\t// in\n    tag_91:\n        /* \"#utility.yul\":3679:3763   */\n      swap1\n      pop\n        /* \"#utility.yul\":3363:3770   */\n      swap4\n      swap3\n      pop\n      pop\n      pop\n      jump\t// out\n        /* \"#utility.yul\":3776:3956   */\n    tag_51:\n        /* \"#utility.yul\":3824:3901   */\n      0x4e487b7100000000000000000000000000000000000000000000000000000000\n        /* \"#utility.yul\":3821:3822   */\n      0x00\n        /* \"#utility.yul\":3814:3902   */\n      mstore\n        /* \"#utility.yul\":3921:3925   */\n      0x11\n        /* \"#utility.yul\":3918:3919   */\n      0x04\n        /* \"#utility.yul\":3911:3926   */\n      mstore\n        /* \"#utility.yul\":3945:3949   */\n      0x24\n        /* \"#utility.yul\":3942:3943   */\n      0x00\n        /* \"#utility.yul\":3935:3950   */\n      revert\n        /* \"#utility.yul\":3962:4156   */\n    tag_29:\n        /* \"#utility.yul\":4002:4006   */\n      0x00\n        /* \"#utility.yul\":4022:4042   */\n      tag_94\n        /* \"#utility.yul\":4040:4041   */\n      dup3\n        /* \"#utility.yul\":4022:4042   */\n      tag_35\n      jump\t// in\n    tag_94:\n        /* \"#utility.yul\":4017:4042   */\n      swap2\n      pop\n        /* \"#utility.yul\":4056:4076   */\n      tag_95\n        /* \"#utility.yul\":4074:4075   */\n      dup4\n        /* \"#utility.yul\":4056:4076   */\n      tag_35\n      jump\t// in\n    tag_95:\n        /* \"#utility.yul\":4051:4076   */\n      swap3\n      pop\n        /* \"#utility.yul\":4100:4101   */\n      dup3\n        /* \"#utility.yul\":4097:4098   */\n      dup3\n        /* \"#utility.yul\":4093:4102   */\n      sub\n        /* \"#utility.yul\":4085:4102   */\n      swap1\n      pop\n        /* \"#utility.yul\":4124:4125   */\n      dup2\n        /* \"#utility.yul\":4118:4122   */\n      dup2\n        /* \"#utility.yul\":4115:4126   */\n      gt\n        /* \"#utility.yul\":4112:4149   */\n      iszero\n      tag_96\n      jumpi\n        /* \"#utility.yul\":4129:4147   */\n      tag_97\n      tag_51\n      jump\t// in\n    tag_97:\n        /* \"#utility.yul\":4112:4149   */\n    tag_96:\n        /* \"#utility.yul\":3962:4156   */\n      swap3\n      swap2\n      pop\n      pop\n      jump\t// out\n        /* \"#utility.yul\":4162:4353   */\n    tag_32:\n        /* \"#utility.yul\":4202:4205   */\n      0x00\n        /* \"#utility.yul\":4221:4241   */\n      tag_99\n        /* \"#utility.yul\":4239:4240   */\n      dup3\n        /* \"#utility.yul\":4221:4241   */\n      tag_35\n      jump\t// in\n    tag_99:\n        /* \"#utility.yul\":4216:4241   */\n      swap2\n      pop\n        /* \"#utility.yul\":4255:4275   */\n      tag_100\n        /* \"#utility.yul\":4273:4274   */\n      dup4\n        /* \"#utility.yul\":4255:4275   */\n      tag_35\n      jump\t// in\n    tag_100:\n        /* \"#utility.yul\":4250:4275   */\n      swap3\n      pop\n        /* \"#utility.yul\":4298:4299   */\n      dup3\n        /* \"#utility.yul\":4295:4296   */\n      dup3\n        /* \"#utility.yul\":4291:4300   */\n      add\n        /* \"#utility.yul\":4284:4300   */\n      swap1\n      pop\n        /* \"#utility.yul\":4319:4322   */\n      dup1\n        /* \"#utility.yul\":4316:4317   */\n      dup3\n        /* \"#utility.yul\":4313:4323   */\n      gt\n        /* \"#utility.yul\":4310:4346   */\n      iszero\n      tag_101\n      jumpi\n        /* \"#utility.yul\":4326:4344   */\n      tag_102\n      tag_51\n      jump\t// in\n    tag_102:\n        /* \"#utility.yul\":4310:4346   */\n    tag_101:\n        /* \"#utility.yul\":4162:4353   */\n      swap3\n      swap2\n      pop\n      pop\n      jump\t// out\n\n    auxdata: 0xa26469706673582212203ee71dfcbf3880a9c08667ca1f60bc4a92c87f470d3e0831ee28d710ea69f42964736f6c634300081f0033\n}\n",
				"bytecode": {
					"linkReferences": {},
					"object": "60a060405234801561000f575f5ffd5b506040516105043803806105048339818101604052810190610031919061007d565b806080818152505042600181905550506100a8565b5f5ffd5b5f819050919050565b61005c8161004a565b8114610066575f5ffd5b50565b5f8151905061007781610053565b92915050565b5f6020828403121561009257610091610046565b5b5f61009f84828501610069565b91505092915050565b6080516104366100ce5f395f81816101080152818161016401526101ae01526104365ff3fe608060405234801561000f575f5ffd5b5060043610610055575f3560e01c80633f3b3b27146100595780634585e33b1461007757806361bc221a146100935780636e04ff0d146100b15780638fe595db146100e2575b5f5ffd5b610061610100565b60405161006e91906101e8565b60405180910390f35b610091600480360381019061008c919061026a565b610106565b005b61009b61015a565b6040516100a891906101e8565b60405180910390f35b6100cb60048036038101906100c6919061026a565b61015f565b6040516100d992919061033f565b60405180910390f35b6100ea6101ac565b6040516100f791906101e8565b60405180910390f35b60015481565b7f000000000000000000000000000000000000000000000000000000000000000060015442610135919061039a565b1115610156574260018190555060015f5461015091906103cd565b5f819055505b5050565b5f5481565b5f60607f000000000000000000000000000000000000000000000000000000000000000060015442610191919061039a565b11915060405180602001604052805f81525090509250929050565b7f000000000000000000000000000000000000000000000000000000000000000081565b5f819050919050565b6101e2816101d0565b82525050565b5f6020820190506101fb5f8301846101d9565b92915050565b5f5ffd5b5f5ffd5b5f5ffd5b5f5ffd5b5f5ffd5b5f5f83601f84011261022a57610229610209565b5b8235905067ffffffffffffffff8111156102475761024661020d565b5b60208301915083600182028301111561026357610262610211565b5b9250929050565b5f5f602083850312156102805761027f610201565b5b5f83013567ffffffffffffffff81111561029d5761029c610205565b5b6102a985828601610215565b92509250509250929050565b5f8115159050919050565b6102c9816102b5565b82525050565b5f81519050919050565b5f82825260208201905092915050565b8281835e5f83830152505050565b5f601f19601f8301169050919050565b5f610311826102cf565b61031b81856102d9565b935061032b8185602086016102e9565b610334816102f7565b840191505092915050565b5f6040820190506103525f8301856102c0565b81810360208301526103648184610307565b90509392505050565b7f4e487b71000000000000000000000000000000000000000000000000000000005f52601160045260245ffd5b5f6103a4826101d0565b91506103af836101d0565b92508282039050818111156103c7576103c661036d565b5b92915050565b5f6103d7826101d0565b91506103e2836101d0565b92508282019050808211156103fa576103f961036d565b5b9291505056fea26469706673582212203ee71dfcbf3880a9c08667ca1f60bc4a92c87f470d3e0831ee28d710ea69f42964736f6c634300081f0033",
					"opcodes": "PUSH1 0xA0 PUSH1 0x40 MSTORE CALLVALUE DUP1 ISZERO PUSH2 0xF JUMPI PUSH0 PUSH0 REVERT JUMPDEST POP PUSH1 0x40 MLOAD PUSH2 0x504 CODESIZE SUB DUP1 PUSH2 0x504 DUP4 CODECOPY DUP2 DUP2 ADD PUSH1 0x40 MSTORE DUP2 ADD SWAP1 PUSH2 0x31 SWAP2 SWAP1 PUSH2 0x7D JUMP JUMPDEST DUP1 PUSH1 0x80 DUP2 DUP2 MSTORE POP POP TIMESTAMP PUSH1 0x1 DUP2 SWAP1 SSTORE POP POP PUSH2 0xA8 JUMP JUMPDEST PUSH0 PUSH0 REVERT JUMPDEST PUSH0 DUP2 SWAP1 POP SWAP2 SWAP1 POP JUMP JUMPDEST PUSH2 0x5C DUP2 PUSH2 0x4A JUMP JUMPDEST DUP2 EQ PUSH2 0x66 JUMPI PUSH0 PUSH0 REVERT JUMPDEST POP JUMP JUMPDEST PUSH0 DUP2 MLOAD SWAP1 POP PUSH2 0x77 DUP2 PUSH2 0x53 JUMP JUMPDEST SWAP3 SWAP2 POP POP JUMP JUMPDEST PUSH0 PUSH1 0x20 DUP3 DUP5 SUB SLT ISZERO PUSH2 0x92 JUMPI PUSH2 0x91 PUSH2 0x46 JUMP JUMPDEST JUMPDEST PUSH0 PUSH2 0x9F DUP5 DUP3 DUP6 ADD PUSH2 0x69 JUMP JUMPDEST SWAP2 POP POP SWAP3 SWAP2 POP POP JUMP JUMPDEST PUSH1 0x80 MLOAD PUSH2 0x436 PUSH2 0xCE PUSH0 CODECOPY PUSH0 DUP2 DUP2 PUSH2 0x108 ADD MSTORE DUP2 DUP2 PUSH2 0x164 ADD MSTORE PUSH2 0x1AE ADD MSTORE PUSH2 0x436 PUSH0 RETURN INVALID PUSH1 0x80 PUSH1 0x40 MSTORE CALLVALUE DUP1 ISZERO PUSH2 0xF JUMPI PUSH0 PUSH0 REVERT JUMPDEST POP PUSH1 0x4 CALLDATASIZE LT PUSH2 0x55 JUMPI PUSH0 CALLDATALOAD PUSH1 0xE0 SHR DUP1 PUSH4 0x3F3B3B27 EQ PUSH2 0x59 JUMPI DUP1 PUSH4 0x4585E33B EQ PUSH2 0x77 JUMPI DUP1 PUSH4 0x61BC221A EQ PUSH2 0x93 JUMPI DUP1 PUSH4 0x6E04FF0D EQ PUSH2 0xB1 JUMPI DUP1 PUSH4 0x8FE595DB EQ PUSH2 0xE2 JUMPI JUMPDEST PUSH0 PUSH0 REVERT JUMPDEST PUSH2 0x61 PUSH2 0x100 JUMP JUMPDEST PUSH1 0x40 MLOAD PUSH2 0x6E SWAP2 SWAP1 PUSH2 0x1E8 JUMP JUMPDEST PUSH1 0x40 MLOAD DUP1 SWAP2 SUB SWAP1 RETURN JUMPDEST PUSH2 0x91 PUSH1 0x4 DUP1 CALLDATASIZE SUB DUP2 ADD SWAP1 PUSH2 0x8C SWAP2 SWAP1 PUSH2 0x26A JUMP JUMPDEST PUSH2 0x106 JUMP JUMPDEST STOP JUMPDEST PUSH2 0x9B PUSH2 0x15A JUMP JUMPDEST PUSH1 0x40 MLOAD PUSH2 0xA8 SWAP2 SWAP1 PUSH2 0x1E8 JUMP JUMPDEST PUSH1 0x40 MLOAD DUP1 SWAP2 SUB SWAP1 RETURN JUMPDEST PUSH2 0xCB PUSH1 0x4 DUP1 CALLDATASIZE SUB DUP2 ADD SWAP1 PUSH2 0xC6 SWAP2 SWAP1 PUSH2 0x26A JUMP JUMPDEST PUSH2 0x15F JUMP JUMPDEST PUSH1 0x40 MLOAD PUSH2 0xD9 SWAP3 SWAP2 SWAP1 PUSH2 0x33F JUMP JUMPDEST PUSH1 0x40 MLOAD DUP1 SWAP2 SUB SWAP1 RETURN JUMPDEST PUSH2 0xEA PUSH2 0x1AC JUMP JUMPDEST PUSH1 0x40 MLOAD PUSH2 0xF7 SWAP2 SWAP1 PUSH2 0x1E8 JUMP JUMPDEST PUSH1 0x40 MLOAD DUP1 SWAP2 SUB SWAP1 RETURN JUMPDEST PUSH1 0x1 SLOAD DUP2 JUMP JUMPDEST PUSH32 0x0 PUSH1 0x1 SLOAD TIMESTAMP PUSH2 0x135 SWAP2 SWAP1 PUSH2 0x39A JUMP JUMPDEST GT ISZERO PUSH2 0x156 JUMPI TIMESTAMP PUSH1 0x1 DUP2 SWAP1 SSTORE POP PUSH1 0x1 PUSH0 SLOAD PUSH2 0x150 SWAP2 SWAP1 PUSH2 0x3CD JUMP JUMPDEST PUSH0 DUP2 SWAP1 SSTORE POP JUMPDEST POP POP JUMP JUMPDEST PUSH0 SLOAD DUP2 JUMP JUMPDEST PUSH0 PUSH1 0x60 PUSH32 0x0 PUSH1 0x1 SLOAD TIMESTAMP PUSH2 0x191 SWAP2 SWAP1 PUSH2 0x39A JUMP JUMPDEST GT SWAP2 POP PUSH1 0x40 MLOAD DUP1 PUSH1 0x20 ADD PUSH1 0x40 MSTORE DUP1 PUSH0 DUP2 MSTORE POP SWAP1 POP SWAP3 POP SWAP3 SWAP1 POP JUMP JUMPDEST PUSH32 0x0 DUP2 JUMP JUMPDEST PUSH0 DUP2 SWAP1 POP SWAP2 SWAP1 POP JUMP JUMPDEST PUSH2 0x1E2 DUP2 PUSH2 0x1D0 JUMP JUMPDEST DUP3 MSTORE POP POP JUMP JUMPDEST PUSH0 PUSH1 0x20 DUP3 ADD SWAP1 POP PUSH2 0x1FB PUSH0 DUP4 ADD DUP5 PUSH2 0x1D9 JUMP JUMPDEST SWAP3 SWAP2 POP POP JUMP JUMPDEST PUSH0 PUSH0 REVERT JUMPDEST PUSH0 PUSH0 REVERT JUMPDEST PUSH0 PUSH0 REVERT JUMPDEST PUSH0 PUSH0 REVERT JUMPDEST PUSH0 PUSH0 REVERT JUMPDEST PUSH0 PUSH0 DUP4 PUSH1 0x1F DUP5 ADD SLT PUSH2 0x22A JUMPI PUSH2 0x229 PUSH2 0x209 JUMP JUMPDEST JUMPDEST DUP3 CALLDATALOAD SWAP1 POP PUSH8 0xFFFFFFFFFFFFFFFF DUP2 GT ISZERO PUSH2 0x247 JUMPI PUSH2 0x246 PUSH2 0x20D JUMP JUMPDEST JUMPDEST PUSH1 0x20 DUP4 ADD SWAP2 POP DUP4 PUSH1 0x1 DUP3 MUL DUP4 ADD GT ISZERO PUSH2 0x263 JUMPI PUSH2 0x262 PUSH2 0x211 JUMP JUMPDEST JUMPDEST SWAP3 POP SWAP3 SWAP1 POP JUMP JUMPDEST PUSH0 PUSH0 PUSH1 0x20 DUP4 DUP6 SUB SLT ISZERO PUSH2 0x280 JUMPI PUSH2 0x27F PUSH2 0x201 JUMP JUMPDEST JUMPDEST PUSH0 DUP4 ADD CALLDATALOAD PUSH8 0xFFFFFFFFFFFFFFFF DUP2 GT ISZERO PUSH2 0x29D JUMPI PUSH2 0x29C PUSH2 0x205 JUMP JUMPDEST JUMPDEST PUSH2 0x2A9 DUP6 DUP3 DUP7 ADD PUSH2 0x215 JUMP JUMPDEST SWAP3 POP SWAP3 POP POP SWAP3 POP SWAP3 SWAP1 POP JUMP JUMPDEST PUSH0 DUP2 ISZERO ISZERO SWAP1 POP SWAP2 SWAP1 POP JUMP JUMPDEST PUSH2 0x2C9 DUP2 PUSH2 0x2B5 JUMP JUMPDEST DUP3 MSTORE POP POP JUMP JUMPDEST PUSH0 DUP2 MLOAD SWAP1 POP SWAP2 SWAP1 POP JUMP JUMPDEST PUSH0 DUP3 DUP3 MSTORE PUSH1 0x20 DUP3 ADD SWAP1 POP SWAP3 SWAP2 POP POP JUMP JUMPDEST DUP3 DUP2 DUP4 MCOPY PUSH0 DUP4 DUP4 ADD MSTORE POP POP POP JUMP JUMPDEST PUSH0 PUSH1 0x1F NOT PUSH1 0x1F DUP4 ADD AND SWAP1 POP SWAP2 SWAP1 POP JUMP JUMPDEST PUSH0 PUSH2 0x311 DUP3 PUSH2 0x2CF JUMP JUMPDEST PUSH2 0x31B DUP2 DUP6 PUSH2 0x2D9 JUMP JUMPDEST SWAP4 POP PUSH2 0x32B DUP2 DUP6 PUSH1 0x20 DUP7 ADD PUSH2 0x2E9 JUMP JUMPDEST PUSH2 0x334 DUP2 PUSH2 0x2F7 JUMP JUMPDEST DUP5 ADD SWAP2 POP POP SWAP3 SWAP2 POP POP JUMP JUMPDEST PUSH0 PUSH1 0x40 DUP3 ADD SWAP1 POP PUSH2 0x352 PUSH0 DUP4 ADD DUP6 PUSH2 0x2C0 JUMP JUMPDEST DUP2 DUP2 SUB PUSH1 0x20 DUP4 ADD MSTORE PUSH2 0x364 DUP2 DUP5 PUSH2 0x307 JUMP JUMPDEST SWAP1 POP SWAP4 SWAP3 POP POP POP JUMP JUMPDEST PUSH32 0x4E487B7100000000000000000000000000000000000000000000000000000000 PUSH0 MSTORE PUSH1 0x11 PUSH1 0x4 MSTORE PUSH1 0x24 PUSH0 REVERT JUMPDEST PUSH0 PUSH2 0x3A4 DUP3 PUSH2 0x1D0 JUMP JUMPDEST SWAP2 POP PUSH2 0x3AF DUP4 PUSH2 0x1D0 JUMP JUMPDEST SWAP3 POP DUP3 DUP3 SUB SWAP1 POP DUP2 DUP2 GT ISZERO PUSH2 0x3C7 JUMPI PUSH2 0x3C6 PUSH2 0x36D JUMP JUMPDEST JUMPDEST SWAP3 SWAP2 POP POP JUMP JUMPDEST PUSH0 PUSH2 0x3D7 DUP3 PUSH2 0x1D0 JUMP JUMPDEST SWAP2 POP PUSH2 0x3E2 DUP4 PUSH2 0x1D0 JUMP JUMPDEST SWAP3 POP DUP3 DUP3 ADD SWAP1 POP DUP1 DUP3 GT ISZERO PUSH2 0x3FA JUMPI PUSH2 0x3F9 PUSH2 0x36D JUMP JUMPDEST JUMPDEST SWAP3 SWAP2 POP POP JUMP INVALID LOG2 PUSH5 0x6970667358 0x22 SLT KECCAK256 RETURNDATACOPY SWAPN 0x1D 0xFC 0xBF CODESIZE DUP1 0xA9 0xC0 DUP7 PUSH8 0xCA1F60BC4A92C87F SELFBALANCE 0xD RETURNDATACOPY ADDMOD BALANCE RETURNCONTRACT 0x28 0xD7 LT 0xEA PUSH10 0xF42964736F6C63430008 0x1F STOP CALLER "
				},
				"gasEstimates": {
					"creation": {
						"codeDepositCost": "215600",
						"executionCost": "infinite",
						"totalCost": "infinite"
					},
					"external": {
						"checkUpkeep(bytes)": "infinite",
						"counter()": "2446",
						"i_updateInterval()": "infinite",
						"lastTimeStamp()": "2403",
						"performUpkeep(bytes)": "infinite"
					}
				},
				"methodIdentifiers": {
					"checkUpkeep(bytes)": "6e04ff0d",
					"counter()": "61bc221a",
					"i_updateInterval()": "8fe595db",
					"lastTimeStamp()": "3f3b3b27",
					"performUpkeep(bytes)": "4585e33b"
				}
			},
			"storageLayout": {
				"storage": [
					{
						"astId": 66,
						"contract": "contracts/automation/CustomLogic_flattened.sol:CustomLogic",
						"label": "counter",
						"offset": 0,
						"slot": "0",
						"type": "t_uint256"
					},
					{
						"astId": 70,
						"contract": "contracts/automation/CustomLogic_flattened.sol:CustomLogic",
						"label": "lastTimeStamp",
						"offset": 0,
						"slot": "1",
						"type": "t_uint256"
					}
				],
				"types": {
					"t_uint256": {
						"encoding": "inplace",
						"label": "uint256",
						"numberOfBytes": "32"
					}
				}
			},
			"userdoc": {
				"kind": "user",
				"methods": {},
				"version": 1
			}
		}
	}
}