{
	"contracts/automation/log-trigger/EventEmitter.sol": {
		"EventEmitter": {
			"abi": [
				{
					"inputs": [],
					"stateMutability": "nonpayable",
					"type": "constructor"
				},
				{
					"anonymous": false,
					"inputs": [
						{
							"indexed": true,
							"internalType": "address",
							"name": "msgSender",
							"type": "address"
						}
					],
					"name": "WantsToCount",
					"type": "event"
				},
				{
					"inputs": [],
					"name": "emitCountLog",
					"outputs": [],
					"stateMutability": "nonpayable",
					"type": "function"
				}
			],
			"devdoc": {
				"kind": "dev",
				"methods": {},
				"version": 1
			},
			"evm": {
				"assembly": "    /* \"contracts/automation/log-trigger/EventEmitter.sol\":60:249  contract EventEmitter {  ... */\n  mstore(0x40, 0x80)\n    /* \"contracts/automation/log-trigger/EventEmitter.sol\":142:158  constructor() {} */\n  callvalue\n  dup1\n  iszero\n  tag_1\n  jumpi\n  revert(0x00, 0x00)\ntag_1:\n  pop\n    /* \"contracts/automation/log-trigger/EventEmitter.sol\":60:249  contract EventEmitter {  ... */\n  dataSize(sub_0)\n  dup1\n  dataOffset(sub_0)\n  0x00\n  codecopy\n  0x00\n  return\nstop\n\nsub_0: assembly {\n        /* \"contracts/automation/log-trigger/EventEmitter.sol\":60:249  contract EventEmitter {  ... */\n      mstore(0x40, 0x80)\n      callvalue\n      dup1\n      iszero\n      tag_1\n      jumpi\n      revert(0x00, 0x00)\n    tag_1:\n      pop\n      jumpi(tag_2, lt(calldatasize, 0x04))\n      shr(0xe0, calldataload(0x00))\n      dup1\n      0x3ebca8e1\n      eq\n      tag_3\n      jumpi\n    tag_2:\n      revert(0x00, 0x00)\n        /* \"contracts/automation/log-trigger/EventEmitter.sol\":164:245  function emitCountLog() public {  ... */\n    tag_3:\n      tag_4\n      tag_5\n      jump\t// in\n    tag_4:\n      stop\n    tag_5:\n        /* \"contracts/automation/log-trigger/EventEmitter.sol\":225:235  msg.sender */\n      caller\n        /* \"contracts/automation/log-trigger/EventEmitter.sol\":212:236  WantsToCount(msg.sender) */\n      0xffffffffffffffffffffffffffffffffffffffff\n      and\n      0xe3cba3b68882650dc76730e77105080229f9f61f5c33b10e9aa239ff26d01d94\n      mload(0x40)\n      mload(0x40)\n      dup1\n      swap2\n      sub\n      swap1\n      log2\n        /* \"contracts/automation/log-trigger/EventEmitter.sol\":164:245  function emitCountLog() public {  ... */\n      jump\t// out\n\n    auxdata: 0xa2646970667358221220963774cf0e2f67aa1ad79bf79b43a8b7e51d17ce57f9b642dcad2a761d30511e64736f6c634300081f0033\n}\n",
				"bytecode": {
					"linkReferences": {},
					"object": "6080604052348015600e575f5ffd5b5060ad80601a5f395ff3fe6080604052348015600e575f5ffd5b50600436106026575f3560e01c80633ebca8e114602a575b5f5ffd5b60306032565b005b3373ffffffffffffffffffffffffffffffffffffffff167fe3cba3b68882650dc76730e77105080229f9f61f5c33b10e9aa239ff26d01d9460405160405180910390a256fea2646970667358221220963774cf0e2f67aa1ad79bf79b43a8b7e51d17ce57f9b642dcad2a761d30511e64736f6c634300081f0033",
					"opcodes": "PUSH1 0x80 PUSH1 0x40 MSTORE CALLVALUE DUP1 ISZERO PUSH1 0xE JUMPI PUSH0 PUSH0 REVERT JUMPDEST POP PUSH1 0xAD DUP1 PUSH1 0x1A PUSH0 CODECOPY PUSH0 RETURN INVALID PUSH1 0x80 PUSH1 0x40 MSTORE CALLVALUE DUP1 ISZERO PUSH1 0xE JUMPI PUSH0 PUSH0 REVERT JUMPDEST POP PUSH1 0x4 CALLDATASIZE LT PUSH1 0x26 JUMPI PUSH0 CALLDATALOAD PUSH1 0xE0 SHR DUP1 PUSH4 0x3EBCA8E1 EQ PUSH1 0x2A JUMPI JUMPDEST PUSH0 PUSH0 REVERT JUMPDEST PUSH1 0x30 PUSH1 0x32 JUMP JUMPDEST STOP JUMPDEST CALLER PUSH20 0xFFFFFFFFFFFFFFFFFFFFFFFFFFFFFFFFFFFFFFFF AND PUSH32 0xE3CBA3B68882650DC76730E77105080229F9F61F5C33B10E9AA239FF26D01D94 PUSH1 0x40 MLOAD PUSH1 0x40 MLOAD DUP1 SWAP2 SUB SWAP1 LOG2 JUMP INVALID LOG2 PUSH5 0x6970667358 0x22 SLT KECCAK256 SWAP7 CALLDATACOPY PUSH21 0xCF0E2F67AA1AD79BF79B43A8B7E51D17CE57F9B642 0xDC 0xAD 0x2A PUSH23 0x1D30511E64736F6C634300081F00330000000000000000 "
				},
				"gasEstimates": {
					"creation": {
						"codeDepositCost": "34600",
						"executionCost": "85",
						"totalCost": "34685"
					},
					"external": {
						"emitCountLog()": "1281"
					}
				},
				"methodIdentifiers": {
					"emitCountLog()": "3ebca8e1"
				}
			},
			"storageLayout": {
				"storage": [],
				"types": null
			},
			"userdoc": {
				"kind": "user",
				"methods": {},
				"version": 1
			}
		}
	}
}